:020000040800F2
:10000000500F002001020008854B000885490008B8
:10001000814B00087905000801A3000800000000DA
:10002000000000000000000000000000017C00084B
:10003000A905000800000000ED4D0008257E00081D
:100040001B0200081B020008817F00081B02000839
:100050001B0200081B0200081B0200081B0200080C
:100060001B0200081B0200081B0200089105000883
:100070009D0500081B0200081B0200081B02000867
:100080001B0200081B0200081B0200081B020008DC
:100090001B0200081B0200081B0200081B020008CC
:1000A0001B0200081B0200081B0200081B020008BC
:1000B0001B0200081B0200081B0200081B020008AC
:1000C0001B0200081B0200081B0200081B0200089C
:1000D000299800081B0200081B0200081B020008E8
:1000E0001B0200081B0200084D5000081B020008FC
:1000F0001B0200081B0200081B0200081B0200086C
:100100001B0200081B020008C96800081B02000847
:100110001B0200081B0200081B0200081B0200084B
:100120001B0200081B0200081B0200081B0200083B
:100130001B0200081B02000800F002F800F050F853
:1001400014A696E8000CB244B344DA4501D100F09D
:1001500047F8BAE80F000FA696E83000A5EB0405B3
:1001600004EB0607AAEB0704A7F101074FEA1515F0
:100170004FEA3414A4F10104AC4201D300F030F88A
:1001800013F0010F18BFFB1A43F0010300F001F850
:10019000DBE718479CAC0000BCAC0000103A24BF61
:1001A00078C878C1FAD8520724BF30C830C144BFDC
:1001B00004680C60704700007047000000230024B2
:1001C00000250026103A28BF78C1FBD8520728BF67
:1001D00030C148BF0B6070471FB51FBD10B510BDC3
:1001E00000F090F91146FFF7F7FF0AF08BF800F0E6
:1001F000AEF903B4FFF7F2FF03BC00F0B5F900005D
:100200000948804709480047FEE7FEE7FEE7FEE7AA
:10021000FEE7FEE7FEE7FEE7FEE7FEE704480549E6
:10022000054A064B704700007D7F00083901000831
:1002300050090020500F0020500B0020500B0020D0
:1002400053EA020C00F069802DE9F04B4FF00006F4
:10025000002B1FBFB3FA83F503FA05F424FA05F661
:100260005E4012BF1643B2FA82F502FA05F4C5F1F8
:1002700020051EBF22FA05FC44EA0C04203556EA8C
:10028000044C4FEA144418BF641C4FF000084FF0B0
:100290000009904271EB030C39D3002919BFB1FA60
:1002A00081F701FA07F6B0FA80F700FA07F6C7F10E
:1002B00020071EBF20FA07FC46EA0C062037B6FBD3
:1002C000F4FCA7EB0507103F07F01F0BCBF120064E
:1002D0002CFA06F60CFA0BFB44BFB3460026202F7F
:1002E000A4BF5E464FF0000B5BEA060C08BF4FF060
:1002F000010B19EB0B0948EB0608ABFB027C06FB74
:1003000002CC0BFB03CCC01B71EB0C01C1E70B460D
:10031000024641464846BDE8F08B13B5084318BF76
:100320004FF0FF300146AFF30080BDE81C4070473E
:1003300010B5431C02E010F8011B71B18107FAD11E
:100340004FF0013202C88C1A8C4314EAC211F9D062
:10035000C01A0A0603D0C01E10BDC01A10BD0A0480
:1003600001D0801E10BD0902FCD0401E10BD032A22
:1003700040F2308010F0030C00F0158011F8013BC2
:10038000BCF1020F624498BF11F801CB00F8013BA9
:1003900038BF11F8013BA2F1040298BF00F801CB6D
:1003A00038BF00F8013B11F0030300F07980083AF0
:1003B000C0F0088051F8043B083A51F804CBA0E89B
:1003C0000810F5E7121D5CBF51F8043B40F8043BF0
:1003D000AFF30080D20724BF11F8013B11F801CB25
:1003E00048BF11F8012B24BF00F8013B00F801CBF6
:1003F00048BF00F8012B704702F0FF0343EA0322D5
:1004000042EA024200F002B84FF000020429C0F0B4
:10041000128010F0030C00F01B80CCF1040CBCF136
:10042000020F18BF00F8012BA8BF20F8022BA1EB88
:100430000C0100F00DB85FEAC17C24BF00F8012B6D
:1004400000F8012B48BF00F8012B70474FF0000265
:1004500000B5134694469646203922BFA0E80C50BA
:10046000A0E80C50B1F12001BFF4F7AF090728BF95
:10047000A0E80C5048BF0CC05DF804EB890028BF11
:1004800040F8042B08BF704748BF20F8022B11F03A
:10049000804F18BF00F8012B7047704770477047B6
:1004A00010B5203AC0F00B80B1E81850A0E8185001
:1004B000B1E81850A0E81850203ABFF4F5AF5FEA51
:1004C000027C24BFB1E81850A0E8185044BF18C9F6
:1004D00018C0BDE810405FEA827C24BF51F8043B9D
:1004E00040F8043B08BF7047D20728BF31F8023BF1
:1004F00048BF11F8012B28BF20F8023B48BF00F885
:10050000012B7047754600F02BF8AE460500694692
:10051000534620F00700854618B020B5FFF77EFE51
:10052000BDE820404FF000064FF000074FF00008F4
:100530004FF0000BAC46ACE8C009ACE8C009ACE831
:10054000C009ACE8C00921F007018D46704710B51D
:100550000446AFF300802046BDE81040FFF749BED7
:10056000004870472000002001491820ABBEFEE77C
:100570002600020070470000FEE7000080B500F092
:100580001BF800F02DF8BDE8804000F01FB8000017
:1005900040F21070C2F2000000F032B940F2B060D8
:1005A000C2F2000000F02CB970470000EFF3108099
:1005B00072B600BFFEE7000042F20400CEF2040073
:1005C000016821F0010101607047000042F204005F
:1005D000CEF20400016821F00401016070470000C0
:1005E00042F20400CEF20400016821F00201016031
:1005F00070470000002804BF0120704790F82510C4
:1006000002292DD180B50168D0E910CE826C0B682B
:1006100023F00E030B60136823F4807313600A68E1
:1006200022F001020A600EF01C02012101FA02F21E
:10063000CCF80420D0E913325A60426D32B113680D
:1006400023F480731360D0E91623536080F82510DB
:100650000021BDE88040002280F824200846704731
:100660000421C1630121002280F82420084670473C
:1006700090F8251002292FD180B50168D0E910CE5D
:10068000826C0B6823F00E030B600B6823F00103F0
:100690000B60116821F4807111600EF01C020121C1
:1006A00001FA02F2CCF80420D0E913325A60426D0C
:1006B00032B1136823F480731360D0E916235360BA
:1006C00080F82510816B0022002980F8242018BFB3
:1006D0008847002080BD00BF0421C163012070470E
:1006E000002804BF012070470068CB06026805D5CA
:1006F000C90254BF22F4801242F48012026000202A
:100700007047000000284FF0010C04BF0120704723
:100710002DE9F04F40F20444D0E9002EC4F2020467
:100720004FF6F831231DCBF6FD719A4238BF01F523
:1007300080614CF6CD451144CCF6CC45A1FB051AA1
:1007400002F0FC01A1F10801A1FB051B116840F2B8
:10075000000921F00101C4F20209116009F580616C
:100760006FF003063CBF0021C4F2020104F583656B
:1007700006EA9A061C279A4238BF04F57F75C0E93D
:100780001016002107EA9A0711600CFA07F79A423F
:1007900038BF09F104042760072404EB1B149A42B4
:1007A00038BF4FEA1B1404F01F0240F680080CFA11
:1007B00002F3AEF10102C4F20208AF19032AC0E944
:1007C00012780365A951C8F8043008D8012708EB4E
:1007D000820307FA02F2C3F88010C8F8C420C0E907
:1007E0001511C165C0E90B11C0E90D11C16380F895
:1007F000251080F82410BDE8F04F0846704700002F
:1008000070B5D0E910C20168DCF8004002F01C03AA
:1008100004220E689A40224218BF16F0040523D124
:10082000022202FA03FE1EEA040F18BF16F00202AB
:100830002AD124FA03F2120714D516F0080208BFD1
:1008400070BD0A6822F00E020A60012101FA03F26B
:10085000CCF80420C16380F82510416B002280F899
:10086000242069B970BD00BF0B689B0603D40B68D8
:1008700023F004030B60CCF80420016B0029F1D0B5
:10088000BDE87040084700BF0A68920606D40A68AF
:1008900022F00A020A60012280F825200422C4F214
:1008A000020202F17C03994288BF02F58062C2F81D
:1008B00000E0C16A0022002980F82420E0D1D1E7BD
:1008C00000284FF0010100F091802DE9F04F002643
:1008D000C4F2020603684FF6F83706F58169CBF6D5
:1008E000FD774B4538BF07F580674CF6CD451F4473
:1008F000CCF6CC45A7FB057803F0FC07A7F1080769
:1009000040F6840EA7FB057BC4F2020E06F5806458
:100910006FF00305D0E902AC02693CBF0024C4F2C9
:100920000204AEF1680705EA98054B4538BF06F5A5
:100930000067C0E91045022480F825401C6847F68E
:10094000F07624EA06061E60466942EA0C028469D3
:100950003243C6692243046A32431E68224332434B
:1009600042EA0A021A604B454FF0070303EB1B13E0
:1009700038BF4FEA1B1303F01F037A19AEF10407C7
:1009800001FA03F3BAF5804FC7648264036505D1A9
:10099000002141601160CEF8003019E0416801F09B
:1009A0007F07013903294FF000011760CEF80030AE
:1009B0000ED87A1E0EEB820747F87C1F02F0030167
:1009C00001228A400EF1BC033946CEF8C02001E076
:1009D00000230022C0E91513C26500210122C16372
:1009E00080F8252080F82410BDE8F04F08467047B5
:1009F00090F824C0BCF1010F04BF022070474FF0F3
:100A0000010C80F824C090F825C0BCF1010F3BD147
:100A10002DE9F0414FF0020C80F825C04FF0000C9A
:100A2000C0F83CC0D0F800C000F14C0E9EE8304049
:100A3000DCF80060BEF1000F26F00106CCF8006083
:100A400065601CBFD0E916456560D0E910560127E6
:100A500006F01C06846807FA06F6D0F830806E604F
:100A6000CCF804300B46102C04BF13460A46CCF8D1
:100A70000830CCF80C20DCF80010B8F1000F0BD0D7
:100A800041F00E0110E000BF8021C163002180F819
:100A900024100120704700BF21F00401CCF80010A1
:100AA000DCF8001041F00A01CCF80010806C0168FD
:100AB000C90303D5016841F480710160BEF1000FE4
:100AC00005D0DEF8000040F48070CEF80000DCF8BD
:100AD000000040F00100CCF800000020BDE8F081EB
:100AE00081B00090009801B007F082BA002908BFD9
:100AF00070472DE9F04F82B040F60003C4F60003C2
:100B00000722984208BF0222009200F120020192BF
:100B1000019C4FF0000B00274FF0000A25E000BFBA
:100B20000668032202FA0BF52E436FF003020660FB
:100B300002EA5A0207F01C0EA3580F2606FA0EF618
:100B4000B343A3508268AA438260426822EA0C023F
:100B50004260C268AA43C2600AF1010A31FA0AF28D
:100B600007F104070BF1020B4CD0012202FA0AFC38
:100B70001CEA0108F0D008222AF00305C4F20102A1
:100B8000AB58B0F1904F0BD040F20042C4F60002D7
:100B9000DDF800E0904208BF4FF0010E02E000BF18
:100BA0004FF0000E07F00C05072202FA05F903EAE0
:100BB00009060EFA05F5AE42B2D140F60002C5F6BE
:100BC0000002D2F880604FEA9A0526EA0806C2F8C9
:100BD0008060D2F8846026EA0806C2F8846016684D
:100BE00026EA08061660566826EA080656600822B5
:100BF000C4F2010252F8256026EA090642F825608F
:100C00008EE700BF02B0BDE8F04F70472DE9F04F0E
:100C100082B00F68002F00F0BD8000F1200240F686
:100C200000030092C4F6000307224FF0000A0026DA
:100C30004FF00008984208BF022201924AE000BF2C
:100C400040F20042C4F60002019B904208BF01231B
:100C50000AF00C050727AF402CEA0707AB403B43DF
:100C600008274FEA9802C4F2010740F6000447F84B
:100C70002230C5F6000422684B6842EA0907DD020B
:100C800058BF22EA0907276062689D0242EA090705
:100C900058BF22EA09076760D4F88020DD0342EAE2
:100CA000090758BF22EA0907C4F88070D4F88420E5
:100CB0009B0342EA090758BF22EA0907C4F8847077
:100CC0000F6808F1010837FA08F206F102060AF186
:100CD000040A5FD0012202FA08FE17EA0E09EFD0DB
:100CE000D1F804C003220CF0030BABF1010302FAAC
:100CF00006F7012B6FEA070410D88368CF682340FA
:100D0000B7403B4383604368CCF3001723EA0E03EC
:100D100007FA08F73B43436006E000BFBBF1030F4F
:100D200002D14FF0030B1EE0C3688F682340B74029
:100D30003B43BBF1020FC36015D16FF00302009B70
:100D400002EA580E53F80EC00AF01C050F220F6974
:100D5000AA402CEA0202AF403A4343F80E20D1F8F1
:100D600004C00CF0030B02680BFA06F322401A438E
:100D70001CF4403F0260A3D0082328F00302C4F211
:100D8000010352F803C0B0F1904F7FF459AF002334
:100D90005EE700BF02B0BDE8F08F0000426902EAE2
:100DA0000103914341EA0341816170471823002AFE
:100DB00008BF2823C150704740F24A60C2F20000C9
:100DC000007801281CBF0020704707F0A1B900007F
:100DD00040F2000040F64811C2F20000C2F20001E9
:100DE00000780A68104408607047000080B503204E
:100DF00000F08EF800F052FB40F21401C2F2000144
:100E000008600F2000F008F800281CBF012080BDFA
:100E100000F028F8002080BDB0B540F20005C2F215
:100E200000052978E1B1044600F038FB29784FF439
:100E30007A72B2FBF1F1B0FBF1F002F0E7FE01468D
:100E40000F2C4FF001000AD8002918BFB0BD4FF099
:100E5000FF302146002200F02FF800206C60B0BD6A
:100E60000120B0BD70470000002848BF704700F067
:100E70001F01012202FA01F11C2202EAD0004EF207
:100E80008012CEF200028150BFF34F8FBFF36F8FFD
:100E900070470000002848BF704700F01F01012282
:100EA00002FA01F11C2202EAD0004EF20012CEF248
:100EB000000281507047000010B54EF60C5CCEF277
:100EC000000CDCF80030C3F3022E8EF00704042C73
:100ED00028BF0424BEF103034FF0FF3E0EFA04F4D2
:100EE00038BF0023A14399400EFA03F39A431143FC
:100EF00000F00F0200F160430901043A03F5644376
:100F00006244002848BF02F10C03197010BD0000B4
:100F10004EF60C51CEF200010A684FF6FF031A405C
:100F200060F30A2242F0806040F0FD700860704774
:100F300040F21440C5F6000050F8141C322221F48F
:100F4000804140F8141C40F21401C2F2000109680B
:100F500051434DF68362C4F21B32A1FB0212910C85
:100F60000268920511D581B1026892050DD501295B
:100F70000BD00268920508D5022906D002689205B6
:100F800003D50329A1F10401EAD1006803218005FA
:100F900001EAE0707047000040F20040C5F6000032
:100FA000016841F4804101607047000040F2004256
:100FB000C5F60002136802214EF6105C61F30203CD
:100FC000CEF2000C1360DCF80010012841F004019F
:100FD000CCF800100FBF30BF40BF20BF20BFDCF8EF
:100FE000000020F00400CCF80000704740F2004000
:100FF000C5F60000006800F4C060704740F2004091
:10100000C5F60000016841F480710160704700007E
:1010100010B540F21442C5F6000212680C4628B121
:10102000900558BFFFF7B8FF07E000BF900504D553
:10103000FFF77EFF002818BF10BD4EF61050CEF20D
:1010400000000168012C21F00401016004BF30BFE1
:1010500010BD40BF20BF20BF10BD0000F0B581B063
:10106000044680788826C007C5F6000600F0AC80EC
:10107000FFF7C4FFFFF7A0FE054600BFD6F87803D0
:10108000C00577D4FFF798FE401B0228F6D903204D
:101090002168CA0700F09D806268336823EA124322
:1010A00092B21A4332608A0740F19680A268336890
:1010B00023EA124392B21A4332608A0640F18F80CB
:1010C0002269336823F440631A4332608A0540F191
:1010D0008980226A33684FF6FF7767EA02073B4050
:1010E00043EA024232604A0540F17F80626A336817
:1010F0004FF6FF7767EA02073B4043EA024232605D
:101100000A0575D5A26A33684FF6FF7767EA0207CA
:101110003B4043EA024232604A066BD5626933685B
:101120006FF47F2767EA12173B4002F47F4243EADD
:10113000021232600A065FD5A26933686FF47F2716
:1011400067EA12173B4002F47F4243EA0212326020
:10115000CA0553D5E26933686FF47F2767EA12172F
:101160003B4002F47F4243EA02123260CA0657D57E
:1011700046E000BFB168606B01F4407181421ED04F
:10118000B168B26821F4407342F48032B260B26850
:10119000890722F480320146B260B3600FD5FFF7B1
:1011A0000BFE054641F28837B068800706D4FFF78A
:1011B00003FE401BB842F7D969E700BF616BB06816
:1011C00020F440700843B06000202168CA077FF413
:1011D00063AF8A073FF56AAF8A063FF571AF8A05AC
:1011E0003FF577AF4A053FF581AF0A053FF58AAF76
:1011F0004A0693D40A069FD4CA05ABD4CA060FD5B3
:10120000E2683368B2F5807F23F4407343EA020357
:10121000336005D156F87C2C42F0807246F87C2C65
:101220000A0407D5226B336823F0404343EA0203E4
:1012300033609AB1490419D5E16A3268B1F1005FAF
:1012400022F0405242EA010232600FD156F87C1C73
:1012500041F4803146F87C1C01B0F0BD56F87C2C7E
:1012600042F0807246F87C2C4904E5D401B0F0BD10
:101270002DE9F04381B0002800F0EA8044F2000834
:10128000C5F600080546D8F800000C4600F0070037
:10129000884215D2D8F8000020F007002043C8F893
:1012A0000000FFF789FD0646D8F8000000F00700AF
:1012B000A04205D0FFF780FD801B0228F4D977E01B
:1012C000286808278107C5F6000714D5A86839687B
:1012D00021F0F00108433860FFF76EFD064600BFBD
:1012E0003868C00306D4FFF767FD801B0228F7D9D2
:1012F0005EE000BF2868810615D56869D7F800113F
:1013000021F0F0010843C7F80001FFF755FD06463C
:10131000D7F80001800305D4FFF74EFD801B02289B
:10132000F6D945E02868410617D5A869D7F8001115
:1013300021F00F0141EA1010C7F80001FFF73CFD52
:10134000064600BFD7F80001C00305D4FFF734FDFF
:10135000801B0228F6D92BE02868410713D5E868DE
:10136000396821F4E06108433860FFF725FD06463F
:101370003868800306D4FFF71FFD801B0228F7D9C9
:1013800016E000BF2868010717D52869396821F4DD
:10139000605141EAC0003860FFF70EFD064600BF0D
:1013A0003868400308D4FFF707FD801B0228F7D9EF
:1013B000032001B0BDE8F0832868C0071ED1D8F82B
:1013C000000000F00700A04224D9D8F8000020F067
:1013D00007002043C8F80000FFF7EEFC054600BFF9
:1013E000D8F8000000F00700A04213D0FFF7E4FC9B
:1013F000401B02284FF00300F2D947E068684FF025
:10140000B041096840B3032820D0022842D18903A3
:101410001ED523E000F08CF839683C2202EA9101E5
:101420004AF61832C0F60002515840F21402B0FBDE
:10143000F1F140F20400C2F200000068C2F20002C2
:10144000116001B0BDE8F043FFF7E6BC890105D4A7
:10145000012001B0BDE8F0838907F9D5396821F092
:10146000030108433860FFF7A7FC064641F28839BC
:101470003868696800F00C00B0EB810F9FD0FFF76F
:101480009BFC801B48454FF00300F1D901B0BDE83B
:10149000F08300BF4905DBD5E0E7000080B500F030
:1014A00047F80821C5F6000109683C2202EA9101CB
:1014B0004AF61832C0F600025158B0FBF1F080BD78
:1014C00080B500F035F80821C5F600010A683C2314
:1014D00003EA92024AF61833C0F600039A580968E4
:1014E000B0FBF2F04AF65832C1F30221C0F6000216
:1014F00052F82110C84080BD80B500F019F80821CD
:10150000C5F600010A683C2303EA92024AF6183342
:10151000C0F600039A580968B0FBF2F04AF6583258
:10152000C1F3C221C0F6000252F82110C84080BDAC
:101530000C21C5F6000151F8040C10F00C020868EB
:1015400005D00C2A16D100F00300012812D14FF06B
:10155000B040036800681B0706D400071CD4D1F80C
:101560008800C0F3032022E000071BD4D1F88800D4
:1015700015E000BF42F20040042AC0F2F40022D07D
:10158000082A1FD14FF0B0421268D2025CBF44F665
:101590000000C0F2E81016E04FF0B04000680020F4
:1015A00005E000BF4FF0B0400068C0F303104AF6FA
:1015B0002C43C0F6000353F82030002A184618BF09
:1015C000002001E00020002351F8042C02F00C025E
:1015D0000C2A18BF7047086800F0030242F200406E
:1015E000022AC0F2F4000AD0032A09D14FF0B04217
:1015F0001268D2025CBF44F60000C0F2E810034655
:1016000008680A68C0F30620C2F302125843013288
:101610000968B0FBF2F0012202EB5171B0FBF1F06E
:1016200070470000002804BF012070472DE9F04FEB
:1016300081B040F2900B0446C5F6000B5BF8880CB5
:101640005BF8841C227800F00C08900601F0030A75
:1016500026D42078C00759D0B8F1080F52D0B8F17D
:101660000C0F08BFBAF1030F4CD04FF0B040026826
:10167000D4E9011322F480121A4302600268B1F522
:10168000803F09D0B1F5041F40F0348242F40011CC
:101690004FF0B0421160126842F48031016035E2CF
:1016A000B8F1000F1ED0B8F10C0F08BFBAF1010F4E
:1016B00018D0216A4FF0B0463068002900F06881E8
:1016C00040F001003060FFF777FB05463068800787
:1016D00000F18681FFF770FB401B02284FF00300EA
:1016E000F4D957E3206A002800F0B4824FF0B041EB
:1016F000A06A0A68120700F1D380DBF80410090918
:10170000CFE000BF6068002800F0A4822078800746
:101710002FD5B8F1040F1FD0B8F10C0F08BFBAF1E4
:10172000020F19D021694FF0B0463068002900F04F
:10173000FF8140F480703060FFF73EFB054600BF3C
:10174000306840050CD4FFF737FB401B02284FF0F0
:101750000300F5D91EE300BF2069002800F07A825B
:1017600060695BF88C1C21F0FE4141EA00604BF897
:101770008C0C2078000729D42078400752D4E56AE1
:10178000002D00F0D482B8F10C0F40F03F81012D04
:1017900000F060825BF8840C216B00F003028A4247
:1017A00040F05882616B00F070028A4240F0528231
:1017B000A16B00F4FE42B2EB012F40F04B82616C52
:1017C00000F06040884200F0B28243E2A069DBF89A
:1017D0000410002800F0EE80E06901F01002904251
:1017E00000F0C28201F00302022A00F03382C9072E
:1017F00000F0B382DBF8040020F00100CBF8040015
:10180000FFF7DAFA054600BFDBF80400800740F175
:10181000A382FFF7D1FA401B11284FF00300F3D940
:10182000B8E200BFDBF87003C00511D4FFF7E6FB98
:10183000FFF7C2FA054600BFDBF87003C00507D406
:10184000FFF7BAFA401B02284FF00300F4D9A1E2D7
:10185000E068002800F07E81852801D0052805D1A8
:10186000DBF8000040F00400CBF80000FFF7A4FA1A
:10187000DBF80010054641F0010041F28836CBF854
:10188000000000BFDBF80000800700F11381FFF7C4
:1018900093FA401BB0424FF00300F3D97AE200BF45
:1018A000096801F0F00144F2000688424AF618394E
:1018B0004AF62C41C5F60006C0F60009C0F6000144
:1018C00028D93C2202EA90000858DBF8781001F091
:1018D0000F0159F82110B0FBF1F5FFF787FBB0F5C8
:1018E000007F40F0B7804EF6BF20C0F22110854245
:1018F00040F2DC8049F23F30C0F23420854240F2B1
:1019000043814AF63F60C0F2EB20854240F2B68048
:10191000002740E14FF0B042136843F00803136022
:10192000136823F0F00303431360626A5BF88C3C96
:1019300023F47F4343EA02224BF88C2C6FF003021E
:1019400002EA90000858DBF8781001F00F0159F80E
:101950002110B0FBF1F5FFF749FBB0F5007F40F037
:101960008F804EF6BF20C0F22110854240F2A08049
:1019700049F23F30C0F23420854240F251814AF6AC
:101980003F60C0F2EB20854240F28E8000274EE19E
:1019900020F001003060FFF70FFA0546306880073D
:1019A0007FF557AEFFF708FA401B02284FF00300FF
:1019B000F4D9EFE121F00100CBF80400FFF7FCF9C6
:1019C000054600BFDBF8040080077FF5D5AEFFF7C2
:1019D000F3F9401B11284FF00300F3D9DAE100BFFF
:1019E0004FF0B040016841F0080101600168D4E99E
:1019F000092321F0F001194301605BF88C0C20F4FD
:101A00007F4040EA02204BF88C0C22E64FF0B046B3
:101A1000306820F080703060FFF7CEF9022D054667
:101A20000CD100BF3068800140F14881FFF7C4F954
:101A3000401B0A284FF00300F4D9ABE13068800165
:101A400040F16C81FFF7B8F9401B0A284FF0030002
:101A5000F4D99FE14CF6BF70C0F26A00854225D9E7
:101A600045F63F50C0F2C600854240F28D8046F2F6
:101A70003F60C0F2031085423FF64AAF022084E087
:101A80004CF6BF70C0F26A00854211D945F63F504E
:101A9000C0F2C600854240F2C38046F23F60C0F209
:101AA000031085423FF672AF0220BAE000206CE0DE
:101AB0000020B6E0E06840F00400852840F0CE80C9
:101AC000FFF77AF9DBF80010054641F0800041F29B
:101AD0008836CBF8000000BFDBF8000000053FF5BA
:101AE0004EAEFFF769F9401BB0424FF00300F3D947
:101AF00050E100BF22F480304FF0B04630603068D3
:101B0000002920F40010306000F01681FFF754F92E
:101B100005464FF0B04600BF306880033FF5F6AD94
:101B2000FFF74AF9401B64284FF00300F4D931E174
:101B300020F480703060FFF73FF9054630684005BB
:101B40007FF517AEFFF738F9401B02284FF003006E
:101B5000F4D91FE1FFF730F9DBF80010064621F059
:101B6000800041F28837CBF8000000BFDBF800505E
:101B7000FFF722F92905054640F18A80A81BB842E3
:101B80004FF00300F2D905E101204AF60C31C0F60E
:101B9000000151F82070306820F0070038433060B1
:101BA000FFF70AF9054600BF306800F00700B842A9
:101BB00006D0FFF701F9401B0228F5D94AE000BF23
:101BC0004FF0B040016841F0080101600168D4E9BC
:101BD000092321F0F001194301605BF88C0C20F41B
:101BE0007F4040EA02204BF88C0CFFF7A1FC5BF829
:101BF000881C3C2202EA910159F8011040F21402BB
:101C0000B0FBF1F140F20400C2F200000068C2F241
:101C100000021160FFF700F9002840F0BB8018E5D2
:101C200001204AF60C31C0F6000151F820703068EE
:101C300020F0070038433060FFF7BEF8054600BFCC
:101C4000306800F00700B842CFD0FFF7B5F8401B6E
:101C50000228F5D9012001B0BDE8F08FFFF7ACF8FC
:101C6000DBF80010054621F0800041F28836CBF801
:101C7000000000BFDBF8000000057FF580ADFFF736
:101C80009BF8401BB0424FF00300F3D982E000BF45
:101C9000DBF8000041F2883620F00100CBF80000AC
:101CA000DBF8000080077FF56AADFFF785F8401B81
:101CB000B0424FF00300F3D96CE000BF5BF8840C36
:101CC00048F28C01C1F2C11104F1300708408ECFF7
:101CD000D4E910650843104340EA032038433043F9
:101CE00028434BF8840C4FF0B045286840F08070D2
:101CF00028605BF8840C40F080504BF8840CFFF7B0
:101D00005BF804462868800111D4FFF755F8001BE2
:101D10000A284FF00300F5D93CE000BF5BF8840CC3
:101D20004FF6FC71CEF6FE6108404BF8840C0020A3
:101D300001B0BDE8F08F00BFFFF73EF8054600BFD9
:101D4000306880037FF5E2ACFFF736F8401B64286B
:101D50004FF00300F4D91DE0E069DBF8041021F036
:101D600010010843CBF80400DBF8040040F0010048
:101D7000CBF80400FFF720F8054600BFDBF80400AD
:101D800080073FF5F9ACFFF717F8401B11284FF01B
:101D90000300F3D901B0BDE8F08F000070470000E8
:101DA0004BF20010C4F2000050F821007047000010
:101DB0004BF20010C4F2000040F8212070470000F0
:101DC00090F82C1001294FF0020117D080F82D1047
:101DD00042F62401C4F20001CA220A6053220A60BA
:101DE00051F80C2C42F0200241F80C2CFF220A6022
:101DF000012180F82D10002180F82C100846704732
:101E000010B540F27074C2F2000420460221FFF7C0
:101E1000C7FF421C20460221BDE81040FFF7C8BFA3
:101E200010B542F65401C4F200010A680446520695
:101E300004D5402088602046FFF7E2FF012084F8A7
:101E40002D0010BD90F82C1001294FF002011FD079
:101E500080F82D1042F62401C4F20001CA220A6063
:101E600053220A6051F80C2C42F0800241F80C2CED
:101E700040F68002C5F60002136843F48023136025
:101E8000FF220A60012180F82D10002180F82C101B
:101E90000846704707F0FABF70B542F65C05044685
:101EA000C4F2000555F8080C216B01EA0006F007A2
:101EB00006D1B0070BD4012084F82D0070BD00BFFF
:101EC000012028602046FFF7E5FFB007F3D5022088
:101ED00028602046FFF762FF012084F82D0070BDC6
:101EE00090F82C20012A4FF002023CD0B0B542F607
:101EF000240CC4F2000CCA2380F82D20CCF800304A
:101F00005323CCF800305CF80CEC6FF40853B1F5B7
:101F1000807F08BF6FF488534FF028046FF00205EC
:101F200003EA0E0308BF202408BF6FF001054CF838
:101F30000C3C54F80C30B1F5807F23F0004144F89C
:101F40000C10016B08BF012229400163FF21CCF86E
:101F50003820CCF800100121002280F82D1080F8E4
:101F60002C20BDE8B040104670470000002804BF98
:101F70000120704770B5044690F82D0028B9002064
:101F800084F82C00204600F061F842F60C0602208E
:101F9000C4F2000684F82D003068C00648D4CA2078
:101FA000B0615320B0613068400612D4306840F010
:101FB00080003060FEF700FF3168490609D405460D
:101FC000FEF7FAFE401BB0F57A7F37D8306840063E
:101FD000F6D5F0684FF6BF71CFF68F310840F0604C
:101FE000231D22690BCB1043A269F56810432843D7
:101FF000F06043EA014070603068D4E9091220F4CF
:10200000F850084310433060204603F025F818B11B
:10201000FF21B16170BD00BFF068D4E9071220F064
:1020200060406369104308431843F060FF20B061CB
:10203000012084F82D00002070BD00BF032084F82B
:102040002D003168FF21B16170BD000010B590B066
:10205000044601A804303021FEF7F8F9206842F662
:102060000001C4F20001884202D010B010BD00BFD0
:102070004FF4803001904FF480700E9001A8FEF76D
:10208000EDFF002818BFFEF791FA5820C5F60000B2
:10209000816B002241F400418163016841F4806159
:1020A00001600068002100F480600F900F9802200A
:1020B000FEF702FF0220FEF7EDFE2A20002100229B
:1020C000FEF7FAFE2A20FEF7E5FE10B010BD000074
:1020D00090F82C30012B4FF0020300F0FA802DE92C
:1020E000F04742F6180C0124C4F2000C80F82C4092
:1020F00080F82D305CF80C3C03F4407ABAF5807F10
:1021000002D100228AE000BFF2B14A69B2F1803FF9
:1021100008D0B2F5000F05D0DCF800305B065CBFDC
:102120000023CB700B784F788E781B04CD7843EA70
:1021300007230C6A334491F824E043EA8553234390
:1021400043EA0E631A4369E0DCF80020520605D426
:102150004FF0000E81F803E003E000BFCA784FEAB9
:10216000825E0D784FF0CD08A5F10A02D7B207FBC9
:1021700008F7FF0A07EB87034E785FFA85F9A2EBB1
:1021800043028C7802EB0712B9F1090F88BF02F104
:1021900010055FFA85F9A6F10A05EFB207FB08F70B
:1021A000FF0A07EB8702F3B2A5EB420202EB07122C
:1021B000092B88BF02F11006A4F10A05F2B2EEB2B3
:1021C00006FB08F6F60A06EB8607E3B2A5EB470521
:1021D00005EB0615092B88BF05F11004E3B291F851
:1021E00024401202A4F10A05EEB206FB08F6F60A34
:1021F00042EA094206EB86071A44E3B2A5EB47051B
:1022000005EB0615092B88BF05F110040B6A4D6913
:1022100043EA0E032B431A4342EA0462CA23CCF872
:102220000C305323CCF80C308B6ADCF80040B3F54B
:10223000807F0DD124F48853CCF800300123BAF507
:10224000807FCCF8443011D1D1E906231A4310E045
:1022500024F40853CCF800300223BAF5807FCCF880
:1022600044300FD1D1E906231A430EE0CCF82820E0
:102270008A69CCF82C200CF158034FF488520124C1
:102280000AE000BFCCF830208A69CCF834200CF189
:102290005C034FF40852022449681960016B002363
:1022A00021430163DCF800101143CCF8001040F624
:1022B0008001C5F600010A6842F400320A60FF217D
:1022C000CCF80C10012180F82D1080F82C30BDE8DE
:1022D000F0471846704700004EF21000CEF20000A2
:1022E000016841F0020101607047000051B101290D
:1022F00018BF70474FF4807040F20411C2F2000121
:1023000089680847802040F20411C2F20001896800
:102310000847000040F20410C2F20000816840202B
:10232000084700002DE9F04182B08779012F02D1E2
:102330004779012F04D1022002B0BDE8F08100BF2F
:10234000067940F2904C40F2140EC5F6000C0127BD
:10235000012EC2F2000E477127D1DEF8004004EBD7
:102360004404C4F34F340094DCF8004024F40044E7
:10237000CCF80040009C013C0094009C7CB1009C87
:10238000013C0094009C54B1009C013C0094009CD2
:102390002CB1009C013C0094009C002CEAD1DCF89C
:1023A000004044F40044CCF80040DEF800406425CE
:1023B00004EB4404C4F34B446C4301945CF87C4C40
:1023C000019D5DB1019DA408013D01955CF87C5C17
:1023D00004EA5504E407F1D102E000BF022484605E
:1023E000DCF80040642624F40044CCF80040DEF819
:1023F00000500824C5EBC505C5F34C45C5F60104DE
:1024000075430195019DFDB1019D013D0195256833
:10241000AD071BD4019DBDB1019D013D019525680E
:10242000AD0713D4019D7DB1019D013D0195256846
:10243000AD070BD4019D3DB1019D013D019525687E
:10244000AD07DFD502E000BF012585602171DEF810
:1024500000106425C1EBC101C1F34C4169430191F6
:10246000019DFDB1019D013D01952568ED071BD141
:10247000019DBDB1019D013D01952568ED0713D179
:10248000019D7DB1019D013D01952568ED070BD1B1
:10249000019D3DB1019D013D01952568ED07DFD00E
:1024A00002E000BF01258560656801910199F9B1DD
:1024B000019901390191216889071BD40199B9B1AA
:1024C0000199013901912168890713D4019979B1E2
:1024D000019901390191216889070BD4019939B11A
:1024E00001990139019121688907DFD502E000BF18
:1024F0000121816000212171DEF800106425C1EB0B
:10250000C101C1F34C41694301910199F1B10199B4
:10251000013901912168C9071AD10199B1B1019915
:10252000013901912168C90712D1019971B101994D
:10253000013901912168C9070AD1019931B1019985
:10254000013901912168C907DFD001E001218160D3
:102550006168002B66D00021642501264FF0FF083A
:1025600007E000BF866067680131994202F8017B8D
:1025700058D2DEF80070C7EBC707C7F34C476F436C
:102580000197019FF7B1019F013F01972768BF079E
:1025900019D4019FB7B1019F013F01972768BF0779
:1025A00011D4019F77B1019F013F01972768BF07B1
:1025B00009D4019F37B1019F013F01972768BF07E9
:1025C000DFD500E0866084F80480DEF80070C7EB99
:1025D000C707C7F34C476F430197019F002FC1D036
:1025E000019F013F01972768FF07BCD1019F002F82
:1025F000B8D0019F013F01972768FF07B3D1019F22
:10260000002FAFD0019F013F01972768FF07AAD194
:10261000019F002FA6D0019F013F01972768FF0768
:10262000DBD0A0E7DCF80010642241F40041CCF8D4
:102630000010DEF8001001EB4101C1F34B415143A2
:10264000019100BF5CF87C1C019A5AB1019A89087B
:10265000013A01925CF87C2C01EA5201C907F1D1E0
:1026600002E000BF0221816081680122002918BFB9
:102670000121827100224271084602B0BDE8F0815A
:102680002DE9F04382B08779012F02D14779012FDC
:1026900004D1022002B0BDE8F08300BF067940F209
:1026A000904C40F2140EC5F6000C0127012EC2F228
:1026B000000E477127D1DEF8004004EB4404C4F358
:1026C0004F340094DCF8004024F40044CCF800407F
:1026D000009C013C0094009C7CB1009C013C009457
:1026E000009C54B1009C013C0094009C2CB1009CC7
:1026F000013C0094009C002CEAD1DCF8004044F43A
:102700000044CCF80040DEF80040642504EB4404AB
:10271000C4F34B446C4301945CF87C4C019D5DB167
:10272000019DA408013D01955CF87C5C04EA550418
:10273000E407F1D102E000BF0224846001F0EF045D
:10274000843CB4FA84F464090471DCF80040642623
:1027500024F40044CCF80040DEF800500824C5EB17
:10276000C505C5F34C45C5F6010475430195019DAA
:10277000F5B1019D013D01952568AD071AD4019D74
:10278000B5B1019D013D01952568AD0712D4019DAC
:1027900075B1019D013D01952568AD070AD4019DE4
:1027A00035B1019D013D01952568AD07DFD501E0FB
:1027B000012585602171DEF800506427C5EBC50650
:1027C000C6F34C467E430196019EFEB1019E013E3A
:1027D00001962668F6071BD1019EBEB1019E013EFF
:1027E00001962668F60713D1019E7EB1019E013E37
:1027F00001962668F6070BD1019E3EB1019E013E6F
:1028000001962668F607DFD002E000BF0126866049
:102810006668002B68D000264FF064094FF001086D
:1028200006E000BFC0F80880013667689E425BD0B2
:10283000C5EBC505975DC5F34C4505FB09F501954D
:10284000019DFDB1019D013D01952568AD071BD49A
:10285000019DBDB1019D013D01952568AD0713D4D2
:10286000019D7DB1019D013D01952568AD070BD40A
:10287000019D3DB1019D013D01952568AD07DFD565
:1028800002E000BFC0F808802771DEF80050C5EBF9
:10289000C507C7F34C4707FB09F70197019F002FB6
:1028A000C0D0019F013F01972768FF07BCD1019F5E
:1028B000002FB7D0019F013F01972768FF07B3D1D1
:1028C000019F002FAED0019F013F01972768FF07AE
:1028D000AAD1019F002FA5D0019F013F0197276832
:1028E000FF07DBD0A0E700BFDCF80020842942F41A
:1028F0000042CCF800201BD0DEF80010642201EB6F
:102900004101C1F34B415143019100BF5CF87C1C74
:10291000019A5AB1019A8908013A01925CF87C2C1B
:1029200001EA5201C907F1D102E000BF0221816032
:1029300081680122002918BF0121827100224271A1
:10294000084602B0BDE8F08340F20410C2F2000075
:10295000816820200847000040F20410C2F2000005
:1029600081681020084700002DE9F04182B004463C
:1029700000200DF10605ADF80600204612212A467A
:102980000223FFF7CFFC9DF907709DF806802046D3
:1029900002212A460223FEB2FFF772FEF80721D178
:1029A000B00724D4700727D430072AD4F0062DD4DA
:1029B000B00630D4700633D4B7F1FF3F36DD5FEA9E
:1029C000887002D5204600F057FD5FEA48605CBF82
:1029D00002B0BDE8F081204602B0BDE8F04100F051
:1029E000C1B800BF204600F057FDB007DAD5204639
:1029F00000F03AFD7007D7D5204600F0D5F8300733
:102A0000D4D5204600F040FDF006D1D52046FFF792
:102A1000A3FFB006CED52046FFF796FF7006CBD5B4
:102A20002046FFF777FCB7F1FF3FC8DC08F0010153
:102A30002046FFF75BFC5FEA8870C3D4C5E700005F
:102A4000002804BF0120704770B582B086799425B4
:102A50000446032EC5F6000501D0002E4ED10020FD
:102A60006071204600F086F840F69000C5F6000040
:102A70000168002E41F4805101603FD10220A07115
:102A80002868642120F40040286040F21400C2F25B
:102A900000000068C0EBC000C0F34C404843019008
:102AA0000198002848D00198013801902868400416
:102AB00018D5019800283FD0019801380190286866
:102AC00040040FD50198B8B30198013801902868E7
:102AD000400407D5019878B301980138019028681F
:102AE0004004DDD4D5F8FC0340F40040C5F8FC03F5
:102AF000D5F8740340F40060C5F874034FF4006027
:102B00000021C5F88403C5F6010120680A6840F475
:102B1000417022F040020A6008604FF4B8504860EB
:102B2000086840F040000860012020710020A0608B
:102B30000121A17102B070BD0120A060D5F8FC1385
:102B400041F40041C5F8FC13D5F8741341F4006159
:102B5000C5F874134FF40061C5F884130121A17105
:102B600002B070BD40F20410C2F2000081684FF460
:102B70008040084780B582B06420C5F60000016837
:102B8000002241F0010101600068002100F0010015
:102B9000019001983220FEF78FF9322002B0BDE893
:102BA0008040FEF777B9000040F20410C2F2000046
:102BB00081680420084700002DE9F04182B0877940
:102BC000012F02D14779012F04D1022002B0BDE8C4
:102BD000F08100BF067940F2904C40F2140EC5F629
:102BE000000C0127012EC2F2000E477127D1DEF83A
:102BF000004004EB4404C4F34F340094DCF800407C
:102C000024F40044CCF80040009C013C0094009C5B
:102C10007CB1009C013C0094009C54B1009C013CA0
:102C20000094009C2CB1009C013C0094009C002C62
:102C3000EAD1DCF8004044F40044CCF80040DEF86F
:102C40000040642504EB4404C4F34B446C430194FA
:102C50005CF87C4C019D5DB1019DA408013D01958E
:102C60005CF87C5C04EA5504E407F1D102E000BFA3
:102C700002248460DCF80040642624F40044CCF88C
:102C80000040DEF800500824C5EBC505C5F34C45EF
:102C9000C5F6010475430195019DFDB1019D013DFE
:102CA00001952568AD071BD4019DBDB1019D013D76
:102CB00001952568AD0713D4019D7DB1019D013DAE
:102CC00001952568AD070BD4019D3DB1019D013DE6
:102CD00001952568AD07DFD502E000BF01258560BD
:102CE0001E252571DEF800506426C5EBC505C5F329
:102CF0004C4575430195019EF6B1019E013E01963A
:102D00002668F6071AD1019EB6B1019E013E0196D2
:102D10002668F60712D1019E76B1019E013E01960A
:102D20002668F6070AD1019E36B1019E013E019642
:102D30002668F607DFD001E0012686606668019507
:102D4000019DFDB1019D013D01952568AD071BD495
:102D5000019DBDB1019D013D01952568AD0713D4CD
:102D6000019D7DB1019D013D01952568AD070BD405
:102D7000019D3DB1019D013D01952568AD07DFD560
:102D800002E000BF012585602171DEF80010642596
:102D9000C1EBC101C1F34C4169430191019DFDB1FA
:102DA000019D013D01952568ED071BD1019DBDB138
:102DB000019D013D01952568ED0713D1019D7DB170
:102DC000019D013D01952568ED070BD1019D3DB1A8
:102DD000019D013D01952568ED07DFD002E000BFB0
:102DE00001258560656801910199F9B10199013961
:102DF0000191216889071BD40199B9B10199013961
:102E000001912168890713D4019979B10199013998
:102E10000191216889070BD4019939B101990139D0
:102E2000019121688907DFD502E000BF012181609F
:102E300000212171DEF800106425C1EBC101C1F34E
:102E40004C41694301910199F1B101990139019115
:102E50002168C9071AD10199B1B1019901390191CC
:102E60002168C90712D1019971B101990139019104
:102E70002168C9070AD1019931B10199013901913C
:102E80002168C907DFD001E0012181606168002B62
:102E900066D00021642501264FF0FF0807E000BF3F
:102EA000866067680131994202F8017B58D2DEF8EA
:102EB0000070C7EBC707C7F34C476F430197019FEB
:102EC000F7B1019F013F01972768BF0719D4019F00
:102ED000B7B1019F013F01972768BF0711D4019F38
:102EE00077B1019F013F01972768BF0709D4019F70
:102EF00037B1019F013F01972768BF07DFD500E089
:102F0000866084F80480DEF80070C7EBC707C7F35B
:102F10004C476F430197019F002FC1D0019F013F94
:102F200001972768FF07BCD1019F002FB8D0019FF0
:102F3000013F01972768FF07B3D1019F002FAFD052
:102F4000019F013F01972768FF07AAD1019F002F2A
:102F5000A6D0019F013F01972768FF07DBD0A0E7BC
:102F6000DCF80010642241F40041CCF80010DEF8D7
:102F7000001001EB4101C1F34B415143019100BFEE
:102F80005CF87C1C019A5AB1019A8908013A0192B5
:102F90005CF87C2C01EA5201C907F1D102E000BFC4
:102FA0000221816081680122002918BF01218271FC
:102FB00000224271084602B0BDE8F0812DE9F041DF
:102FC00082B08779012F02D14779012F04D10220E5
:102FD00002B0BDE8F08100BF067940F2904C40F2AB
:102FE000140EC5F6000C0127012EC2F2000E477127
:102FF00027D1DEF8004004EB4404C4F34F340094BE
:10300000DCF8004024F40044CCF80040009C013C73
:103010000094009C7CB1009C013C0094009C54B145
:10302000009C013C0094009C2CB1009C013C00944D
:10303000009C002CEAD1DCF8004044F40044CCF8B9
:103040000040DEF80040642504EB4404C4F34B4424
:103050006C4301945CF87C4C019D5DB1019DA4081A
:10306000013D01955CF87C5C04EA5504E407F1D16C
:1030700002E000BF02248460DCF80040642624F4EF
:103080000044CCF80040DEF800500824C5EBC5052C
:10309000C5F34C45C5F6010475430195019DFDB18D
:1030A000019D013D01952568AD071BD4019DBDB172
:1030B000019D013D01952568AD0713D4019D7DB1AA
:1030C000019D013D01952568AD070BD4019D3DB1E2
:1030D000019D013D01952568AD07DFD502E000BFE8
:1030E000012585601D252571DEF800506426C5EB9D
:1030F000C505C5F34C4575430195019EF6B1019E8A
:10310000013E01962668F6071AD1019EB6B1019ECE
:10311000013E01962668F60712D1019E76B1019E06
:10312000013E01962668F6070AD1019E36B1019E3E
:10313000013E01962668F607DFD001E00126866091
:1031400066680E0A0195019DF5B1019D013D01954D
:103150002568AD071AD4019DB5B1019D013D0195CA
:103160002568AD0712D4019D75B1019D013D019502
:103170002568AD070AD4019D35B1019D013D01953A
:103180002568AD07DFD501E0012585602671DEF8F1
:1031900000506426C5EBC505C5F34C457543019544
:1031A000019EFEB1019E013E01962668F6071BD1E5
:1031B000019EBEB1019E013E01962668F60713D11D
:1031C000019E7EB1019E013E01962668F6070BD155
:1031D000019E3EB1019E013E01962668F607DFD0B2
:1031E00002E000BF0126866066680195019DFDB181
:1031F000019D013D01952568AD071BD4019DBDB121
:10320000019D013D01952568AD0713D4019D7DB158
:10321000019D013D01952568AD070BD4019D3DB190
:10322000019D013D01952568AD07DFD502E000BF96
:10323000012585602171DEF800106425C1EBC10114
:10324000C1F34C4169430191019DFDB1019D013DD7
:1032500001952568ED071BD1019DBDB1019D013D83
:1032600001952568ED0713D1019D7DB1019D013DBB
:1032700001952568ED070BD1019D3DB1019D013DF3
:1032800001952568ED07DFD002E000BF01258560CC
:10329000656801910199F9B101990139019121689C
:1032A00089071BD40199B9B10199013901912168AC
:1032B000890713D4019979B10199013901912168E4
:1032C00089070BD4019939B101990139019121681C
:1032D0008907DFD502E000BF012181600021217153
:1032E000DEF800106425C1EBC101C1F34C41694314
:1032F00001910199F1B10199013901912168C90741
:103300001AD10199B1B10199013901912168C90717
:1033100012D1019971B10199013901912168C9074F
:103320000AD1019931B10199013901912168C90787
:10333000DFD001E0012181606168002B66D00021AF
:10334000642501264FF0FF0807E000BF866067682C
:103350000131994202F8017B58D2DEF80070C7EBC8
:10336000C707C7F34C476F430197019FF7B1019F10
:10337000013F01972768BF0719D4019FB7B1019F8B
:10338000013F01972768BF0711D4019F77B1019FC3
:10339000013F01972768BF0709D4019F37B1019FFB
:1033A000013F01972768BF07DFD500E0866084F8FA
:1033B0000480DEF80070C7EBC707C7F34C476F43C4
:1033C0000197019F002FC1D0019F013F01972768FE
:1033D000FF07BCD1019F002FB8D0019F013F01978B
:1033E0002768FF07B3D1019F002FAFD0019F013F96
:1033F00001972768FF07AAD1019F002FA6D0019F40
:10340000013F01972768FF07DBD0A0E7DCF8001039
:10341000642241F40041CCF80010DEF8001001EB0A
:103420004101C1F34B415143019100BF5CF87C1C49
:10343000019A5AB1019A8908013A01925CF87C2CF0
:1034400001EA5201C907F1D102E000BF0221816007
:1034500081680122002918BF012182710022427176
:10346000084602B0BDE8F08140F20410C2F200004C
:10347000816802200847000040F20410C2F20000F8
:1034800081684FF40070084740F20410C2F2000057
:10349000816808200847000040F20410C2F20000D2
:1034A00081680120084700002DE9F04182B087794A
:1034B000012F02D14779012F04D1022002B0BDE8CB
:1034C000F08100BF067940F2904C40F2140EC5F630
:1034D000000C0127012EC2F2000E477127D1DEF841
:1034E000004004EB4404C4F34F340094DCF8004083
:1034F00024F40044CCF80040009C013C0094009C63
:103500007CB1009C013C0094009C54B1009C013CA7
:103510000094009C2CB1009C013C0094009C002C69
:10352000EAD1DCF8004044F40044CCF80040DEF876
:103530000040642504EB4404C4F34B446C43019401
:103540005CF87C4C019D5DB1019DA408013D019595
:103550005CF87C5C04EA5504E407F1D102E000BFAA
:1035600002248460DCF80040642624F40044CCF893
:103570000040DEF800500824C5EBC505C5F34C45F6
:10358000C5F6010475430195019DFDB1019D013D05
:1035900001952568AD071BD4019DBDB1019D013D7D
:1035A00001952568AD0713D4019D7DB1019D013DB5
:1035B00001952568AD070BD4019D3DB1019D013DED
:1035C00001952568AD07DFD502E000BF01258560C4
:1035D0000E252571DEF800506426C5EBC505C5F340
:1035E0004C4575430195019EF6B1019E013E019641
:1035F0002668F6071AD1019EB6B1019E013E0196DA
:103600002668F60712D1019E76B1019E013E019611
:103610002668F6070AD1019E36B1019E013E019649
:103620002668F607DFD001E001268660666801950E
:10363000019DFDB1019D013D01952568AD071BD49C
:10364000019DBDB1019D013D01952568AD0713D4D4
:10365000019D7DB1019D013D01952568AD070BD40C
:10366000019D3DB1019D013D01952568AD07DFD567
:1036700002E000BF012585602171DEF8001064269C
:10368000C1EBC105C5F34C4575430195019DFDB1E5
:10369000019D013D01952568ED071BD1019DBDB13F
:1036A000019D013D01952568ED0713D1019D7DB177
:1036B000019D013D01952568ED070BD1019D3DB1AF
:1036C000019D013D01952568ED07DFD002E000BFB7
:1036D000012585606568002B62D0002564264FF0C7
:1036E000010805E0C0F80880013567689D4257D0A1
:1036F000C1EBC101575DC1F34C4171430191019987
:10370000F1B1019901390191216889071AD4019910
:10371000B1B10199013901912168890712D4019948
:1037200071B1019901390191216889070AD4019980
:1037300031B101990139019121688907DFD501E093
:10374000C0F808802771DEF80010C1EBC107C7F38D
:103750004C4777430197019F002FC3D0019F013F42
:1037600001972768FF07BFD1019F002FBAD0019FA3
:10377000013F01972768FF07B6D1019F002FB1D005
:10378000019F013F01972768FF07ADD1019F002FDF
:10379000A8D0019F013F01972768FF07DBD0A3E76F
:1037A000DCF80010642241F40041CCF80010DEF88F
:1037B000001001EB4101C1F34B415143019100BFA6
:1037C0005CF87C1C019A5AB1019A8908013A01926D
:1037D0005CF87C2C01EA5201C907F1D102E000BF7C
:1037E0000221816081680122002918BF01218271B4
:1037F00000224271084602B0BDE8F0812DE9F04197
:1038000082B08779012F55D147794FF0020C012FF3
:1038100052D00127477180F806C0077940F2904CDA
:1038200040F2140EC5F6000C012FC2F2000E28D192
:10383000DEF8004004EB4404C4F34F340094DCF899
:10384000004024F40044CCF8004000BF009C013C40
:103850000094009C7CB1009C013C0094009C54B1FD
:10386000009C013C0094009C2CB1009C013C009405
:10387000009C002CEAD1DCF8004044F40044CCF871
:103880000040DEF80040642504EB4404C4F34B44DC
:103890006C4301945CF87C4C019D8DB1019DA408A2
:1038A000013D01955CF87C5C04EA5504E407F1D124
:1038B00008E000BF4FF0020C604602B0BDE8F081A6
:1038C00002248460DCF80040642624F40044CCF830
:1038D0000040DEF800500824C5EBC505C5F34C4593
:1038E000C5F6010475430195019DFDB1019D013DA2
:1038F00001952568AD071BD4019DBDB1019D013D1A
:1039000001952568AD0713D4019D7DB1019D013D51
:1039100001952568AD070BD4019D3DB1019D013D89
:1039200001952568AD07DFD502E000BF0125856060
:103930000D252571DEF800506426C5EBC505C5F3DD
:103940004C4575430195019EF6B1019E013E0196DD
:103950002668F6071AD1019EB6B1019E013E019676
:103960002668F60712D1019E76B1019E013E0196AE
:103970002668F6070AD1019E36B1019E013E0196E6
:103980002668F607DFD001E00126866066680E0A29
:103990000195019DF5B1019D013D01952568AD079A
:1039A0001AD4019DB5B1019D013D01952568AD0772
:1039B00012D4019D75B1019D013D01952568AD07AA
:1039C0000AD4019D35B1019D013D01952568AD07E2
:1039D000DFD501E0012585602671DEF80050642600
:1039E000C5EBC505C5F34C4575430195019EFEB178
:1039F000019E013E01962668F6071BD1019EBEB1CD
:103A0000019E013E01962668F60713D1019E7EB104
:103A1000019E013E01962668F6070BD1019E3EB13C
:103A2000019E013E01962668F607DFD002E000BF46
:103A30000126866066680195019DFDB1019D013DED
:103A400001952568AD071BD4019DBDB1019D013DC8
:103A500001952568AD0713D4019D7DB1019D013D00
:103A600001952568AD070BD4019D3DB1019D013D38
:103A700001952568AD07DFD502E000BF012585600F
:103A80002171DEF800106426C1EBC105C5F34C4579
:103A900075430195019DFDB1019D013D019525688D
:103AA000ED071BD1019DBDB1019D013D019525682B
:103AB000ED0713D1019D7DB1019D013D0195256863
:103AC000ED070BD1019D3DB1019D013D019525689B
:103AD000ED07DFD002E000BF012585606568002B9F
:103AE00062D0002564264FF0010805E0C0F8088088
:103AF000013567689D4257D0C1EBC101575DC1F3E5
:103B00004C41714301910199F1B101990139019140
:103B1000216889071AD40199B1B10199013901913C
:103B20002168890712D4019971B101990139019174
:103B3000216889070AD4019931B1019901390191AC
:103B400021688907DFD501E0C0F808802771DEF819
:103B50000010C1EBC107C7F34C4777430197019FA2
:103B6000002FC3D0019F013F01972768FF07BFD1F6
:103B7000019F002FBAD0019F013F01972768FF07DF
:103B8000B6D1019F002FB1D0019F013F0197276857
:103B9000FF07ADD1019F002FA8D0019F013F0197E2
:103BA0002768FF07DBD0A3E7DCF80010642241F4AC
:103BB0000041CCF80010DEF8001001EB4101C1F328
:103BC0004B415143019100BF5CF87C1C019A5AB1F2
:103BD000019A8908013A01925CF87C2C01EA5201B1
:103BE000C907F1D102E000BF02218160D0F808C00E
:103BF0000121BCF1000F18BF4FF0010C81710021B1
:103C00004171604602B0BDE8F0810000411E002015
:103C1000B0EB116F1CBF012070474EF21002CEF2C4
:103C2000000251604EF62351CEF20001F0230B70DA
:103C300007219060116070474EF21000CEF2000034
:103C4000016821F0020101607047000090F88410C3
:103C5000012904BF0220704780B52421C0F88810D4
:103C600001684AF6985C0A680B6842F0005223F03B
:103C700001030B604FF0005343660A608A6889684D
:103C8000C0F6000C490F4AF6A05E1CF80130C0F6E1
:103C9000000E1EF80110C2F34262DB00B3FBF1F12B
:103CA0001CF802301EF80220DB00B3FBF2F2A0F891
:103CB0006A102021A0F86820C0F88810002180F840
:103CC0008410002080BD000090F88410012904BFFA
:103CD00002207047012180F8841000BF016851E87C
:103CE000001F026841F0020142E80013DBB10168E5
:103CF00051E8001F026841F0020142E8001393B14D
:103D0000016851E8001F026841F0020142E8001317
:103D10004BB1016851E8001F026841F0020142E81E
:103D20000013002BDAD1002180F8841000207047A6
:103D3000704700007047000090F88420012A04BFFB
:103D400002207047B0B52422C0F888200268D0F85D
:103D500064E0D2F800C01368BEF1000F23F0010345
:103D60001360936823F0606341EA0301916019D006
:103D7000936891684AF6985E490FC0F6000E4AF6BD
:103D8000A0551EF80140C0F60005695CC3F342630C
:103D9000E400B4FBF1F11EF80340EB5CE500B5FB79
:103DA000F3F301E001210123A0F86A102021A0F81B
:103DB0006830C2F800C0C0F88810002180F8841074
:103DC0000020B0BD90F88420012A04BF0220704773
:103DD000B0B52422C0F888200268D0F864E0D2F898
:103DE00000C01368BEF1000F23F001031360936855
:103DF00023F0604341EA0301916019D09368916810
:103E00004AF6985E490FC0F6000E4AF6A0551EF815
:103E10000140C0F60005695CC3F34263E400B4FBF3
:103E2000F1F11EF80340EB5CE500B5FBF3F301E0B4
:103E300001210123A0F86A102021A0F86830C2F8FF
:103E400000C0C0F88810002180F884100020B0BDA8
:103E5000B0B582B0044690F88400012802D1022057
:103E600002B0B0BD012084F884002420C4F888008A
:103E70002068036823F001030360836823F4401380
:103E800043EA0103836051B9416893B221F0100104
:103E9000194341604168120C62F31F61416001687F
:103EA00041F001010160FCF787FF03466FF07E409F
:103EB000009020464FF480010022002505F0B0FB61
:103EC00020B1032084F8845002B0B0BD2020C4F893
:103ED0008800002084F8845002B0B0BD7047000014
:103EE000704700007047000070B5026840F62F046C
:103EF000D369116896681C40202C0BD101F0200476
:103F000006F080552D1916D0416F61B3BDE87040A1
:103F1000084700BF40F60F052B420CD00125C1F227
:103F2000000506EA050C40F22015C0F200450D40E0
:103F300015EB0C0524D1C46EDD0615D5012C13D16B
:103F400011F0100510D0102111629168490661D45A
:103F5000B0F85C10B0F85E20B0F85E30002B18BFEF
:103F6000914240F03F8270BDDD0215D516F4800508
:103F700012D04FF480111162BDE87040FFF7B0BF5E
:103F8000DD0718BF11F4807540F00E819D0706F023
:103F9000010E00F115811EE11A0606D501F080021E
:103FA00006F40006921940F09D825A0640F1F08016
:103FB00011F0400200F0EC80016851E8001F026837
:103FC00021F0400142E80013DBB1016851E8001F15
:103FD000026821F0400142E8001393B1016851E802
:103FE000001F026821F0400142E800134BB1016854
:103FF00051E8001F026821F0400142E80013002B45
:10400000DAD12021C0F8881000218167BDE8704016
:1040100000F0A6BCD0F8801009684A6893B2002B63
:10402000A1D0B0F85C60B3429DD2A0F85E200968D0
:10403000890600F1A180016851E8001F026821F49F
:10404000807142E80013DBB1016851E8001F02688B
:1040500021F4807142E8001393B1016851E8001F18
:10406000026821F4807142E800134BB1016851E805
:10407000001F026821F4807142E80013002BDAD19E
:10408000016851E8021F026821F0010142E80213B1
:10409000BBB3016851E8021F026821F0010142E848
:1040A000021373B3016851E8021F026821F0010195
:1040B00042E802132BB3016851E8021F026821F0A5
:1040C000010142E80213002BDAD11AE0016851E83D
:1040D000021F026821F0400142E80213DBB10168CF
:1040E00051E8021F026821F0400142E8021393B137
:1040F000016851E8021F026821F0400142E8021302
:104100004BB1016851E8021F026821F0400142E80A
:104110000213002BDAD12021C0F88C100021C166D7
:10412000016851E8001F026821F0100142E8001305
:10413000DBB1016851E8001F026821F0100142E87C
:10414000001393B1016851E8001F026821F01001CB
:1041500042E800134BB1016851E8001F026821F0EA
:10416000100142E80013002BDAD1D0F88010044689
:104170000846FCF73FFA204602210167B0F85C10C0
:10418000B0F85E20891A89B2BDE87040FFF7D0BD53
:104190001A0240F1B38111F0804200F0AF81BDE816
:1041A0007040FFF79BBE00BF01251562D0F890500C
:1041B00045F00105C0F890509D0706F0010E0AD5A4
:1041C000BEF1000F07D002241462D0F8904044F0F2
:1041D0000404C0F890405C070AD5BEF1000F07D078
:1041E00004251562D0F8905045F00205C0F89050B3
:1041F0001D070CD501F0200555EA0C0507D0082550
:104200001562D0F8905045F00805C0F890501D0593
:104210000BD511F0806508D04FF400651562D0F819
:10422000905045F02005C0F89050D0F89050002DE7
:104230003FF499AE9B060BD501F0200106F08053A8
:10424000C91805D0416F19B1044688472268204635
:10425000D0F89010926801F0280102F0400289180D
:1042600006D10446FFF73EFE0020C4F8900070BD62
:10427000016851E8001F026821F4907142E80013C0
:10428000DBB1016851E8001F026821F4907142E837
:10429000001393B1016851E8001F026821F4907186
:1042A00042E800134BB1016851E8001F026821F495
:1042B000907142E80013002BDAD14FF6FE71CEF672
:1042C000FF7100BF026852E8022F03680A4043E80A
:1042D0000226C6B1026852E8022F03680A4043E88A
:1042E000022686B1026852E8022F03680A4043E8BA
:1042F000022646B1026852E8022F03680A4043E8EA
:104300000226002EDED1C16E012924D1016851E8B8
:10431000001F026821F0100142E80013DBB10168C0
:1043200051E8001F026821F0100142E8001393B128
:10433000016851E8001F026821F0100142E80013F3
:104340004BB1016851E8001F026821F0100142E8FA
:104350000013002BDAD12021C0F88C100021C16697
:10436000026841679168490640F1C480016851E8DC
:10437000021F026821F0400142E80213DBB101682C
:1043800051E8021F026821F0400142E8021393B194
:10439000016851E8021F026821F0400142E802135F
:1043A0004BB1016851E8021F026821F0400142E868
:1043B0000213002BDAD1D0F88010002900F09A8087
:1043C00048F21952C0F60002044608468A63FCF718
:1043D0004FF900283FF4C7ADD4F88000816BBDE8E9
:1043E00070400847891A00BF026852E8002F03682E
:1043F00022F4907243E80026DEB1026852E8002FF2
:10440000036822F4907243E8002696B1026852E8ED
:10441000002F036822F4907243E800264EB1026830
:1044200052E8002F036822F4907243E80026002E21
:10443000DAD14FF6FE72CEF6FF7200BF036853E882
:10444000023F0668134046E80235C5B1036853E8E9
:10445000023F0668134046E8023585B1036853E819
:10446000023F0668134046E8023545B1036853E849
:10447000023F0668134046E80235002DDED12022B7
:10448000C0F88C200022C266426700BF026852E872
:10449000002F036822F0100243E80026DEB1026814
:1044A00052E8002F036822F0100243E8002696B17C
:1044B000026852E8002F036822F0100243E8002649
:1044C0004EB1026852E8002F036822F0100243E860
:1044D0000026002EDAD1022289B20267BDE87040C0
:1044E000FFF726BC816F00293FF43DADBDE8704069
:1044F000084700BFBDE87040FFF7F4BCDA017FF564
:1045000032ADB1F1FF3FC8BF70BDBDE87040FFF7ED
:1045100011BC0000002804BF01207047B0B582B074
:104520000446D0F8880028B9002084F8840020468A
:1045300000F080F82420C4F888002068016821F089
:1045400001010160204604F00DFE18B1012002B007
:10455000B0BD00BFA06A10B1204603F069FF20681B
:10456000416821F490414160816821F02A01816015
:10457000016841F0010101600020C4F89000FCF7DF
:104580001BFC216805460A68120710D56FF07E4CA7
:1045900020464FF4001100222B46CDF800C005F054
:1045A0003FF818B1032002B0B0BD00BF2168086811
:1045B00040070FD56FF07E4C20464FF4800100225B
:1045C0002B46CDF800C005F02BF818B1032002B03F
:1045D000B0BD00BF2020C4F88800C4F88C000020C3
:1045E000E066206784F8840002B0B0BD10B50446D0
:1045F000006843F60001C4F20101884218BF10BDF3
:104600006020C5F60000016821F4804101604FF090
:1046100090404FF4C061FCF769FAE06FFCF772F864
:10462000D4F88000FCF76EF82420BDE81040FCF7B9
:104630001BBC000070B594B0044600201290CDE978
:104640001000CDE90E00684608303021FBF7FEFE71
:10465000206843F60001C4F20101884202D014B080
:1046600070BD00BF012000904FF4403001906846BB
:10467000FCF7F4FC002818BFFBF798FF4C20C5F6A8
:1046800000004169082641F48041416141690025EB
:1046900001F48041139113990168C4F2020641F0BC
:1046A0000101016000680EA900F001001390139849
:1046B0004FF4C0600E9002200F900320119007204D
:1046C00012904FF090401095FCF7A0FA40F2107055
:1046D000C2F20000122110228023C0E90061C0E96B
:1046E0000225C0E90435C0E906550562FCF7E8F883
:1046F000002818BFFBF75AFF40F21075C2F2000500
:1047000028461021FBF7ECFF002818BFFBF74EFFEF
:1047100040F2B06006F11401C2F2000000238026CE
:10472000E567AC62112280E80E00C0E90336C0E9FB
:104730000533C0E90733FCF7C3F8002818BFFBF7BF
:1047400035FF40F2B065C2F2000528461021FBF7A4
:10475000C7FF002818BFFBF729FF242000210022F3
:10476000C4F88050AC62FCF7A7FB2420FCF792FB56
:1047700014B070BDD0F88C30202B07D100294FF039
:10478000010318BF002A05D11846704702231846B6
:10479000704700BF80B50023C366D0F800C048F260
:1047A0000003C4F200039C4503D0DCF804301B0274
:1047B00004D404F003FE002080BD00BF036853E86A
:1047C00000CFD0F800E04CF080634EE8003CBCF134
:1047D000000FEED0036853E800CFD0F800E04CF0B3
:1047E00080634EE8003CBCF1000FE2D0036853E860
:1047F00000CFD0F800E04CF080634EE8003CBCF104
:10480000000FD6D0036853E800CFD0F800E04CF09A
:1048100080634EE8003CBCF1000FCFD1C9E7000037
:10482000016843F60002C4F20102914218BF7047CA
:1048300040F28801C2F200014B6813B1D0F8901029
:1048400031B140F28801C2F200010122FFF792BFAC
:1048500010B540F28801C2F2000104460846012169
:10486000002298472046BDE8104040F28801C2F27D
:1048700000010122FFF77EBFD0F88830202B09D13C
:10488000944600294FF0010218BFBCF1000F05D17A
:104890001046704702221046704700BFB0B5002294
:1048A00021230165A0F854C0A0F856C0C0F890209C
:1048B000C0F88830C36F2BB348F22955C0F6000505
:1048C00048F2057448F2B57E5D630568C0F60004E1
:1048D000C0F6000EC3E90B4E9A6305F128020446A8
:1048E00018466346FCF784F80146204651B1102172
:1048F000C0F890102021C0F888100122BDE8B04017
:1049000010467047016840220A6200BF016851E802
:10491000021F026841F0800142E80213DBB1016826
:1049200051E8021F026841F0800142E8021393B18E
:10493000016851E8021F026841F0800142E8021359
:104940004BB1016851E8021F026841F0800142E862
:104950000213002BDAD10022BDE8B04010467047A8
:10496000006843F60001C4F20101884218BF704795
:1049700040F2AC60C2F2000001680020084700006D
:1049800070470000FEE7000080B582B04820C5F601
:1049900000000168002241F004010160016801F09B
:1049A000040100910099016841F001010160006873
:1049B000002100F00100019001980B20FCF77CFA27
:1049C0000B20FCF767FA0C2000210022FCF774FA98
:1049D0000C2002B0BDE88040FCF75CBAB0B586B0F0
:1049E00000244C200494CDE90244CDE90044C5F6EE
:1049F00000000168002241F0010101600168032507
:104A000001F0010105910599016841F0040101607F
:104A10000068032100F00400059005984FF09040D5
:104A2000FCF7C4F90120CDE9010469464FF090403C
:104A300000950394FCF7EAF806B0B0BD80B58CB0E1
:104A400001A82821FBF702FD40F2707042F6000138
:104A5000C2F20000C4F2000101601F218160002148
:104A60004FF080424FF48073C0E90411C0E9061290
:104A7000C0E90813FDF77AFA002818BFFBF796FD86
:104A800040F27070C2F20000FDF7DCF9002818BF98
:104A9000FBF78CFD00200890029006904FF000502C
:104AA00007904FF480700B9040F27070C2F20000DB
:104AB00001A90022FDF70CFB002818BFFBF776FDCB
:104AC0000CB080BD80B540F2A870C2F20000082191
:104AD0000160FDF7B5FF002808BF80BDBDE880403C
:104AE000FBF764BD80B503F0C5F9BDE8804003F075
:104AF00089B800004FF0FF3005F0C6B880B540F22D
:104B0000B47043F60001C2F20000C4F201010023B8
:104B10004FF00C0C4FF4165280E80E00C0E903333E
:104B2000C0E905C3C0E90733C0E90933FFF7F2FC68
:104B3000002818BFFBF73AFD40F2B470C2F2000043
:104B40000021FFF73FF9002818BFFBF72FFD40F2C7
:104B5000B470C2F200000021FFF7EEF8002818BF81
:104B6000FBF724FD40F2B470C2F20000FFF76EF8CC
:104B7000002808BF80BDBDE88040FBF717BD0000DE
:104B8000FEE70000FEE700002DE9F04383B01C467D
:104B900016460D4680462FA30120002101224FF02A
:104BA000000904F047FE2EA3012000210122CDE9D7
:104BB000006404F03FFE40F29007C2F200077C70F0
:104BC00040F24C34C2F200042046FF2187F80290E4
:104BD000FBF73CFCFF2DBD8007D840F24C30C2F201
:104BE000000041462A46FBF7C2FB26A30320002112
:104BF00001223E700095002704F01CFE4AF6FB5887
:104C000025A5C0F6000802E00137402F12D0E65D6E
:104C10000320002100222B46009604F00BFE07F033
:104C20000F000F28F0D1032000210022434604F09A
:104C300001FEE9E74AF6FB53C0F60003032000211A
:104C4000002204F0F7FD0120002103B0BDE8F0438D
:104C500005F0C8B84F6E5278446F6E650A0D0000BB
:104C60005273736956616C75653D25642064426DAD
:104C70002C20536E7256616C75653D256464420A42
:104C80000D0000007061796C6F61642E2073697A89
:104C9000653D2564200A0D002530325800000000D3
:104CA00080B509A301200021012204F0C3FD40F2D8
:104CB0009002C2F200020223012000219370BDE89D
:104CC000804005F08FB800BF4F6E52784572726F0A
:104CD000720A0D0010B509A3012000210122012450
:104CE00004F0A8FD40F29002C2F20002012000216F
:104CF0009470BDE8104005F075B800BF4F6E527853
:104D000054696D656F75740A0D00000080B509A3C4
:104D100001200021012204F08DFD40F29002C2F238
:104D200000020323012000219370BDE8804005F0BC
:104D300059B800BF4F6E5478446F6E650A0D00007D
:104D400080B509A301200021012204F073FD40F287
:104D50009002C2F200020423012000219370BDE8FA
:104D6000804005F03FB800BF4F6E547854696D65C0
:104D70006F75740A0D00000080B54FF0904001215E
:104D8000FCF70CF84FF090400221FCF707F840F2D6
:104D90009000C2F200000C30BDE8804005F094B9EC
:104DA0007047000080B5FEF747FF00200121BDE8F5
:104DB0008040FCF72DB9000080B5FEF73DFF40F2C2
:104DC0008841C5F60001012201200A60BDE880404B
:104DD000FCF7ECB870470000FDF77EBA80B5FDF730
:104DE0007BFABDE8804005F06DBE00007047000012
:104DF00070B54AF66C44C0F60004E06A804740F2A1
:104E00009005C2F20005A878DFE800F03204043013
:104E10002A0000BF40F21800C2F200000078F8B18A
:104E2000E06DA66A8047A9680844C830FBF758FEC1
:104E30004AF6EC53C0F6000301200021012204F0E1
:104E4000F9FC40F24C4044F65012C2F20000C4F2A9
:104E50004E72402102603246BDE87040104700BFEC
:104E60004AF6C953C0F6000338E000BF50A335E04E
:104E700040F21800C2F200000278A988D2B1C9B38A
:104E800040F24C31C2F200010A6844F65073C4F299
:104E90004E739A4230D0096844F65012C4F24E72F2
:104EA000914215D100214AF6C9530170C0F60003A2
:104EB000012015E0002908BF70BD40F24C31C2F25C
:104EC0000001096844F65016C4F24E76B14241D052
:104ED00001214AF6DA530170C0F6000301200021D7
:104EE000012204F0A7FC616B40F6B830BDE87040C9
:104EF000084700BF70BD00BF05F10C0005F09CF92C
:104F00004FF0904001210022FBF750FF4FF09040FE
:104F10000221FBF743FFE06DA56A8047C830FBF72D
:104F2000DFFD26A301200021012204F083FC4AF6C4
:104F3000EC53C0F6000301200021012204F07AFCAA
:104F400040F24C4044F65012C2F20000C4F24E72DD
:104F500027E000BF05F10C0005F06EF94FF090401E
:104F600002210022FBF722FF4FF090400121FBF7C6
:104F700015FFE06DA56A8047C830FBF7B1FD12A3AD
:104F800001200021012204F055FC12A30120002180
:104F9000012204F04FFC40F24C4006F5C062C2F220
:104FA0000000402102602A46BDE87040104700BF63
:104FB00052782073746172740A0D00002E2E2E50E8
:104FC000494E470A0D0000002E2E2E504F4E470A24
:104FD0000D000000536C61766520205478207374B6
:104FE0006172740A0D00000000207047162100282D
:104FF00008BF0F2108467047002070470020704707
:105000000120704700207047704700007047000083
:105010004FF0FF30704700000020704700207047BD
:105020004FF0FF30704700004FF0FF307047000036
:105030007047000070470000704700004FF0FF30DD
:10504000704700004FF0FF307047000040F2707072
:10505000C2F20000FCF720BF70B542F60C06C4F2A5
:1050600000063168044621F080013160F16889064C
:1050700014D4306820F020003060FBF79DFE054618
:105080003068800628D4FBF797FE401BB0F57A7F86
:10509000F6D9032084F82D0070BD00BFF06820F021
:1050A0002000F060306820F020003060FBF784FEC4
:1050B000054600BF3068800610D4FBF77DFE401B1C
:1050C000B0F57A7FF6D9032084F82D00F16841F01D
:1050D0002001F16070BD00BF002070BD0020F168AC
:1050E00041F02001F16070BD0120704780B501F0F2
:1050F00015FD0438C0B240F202120023C100C0F214
:105100000032042838BF22FA01F3D8B280BD000073
:1051100080B501F0A1FD033080BD0000F0B581B085
:1051200040F2D005C2F200052C4644F8040B40F2D0
:105130004C6745F2D160C2F200070026C0F60000BD
:105140007E70C7E90166BE6501F032FEBE8102F0E5
:10515000AFF90020002101F029FF012000210422E5
:1051600002F0E6FB4FF6FF704FF6FF7100220023BE
:1051700001F070FF042002F0CBFA0220FBF7B0FC34
:1051800045F2FD63C0F6000320464FF0FF310022D8
:10519000009604F03BFE1C3545F2E163C0F60003C7
:1051A00028464FF0FF310022009604F02FFE2046E3
:1051B00005F042F8284601B0BDE8F04005F03CB8E3
:1051C00070B582B040F24C64C2F20004B4F85400EE
:1051D00000217F288DF80710009100F35F800138CF
:1051E0003F2800F29781DFE810F04100F7009501B9
:1051F000C3009501950195019B00950195019501CD
:10520000950195019501950137019501950195014C
:1052100095019501950195019501950195019501DE
:105220009501950195019501AB00950195019501B9
:1052300095019501950195019501950195019501BE
:1052400095019501950195019501950195019501AE
:10525000950195019501950195019501950195019E
:1052600095019501950195017F0000BF40F2D004A2
:10527000C2F20004201D04F0DFFF002002F08AFAD1
:10528000FFF7CCFE012808BFFFF7C0FE206800280A
:1052900000F04081006800283DD13BE1802800F00B
:1052A000E580B0F5807F00F0F380B0F5007F40F03E
:1052B0003181A9A30220012204F0BCFA01F02EFCE6
:1052C000042840F0F58040F2D004C2F20004201D12
:1052D00004F0B2FF002002F05DFA2068002800F020
:1052E00019814068B8B915E18BA302200021012281
:1052F00004F0A0FA607810B9002002F04BFA40F2F6
:10530000D000C2F200000068002800F003810069AC
:10531000002800F0FF8002B0BDE87040004700BFE9
:1053200087A302200021012204F084FAFFF774FE13
:10533000012840F0EF8002B0BDE87040FFF778BE72
:1053400040F2D005C2F2000505F11C0004F074FF24
:10535000607810B9002002F01DFA2868002800F0DB
:10536000D980C068002800F0D58080476EA374E023
:1053700076A3022000210122002504F05BFAA06D33
:10538000002800F0C780C0F3074140F6031002F088
:1053900013FC94F8591040F6041002F00DFC94F838
:1053A000581040F6051002F007FC40F6021001F01C
:1053B000A9FD40F0010140F6021002F0FDFB40F2B1
:1053C000622040F2622100220023A56502B0BDE800
:1053D000704001F03FBE00BF40F2D006C2F20006AE
:1053E00006F11C0004F028FF607888B9002002F064
:1053F000D1F940F60210002102F0DEFB40F6441025
:1054000001F080FD40F0020140F6441002F0D4FBB0
:1054100040F24B50C2F200000DF10701FF2201F0F3
:10542000CFFB04F1240001F07FFB3068002871D02D
:105430008568002D6ED094F8240001284ED19DF887
:10544000071094F9302094F9313040F24B50C2F2F9
:105450000000A84702B070BD36A30220002101223F
:1054600002B0BDE8704004F0E5B900BF002002F0D2
:1054700091F940F2D000C2F200000068002849D043
:105480008169002946D0002002B0BDE8704008477D
:10549000002002F07FF940F2D000C2F20000006864
:1054A000C0B38169B1B3012002B0BDE870400847C4
:1054B00001F034FB05282DD140F2D004C2F20004E3
:1054C00004F11C0004F0B8FE002002F063F920682B
:1054D00000B3C06800287FF41EAF1BE0E06B694694
:1054E00001F0F8F9306844F6D35386680098C1F2A9
:1054F000620300F5FA7050FB03F0830903EBD070F0
:105500009DF8071094F9292043B240F24B50C2F2A3
:105510000000B04702B070BD4952515F4352435F33
:105520004552524F520D0A00484452204B4F0D0A2B
:1055300000000000484452204F4B0D0A00000000BC
:1055400053594E43204F4B0D0A0000005052452046
:105550004F4B0D0A000000004952515F52585F54F2
:10556000585F54494D454F55540D0A002DE9F04FF1
:1055700083B0064600201C46154689464FF0000AB7
:1055800002F008F940F24C67C2F20007002087F8E9
:1055900000A0FFF751FD002001F05EFF304687F8C4
:1055A0000DA001F0A3FF01207870FFF72DFD40F260
:1055B000100BC2F2000BFF208BF80000002002F05D
:1055C0000BF94FF41670F8630B20B84687F84400C7
:1055D000484608F838AF01F0D5F987F8450018209B
:1055E000388241F60400C0F200109BF80010C7F8A2
:1055F000120040F201103E46A7F81700002006F8FE
:105600000EAFB97502F0C6F8002087F800A0FFF7CA
:1056100013FD002001F020FF404687F80DA001F0A7
:105620006FFD304601F038FE49F2C140ADF804008C
:10563000C1208DF8060001A8CDF807A08DF80BA0B9
:1056400002F01AF940F2FF1002F080FAC7F808A041
:10565000FFF7E2FC012803D1FFF7E2FC08E000BFFE
:1056600040F2622040F262210022002301F0F2FCAD
:1056700097F856000021B96502F0C6F879786FF006
:105680007F40BA68002908BF900101F0C1FF01F016
:10569000E3FA0330FBF724FA04F0D8FB064600BF18
:1056A000304604F0DFFBA04206D201F067FBA842BF
:1056B000F6DD002401E000BF0124002002F06AF8BA
:1056C000204603B0BDE8F08F0120704701207047ED
:1056D00040F24C61C2F20001A1F85400FFF770BD26
:1056E00040F2D000C2F200000068002808BF7047F6
:1056F000C06808B1004700BF7047000040F2D0000A
:10570000C2F200000068002808BF7047406808B176
:10571000004700BF7047000080B500200021002234
:10572000002301F097FCBDE8804001F097BA00002B
:1057300001F0E8BB01F0F6BB80B501F01FFB80BDB6
:10574000B0B50446FFF768FC012803D1FFF768FCF9
:105750004CB915E040F2622040F2622100220023A1
:1057600001F078FC64B140F2D000C2F2000000F118
:105770001C052846214604F00FFC284604F0A4FC32
:1057800040F24C64C2F2000494F856000021A16576
:1057900002F03AF861786FF07F40A268002908BFF4
:1057A0009001BDE8B04001F033BF0000B0B5044641
:1057B000FFF732FC012803D1FFF732FC4CB915E0AA
:1057C00040F2622040F262210022002301F042FCFC
:1057D00064B140F2D000C2F2000000F11C0528467E
:1057E000214604F0D9FB284604F06EFC40F24C64DC
:1057F000C2F2000494F856000021A16502F004F8FA
:1058000061786FF07F40A268002908BF9001BDE871
:10581000B04001F021BF00002DE9F04F81B08A4671
:10582000804640F2012040F201210022002301F0D5
:1058300011FC40F24C69C2F2000999F856000121AE
:1058400001F0E2FF99F8000099F8511080F0010092
:1058500081F0060150EA010640F6890018BF0126D2
:1058600001F050FB00F0FB0040EA860140F68900A1
:1058700002F0A2F999F80000042800F21481DFE890
:1058800000F003C303C71B00FFF7C6FB012840F06D
:10589000C7800DF1030240465146FFF7CFFB0028B9
:1058A00000F012818EA302200021012203F0C2FF2A
:1058B000032001B0BDE8F08F40F24B5BBAF1000F5E
:1058C000C2F2000B00F0B6800AF0030CBAF1040F2C
:1058D0004FF0000121D30AF0FC00C0F1000E08F1E6
:1058E00001006FF0030300BFC718FC78E443FC70AD
:1058F0000BEB030421713A790433D2433A7161719D
:105900007A79D2437A71A171BA79D243BA710EEB26
:1059100003020432E171E7D1191DBCF1000F21D05F
:1059200018F80100BCF1010F6FEA000008F801004F
:105930004FF000000BF8010014D04A1C18F8023098
:10594000BCF1020F6FEA030308F802300BF8020003
:1059500008D0881C18F80010C94308F8001000216E
:105960000BF800104FEACA0C00210023C1F3C70254
:1059700001F0040718F8020087F00704E04000F087
:10598000010087F0060658401BF8023000FA06F4C2
:1059900023430BF8023018F8024087F0050524FA7B
:1059A00006F606F00106704000FA05F633430BF8E0
:1059B000023018F8026087F00407EE4006F0010696
:1059C000704000FA07F633430BF8023018F8022053
:1059D0000431FA4001F0040302F0010283F00706EB
:1059E00082EA0003C1F3C7001BF8002003FA06F7A0
:1059F0003A438C450BF80020B8D103EB43008001FB
:105A0000002B08BF203016E089F81FA00AE000BF75
:105A10000221484600F80E1F80F80CA004E000BFE9
:105A200089F816A009F10E0001F036FC40465146F7
:105A3000002236E020200BF80A0002204D4605F82F
:105A40000E0F0AF10108284685F80C8001F024FCAD
:105A5000F120002102F0B0F8F020002102F0ACF8B3
:105A6000D5F83A40E121F320642C08BF702102F000
:105A7000A3F80421F220642C08BF1D2102F09CF839
:105A80004FEA5A11F4204FEACA0402F095F8A01C1C
:105A9000C1B2F52002F090F85FFA88F158466FF035
:105AA0007F4201F051FA40F2D000C2F20000D9F872
:105AB0000410041D204604F06FFA204604F004FB95
:105AC000002001B0BDE8F08F9DF8030089F81600B2
:105AD00009F10E0001F0E0FB9DF803104046A7E736
