:020000040800F2
:100000007806002001020008A51200084D12000821
:10001000A112000809030008C51200080000000032
:10002000000000000000000000000000AD12000809
:100030000D03000800000000A9120008B11200081A
:100040001B0200081B0200081B0200081B0200081C
:100050001B0200081B0200081B0200081B0200080C
:100060001B0200081B0200081B0200081B020008FC
:100070001B0200081B0200081B0200081B020008EC
:100080001B0200081B0200081B0200081B020008DC
:100090001B0200081B0200081B0200081B020008CC
:1000A0001B0200081B0200081B0200081B020008BC
:1000B0001B0200081B0200081B0200081B020008AC
:1000C0001B0200081B0200081B0200081B0200089C
:1000D0001B0200081B0200081B0200081B0200088C
:1000E0001B0200081B0200081B0200081B0200087C
:1000F0001B0200081B0200081B0200081B0200086C
:100100001B0200081B0200081B0200081B0200085B
:100110001B0200081B0200081B0200081B0200084B
:100120001B0200081B0200081B0200081B0200083B
:100130001B0200081B02000800F002F800F050F853
:1001400014A696E8000CB244B344DA4501D100F09D
:1001500047F8BAE80F000FA696E83000A5EB0405B3
:1001600004EB0607AAEB0704A7F101074FEA1515F0
:100170004FEA3414A4F10104AC4201D300F030F88A
:1001800013F0010F18BFFB1A43F0010300F001F850
:10019000DBE71847FC1300001C140000103A24BFD2
:1001A00078C878C1FAD8520724BF30C830C144BFDC
:1001B00004680C60704700007047000000230024B2
:1001C00000250026103A28BF78C1FBD8520728BF67
:1001D00030C148BF0B6070471FB51FBD10B510BDC3
:1001E00000F058F81146FFF7F7FF01F06DF800F046
:1001F00076F803B4FFF7F2FF03BC00F07DF80000CF
:100200000948804709480047FEE7FEE7FEE7FEE7AA
:10021000FEE7FEE7FEE7FEE7FEE7FEE704480549E6
:10022000054A064B70470000C1120008390100085A
:100230007800002078060020780200207802002054
:100240004FF0000200B5134694469646203922BF6F
:10025000A0E80C50A0E80C50B1F12001BFF4F7AFBA
:10026000090728BFA0E80C5048BF0CC05DF804EB9C
:10027000890028BF40F8042B08BF704748BF20F80A
:10028000022B11F0804F18BF00F8012B7047704708
:1002900070477047754600F02BF8AE46050069467A
:1002A000534620F00700854618B020B5FFF7B6FF8B
:1002B000BDE820404FF000064FF000074FF0000867
:1002C0004FF0000BAC46ACE8C009ACE8C009ACE8A4
:1002D000C009ACE8C00921F007018D46704710B590
:1002E0000446AFF300802046BDE81040FFF781BF11
:1002F000004870471000002001491820ABBEFEE7FF
:100300002600020070470000FEE700007047000072
:10031000B0B5044600F0E4F8054640F20000C2F231
:1003200000000078611C18BF044400BF00F0D8F83A
:10033000401BA042FAD3B0BD2DE9F04F82B00F6848
:10034000002F00F0BD8000F1200240F60003009273
:10035000C4F6000307224FF0000A00264FF0000801
:10036000984208BF022201924AE000BF40F20042D8
:10037000C4F60002019B904208BF01230AF00C055D
:100380000727AF402CEA0707AB403B4308274FEA5B
:100390009802C4F2010740F6000447F82230C5F67F
:1003A000000422684B6842EA0907DD0258BF22EACE
:1003B0000907276062689D0242EA090758BF22EADE
:1003C00009076760D4F88020DD0342EA090758BFB7
:1003D00022EA0907C4F88070D4F884209B0342EA1B
:1003E000090758BF22EA0907C4F884700F6808F1AA
:1003F000010837FA08F206F102060AF1040A5FD092
:10040000012202FA08FE17EA0E09EFD0D1F804C063
:1004100003220CF0030BABF1010302FA06F7012BE8
:100420006FEA070410D88368CF682340B7403B4386
:1004300083604368CCF3001723EA0E0307FA08F73A
:100440003B43436006E000BFBBF1030F02D14FF016
:10045000030B1EE0C3688F682340B7403B43BBF1EA
:10046000020FC36015D16FF00302009B02EA580E21
:1004700053F80EC00AF01C050F220F69AA402CEA9F
:100480000202AF403A4343F80E20D1F804C00CF00A
:10049000030B02680BFA06F322401A431CF4403F98
:1004A0000260A3D0082328F00302C4F2010352F82B
:1004B00003C0B0F1904F7FF459AF00235EE700BF57
:1004C00002B0BDE8F08F00000069084018BF0120AD
:1004D000704700001823002A08BF2823C150704726
:1004E00040F27400C2F200000068704740F2000061
:1004F00040F27401C2F20000C2F2000100780A6802
:10050000104408607047000080B5032000F066F8D2
:1005100000F00EFA40F20801C2F2000108600F205C
:1005200000F008F800281CBF012080BD00F028F86A
:10053000002080BDB0B540F20005C2F20005297868
:10054000E1B1044600F0F4F929784FF47A72B2FB75
:10055000F1F1B0FBF1F000F057FE01460F2C4FF027
:1005600001000AD8002918BFB0BD4FF0FF30214666
:10057000002200F007F800206C60B0BD0120B0BD83
:100580007047000010B54EF60C5CCEF2000CDCF8A3
:100590000030C3F3022E8EF00704042C28BF04247D
:1005A000BEF103034FF0FF3E0EFA04F438BF002300
:1005B000A14399400EFA03F39A43114300F00F024E
:1005C00000F160430901043A03F5644362440028E2
:1005D00048BF02F10C03197010BD00004EF60C511B
:1005E000CEF200010A684FF6FF031A4060F30A22B8
:1005F00042F0806040F0FD700860704740F21440A7
:10060000C5F6000050F8141C322221F4804140F855
:10061000141C40F20801C2F20001096851434DF672
:100620008362C4F21B32A1FB0212910C0268920594
:1006300011D581B1026892050DD501290BD0026850
:10064000920508D5022906D00268920503D5032930
:10065000A1F10401EAD100680321800501EAE070FC
:1006600070470000C10640F20041C5F6000144BFDA
:100670004CF2B0120A600A6810430860704700002C
:1006800040F20040C5F60000016841F4804101607D
:100690007047000040F20040C5F60000006800F41A
:1006A000C060704740F20040C5F60000016841F4A8
:1006B000807101607047000010B540F21442C5F629
:1006C000000212680C4628B1900558BFFFF7D8FF0A
:1006D00007E000BF900504D5FFF790FF002818BF82
:1006E00010BD4EF61050CEF200000168012C21F032
:1006F0000401016004BF30BF10BD40BF20BF20BF58
:1007000010BD00002DE9F04381B0002800F0EA8020
:1007100044F20008C5F600080546D8F800000C466B
:1007200000F00700884215D2D8F8000020F007003A
:100730002043C8F80000FFF7D3FE0646D8F80000B3
:1007400000F00700A04205D0FFF7CAFE801B022878
:10075000F4D977E0286808278107C5F6000714D583
:10076000A868396821F0F00108433860FFF7B8FE47
:10077000064600BF3868C00306D4FFF7B1FE801BF1
:100780000228F7D95EE000BF2868810615D56869A0
:10079000D7F8001121F0F0010843C7F80001FFF776
:1007A0009FFE0646D7F80001800305D4FFF798FEA8
:1007B000801B0228F6D945E02868410617D5A869AC
:1007C000D7F8001121F00F0141EA1010C7F800011D
:1007D000FFF786FE064600BFD7F80001C00305D428
:1007E000FFF77EFE801B0228F6D92BE02868410720
:1007F00013D5E868396821F4E06108433860FFF7F1
:100800006FFE06463868800306D4FFF769FE801B3A
:100810000228F7D916E000BF2868010717D5286914
:10082000396821F4605141EAC0003860FFF758FE92
:10083000064600BF3868400308D4FFF751FE801B0E
:100840000228F7D9032001B0BDE8F0832868C0076B
:100850001ED1D8F8000000F00700A04224D9D8F833
:10086000000020F007002043C8F80000FFF738FE22
:10087000054600BFD8F8000000F00700A04213D0E2
:10088000FFF72EFE401B02284FF00300F2D947E08D
:1008900068684FF0B041096840B3032820D00228AF
:1008A00042D189031ED523E000F054F839683C2278
:1008B00002EA910141F21052C0F60002515840F292
:1008C0000802B0FBF1F140F20400C2F2000000683F
:1008D000C2F20002116001B0BDE8F043FFF72ABE8A
:1008E000890105D4012001B0BDE8F0838907F9D55D
:1008F000396821F0030108433860FFF7F1FD06462F
:1009000041F288393868696800F00C00B0EB810F5B
:100910009FD0FFF7E5FD801B48454FF00300F1D95C
:1009200001B0BDE8F08300BF4905DBD5E0E700007A
:1009300080B500F00FF80821C5F6000109683C22D7
:1009400002EA910141F21052C0F600025158B0FB88
:10095000F1F080BD0C21C5F6000151F8040C10F037
:100960000C02086805D00C2A16D100F003000128FB
:1009700012D14FF0B040036800681B0706D400078F
:100980001CD4D1F88800C0F3032022E000071BD458
:10099000D1F8880015E000BF42F20040042AC0F2FE
:1009A000F40022D0082A1FD14FF0B0421268D202C0
:1009B0005CBF44F60000C0F2E81016E04FF0B04013
:1009C0000068002005E000BF4FF0B0400068C0F3B1
:1009D000031041F25053C0F6000353F82030002AB0
:1009E000184618BF002001E00020002351F8042C15
:1009F00002F00C020C2A18BF7047086800F00302CE
:100A000042F20040022AC0F2F4000AD0032A09D1BF
:100A10004FF0B0421268D2025CBF44F60000C0F250
:100A2000E810034608680A68C0F30620C2F3021201
:100A3000584301320968B0FBF2F0012202EB517118
:100A4000B0FBF1F070470000002804BF01207047A0
:100A50002DE9F04F81B040F2900B0446C5F6000B33
:100A60005BF8880C5BF8841C227800F00C08900678
:100A700001F0030A26D42078C00759D0B8F1080F36
:100A800052D0B8F10C0F08BFBAF1030F4CD04FF0A1
:100A9000B0400268D4E9011322F480121A430260C4
:100AA0000268B1F5803F09D0B1F5041F40F03482EF
:100AB00042F400114FF0B0421160126842F48031EC
:100AC000016035E2B8F1000F1ED0B8F10C0F08BF7D
:100AD000BAF1010F18D0216A4FF0B04630680029F2
:100AE00000F0688140F001003060FFF7F9FC054636
:100AF0003068800700F18681FFF7F2FC401B022876
:100B00004FF00300F4D957E3206A002800F0B482C4
:100B10004FF0B041A06A0A68120700F1D380DBF8F9
:100B200004100909CFE000BF6068002800F0A4822B
:100B3000207880072FD5B8F1040F1FD0B8F10C0F23
:100B400008BFBAF1020F19D021694FF0B0463068E2
:100B5000002900F0FF8140F480703060FFF7C0FC96
:100B6000054600BF306840050CD4FFF7B9FC401BB8
:100B700002284FF00300F5D91EE300BF20690028CA
:100B800000F07A8260695BF88C1C21F0FE4141EA3A
:100B900000604BF88C0C2078000729D4207840079F
:100BA00052D4E56A002D00F0D482B8F10C0F40F069
:100BB0003F81012D00F060825BF8840C216B00F016
:100BC00003028A4240F05882616B00F070028A4250
:100BD00040F05282A16B00F4FE42B2EB012F40F0D4
:100BE0004B82616C00F06040884200F0B28243E2C8
:100BF000A069DBF80410002800F0EE80E06901F045
:100C00001002904200F0C28201F00302022A00F0BA
:100C10003382C90700F0B382DBF8040020F0010042
:100C2000CBF80400FFF75CFC054600BFDBF80400CE
:100C3000800740F1A382FFF753FC401B11284FF0BF
:100C40000300F3D9B8E200BFDBF87003C00511D48C
:100C5000FFF728FDFFF744FC054600BFDBF87003F3
:100C6000C00507D4FFF73CFC401B02284FF00300EF
:100C7000F4D9A1E2E068002800F07E81852801D047
:100C8000052805D1DBF8000040F00400CBF8000097
:100C9000FFF726FCDBF80010054641F0010041F2A9
:100CA0008836CBF8000000BFDBF80000800700F1B9
:100CB0001381FFF715FC401BB0424FF00300F3D93E
:100CC0007AE200BF096801F0F00144F200068842B0
:100CD00041F2105941F25051C5F60006C0F6000924
:100CE000C0F6000128D93C2202EA90000858DBF83F
:100CF000781001F00F0159F82110B0FBF1F5FFF762
:100D0000C9FCB0F5007F40F0B7804EF6BF20C0F2BE
:100D10002110854240F2DC8049F23F30C0F234209D
:100D2000854240F243814AF63F60C0F2EB208542A3
:100D300040F2B680002740E14FF0B042136843F024
:100D400008031360136823F0F00303431360626A1F
:100D50005BF88C3C23F47F4343EA02224BF88C2C53
:100D60006FF0030202EA90000858DBF8781001F0F7
:100D70000F0159F82110B0FBF1F5FFF78BFCB0F52E
:100D8000007F40F08F804EF6BF20C0F221108542D8
:100D900040F2A08049F23F30C0F23420854240F258
:100DA00051814AF63F60C0F2EB20854240F28E80CE
:100DB00000274EE120F001003060FFF791FB05466F
:100DC000306880077FF557AEFFF78AFB401B02288B
:100DD0004FF00300F4D9EFE121F00100CBF804005B
:100DE000FFF77EFB054600BFDBF8040080077FF5B8
:100DF000D5AEFFF775FB401B11284FF00300F3D968
:100E0000DAE100BF4FF0B040016841F00801016035
:100E10000168D4E9092321F0F001194301605BF86E
:100E20008C0C20F47F4040EA02204BF88C0C22E628
:100E30004FF0B046306820F080703060FFF750FB14
:100E4000022D05460CD100BF3068800140F1488179
:100E5000FFF746FB401B0A284FF00300F4D9ABE133
:100E60003068800140F16C81FFF73AFB401B0A2893
:100E70004FF00300F4D99FE14CF6BF70C0F26A0056
:100E8000854225D945F63F50C0F2C600854240F262
:100E90008D8046F23F60C0F2031085423FF64AAFB4
:100EA000022084E04CF6BF70C0F26A00854211D97E
:100EB00045F63F50C0F2C600854240F2C38046F27C
:100EC0003F60C0F2031085423FF672AF0220BAE0E5
:100ED00000206CE00020B6E0E06840F004008528C7
:100EE00040F0CE80FFF7FCFADBF80010054641F039
:100EF000800041F28836CBF8000000BFDBF800002C
:100F000000053FF54EAEFFF7EBFA401BB0424FF045
:100F10000300F3D950E100BF22F480304FF0B04617
:100F200030603068002920F40010306000F0168135
:100F3000FFF7D6FA05464FF0B04600BF3068800391
:100F40003FF5F6ADFFF7CCFA401B64284FF00300E5
:100F5000F4D931E120F480703060FFF7C1FA054622
:100F6000306840057FF517AEFFF7BAFA401B02283C
:100F70004FF00300F4D91FE1FFF7B2FADBF80010DD
:100F8000064621F0800041F28837CBF8000000BF10
:100F9000DBF80050FFF7A4FA2905054640F18A80E6
:100FA000A81BB8424FF00300F2D905E1012041F23D
:100FB0000451C0F6000151F82070306820F007009D
:100FC00038433060FFF78CFA054600BF306800F008
:100FD0000700B84206D0FFF783FA401B0228F5D974
:100FE0004AE000BF4FF0B040016841F008010160E5
:100FF0000168D4E9092321F0F001194301605BF88D
:101000008C0C20F47F4040EA02204BF88C0CFFF758
:10101000A1FC5BF8881C3C2202EA910159F80110FE
:1010200040F20802B0FBF1F140F20400C2F200000D
:101030000068C2F200021160FFF77CFA002840F05D
:10104000BB8018E5012041F20451C0F6000151F8BF
:101050002070306820F0070038433060FFF740FA16
:10106000054600BF306800F00700B842CFD0FFF758
:1010700037FA401B0228F5D9012001B0BDE8F08FF6
:10108000FFF72EFADBF80010054621F0800041F250
:101090008836CBF8000000BFDBF8000000057FF5C4
:1010A00080ADFFF71DFA401BB0424FF00300F3D9AB
:1010B00082E000BFDBF8000041F2883620F001003A
:1010C000CBF80000DBF8000080077FF56AADFFF782
:1010D00007FA401BB0424FF00300F3D96CE000BFA9
:1010E0005BF8840C48F28C01C1F2C11104F13007A5
:1010F00008408ECFD4E910650843104340EA03202E
:101100003843304328434BF8840C4FF0B0452868EF
:1011100040F0807028605BF8840C40F080504BF801
:10112000840CFFF7DDF904462868800111D4FFF72D
:10113000D7F9001B0A284FF00300F5D93CE000BFA7
:101140005BF8840C4FF6FC71CEF6FE6108404BF85C
:10115000840C002001B0BDE8F08F00BFFFF7C0F99C
:10116000054600BF306880037FF5E2ACFFF7B8F9B1
:10117000401B64284FF00300F4D91DE0E069DBF860
:10118000041021F010010843CBF80400DBF8040040
:1011900040F00100CBF80400FFF7A2F9054600BFBC
:1011A000DBF8040080073FF5F9ACFFF799F9401B25
:1011B00011284FF00300F3D901B0BDE8F08F000013
:1011C0004EF21000CEF20000016841F00201016011
:1011D0007047000010B540F27004C2F200042068AD
:1011E00010B10138206010BD4FF090400221FFF790
:1011F0006BF9B0FA80F042094FF090400221FFF7FE
:1012000069F96420206010BD411E0020B0EB116F11
:101210001CBF012070474EF21002CEF20002516056
:101220004EF62351CEF20001F0230B70072190609F
:1012300011607047FFF7CEBF4EF21000CEF20000F3
:10124000016821F00201016070470000FEE7000024
:10125000B0B586B000244C200494CDE90244CDE919
:101260000044C5F600000168002241F00101016060
:101270000068022100F00100059005984FF09040B1
:101280000225FFF727F90120CDE9010469464FF057
:10129000904000950394FFF74FF806B0B0BD0000F2
:1012A000FEE70000FEE70000704700007047000006
:1012B00080B5FFF71BF9BDE88040FFF7BBBF00001A
:1012C00070470000FEE700009AB040F20046C5F605
:1012D0000006FFF719F908AC20464821FEF7B0FFD9
:1012E00000250795CDE90555CDE90355CDE9015513
:1012F0003068012161F34A203060306800F4C0603A
:101300000090009820200890802012900220CDE9C3
:10131000130130201590182016904FF400301790CC
:101320004FF0005019904FF0007018902046CDE912
:101330001015FFF789FB28B1EFF3108072B600BFDC
:10134000FEE700BF4F2001900320CDE9020501A870
:101350000221CDE9045507954FF0020BFFF7D2F9B2
:1013600020B1EFF3108072B6FEE700BFFFF770FF09
:1013700020204FF0200AFFF775F94FF66840CFF6AE
:10138000FF70002737504FF66C40CFF6FF70375094
:101390004FF67040CFF6FF7037504FF67840CFF6DB
:1013A000FF7037504FF67C40CFF6FF7037504FF646
:1013B00080404FF60848CFF6FF7008ACCFF6FF78B4
:1013C0004FF0010901AD375041F28830FEF7A0FF20
:1013D000204648210797CDE90577CDE90377CDE988
:1013E0000177FEF72DFF30686BF34A2030603068DC
:1013F00000F4C0600090009856F8080020F0030048
:1014000046F808001020CDE912092046CDF820A0AA
:10141000CDE91097FFF718FB00285BD12846002183
:10142000CDE90197FFF76EF9002859D1FFF704FFC6
:101430004FF0904002210022FFF74CF84FF480401B
:101440000121FFF739F9FFF7D9F820464821FEF7C7
:10145000F7FE0797CDE90577CDE90377CDE9017769
:10146000306869F34A203060306800F4C060009052
:1014700000988020CDE9120B30201590182016908E
:101480004FF4003017904FF0005019904FF000705B
:1014900018902046CDF820A0CDE91097CDF85090B7
:1014A000FFF7D2FA10BB4F2001900320CDE90207CD
:1014B00028460221CDE904770797FFF723F9D8B929
:1014C0004FF0904002210122FFF704F8FFF778FE69
:1014D0007AE700BFEFF3108072B600BFFEE700BFEF
:1014E000EFF3108072B600BFFEE700BFEFF310808D
:1014F00072B600BFFEE700BFEFF3108072B600BF08
:10150000FEE70000000000000100000002000000F3
:1015100001000000030000000500000001000000C1
:1015200001000000060000000A000000200000008A
:10153000020000000400000008000000100000008D
:1015400040000000800000000001000000020000D8
:10155000A0860100400D0300801A060000350C0033
:1015600040420F0080841E0000093D0000127A00F6
:101570000024F40000366E010048E801006CDC0233
:10158000000000000000000000000000000000005B
:10159000B015000800000020100000009C010008A9
:1015A000C01500081000002068060000BC010008FB
:1015B000010000001000000000093D0000000000D4
:0400000508000139B5
:00000001FF
