:020000040800F2
:100000007038002001020008C9620008B15F0008D2
:10001000C56200080D0E0008C9D6000800000000E7
:1000200000000000000000000000000011A7000810
:100030000D150008000000001177000889A70008CE
:100040001B0200081B02000891AD00081B020008FB
:100050001B0200081B0200081B0200081B0200080C
:100060001B0200081B0200081B020008E91400081C
:10007000F51400081B020008011500081B02000807
:100080001B0200081B0200081B0200081B020008DC
:100090001B0200081B0200081B0200081B020008CC
:1000A0009DAD00081B0200081B0200081B0200088F
:1000B0001B0200081B0200081B0200081B020008AC
:1000C0001B0200081B020008359000081B020008F4
:1000D000F5CD00081B0200081B0200081B020008E7
:1000E0001B0200081B020008B97700081B02000869
:1000F0001B0200081B0200081B0200081B0200086C
:100100001B0200081B020008D99300081B0200080C
:100110001B0200081B0200081B0200081B0200084B
:100120001B0200081B0200081B0200081B0200083B
:100130001B0200081B02000800F002F800F050F853
:1001400014A696E8000CB244B344DA4501D100F09D
:1001500047F8BAE80F000FA696E83000A5EB0405B3
:1001600004EB0607AAEB0704A7F101074FEA1515F0
:100170004FEA3414A4F10104AC4201D300F030F88A
:1001800013F0010F18BFFB1A43F0010300F001F850
:10019000DBE718474C3A01006C3A0100103A24BFE3
:1001A00078C878C1FAD8520724BF30C830C144BFDC
:1001B00004680C60704700007047000000230024B2
:1001C00000250026103A28BF78C1FBD8520728BF67
:1001D00030C148BF0B6070471FB51FBD10B510BDC3
:1001E00000F0C4F91146FFF7F7FF0DF085FA00F0B3
:1001F000E2F903B4FFF7F2FF03BC00F0E9F90000F5
:100200000948804709480047FEE7FEE7FEE7FEE7AA
:10021000FEE7FEE7FEE7FEE7FEE7FEE704480549E6
:10022000054A064B704700008DAD000839010008F3
:1002300070320020703800207034002070340020AC
:1002400053EA020C00F069802DE9F04B4FF00006F4
:10025000002B1FBFB3FA83F503FA05F424FA05F661
:100260005E4012BF1643B2FA82F502FA05F4C5F1F8
:1002700020051EBF22FA05FC44EA0C04203556EA8C
:10028000044C4FEA144418BF641C4FF000084FF0B0
:100290000009904271EB030C39D3002919BFB1FA60
:1002A00081F701FA07F6B0FA80F700FA07F6C7F10E
:1002B00020071EBF20FA07FC46EA0C062037B6FBD3
:1002C000F4FCA7EB0507103F07F01F0BCBF120064E
:1002D0002CFA06F60CFA0BFB44BFB3460026202F7F
:1002E000A4BF5E464FF0000B5BEA060C08BF4FF060
:1002F000010B19EB0B0948EB0608ABFB027C06FB74
:1003000002CC0BFB03CCC01B71EB0C01C1E70B460D
:10031000024641464846BDE8F08B13B5084318BF76
:100320004FF0FF300146AFF30080BDE81C4070473E
:1003300040EA010310B59B070FD1042A0DD310C862
:1003400008C9121F9C42F8D020BA19BA884201D9B4
:10035000012010BD4FF0FF3010BD1AB1D30703D0FC
:10036000521C07E0002010BD10F8013B11F8014BB2
:100370001B1B07D110F8013B11F8014B1B1B01D1CE
:10038000921EF1D1184610BD10B5431C02E010F8C2
:10039000011B71B18107FAD14FF0013202C88C1AEA
:1003A0008C4314EAC211F9D0C01A0A0603D0C01E49
:1003B00010BDC01A10BD0A0401D0801E10BD090274
:1003C000FCD0401E10BD032A40F2308010F0030C18
:1003D00000F0158011F8013BBCF1020F624498BF98
:1003E00011F801CB00F8013B38BF11F8013BA2F135
:1003F000040298BF00F801CB38BF00F8013B11F0B0
:10040000030300F08180083AC0F0088051F8043BF3
:10041000083A51F804CBA0E80810F5E7121D5CBFBC
:1004200051F8043B40F8043BAFF30080D20724BFEF
:1004300011F8013B11F801CB48BF11F8012B24BF83
:1004400000F8013B00F801CB48BF00F8012B7047D2
:1004500002F0FF0343EA032242EA024200F00AB834
:1004600002F0FF0343EA032242EA024200F024B80A
:100470004FF000020429C0F0128010F0030C00F0CD
:100480001B80CCF1040CBCF1020F18BF00F8012B4B
:10049000A8BF20F8022BA1EB0C0100F00DB85FEA19
:1004A000C17C24BF00F8012B00F8012B48BF00F8E5
:1004B000012B70474FF0000200B513469446964654
:1004C000203922BFA0E80C50A0E80C50B1F1200167
:1004D000BFF4F7AF090728BFA0E80C5048BF0CC015
:1004E0005DF804EB890028BF40F8042B08BF704773
:1004F00048BF20F8022B11F0804F18BF00F8012BE5
:10050000704770477047704710B5203AC0F00B80B5
:10051000B1E81850A0E81850B1E81850A0E81850F9
:10052000203ABFF4F5AF5FEA027C24BFB1E818506F
:10053000A0E8185044BF18C918C0BDE810405FEAD1
:10054000827C24BF51F8043B40F8043B08BF70474D
:10055000D20728BF31F8023B48BF11F8012B28BF52
:1005600020F8023B48BF00F8012B7047754600F0A9
:100570002BF8AE4605006946534620F00700854635
:1005800018B020B5FFF74AFEBDE820404FF0000646
:100590004FF000074FF000084FF0000BAC46ACE8FE
:1005A000C009ACE8C009ACE8C009ACE8C00921F05A
:1005B00007018D46704710B50446AFF30080204612
:1005C000BDE81040FFF715BE004870474800002006
:1005D00001491820ABBEFEE726000200704700006C
:1005E00080B594B007A80AF0E7F8079841F60E41E5
:1005F000084409A907900AF005F9DDE90D30DDE9A5
:1006000009E1DDE90B2C013300F26C70CDE900212A
:10061000CDE9043006A3002000210022CDF808E037
:10062000CDF80CC00CF0ECFB002014B080BD00BF76
:100630004C54494D453A2530326468253032646D5A
:100640002530326473206F6E20253032642F2530C0
:1006500032642F253034640D0A0000000DF036F8A6
:100660000120704780B58EB002A80BF083F9DDF849
:100670000CC093A3002000210022CDF800C00CF094
:10068000BFFBDDF810C093A3002000210022CDF8AD
:1006900000C00CF0B5FB0298032804D0012869D0F3
:1006A000002840F0DF80DDF814C043F27D53C0F62F
:1006B0000103002000210022CDF800C00CF0A0FBB7
:1006C000DDF818C043F24853C0F6010300200021B2
:1006D0000022CDF800C00CF093FB43F2EF43C0F6CC
:1006E00001030020002100220CF08AFBDDF820C06D
:1006F00043F2B133C0F60103002000210022CDF8FF
:1007000000C00CF07DFBDDF824C043F2C633C0F618
:100710000103002000210022CDF800C00CF070FB86
:10072000029843F2C74143F2DB43C0F60101C0F631
:100730000103002808BF0B460020002100220CF016
:100740005FFBDDF828C043F22D53C0F60103002003
:1007500000210022CDF800C00CF052FB02980028C6
:1007600000F0888043F28543C0F601030020002199
:1007700000228AE0DDF814C041F2C050C0F601004A
:1007800050F82CE043F26943C0F601030020002139
:100790000022CDE900CE0CF033FBDDF818C043F2A7
:1007A000F533C0F60103002000210022CDF800C07F
:1007B0000CF026FBDDF81CC043F2E0330CF1040E14
:1007C000C0F60103002000210022CDE900CE0CF08C
:1007D00017FBDDF820C043F2B133C0F6010300205F
:1007E00000210022CDF800C00CF00AFBDDF824C087
:1007F00043F2C633C0F60103002000210022CDF8E9
:1008000000C00CF0FDFA43F2B243C0F60103002031
:10081000002100220CF0F4FADDF828C043F22D5339
:10082000C0F60103002000210022CDF800C00CF02A
:10083000E7FA2DA30020002100220CF0E1FADDF8F8
:1008400030C034A3002000210022CDF800C00CF0FD
:10085000D7FA37A30020002100220CF0D1FA0020A3
:100860000EB080BDDDF818C043F26253C0F601033C
:100870001CE000BFDDF82CC043F29353C0F6010327
:10088000002000210022CDF800C00CF0B9FA43F29C
:100890000F53C0F601030020002100220CF0B0FA33
:1008A000DDF834C043F20243C0F60103002000210A
:1008B0000022CDF800C00CF0A3FA00200EB080BDDD
:1008C000313A20467265713D20256420487A0D0A30
:1008D00000000000323A20506F7765723D20256499
:1008E0002064426D0D0A000031303A204672657175
:1008F00075656E637920646576696174696F6E20D1
:100900006E6F74206170706C696361626C650D0A52
:100910000000000031313A204C6F7744526F707400
:100920005B3020746F20325D3D202564200D0A006D
:1009300031322042542070726F64756374206E6F80
:1009400074206170706C696361626C650D0A0000EF
:1009500080B582B043F2AE51C0F6010101AA0DF09C
:1009600067FF012808D101980AF01AFC002818BF77
:10097000012002B080BD00BF04A30020002100229E
:100980000CF03EFA022002B080BD00BF41542B544F
:1009900052583A206E6220657870656374656420F1
:1009A0007061636B657473206973206D697373691B
:1009B0006E670D0A0000000080B50AF06BFD00288C
:1009C00018BF032080BD000070B5A4B0044618A86D
:1009D0003021FFF76FFD0CA80DA90EAACDE9082163
:1009E0000A9011A912AA13AB0BA80DF13C0C0DF142
:1009F000400E14AD15AECDE90203CDE904215CA192
:100A000017AA16AB2046CDE90065CDF818E0CDF861
:100A10001CC00DF00DFF0D2840F08E8018AC204654
:100A20000AF0A8FF1099032900F28680DFE801F0A0
:100A300002080406002004E0022002E0032000E097
:100A400001201890179A44F240231698C0F20F0321
:100A5000B2F57A7F38BF5A4300F109031F2B199270
:100A60006AD81A90159842F23902C0F2070279B991
:100A7000B0F5965F0CD390420AD2149A49F28916C7
:100A8000A2F51673C0F20406B3421B902ED353E0B6
:100A9000032911D1B0F5965F0ED390420CD2149A6F
:100AA00049F28916C0F20406A2F1640306F5FA764B
:100AB000B3421B9040D219E001290FD107280DD273
:100AC000149A1B90531F072B36D813981C92431F60
:100AD000032B31D8021F142009E000BF02294FF078
:100AE000020043D1149AB2F57A7F3FD81020129BAE
:100AF0002250012B20D811981E93012898BF1F90D7
:100B00000F9A501EFE2817D8481E0328209207D29D
:100B1000012915D80D9903290ED2282021E000BF04
:100B20000E9840F6E823A0F51672C0F203039A422D
:100B300002D8219006E000BF022024B070BD00BFA3
:100B400002280FD10029084618BF0120033918BF19
:100B5000012108424FF0020008D10C99042905D860
:100B60002C20215018A80AF00FFF002024B070BDDF
:100B700025643A25643A25643A25643A25642F258C
:100B8000643A25643A25643A25643A25643A256432
:100B90003A25643A2564000080B50AF001FF04A3F9
:100BA0000020002100220CF02BF9002080BD00BFA6
:100BB000546573742053746F700D0A0080B582B051
:100BC00043F2AE51C0F6010101AA0DF031FE012839
:100BD00008D101980AF0FCFC002818BF012002B0DF
:100BE00080BD00BF04A30020002100220CF008F902
:100BF000022002B080BD00BF41542B5454583A200B
:100C00006E62207061636B6574732073656E74200F
:100C10006973206D697373696E670D0A00000000C7
:100C200080B50AF079FE002818BF032080BD0000BF
:100C30002DE9F04194B010AF11AE25A113AA12AB6B
:100C4000CDE900670DF0F4FD042839D1139EF008BA
:100C50007C2844F24020C0F20F009CBF464313960C
:100C60001299CA087C2A9CBF48431290109818B366
:100C7000002704AC0FF2640820460AF07BFE2046F1
:100C800005960AF081FE109D0020002101224346B6
:100C9000CDE9006702950CF0B3F801200AF098FC4A
:100CA00090B9119801373044DDE91216884298BF97
:100CB000064610988742DFD3002014B0BDE8F081CB
:100CC000022014B0BDE8F081032014B0BDE8F0812B
:100CD00025752C25752C25752C25750054782048F4
:100CE0006F70206174202564487A2E202564206F5F
:100CF000662025640D0A000080B582B00CF0A0F9D2
:100D0000844605A3002000210022CDF800C00CF08D
:100D100077F8002002B080BD25750D0A00000000A4
:100D200080B582B043F2AE51C0F6010101AA0DF0C8
:100D30007FFD012808D1019804280FD343F22543F1
:100D4000C0F6010301E000BF07A30020002100223C
:100D50000CF056F8022002B080BD00BFC0B20CF00B
:100D6000ADF9002002B080BD41542B564C3A20769C
:100D70006572626F7365206C6576656C206973209F
:100D80006E6F742077656C6C207365740D0A0000BB
:100D900070B584B00024032501260AA30020002199
:100DA0000022CDE9006502940CF02AF80EA3002081
:100DB00000210022CDE9006502940CF021F800200A
:100DC00004B070BD4150504C49434154494F4E5FAF
:100DD00056455253494F4E3A205625582E25582EE7
:100DE00025580D0A000000004D575F524144494FFD
:100DF0005F56455253494F4E3A20202020562558E1
:100E00002E25582E25580D0A00000000FEE7000090
:100E100040F2B801C2F200010A69531C092B0B61B0
:100E200004D1012008700A610AE000BF8A680078D6
:100E3000531C0A448B60082B107604BF0020886086
:100E40004868002808BF70470047000010B50446F6
:100E500040F61160C0F600000CF036F940F2B80020
:100E6000C2F200000021002C18BF4460C0E902114A
:100E7000C0E90411017010BD2DE9F04F83B040F2BC
:100E8000B809C2F2000999F8000001281ED143F602
:100E9000BA04C0F6010400BF00200021002223464E
:100EA0000BF0AEFF0028F7D1EFF31080EFF31081C5
:100EB00072B6D9F80810C9F80C100021C9F8101042
:100EC00089F8001080F31088C9F81410D9F81000C0
:100ED000002800F0D58241F2147443F6980543F6D9
:100EE000BA06C2F200044FF0000AC0F60105C0F6CF
:100EF00001061CE00131531CC9F80C10C9F814306C
:100F00000829A05408BFC9F80CA0EFF31080EFF334
:100F1000108172B6D9F810100139C9F8101080F399
:100F2000108800BFD9F81000002800F0A982D9F875
:100F30000C1009EB0100007E0D2818BF0A284DD1C6
:100F4000481CB0F1080118BF0146C9F80C10EFF3B6
:100F50001080EFF3108172B6D9F810100139C9F87A
:100F6000101080F31088D9F814000028DAD0002778
:100F700000222754EFF31083EFF3108072B6019331
:100F800002E000BF01370432A05C082810D000281E
:100F90005AD0A018417808290FD0002958D081785C
:100FA00008290ED0002959D0C07808280DD1E9E7CA
:100FB0000137A01841780829EFD101378178082935
:100FC000F0D10137C0780828DCD00028DBD102F14D
:100FD00001090332002F45D1A6E000BF01281FD12F
:100FE000481CB0F1080118BF0146C9F80C10EFF316
:100FF0001080EFF3108172B6D9F810100139C9F8DA
:10100000101080F3108800BF0020002100222B4622
:101010000BF0F6FE0028F7D1C9F814A082E700BF54
:10102000D9F8142040F21B239A427FF463AFC9F829
:1010300014A000BF00200021002233460BF0E0FE88
:101040000028F7D16EE700BFA2F1020957B96BE0A3
:10105000A2F1010901322FB966E000BF91460232C8
:10106000002F61D0C9F1000CA9F1010E00200297F8
:1010700013E000BF41F21474029F4946C2F200041B
:101080004FF0000A0130A9F102090CF1020CB8423C
:10109000AEF1020E24F801A046D04FF0FF3500BF9C
:1010A00061194E78082E0BD08E78082E0CD0CE7891
:1010B000082E35D0097904350829F1D105E000BFA3
:1010C00001351DB930E000BF02356DB3691E023A2B
:1010D0009142D7D276462146674600BF01EB050B09
:1010E0009BF801A015EB07080BF801ACC2D09BF8E8
:1010F0000230B5424B55BDD09BF8033018F10204C5
:101100008BF80130B6D09BF8043004378BF80230EE
:10111000EB190431012BA6F10406DFD1AAE700BFC9
:101120000335002DD2D100BF019880F310882078BC
:101130000126412840F0A680607840F2B80943F6C5
:10114000551743F6DA155428C2F20009C0F6010714
:10115000C0F6010540F07881A678002E00F090805E
:101160003F2E40F0958000BF0020002100223B462A
:101170000BF046FE0028F7D10020002100222B466C
:101180000BF03EFE0028F7D143F6D505C0F6010569
:101190000020002100222B460BF032FE0028F7D160
:1011A00043F60825C0F601050020002100222B4649
:1011B0000BF026FE0028F7D143F63425C0F60105D2
:1011C0000020002100222B460BF01AFE0028F7D148
:1011D00043F6AB25C0F601050020002100222B4676
:1011E0000BF00EFE0028F7D143F6CA25C0F6010524
:1011F0000020002100222B460BF002FE0028F7D130
:1012000043F2B155C0F601050020002100222B4613
:101210000BF0F6FD0028F7D143F64B25C0F601058B
:101220000020002100222B460BF0EAFD0028F7D118
:1012300043F61215C0F601050020002100222B46BE
:101240000BF0DEFD0028F7D143F6EE25C0F60105D0
:101250000020002100222B460BF0D2FD0028F7D100
:1012600043F68A25C0F601050020002100222B4606
:101270000BF0C6FD0028F7D10BF006FF0128FBD1CB
:101280000026E1E040F2B809C2F20009DCE000BF4C
:10129000D4F8020045F22B61C5F2452188421FD0E7
:1012A00004F1020843F692314046C0F601010322E0
:1012B0000327FFF73DF8C8B143F66B314046C0F64F
:1012C000010106220627FFF733F8B8B15A2E1DD1C7
:1012D00041F24860C0F6010000F1480101278EE0AC
:1012E00041F248610427C0F6010188E041F24860FC
:1012F000C0F6010000F1180181E000BF41F2486032
:10130000C0F6010000F1300179E000BF43F6723110
:101310004046C0F6010106220627FFF709F800281B
:101320003ED043F68B314046C0F601010622062727
:10133000FEF7FEFFE0B343F67F314046C0F6010101
:1013400006220627FEF7F4FFD0B3D4F8020045F2D8
:101350002B41C5F6540188423AD0D4F8020045F238
:101360002B41C5F6520188423AD0D4F8020045F22A
:101370002B41C4F6540188423AD043F679314046B5
:10138000C0F6010105220527FEF7D2FF002849D14A
:1013900041F24860C0F6010000F1F0012FE000BF0B
:1013A00041F24860C0F6010000F1600127E000BF93
:1013B00041F24860C0F6010000F178011FE000BF73
:1013C00041F24860C0F6010000F1900117E000BF53
:1013D00041F24860C0F6010000F1A8010EE000BF34
:1013E00041F24860C0F6010000F1C00106E000BF14
:1013F00041F24860C0F6010000F1D8010427E2196B
:1014000012F8020FD0B13D280ED03F280AD14F6903
:101410000020002100223B4600260BF0F1FC0028B2
:10142000F6D111E001260FE0104610F8013F3F2BE6
:1014300001D1927812B30C2302E000BF10231046B2
:10144000C9588847064600BF0A2E28BF0A260EA0A4
:1014500050F8266000200021002233460BF0D0FC1B
:101460000028F7D143F6980543F6BA06C9F814A048
:10147000C0F60105C0F6010654E500BF0823DFE70A
:1014800003B0BDE8F08F00BF5D3801088B3801085C
:1014900064380108A8380108BA3801080F38010873
:1014A00098380108443801082838010877380108BD
:1014B000F639010841F2AC20C2F2000000680121B7
:1014C0000CF0B4BA80B540F69000C5F60000016893
:1014D00041F48041016000F021F800F033F8BDE8EC
:1014E000804000F025B8000041F6F410C2F2000080
:1014F00000F038B941F69410C2F2000000F032B9A1
:1015000041F63410C2F2000000F02CB97047000020
:10151000EFF3108072B600BFFEE7000042F2040055
:10152000CEF20400016841F0010101607047000043
:1015300042F20400CEF20400016841F004010160AF
:101540007047000042F20400CEF20400016841F04E
:101550000201016070470000002804BF01207047AD
:1015600090F8251002292DD180B50168D0E910CE60
:10157000826C0B6823F00E030B60136823F48073F6
:1015800013600A6822F001020A600EF01C020121B9
:1015900001FA02F2CCF80420D0E913325A60426D0D
:1015A00032B1136823F480731360D0E916235360BB
:1015B00080F825100021BDE88040002280F824201A
:1015C000084670470421C1630121002280F82420CD
:1015D0000846704790F8251002292FD180B5016880
:1015E000D0E910CE826C0B6823F00E030B600B6801
:1015F00023F001030B60116821F4807111600EF07B
:101600001C02012101FA02F2CCF80420D0E91332C5
:101610005A60426D32B1136823F480731360D0E9CD
:101620001623536080F82510816B0022002980F872
:10163000242018BF8847002080BD00BF0421C1635B
:1016400001207047002804BF012070470068CB06C6
:10165000026805D5C90254BF22F4801242F48012F8
:10166000026000207047000000284FF0010C04BF0A
:10167000012070472DE9F04F40F20444D0E9002EDC
:10168000C4F202044FF6F831231DCBF6FD719A42E5
:1016900038BF01F580614CF6CD451144CCF6CC4500
:1016A000A1FB051A02F0FC01A1F10801A1FB051B39
:1016B000116840F2000921F00101C4F20209116031
:1016C00009F580616FF003063CBF0021C4F20201FE
:1016D00004F5836506EA9A061C279A4238BF04F58A
:1016E0007F75C0E91016002107EA9A0711600CFA0D
:1016F00007F79A4238BF09F104042760072404EB76
:101700001B149A4238BF4FEA1B1404F01F0240F624
:1017100080080CFA02F3AEF10102C4F20208AF191C
:10172000032AC0E912780365A951C8F8043008D823
:10173000012708EB820307FA02F2C3F88010C8F809
:10174000C420C0E91511C165C0E90B11C0E90D1134
:10175000C16380F8251080F82410BDE8F04F0846DA
:101760007047000070B5D0E910C20168DCF8004095
:1017700002F01C0304220E689A40224218BF16F0A1
:10178000040523D1022202FA03FE1EEA040F18BF49
:1017900016F002022AD124FA03F2120714D516F029
:1017A000080208BF70BD0A6822F00E020A6001211B
:1017B00001FA03F2CCF80420C16380F82510416BD4
:1017C000002280F8242069B970BD00BF0B689B0619
:1017D00003D40B6823F004030B60CCF80420016BE6
:1017E0000029F1D0BDE87040084700BF0A689206A2
:1017F00006D40A6822F00A020A60012280F8252035
:101800000422C4F2020202F17C03994288BF02F56D
:101810008062C2F800E0C16A0022002980F824201A
:10182000E0D1D1E700284FF0010100F091802DE9CF
:10183000F04F0026C4F2020603684FF6F83706F5AB
:101840008169CBF6FD774B4538BF07F580674CF6CD
:10185000CD451F44CCF6CC45A7FB057803F0FC072B
:10186000A7F1080740F6840EA7FB057BC4F2020E21
:1018700006F580646FF00305D0E902AC02693CBF55
:101880000024C4F20204AEF1680705EA98054B454E
:1018900038BF06F50067C0E91045022480F82540EE
:1018A0001C6847F6F07624EA06061E60466942EA9E
:1018B0000C0284693243C6692243046A32431E68BB
:1018C0002243324342EA0A021A604B454FF00703B3
:1018D00003EB1B1338BF4FEA1B1303F01F037A19E6
:1018E000AEF1040701FA03F3BAF5804FC7648264CE
:1018F000036505D1002141601160CEF8003019E088
:10190000416801F07F07013903294FF0000117609A
:10191000CEF800300ED87A1E0EEB820747F87C1FF7
:1019200002F0030101228A400EF1BC033946CEF8D1
:10193000C02001E000230022C0E91513C265002188
:101940000122C16380F8252080F82410BDE8F04F03
:101950000846704790F824C0BCF1010F04BF022074
:1019600070474FF0010C80F824C090F825C0BCF1FE
:10197000010F3BD12DE9F0414FF0020C80F825C05A
:101980004FF0000CC0F83CC0D0F800C000F14C0E85
:101990009EE83040DCF80060BEF1000F26F0010642
:1019A000CCF8006065601CBFD0E916456560D0E9E1
:1019B0001056012706F01C06846807FA06F6D0F8D0
:1019C00030806E60CCF804300B46102C04BF1346F8
:1019D0000A46CCF80830CCF80C20DCF80010B8F13E
:1019E000000F0BD041F00E0110E000BF8021C16359
:1019F000002180F824100120704700BF21F004016D
:101A0000CCF80010DCF8001041F00A01CCF800100E
:101A1000806C0168C90303D5016841F480710160DD
:101A2000BEF1000F05D0DEF8000040F48070CEF863
:101A30000000DCF8000040F00100CCF800000020BD
:101A4000BDE8F081B0B5044600F074F9054640F2F7
:101A50000000C2F200000078611C18BF044400BFFF
:101A600000F068F9401BA042FAD3B0BD002908BFBE
:101A700070472DE9F04F82B040F60003C4F6000332
:101A80000722984208BF0222009200F12002019230
:101A9000019C4FF0000B00274FF0000A25E000BF2B
:101AA0000668032202FA0BF52E436FF0030206606C
:101AB00002EA5A0207F01C0EA3580F2606FA0EF689
:101AC000B343A3508268AA438260426822EA0C02B0
:101AD0004260C268AA43C2600AF1010A31FA0AF2FE
:101AE00007F104070BF1020B4CD0012202FA0AFCA9
:101AF0001CEA0108F0D008222AF00305C4F2010212
:101B0000AB58B0F1904F0BD040F20042C4F6000247
:101B1000DDF800E0904208BF4FF0010E02E000BF88
:101B20004FF0000E07F00C05072202FA05F903EA50
:101B300009060EFA05F5AE42B2D140F60002C5F62E
:101B40000002D2F880604FEA9A0526EA0806C2F839
:101B50008060D2F8846026EA0806C2F884601668BD
:101B600026EA08061660566826EA08065660082225
:101B7000C4F2010252F8256026EA090642F82560FF
:101B80008EE700BF02B0BDE8F04F70472DE9F04F7F
:101B900082B00F68002F00F0BD8000F1200240F6F7
:101BA00000030092C4F6000307224FF0000A00264B
:101BB0004FF00008984208BF022201924AE000BF9D
:101BC00040F20042C4F60002019B904208BF01238C
:101BD0000AF00C050727AF402CEA0707AB403B4350
:101BE00008274FEA9802C4F2010740F6000447F8BC
:101BF0002230C5F6000422684B6842EA0907DD027C
:101C000058BF22EA0907276062689D0242EA090775
:101C100058BF22EA09076760D4F88020DD0342EA52
:101C2000090758BF22EA0907C4F88070D4F8842055
:101C30009B0342EA090758BF22EA0907C4F88470E7
:101C40000F6808F1010837FA08F206F102060AF1F6
:101C5000040A5FD0012202FA08FE17EA0E09EFD04B
:101C6000D1F804C003220CF0030BABF1010302FA1C
:101C700006F7012B6FEA070410D88368CF6823406A
:101C8000B7403B4383604368CCF3001723EA0E035D
:101C900007FA08F73B43436006E000BFBBF1030FC0
:101CA00002D14FF0030B1EE0C3688F682340B7409A
:101CB0003B43BBF1020FC36015D16FF00302009BE1
:101CC00002EA580E53F80EC00AF01C050F220F69E5
:101CD000AA402CEA0202AF403A4343F80E20D1F862
:101CE00004C00CF0030B02680BFA06F322401A43FF
:101CF0001CF4403F0260A3D0082328F00302C4F282
:101D0000010352F803C0B0F1904F7FF459AF0023A4
:101D10005EE700BF02B0BDE8F08F00000069084038
:101D200018BF0120704700001823002A08BF28238D
:101D3000C150704743F22C20C2F200000068704787
:101D400040F2000043F22C21C2F20000C2F2000176
:101D500000780A68104408607047000080B50320CE
:101D600000F0BEF800F02AFB40F20C01C2F20001C4
:101D700008600F2000F008F800281CBF012080BD7B
:101D800000F054F8002080BDB0B588B06021C5F6E1
:101D900000010A68054642F400620A60096801A869
:101DA00001F4006101910199694600F0DBFA00F04D
:101DB00033FB4DF68361C4F21B31A0FB01014FF0F0
:101DC000FF3000EB914141F6FC2042F60042C2F2A6
:101DD0000000C4F2010240F2E7330024C0E9002110
:101DE000C0E90243046103F0D1F808B108B0B0BD06
:101DF00041F6FC20C2F2000003F03CF90028F5D1C6
:101E0000182000F02FF80F2D0CD81820294600229A
:101E100000F03AF840F204010020C2F200010D6027
:101E200008B0B0BD012008B0B0BD00006FF00100E7
:101E30000F21002200F028B8002848BF704700F0AA
:101E40001F01012202FA01F11C2202EAD0004EF227
:101E50008012CEF200028150BFF34F8FBFF36F8F1D
:101E600070470000002848BF704700F01F010122A2
:101E700002FA01F11C2202EAD0004EF20012CEF268
:101E8000000281507047000010B54EF60C5CCEF297
:101E9000000CDCF80030C3F3022E8EF00704042C93
:101EA00028BF0424BEF103034FF0FF3E0EFA04F4F2
:101EB00038BF0023A14399400EFA03F39A4311431C
:101EC00000F00F0200F160430901043A03F5644396
:101ED0006244002848BF02F10C03197010BD0000D5
:101EE0004EF60C51CEF200010A684FF6FF031A407D
:101EF00060F30A2242F0806040F0FD700860704795
:101F000040F20040C5F60000006800F4C060704771
:101F100040F20040C5F60000016841F480710160A4
:101F200070470000F0B581B0044680788826C0076D
:101F3000C5F6000600F0AC80FFF7EAFFFFF7FAFEF7
:101F4000054600BFD6F87803C00577D4FFF7F2FE48
:101F5000401B0228F6D903202168CA0700F09D80A3
:101F60006268336823EA124392B21A4332608A07E6
:101F700040F19680A268336823EA124392B21A4372
:101F800032608A0640F18F802269336823F440630F
:101F90001A4332608A0540F18980226A33684FF61D
:101FA000FF7767EA02073B4043EA024232604A0594
:101FB00040F17F80626A33684FF6FF7767EA020775
:101FC0003B4043EA024232600A0575D5A26A336893
:101FD0004FF6FF7767EA02073B4043EA024232606E
:101FE0004A066BD5626933686FF47F2767EA121778
:101FF0003B4002F47F4243EA021232600A065FD598
:10200000A26933686FF47F2767EA12173B4002F436
:102010007F4243EA02123260CA0553D5E26933684F
:102020006FF47F2767EA12173B4002F47F4243EACE
:1020300002123260CA0657D546E000BFB168606B35
:1020400001F4407181421ED0B168B26821F440733E
:1020500042F48032B260B268890722F480320146CD
:10206000B260B3600FD5FFF765FE054641F28837D1
:10207000B068800706D4FFF75DFE401BB842F7D971
:1020800069E700BF616BB06820F440700843B0603E
:1020900000202168CA077FF463AF8A073FF56AAF63
:1020A0008A063FF571AF8A053FF577AF4A053FF5E0
:1020B00081AF0A053FF58AAF4A0693D40A069FD43A
:1020C000CA05ABD4CA060FD5E2683368B2F5807F83
:1020D00023F4407343EA0203336005D156F87C2CA5
:1020E00042F0807246F87C2C0A0407D5226B3368D4
:1020F00023F0404343EA020333609AB1490419D5FF
:10210000E16A3268B1F1005F22F0405242EA010216
:1021100032600FD156F87C1C41F4803146F87C1CAB
:1021200001B0F0BD56F87C2C42F0807246F87C2C51
:102130004904E5D401B0F0BD2DE9F04381B0002899
:1021400000F0EA8044F20008C5F600080546D8F819
:1021500000000C4600F00700884215D2D8F80000B5
:1021600020F007002043C8F80000FFF7E3FD064613
:10217000D8F8000000F00700A04205D0FFF7DAFD14
:10218000801B0228F4D977E0286808278107C5F664
:10219000000714D5A868396821F0F00108433860B9
:1021A000FFF7C8FD064600BF3868C00306D4FFF736
:1021B000C1FD801B0228F7D95EE000BF28688106B8
:1021C00015D56869D7F8001121F0F0010843C7F868
:1021D0000001FFF7AFFD0646D7F80001800305D4E4
:1021E000FFF7A8FD801B0228F6D945E028684106C4
:1021F00017D5A869D7F8001121F00F0141EA101096
:10220000C7F80001FFF796FD064600BFD7F80001AA
:10221000C00305D4FFF78EFD801B0228F6D92BE002
:102220002868410713D5E868396821F4E06108435C
:102230003860FFF77FFD06463868800306D4FFF755
:1022400079FD801B0228F7D916E000BF2868010736
:1022500017D52869396821F4605141EAC000386017
:10226000FFF768FD064600BF3868400308D4FFF753
:1022700061FD801B0228F7D9032001B0BDE8F0837F
:102280002868C0071ED1D8F8000000F00700A0425F
:1022900024D9D8F8000020F007002043C8F8000037
:1022A000FFF748FD054600BFD8F8000000F0070022
:1022B000A04213D0FFF73EFD401B02284FF0030061
:1022C000F2D947E068684FF0B041096840B303288D
:1022D00020D0022842D189031ED523E000F0B8F8AF
:1022E00039683C2202EA910141F2E852C0F601024B
:1022F000515840F20C02B0FBF1F140F20400C2F27E
:1023000000000068C2F20002116001B0BDE8F043B5
:10231000FFF73ABD890105D4012001B0BDE8F08383
:102320008907F9D5396821F0030108433860FFF7C0
:1023300001FD064641F288393868696800F00C00F2
:10234000B0EB810F9FD0FFF7F5FC801B48454FF0A5
:102350000300F1D901B0BDE8F08300BF4905DBD52A
:10236000E0E70000002818BF002901D1704700BF36
:102370006F2240F2080C0260C5F6000CDCF8003059
:1023800003F00C02426003F0F002826003F4E062AA
:10239000C26003F460520261DCF8002102F0F00335
:1023A0001201D2B24361826144F20000C5F600001E
:1023B000006800F0070008607047000080B500F07A
:1023C00047F80821C5F6000109683C2202EA91019C
:1023D00041F2E852C0F601025158B0FBF1F080BD65
:1023E00080B500F035F80821C5F600010A683C23E5
:1023F00003EA920241F2E853C0F601039A580968D1
:10240000B0FBF2F041F22862C1F30221C0F60102F2
:1024100052F82110C84080BD80B500F019F808219D
:10242000C5F600010A683C2303EA920241F2E85330
:10243000C0F601039A580968B0FBF2F041F2286235
:10244000C1F3C221C0F6010252F82110C84080BD7C
:102450000C21C5F6000151F8040C10F00C020868BC
:1024600005D00C2A16D100F00300012812D14FF03C
:10247000B040036800681B0706D400071CD4D1F8DD
:102480008800C0F3032022E000071BD4D1F88800A5
:1024900015E000BF42F20040042AC0F2F40022D04E
:1024A000082A1FD14FF0B0421268D2025CBF44F636
:1024B0000000C0F2E81016E04FF0B04000680020C5
:1024C00005E000BF4FF0B0400068C0F3031041F6D4
:1024D0000403C0F6010353F82030002A184618BF41
:1024E000002001E00020002351F8042C02F00C022F
:1024F0000C2A18BF7047086800F0030242F200403F
:10250000022AC0F2F4000AD0032A09D14FF0B042E7
:102510001268D2025CBF44F60000C0F2E810034625
:1025200008680A68C0F30620C2F302125843013259
:102530000968B0FBF2F0012202EB5171B0FBF1F03F
:1025400070470000002804BF012070472DE9F04FBC
:1025500081B040F2900B0446C5F6000B5BF8880C86
:102560005BF8841C227800F00C08900601F0030A46
:1025700026D42078C00759D0B8F1080F52D0B8F14E
:102580000C0F08BFBAF1030F4CD04FF0B0400268F7
:10259000D4E9011322F480121A4302600268B1F5F3
:1025A000803F09D0B1F5041F40F0348242F400119D
:1025B0004FF0B0421160126842F48031016035E2A0
:1025C000B8F1000F1ED0B8F10C0F08BFBAF1010F1F
:1025D00018D0216A4FF0B0463068002900F06881B9
:1025E00040F001003060FFF7A5FB0546306880072A
:1025F00000F18681FFF79EFB401B02284FF003008D
:10260000F4D957E3206A002800F0B4824FF0B041BB
:10261000A06A0A68120700F1D380DBF804100909E8
:10262000CFE000BF6068002800F0A4822078800717
:102630002FD5B8F1040F1FD0B8F10C0F08BFBAF1B5
:10264000020F19D021694FF0B0463068002900F020
:10265000FF8140F480703060FFF76CFB054600BFDF
:10266000306840050CD4FFF765FB401B02284FF093
:102670000300F5D91EE300BF2069002800F07A822C
:1026800060695BF88C1C21F0FE4141EA00604BF868
:102690008C0C2078000729D42078400752D4E56AB2
:1026A000002D00F0D482B8F10C0F40F03F81012DD5
:1026B00000F060825BF8840C216B00F003028A4218
:1026C00040F05882616B00F070028A4240F0528202
:1026D000A16B00F4FE42B2EB012F40F04B82616C23
:1026E00000F06040884200F0B28243E2A069DBF86B
:1026F0000410002800F0EE80E06901F01002904222
:1027000000F0C28201F00302022A00F03382C907FE
:1027100000F0B382DBF8040020F00100CBF80400E5
:10272000FFF708FB054600BFDBF80400800740F117
:10273000A382FFF7FFFA401B11284FF00300F3D9E3
:10274000B8E200BFDBF87003C00511D4FFF7E0FB6F
:10275000FFF7F0FA054600BFDBF87003C00507D4A9
:10276000FFF7E8FA401B02284FF00300F4D9A1E27A
:10277000E068002800F07E81852801D0052805D179
:10278000DBF8000040F00400CBF80000FFF7D2FABD
:10279000DBF80010054641F0010041F28836CBF825
:1027A000000000BFDBF80000800700F11381FFF795
:1027B000C1FA401BB0424FF00300F3D97AE200BFE8
:1027C000096801F0F00144F20006884241F2E8593C
:1027D00041F60401C5F60006C0F60109C0F6010184
:1027E00028D93C2202EA90000858DBF8781001F062
:1027F0000F0159F82110B0FBF1F5FFF781FBB0F59F
:10280000007F40F0B7804EF6BF20C0F22110854215
:1028100040F2DC8049F23F30C0F23420854240F281
:1028200043814AF63F60C0F2EB20854240F2B68019
:10283000002740E14FF0B042136843F008031360F3
:10284000136823F0F00303431360626A5BF88C3C67
:1028500023F47F4343EA02224BF88C2C6FF00302EF
:1028600002EA90000858DBF8781001F00F0159F8DF
:102870002110B0FBF1F5FFF743FBB0F5007F40F00E
:102880008F804EF6BF20C0F22110854240F2A0801A
:1028900049F23F30C0F23420854240F251814AF67D
:1028A0003F60C0F2EB20854240F28E8000274EE16F
:1028B00020F001003060FFF73DFA054630688007E0
:1028C0007FF557AEFFF736FA401B02284FF00300A2
:1028D000F4D9EFE121F00100CBF80400FFF72AFA68
:1028E000054600BFDBF8040080077FF5D5AEFFF793
:1028F00021FA401B11284FF00300F3D9DAE100BFA1
:102900004FF0B040016841F0080101600168D4E96E
:10291000092321F0F001194301605BF88C0C20F4CD
:102920007F4040EA02204BF88C0C22E64FF0B04684
:10293000306820F080703060FFF7FCF9022D05460A
:102940000CD100BF3068800140F14881FFF7F2F9F7
:10295000401B0A284FF00300F4D9ABE13068800136
:1029600040F16C81FFF7E6F9401B0A284FF00300A5
:10297000F4D99FE14CF6BF70C0F26A00854225D9B8
:1029800045F63F50C0F2C600854240F28D8046F2C7
:102990003F60C0F2031085423FF64AAF022084E058
:1029A0004CF6BF70C0F26A00854211D945F63F501F
:1029B000C0F2C600854240F2C38046F23F60C0F2DA
:1029C000031085423FF672AF0220BAE000206CE0AF
:1029D0000020B6E0E06840F00400852840F0CE809A
:1029E000FFF7A8F9DBF80010054641F0800041F23E
:1029F0008836CBF8000000BFDBF8000000053FF58B
:102A00004EAEFFF797F9401BB0424FF00300F3D9E9
:102A100050E100BF22F480304FF0B04630603068A3
:102A2000002920F40010306000F01681FFF782F9D1
:102A300005464FF0B04600BF306880033FF5F6AD65
:102A4000FFF778F9401B64284FF00300F4D931E117
:102A500020F480703060FFF76DF90546306840055E
:102A60007FF517AEFFF766F9401B02284FF0030011
:102A7000F4D91FE1FFF75EF9DBF80010064621F0FC
:102A8000800041F28837CBF8000000BFDBF800502F
:102A9000FFF750F92905054640F18A80A81BB84286
:102AA0004FF00300F2D905E1012041F2DC51C0F6FC
:102AB000010151F82070306820F007003843306081
:102AC000FFF738F9054600BF306800F00700B8424C
:102AD00006D0FFF72FF9401B0228F5D94AE000BFC6
:102AE0004FF0B040016841F0080101600168D4E98D
:102AF000092321F0F001194301605BF88C0C20F4EC
:102B00007F4040EA02204BF88C0CFFF7A1FC5BF8F9
:102B1000881C3C2202EA910159F8011040F20C0293
:102B2000B0FBF1F140F20400C2F200000068C2F212
:102B300000021160FFF728F9002840F0BB8018E57B
:102B4000012041F2DC51C0F6010151F820703068DB
:102B500020F0070038433060FFF7ECF8054600BF6F
:102B6000306800F00700B842CFD0FFF7E3F8401B11
:102B70000228F5D9012001B0BDE8F08FFFF7DAF89F
:102B8000DBF80010054621F0800041F28836CBF8D2
:102B9000000000BFDBF8000000057FF580ADFFF707
:102BA000C9F8401BB0424FF00300F3D982E000BFE8
:102BB000DBF8000041F2883620F00100CBF800007D
:102BC000DBF8000080077FF56AADFFF7B3F8401B24
:102BD000B0424FF00300F3D96CE000BF5BF8840C07
:102BE00048F28C01C1F2C11104F1300708408ECFC8
:102BF000D4E910650843104340EA032038433043CA
:102C000028434BF8840C4FF0B045286840F08070A2
:102C100028605BF8840C40F080504BF8840CFFF780
:102C200089F804462868800111D4FFF783F8001B57
:102C30000A284FF00300F5D93CE000BF5BF8840C94
:102C40004FF6FC71CEF6FE6108404BF8840C002074
:102C500001B0BDE8F08F00BFFFF76CF8054600BF7C
:102C6000306880037FF5E2ACFFF764F8401B64280E
:102C70004FF00300F4D91DE0E069DBF8041021F007
:102C800010010843CBF80400DBF8040040F0010019
:102C9000CBF80400FFF74EF8054600BFDBF8040050
:102CA00080073FF5F9ACFFF745F8401B11284FF0BE
:102CB0000300F3D901B0BDE8F08F000070470000B9
:102CC0004BF20010C4F2000050F8210070470000E1
:102CD0004BF20010C4F2000040F8212070470000C1
:102CE00090F82C1001294FF0020117D080F82D1018
:102CF00042F62401C4F20001CA220A6053220A608B
:102D000051F80C2C42F0200241F80C2CFF220A60F2
:102D1000012180F82D10002180F82C100846704702
:102D200010B541F65424C2F2000420460221FFF7F8
:102D3000C7FF421C20460221BDE81040FFF7C8BF74
:102D400010B542F65401C4F200010A680446520666
:102D500004D5402088602046FFF7E2FF012084F878
:102D60002D0010BD90F82C1001294FF002011FD04A
:102D700080F82D1042F62401C4F20001CA220A6034
:102D800053220A6051F80C2C42F0800241F80C2CBE
:102D900040F68002C5F60002136843F480231360F6
:102DA000FF220A60012180F82D10002180F82C10EC
:102DB000084670470AF04EBA70B542F65C05044604
:102DC000C4F2000555F8080C216B01EA0006F00773
:102DD00006D1B0070BD4012084F82D0070BD00BFD0
:102DE000012028602046FFF7E5FFB007F3D5022059
:102DF00028602046FFF762FF012084F82D0070BD97
:102E000090F82C20012A4FF002023CD0B0B542F6D7
:102E1000240CC4F2000CCA2380F82D20CCF800301A
:102E20005323CCF800305CF80CEC6FF40853B1F588
:102E3000807F08BF6FF488534FF028046FF00205BD
:102E400003EA0E0308BF202408BF6FF001054CF809
:102E50000C3C54F80C30B1F5807F23F0004144F86D
:102E60000C10016B08BF012229400163FF21CCF83F
:102E70003820CCF800100121002280F82D1080F8B5
:102E80002C20BDE8B040104670470000002804BF69
:102E90000120704770B5044690F82D0028B9002035
:102EA00084F82C00204600F061F842F60C0602205F
:102EB000C4F2000684F82D003068C00648D4CA2049
:102EC000B0615320B0613068400612D4306840F0E1
:102ED00080003060FEF72EFF3168490609D40546B0
:102EE000FEF728FF401BB0F57A7F37D830684006E0
:102EF000F6D5F0684FF6BF71CFF68F310840F0601D
:102F0000231D22690BCB1043A269F56810432843A7
:102F1000F06043EA014070603068D4E9091220F49F
:102F2000F850084310433060204604F04BFC18B1C1
:102F3000FF21B16170BD00BFF068D4E9071220F035
:102F400060406369104308431843F060FF20B0619C
:102F5000012084F82D00002070BD00BF032084F8FC
:102F60002D003168FF21B16170BD000010B590B037
:102F7000044601A804303021FDF79CFA206842F68F
:102F80000001C4F20001884202D010B010BD00BFA1
:102F90004FF4803001904FF480700E9001A8FEF73E
:102FA000C1FF002818BFFEF7B3FA5820C5F600008D
:102FB000816B002241F400418163016841F480612A
:102FC00001600068052100F480600F900F980220D6
:102FD000FEF75AFF0220FEF745FF2A2005210022B6
:102FE000FEF752FF2A20FEF73DFF10B010BD000093
:102FF00090F82C30012B4FF0020300F0FA802DE9FD
:10300000F04742F6180C0124C4F2000C80F82C4062
:1030100080F82D305CF80C3C03F4407ABAF5807FE0
:1030200002D100228AE000BFF2B14A69B2F1803FCA
:1030300008D0B2F5000F05D0DCF800305B065CBFAD
:103040000023CB700B784F788E781B04CD7843EA41
:1030500007230C6A334491F824E043EA8553234361
:1030600043EA0E631A4369E0DCF80020520605D4F7
:103070004FF0000E81F803E003E000BFCA784FEA8A
:10308000825E0D784FF0CD08A5F10A02D7B207FB9A
:1030900008F7FF0A07EB87034E785FFA85F9A2EB82
:1030A00043028C7802EB0712B9F1090F88BF02F1D5
:1030B00010055FFA85F9A6F10A05EFB207FB08F7DC
:1030C000FF0A07EB8702F3B2A5EB420202EB0712FD
:1030D000092B88BF02F11006A4F10A05F2B2EEB284
:1030E00006FB08F6F60A06EB8607E3B2A5EB4705F2
:1030F00005EB0615092B88BF05F11004E3B291F822
:1031000024401202A4F10A05EEB206FB08F6F60A04
:1031100042EA094206EB86071A44E3B2A5EB4705EB
:1031200005EB0615092B88BF05F110040B6A4D69E4
:1031300043EA0E032B431A4342EA0462CA23CCF843
:103140000C305323CCF80C308B6ADCF80040B3F51C
:10315000807F0DD124F48853CCF800300123BAF5D8
:10316000807FCCF8443011D1D1E906231A4310E016
:1031700024F40853CCF800300223BAF5807FCCF851
:1031800044300FD1D1E906231A430EE0CCF82820B1
:103190008A69CCF82C200CF158034FF48852012492
:1031A0000AE000BFCCF830208A69CCF834200CF15A
:1031B0005C034FF40852022449681960016B002334
:1031C00021430163DCF800101143CCF8001040F6F5
:1031D0008001C5F600010A6842F400320A60FF214E
:1031E000CCF80C10012180F82D1080F82C30BDE8AF
:1031F000F04718467047000070470000B0B582B035
:1032000001684A688B6803F04105012D08D112F06E
:10321000400505D0C16C02B0BDE8B040084700BF12
:103220009D0707D512F0800504D0016D02B0BDE8FE
:10323000B040084713F4B07F18BF12F0200501D149
:1032400002B0B0BD5D0618D590F85D50032D09D1D0
:1032500000200190C868019088680190019802B030
:10326000B0BD00BF056E45F004050566002501955B
:10327000CD6801958D680195019D9D0604D4DB05FF
:1032800011D4036EDBB9DBE7056E45F00105056679
:10329000002501958D6801950D6825F040050D60AC
:1032A000019DDB05EDD5036E43F0080303660023A3
:1032B00001938B680193019B036E002BC0D04B6878
:1032C000920723F0E0034B604FF0010380F85D307C
:1032D00026D04A6849F2410422F003024A60816D17
:1032E000C0F6000459B1054608468C63FEF772F932
:1032F0000146284619B1016E41F040010166416D59
:1033000000299DD08C6304460846FEF763F9002827
:1033100096D0206E40F04000206602B0B0BD00BFE5
:1033200002B0BDE8B040FFF767BF0000002804BF4F
:1033300001207047416A19B100210161142104E0A4
:103340004168B1F5827F02D01C210022425070B545
:1033500090F85D1031B9002180F85C10044600F04F
:1033600073F82046022180F85D100168D0F80CE067
:103370000A68BEF5E06F22F040020A604FF00003D9
:103380004EF4006298BF0123B2F5706F4FF0000257
:1033900018BF82624FEA033CD0E90123D0E904451B
:1033A00002F4827203F404431A4404F002038469B1
:1033B0001A4405F00103C5691A4404F400731A4461
:1033C00005F03803056A866A1A4405F080052A4428
:1033D00006F400552A43B6F5005F0A6010D1026B6F
:1033E000022A05D062B9BEF5E06F07D90222026356
:1033F0000A6842F400620A6002E000BF0122026330
:10340000042202EA1442446A0EF47063456B43EAF4
:103410000C0304F010041A4305F0080522432A4364
:103420004A60B6F5005F04BF828D0A61CA6922F462
:103430000062CA6100210122016680F85D20BDE8BA
:103440007040084670470000B0B586B0044600687A
:1034500043F20001C4F2010100258842CDE9035581
:10346000CDE90155009501D006B0B0BD4C20C5F6A0
:103470000000416941F480514161416901F480518A
:1034800005910599016841F00101016000686946F4
:1034900000F0010005900598E02000900220CDE9A1
:1034A000010503200390052004904FF09040FEF7A3
:1034B0006DFB41F634104421C2F20000C4F2020157
:1034C000082210234FF0800C80E82E10C0E905552B
:1034D000C0E90755FEF7A6F9002818BFFEF718F84F
:1034E00041F63415C2F2000528461021FEF7AAF86D
:1034F000002818BFFEF70CF8222005210022656580
:10350000AC62FEF7C1FC2220FEF7ACFC06B0B0BDF9
:1035100090F85C30012B04BF02207047012380F833
:103520005C3090F85D30012B0AD100294FF0010387
:1035300018BF002A0AD1002180F85C101846704795
:103540000223002180F85C101846704770B50323F1
:1035500080F85D300023036681638287C28703643D
:10356000C0E91333A0F84430A0F8463083680268FD
:10357000B3F5004F07D1136823F0400313601368BD
:1035800043F480431360836AB3F5005F07D1136887
:1035900023F400531360136843F400531360D0F80E
:1035A00054C049F2710E49F2790449F25105C0F64E
:1035B000000EC0F60004C0F600050026CCE90B4E54
:1035C000CCE90D56C3685668B3F5E06F26F4804623
:1035D000566017D8DCF81830B3F5806F12D1C68F5B
:1035E0005368F60706D123F480435360C38F5B080A
:1035F00007E000BF43F480435360C38F012606EB0E
:103600005303C387C38F04460C326046FEF7A2F90A
:1036100040B1216E204641F010010123216684F85B
:103620005D3011E0216820460A68520603D40A681A
:1036300042F040020A604A68002342F020024A60D9
:103640004A6842F002024A60BDE87040002180F8FA
:103650005C1018467047000070470000704700007B
:1036600051B1012918BF70474FF4807040F24411E6
:10367000C2F2000189680847802040F24411C2F27A
:10368000000189680847000040F24410C2F20000BF
:1036900081684020084700002DE9F04182B0877919
:1036A000012F02D14779012F04D1022002B0BDE8D9
:1036B000F08100BF067940F2904C40F20C0EC5F646
:1036C000000C0127012EC2F2000E477127D1DEF84F
:1036D000004004EB4404C4F34F340094DCF8004091
:1036E00024F40044CCF80040009C013C0094009C71
:1036F0007CB1009C013C0094009C54B1009C013CB6
:103700000094009C2CB1009C013C0094009C002C77
:10371000EAD1DCF8004044F40044CCF80040DEF884
:103720000040642504EB4404C4F34B446C4301940F
:103730005CF87C4C019D5DB1019DA408013D0195A3
:103740005CF87C5C04EA5504E407F1D102E000BFB8
:1037500002248460DCF80040642624F40044CCF8A1
:103760000040DEF800500824C5EBC505C5F34C4504
:10377000C5F6010475430195019DFDB1019D013D13
:1037800001952568AD071BD4019DBDB1019D013D8B
:1037900001952568AD0713D4019D7DB1019D013DC3
:1037A00001952568AD070BD4019D3DB1019D013DFB
:1037B00001952568AD07DFD502E000BF01258560D2
:1037C0002171DEF800106425C1EBC101C1F34C4149
:1037D00069430191019DFDB1019D013D0195256860
:1037E000ED071BD1019DBDB1019D013D01952568EE
:1037F000ED0713D1019D7DB1019D013D0195256826
:10380000ED070BD1019D3DB1019D013D019525685D
:10381000ED07DFD002E000BF0125856065680191FA
:103820000199F9B1019901390191216889071BD4E6
:103830000199B9B10199013901912168890713D41E
:10384000019979B1019901390191216889070BD456
:10385000019939B101990139019121688907DFD5B1
:1038600002E000BF0121816000212171DEF800101B
:103870006425C1EBC101C1F34C4169430191019938
:10388000F1B10199013901912168C9071AD1019952
:10389000B1B10199013901912168C90712D101998A
:1038A00071B10199013901912168C9070AD10199C2
:1038B00031B10199013901912168C907DFD001E0D7
:1038C000012181606168002B66D0002164250126FA
:1038D0004FF0FF0807E000BF86606768013199423A
:1038E00002F8017B58D2DEF80070C7EBC707C7F3B8
:1038F0004C476F430197019FF7B1019F013F01972B
:103900002768BF0719D4019FB7B1019F013F0197F5
:103910002768BF0711D4019F77B1019F013F01972D
:103920002768BF0709D4019F37B1019F013F019765
:103930002768BF07DFD500E0866084F80480DEF8E2
:103940000070C7EBC707C7F34C476F430197019F50
:10395000002FC1D0019F013F01972768FF07BCD10D
:10396000019F002FB8D0019F013F01972768FF07F3
:10397000B3D1019F002FAFD0019F013F019727686E
:10398000FF07AAD1019F002FA6D0019F013F0197F9
:103990002768FF07DBD0A0E7DCF80010642241F4C1
:1039A0000041CCF80010DEF8001001EB4101C1F33A
:1039B0004B415143019100BF5CF87C1C019A5AB104
:1039C000019A8908013A01925CF87C2C01EA5201C3
:1039D000C907F1D102E000BF0221816081680122A4
:1039E000002918BF0121827100224271084602B0ED
:1039F000BDE8F0812DE9F04382B08779012F02D133
:103A00004779012F04D1022002B0BDE8F08300BF46
:103A1000067940F2904C40F20C0EC5F6000C0127DE
:103A2000012EC2F2000E477127D1DEF8004004EBF0
:103A30004404C4F34F340094DCF8004024F4004400
:103A4000CCF80040009C013C0094009C7CB1009CA0
:103A5000013C0094009C54B1009C013C0094009CEB
:103A60002CB1009C013C0094009C002CEAD1DCF8B5
:103A7000004044F40044CCF80040DEF800406425E7
:103A800004EB4404C4F34B446C4301945CF87C4C59
:103A9000019D5DB1019DA408013D01955CF87C5C30
:103AA00004EA5504E407F1D102E000BF0224846077
:103AB00001F0EF04843CB4FA84F464090471DCF886
:103AC0000040642624F40044CCF80040DEF80050A6
:103AD0000824C5EBC505C5F34C45C5F6010475437F
:103AE0000195019DF5B1019D013D01952568AD0749
:103AF0001AD4019DB5B1019D013D01952568AD0721
:103B000012D4019D75B1019D013D01952568AD0758
:103B10000AD4019D35B1019D013D01952568AD0790
:103B2000DFD501E0012585602171DEF800506427B2
:103B3000C5EBC506C6F34C467E430196019EFEB119
:103B4000019E013E01962668F6071BD1019EBEB17B
:103B5000019E013E01962668F60713D1019E7EB1B3
:103B6000019E013E01962668F6070BD1019E3EB1EB
:103B7000019E013E01962668F607DFD002E000BFF5
:103B8000012686606668002B68D000264FF0640925
:103B90004FF0010806E000BFC0F8088001366768F2
:103BA0009E425BD0C5EBC505975DC5F34C4505FB53
:103BB00009F50195019DFDB1019D013D0195256826
:103BC000AD071BD4019DBDB1019D013D0195256847
:103BD000AD0713D4019D7DB1019D013D019525687F
:103BE000AD070BD4019D3DB1019D013D01952568B7
:103BF000AD07DFD502E000BFC0F808802771DEF80E
:103C00000050C5EBC507C7F34C4707FB09F7019701
:103C1000019F002FC0D0019F013F01972768FF0738
:103C2000BCD1019F002FB7D0019F013F01972768AA
:103C3000FF07B3D1019F002FAED0019F013F019735
:103C40002768FF07AAD1019F002FA5D0019F013F40
:103C500001972768FF07DBD0A0E700BFDCF8002052
:103C6000842942F40042CCF800201BD0DEF800107A
:103C7000642201EB4101C1F34B415143019100BF6B
:103C80005CF87C1C019A5AB1019A8908013A0192A8
:103C90005CF87C2C01EA5201C907F1D102E000BFB7
:103CA0000221816081680122002918BF01218271EF
:103CB00000224271084602B0BDE8F08340F2441091
:103CC000C2F20000816820200847000040F2441042
:103CD000C2F2000081681020084700002DE9F04181
:103CE00082B0044600200DF10605ADF8060020461E
:103CF00012212A460223FFF7CFFC9DF907709DF899
:103D00000680204602212A460223FEB2FFF772FEF9
:103D1000F80721D1B00724D4700727D430072AD45C
:103D2000F0062DD4B00630D4700633D4B7F1FF3F7F
:103D300036DD5FEA887002D5204600F057FD5FEA65
:103D400048605CBF02B0BDE8F081204602B0BDE82B
:103D5000F04100F0C1B800BF204600F057FDB007A9
:103D6000DAD5204600F03AFD7007D7D5204600F09E
:103D7000D5F83007D4D5204600F040FDF006D1D567
:103D80002046FFF7A3FFB006CED52046FFF796FFEB
:103D90007006CBD52046FFF777FCB7F1FF3FC8DCB4
:103DA00008F001012046FFF75BFC5FEA8870C3D48E
:103DB000C5E70000002804BF0120704770B582B03D
:103DC000867994250446032EC5F6000501D0002E01
:103DD0004ED100206071204600F086F840F6900039
:103DE000C5F600000168002E41F4805101603FD10A
:103DF0000220A0712868642120F40040286040F26D
:103E00000C00C2F200000068C0EBC000C0F34C40E0
:103E1000484301900198002848D00198013801904A
:103E20002868400418D5019800283FD0019801382F
:103E30000190286840040FD50198B8B30198013863
:103E400001902868400407D5019878B3019801389B
:103E5000019028684004DDD4D5F8FC0340F400400C
:103E6000C5F8FC03D5F8740340F40060C5F874038A
:103E70004FF400600021C5F88403C5F601012068F5
:103E80000A6840F4417022F040020A6008604FF472
:103E9000B8504860086840F0400008600120207178
:103EA0000020A0600121A17102B070BD0120A060BE
:103EB000D5F8FC1341F40041C5F8FC13D5F8741390
:103EC00041F40061C5F874134FF40061C5F8841320
:103ED0000121A17102B070BD40F24410C2F2000095
:103EE00081684FF48040084780B582B06420C5F6F1
:103EF00000000168002241F0010101600068052115
:103F000000F00100019001983220FDF7BDFF322042
:103F100002B0BDE88040FDF7A5BF000040F24410AC
:103F2000C2F2000081680420084700002DE9F0413A
:103F300082B08779012F02D14779012F04D1022065
:103F400002B0BDE8F08100BF067940F2904C40F22B
:103F50000C0EC5F6000C0127012EC2F2000E4771AF
:103F600027D1DEF8004004EB4404C4F34F3400943E
:103F7000DCF8004024F40044CCF80040009C013CF4
:103F80000094009C7CB1009C013C0094009C54B1C6
:103F9000009C013C0094009C2CB1009C013C0094CE
:103FA000009C002CEAD1DCF8004044F40044CCF83A
:103FB0000040DEF80040642504EB4404C4F34B44A5
:103FC0006C4301945CF87C4C019D5DB1019DA4089B
:103FD000013D01955CF87C5C04EA5504E407F1D1ED
:103FE00002E000BF02248460DCF80040642624F470
:103FF0000044CCF80040DEF800500824C5EBC505AD
:10400000C5F34C45C5F6010475430195019DFDB10D
:10401000019D013D01952568AD071BD4019DBDB1F2
:10402000019D013D01952568AD0713D4019D7DB12A
:10403000019D013D01952568AD070BD4019D3DB162
:10404000019D013D01952568AD07DFD502E000BF68
:10405000012585601E252571DEF800506426C5EB1C
:10406000C505C5F34C4575430195019EF6B1019E0A
:10407000013E01962668F6071AD1019EB6B1019E4F
:10408000013E01962668F60712D1019E76B1019E87
:10409000013E01962668F6070AD1019E36B1019EBF
:1040A000013E01962668F607DFD001E00126866012
:1040B00066680195019DFDB1019D013D0195256851
:1040C000AD071BD4019DBDB1019D013D0195256842
:1040D000AD0713D4019D7DB1019D013D019525687A
:1040E000AD070BD4019D3DB1019D013D01952568B2
:1040F000AD07DFD502E000BF012585602171DEF844
:1041000000106425C1EBC101C1F34C416943019129
:10411000019DFDB1019D013D01952568ED071BD174
:10412000019DBDB1019D013D01952568ED0713D1AC
:10413000019D7DB1019D013D01952568ED070BD1E4
:10414000019D3DB1019D013D01952568ED07DFD041
:1041500002E000BF01258560656801910199F9B110
:10416000019901390191216889071BD40199B9B1DD
:104170000199013901912168890713D4019979B115
:10418000019901390191216889070BD4019939B14D
:1041900001990139019121688907DFD502E000BF4B
:1041A0000121816000212171DEF800106425C1EB3E
:1041B000C101C1F34C41694301910199F1B10199E8
:1041C000013901912168C9071AD10199B1B1019949
:1041D000013901912168C90712D1019971B1019981
:1041E000013901912168C9070AD1019931B10199B9
:1041F000013901912168C907DFD001E00121816007
:104200006168002B66D00021642501264FF0FF086D
:1042100007E000BF866067680131994202F8017BC0
:1042200058D2DEF80070C7EBC707C7F34C476F439F
:104230000197019FF7B1019F013F01972768BF07D1
:1042400019D4019FB7B1019F013F01972768BF07AC
:1042500011D4019F77B1019F013F01972768BF07E4
:1042600009D4019F37B1019F013F01972768BF071C
:10427000DFD500E0866084F80480DEF80070C7EBCC
:10428000C707C7F34C476F430197019F002FC1D069
:10429000019F013F01972768FF07BCD1019F002FB5
:1042A000B8D0019F013F01972768FF07B3D1019F55
:1042B000002FAFD0019F013F01972768FF07AAD1C8
:1042C000019F002FA6D0019F013F01972768FF079C
:1042D000DBD0A0E7DCF80010642241F40041CCF808
:1042E0000010DEF8001001EB4101C1F34B415143D6
:1042F000019100BF5CF87C1C019A5AB1019A8908AF
:10430000013A01925CF87C2C01EA5201C907F1D113
:1043100002E000BF0221816081680122002918BFEC
:104320000121827100224271084602B0BDE8F0818D
:104330002DE9F04182B08779012F02D14779012F11
:1043400004D1022002B0BDE8F08100BF067940F23E
:10435000904C40F20C0EC5F6000C0127012EC2F263
:10436000000E477127D1DEF8004004EB4404C4F38B
:104370004F340094DCF8004024F40044CCF80040B2
:10438000009C013C0094009C7CB1009C013C00948A
:10439000009C54B1009C013C0094009C2CB1009CFA
:1043A000013C0094009C002CEAD1DCF8004044F46D
:1043B0000044CCF80040DEF80040642504EB4404DF
:1043C000C4F34B446C4301945CF87C4C019D5DB19B
:1043D000019DA408013D01955CF87C5C04EA55044C
:1043E000E407F1D102E000BF02248460DCF8004061
:1043F000642624F40044CCF80040DEF80050082481
:10440000C5EBC505C5F34C45C5F6010475430195DB
:10441000019DFDB1019D013D01952568AD071BD4AE
:10442000019DBDB1019D013D01952568AD0713D4E6
:10443000019D7DB1019D013D01952568AD070BD41E
:10444000019D3DB1019D013D01952568AD07DFD579
:1044500002E000BF012585601D252571DEF80050B2
:104460006426C5EBC505C5F34C4575430195019E12
:10447000F6B1019E013E01962668F6071AD1019E0B
:10448000B6B1019E013E01962668F60712D1019E43
:1044900076B1019E013E01962668F6070AD1019E7B
:1044A00036B1019E013E01962668F607DFD001E095
:1044B0000126866066680E0A0195019DF5B1019D91
:1044C000013D01952568AD071AD4019DB5B1019D47
:1044D000013D01952568AD0712D4019D75B1019D7F
:1044E000013D01952568AD070AD4019D35B1019DB7
:1044F000013D01952568AD07DFD501E00125856007
:104500002671DEF800506426C5EBC505C5F34C45A1
:1045100075430195019EFEB1019E013E01962668FC
:10452000F6071BD1019EBEB1019E013E0196266891
:10453000F60713D1019E7EB1019E013E01962668C9
:10454000F6070BD1019E3EB1019E013E0196266801
:10455000F607DFD002E000BF01268660666801959D
:10456000019DFDB1019D013D01952568AD071BD45D
:10457000019DBDB1019D013D01952568AD0713D495
:10458000019D7DB1019D013D01952568AD070BD4CD
:10459000019D3DB1019D013D01952568AD07DFD528
:1045A00002E000BF012585602171DEF8001064255E
:1045B000C1EBC101C1F34C4169430191019DFDB1C2
:1045C000019D013D01952568ED071BD1019DBDB100
:1045D000019D013D01952568ED0713D1019D7DB138
:1045E000019D013D01952568ED070BD1019D3DB170
:1045F000019D013D01952568ED07DFD002E000BF78
:1046000001258560656801910199F9B10199013928
:104610000191216889071BD40199B9B10199013928
:1046200001912168890713D4019979B10199013960
:104630000191216889070BD4019939B10199013998
:10464000019121688907DFD502E000BF0121816067
:1046500000212171DEF800106425C1EBC101C1F316
:104660004C41694301910199F1B1019901390191DD
:104670002168C9071AD10199B1B101990139019194
:104680002168C90712D1019971B1019901390191CC
:104690002168C9070AD1019931B101990139019104
:1046A0002168C907DFD001E0012181606168002B2A
:1046B00066D00021642501264FF0FF0807E000BF07
:1046C000866067680131994202F8017B58D2DEF8B2
:1046D0000070C7EBC707C7F34C476F430197019FB3
:1046E000F7B1019F013F01972768BF0719D4019FC8
:1046F000B7B1019F013F01972768BF0711D4019F00
:1047000077B1019F013F01972768BF0709D4019F37
:1047100037B1019F013F01972768BF07DFD500E050
:10472000866084F80480DEF80070C7EBC707C7F323
:104730004C476F430197019F002FC1D0019F013F5C
:1047400001972768FF07BCD1019F002FB8D0019FB8
:10475000013F01972768FF07B3D1019F002FAFD01A
:10476000019F013F01972768FF07AAD1019F002FF2
:10477000A6D0019F013F01972768FF07DBD0A0E784
:10478000DCF80010642241F40041CCF80010DEF89F
:10479000001001EB4101C1F34B415143019100BFB6
:1047A0005CF87C1C019A5AB1019A8908013A01927D
:1047B0005CF87C2C01EA5201C907F1D102E000BF8C
:1047C0000221816081680122002918BF01218271C4
:1047D00000224271084602B0BDE8F08140F2441068
:1047E000C2F20000816802200847000040F2441035
:1047F000C2F2000081684FF40070084740F2441094
:10480000C2F20000816808200847000040F244100E
:10481000C2F2000081680120084700002DE9F04144
:1048200082B08779012F02D14779012F04D102206C
:1048300002B0BDE8F08100BF067940F2904C40F232
:104840000C0EC5F6000C0127012EC2F2000E4771B6
:1048500027D1DEF8004004EB4404C4F34F34009445
:10486000DCF8004024F40044CCF80040009C013CFB
:104870000094009C7CB1009C013C0094009C54B1CD
:10488000009C013C0094009C2CB1009C013C0094D5
:10489000009C002CEAD1DCF8004044F40044CCF841
:1048A0000040DEF80040642504EB4404C4F34B44AC
:1048B0006C4301945CF87C4C019D5DB1019DA408A2
:1048C000013D01955CF87C5C04EA5504E407F1D1F4
:1048D00002E000BF02248460DCF80040642624F477
:1048E0000044CCF80040DEF800500824C5EBC505B4
:1048F000C5F34C45C5F6010475430195019DFDB115
:10490000019D013D01952568AD071BD4019DBDB1F9
:10491000019D013D01952568AD0713D4019D7DB131
:10492000019D013D01952568AD070BD4019D3DB169
:10493000019D013D01952568AD07DFD502E000BF6F
:10494000012585600E252571DEF800506426C5EB33
:10495000C505C5F34C4575430195019EF6B1019E11
:10496000013E01962668F6071AD1019EB6B1019E56
:10497000013E01962668F60712D1019E76B1019E8E
:10498000013E01962668F6070AD1019E36B1019EC6
:10499000013E01962668F607DFD001E00126866019
:1049A00066680195019DFDB1019D013D0195256858
:1049B000AD071BD4019DBDB1019D013D0195256849
:1049C000AD0713D4019D7DB1019D013D0195256881
:1049D000AD070BD4019D3DB1019D013D01952568B9
:1049E000AD07DFD502E000BF012585602171DEF84B
:1049F00000106426C1EBC105C5F34C457543019514
:104A0000019DFDB1019D013D01952568ED071BD17B
:104A1000019DBDB1019D013D01952568ED0713D1B3
:104A2000019D7DB1019D013D01952568ED070BD1EB
:104A3000019D3DB1019D013D01952568ED07DFD048
:104A400002E000BF012585606568002B62D000256B
:104A500064264FF0010805E0C0F80880013567685A
:104A60009D4257D0C1EBC101575DC1F34C41714329
:104A700001910199F1B101990139019121688907E9
:104A80001AD40199B1B101990139019121688907BD
:104A900012D4019971B101990139019121688907F5
:104AA0000AD4019931B1019901390191216889072D
:104AB000DFD501E0C0F808802771DEF80010C1EBF7
:104AC000C107C7F34C4777430197019F002FC3D01D
:104AD000019F013F01972768FF07BFD1019F002F6A
:104AE000BAD0019F013F01972768FF07B6D1019F08
:104AF000002FB1D0019F013F01972768FF07ADD17B
:104B0000019F002FA8D0019F013F01972768FF0751
:104B1000DBD0A3E7DCF80010642241F40041CCF8BC
:104B20000010DEF8001001EB4101C1F34B4151438D
:104B3000019100BF5CF87C1C019A5AB1019A890866
:104B4000013A01925CF87C2C01EA5201C907F1D1CB
:104B500002E000BF0221816081680122002918BFA4
:104B60000121827100224271084602B0BDE8F08145
:104B70002DE9F04182B08779012F55D147794FF067
:104B8000020C012F52D00127477180F806C0077927
:104B900040F2904C40F20C0EC5F6000C012FC2F210
:104BA000000E28D1DEF8004004EB4404C4F34F3477
:104BB0000094DCF8004024F40044CCF8004000BF2E
:104BC000009C013C0094009C7CB1009C013C009442
:104BD000009C54B1009C013C0094009C2CB1009CB2
:104BE000013C0094009C002CEAD1DCF8004044F425
:104BF0000044CCF80040DEF80040642504EB440497
:104C0000C4F34B446C4301945CF87C4C019D8DB122
:104C1000019DA408013D01955CF87C5C04EA550403
:104C2000E407F1D108E000BF4FF0020C604602B08B
:104C3000BDE8F08102248460DCF80040642624F49E
:104C40000044CCF80040DEF800500824C5EBC50550
:104C5000C5F34C45C5F6010475430195019DFDB1B1
:104C6000019D013D01952568AD071BD4019DBDB196
:104C7000019D013D01952568AD0713D4019D7DB1CE
:104C8000019D013D01952568AD070BD4019D3DB106
:104C9000019D013D01952568AD07DFD502E000BF0C
:104CA000012585600D252571DEF800506426C5EBD1
:104CB000C505C5F34C4575430195019EF6B1019EAE
:104CC000013E01962668F6071AD1019EB6B1019EF3
:104CD000013E01962668F60712D1019E76B1019E2B
:104CE000013E01962668F6070AD1019E36B1019E63
:104CF000013E01962668F607DFD001E001268660B6
:104D000066680E0A0195019DF5B1019D013D019571
:104D10002568AD071AD4019DB5B1019D013D0195EE
:104D20002568AD0712D4019D75B1019D013D019526
:104D30002568AD070AD4019D35B1019D013D01955E
:104D40002568AD07DFD501E0012585602671DEF815
:104D500000506426C5EBC505C5F34C457543019568
:104D6000019EFEB1019E013E01962668F6071BD109
:104D7000019EBEB1019E013E01962668F60713D141
:104D8000019E7EB1019E013E01962668F6070BD179
:104D9000019E3EB1019E013E01962668F607DFD0D6
:104DA00002E000BF0126866066680195019DFDB1A5
:104DB000019D013D01952568AD071BD4019DBDB145
:104DC000019D013D01952568AD0713D4019D7DB17D
:104DD000019D013D01952568AD070BD4019D3DB1B5
:104DE000019D013D01952568AD07DFD502E000BFBB
:104DF000012585602171DEF800106426C1EBC10534
:104E0000C5F34C4575430195019DFDB1019D013DE3
:104E100001952568ED071BD1019DBDB1019D013DA7
:104E200001952568ED0713D1019D7DB1019D013DDF
:104E300001952568ED070BD1019D3DB1019D013D17
:104E400001952568ED07DFD002E000BF01258560F0
:104E50006568002B62D0002564264FF0010805E04C
:104E6000C0F80880013567689D4257D0C1EBC10189
:104E7000575DC1F34C41714301910199F1B1019921
:104E800001390191216889071AD40199B1B10199B9
:104E9000013901912168890712D4019971B10199F1
:104EA00001390191216889070AD4019931B1019929
:104EB0000139019121688907DFD501E0C0F8088038
:104EC0002771DEF80010C1EBC107C7F34C477743E9
:104ED0000197019F002FC3D0019F013F01972768D1
:104EE000FF07BFD1019F002FBAD0019F013F01975B
:104EF0002768FF07B6D1019F002FB1D0019F013F66
:104F000001972768FF07ADD1019F002FA8D0019F0F
:104F1000013F01972768FF07DBD0A3E7DCF800100B
:104F2000642241F40041CCF80010DEF8001001EBDF
:104F30004101C1F34B415143019100BF5CF87C1C1E
:104F4000019A5AB1019A8908013A01925CF87C2CC5
:104F500001EA5201C907F1D102E000BF02218160DC
:104F6000D0F808C00121BCF1000F18BF4FF0010CB0
:104F7000817100214171604602B0BDE8F0810000FE
:104F8000704700007047000070470000002804BF11
:104F900001207047B0B590F83D1031B9002180F87C
:104FA0003C10044600F064F82046022180F83D10D1
:104FB000016842F6004E0B68C4F2010E714502D042
:104FC000B1F1804F03D1846823F07003234344F28E
:104FD000FF34C4F2010444F6000CA142C4F2010CF7
:104FE00006DCB1F1804F0BD0714509D00CE000BF59
:104FF000614505D044F20044C4F20104A14203D14A
:10500000046923F440732343826923F080034468D6
:10501000C5681A4371450A60CD628C6218BF61454C
:105020001ED142690A6301224A6180F8482080F853
:105030003E2080F83F2080F8402080F8412080F812
:10504000422080F8432080F8442080F8452080F8F2
:10505000462080F8472080F83D200020B0BD00BFEA
:1050600044F20042C4F201029142DAD0DBE70000D0
:105070007047000090F83D10012923D1022180F8EB
:105080003D10016842F60042C868C4F20102914234
:1050900040F00100C86002D0B1F1804F0CD18868A7
:1050A0000722C0F201020240062A4FF000000AD097
:1050B000B2F5803F08BF7047086840F00100086003
:1050C00000207047012070477047000010B501684C
:1050D00004460869800744BFC8685FEA80703FD40F
:1050E0000869400744BFC8685FEA407044D4086953
:1050F000000744BFC8685FEA00704BD40869C00667
:1051000044BFC8685FEAC06050D40869C0071CBFCC
:10511000C8685FEAC07057D10869000644BFC86814
:105120005FEA006058D40869C00544BFC8685FEAF8
:10513000006059D40869400644BFC8685FEA40600F
:105140005AD40869800646BFC8685FEA806010BD0F
:105150006FF0200220460A61BDE81040FFF714BF3F
:105160006FF00200086101202077886980074BD02A
:105170002046FFF7A9FF4DE06FF004000861022010
:105180002077886910F4407F48D02046FFF79CFFC5
:105190004AE000BF6FF00800086104202077C8696A
:1051A000800745D02046FFF78FFF47E06FF01000E3
:1051B000086108202077C86910F4407F42D020465B
:1051C000FFF782FF44E000BF6FF001000861204656
:1051D00000F046F821689FE76FF0800008612046E4
:1051E000FFF7D0FE21689EE76FF4807008612046CB
:1051F000FFF7C6FE21689DE76FF04000086120467A
:1052000000F038F821689CE7204600F025F8204699
:1052100000F024F821680020207761E7204600F0A4
:105220001BF8204600F01AF82168002020775EE77E
:10523000204600F011F8204600F010F82168002008
:1052400020775BE7204600F007F8204600F006F8DC
:1052500021680020207758E7704700007047000061
:10526000006842F60041C4F20101884218BF70474D
:10527000FCF766BD7047000090F88410012904BF58
:105280000220704780B52421C0F88810016843F2DD
:10529000643C0A680B6842F0005223F001030B6083
:1052A0004FF0005343660A608A688968C0F6010CB3
:1052B000490F43F26C3E1CF80130C0F6010E1EF897
:1052C0000110C2F34262DB00B3FBF1F11CF80230C3
:1052D0001EF80220DB00B3FBF2F2A0F86A102021D6
:1052E000A0F86820C0F88810002180F88410002001
:1052F00080BD000090F88410012904BF022070478F
:10530000012180F8841000BF016851E8001F026885
:1053100041F0020142E80013DBB1016851E8001FCF
:10532000026841F0020142E8001393B1016851E8BC
:10533000001F026841F0020142E800134BB101680E
:1053400051E8001F026841F0020142E80013002BFF
:10535000DAD1002180F884100020704770470000E7
:105360007047000090F88420012A04BF0220704793
:10537000B0B52422C0F888200268D0F864E0D2F8E2
:1053800000C01368BEF1000F23F00103136093689F
:1053900023F0606341EA0301916019D0936891683A
:1053A00043F2643E490FC0F6010E43F26C351EF81D
:1053B0000140C0F60105695CC3F34263E400B4FB3D
:1053C000F1F11EF80340EB5CE500B5FBF3F301E0FF
:1053D00001210123A0F86A102021A0F86830C2F84A
:1053E00000C0C0F88810002180F884100020B0BDF3
:1053F00090F88420012A04BF02207047B0B524220F
:10540000C0F888200268D0F864E0D2F800C01368C1
:10541000BEF1000F23F001031360936823F0604393
:1054200041EA0301916019D09368916843F2643EA8
:10543000490FC0F6010E43F26C351EF80140C0F66C
:105440000105695CC3F34263E400B4FBF1F11EF8AB
:105450000340EB5CE500B5FBF3F301E00121012320
:10546000A0F86A102021A0F86830C2F800C0C0F887
:105470008810002180F884100020B0BDB0B582B043
:10548000044690F88400012802D1022002B0B0BD89
:10549000012084F884002420C4F888002068036870
:1054A00023F001030360836823F4401343EA0103FC
:1054B000836051B9416893B221F0100119434160F2
:1054C0004168120C62F31F614160016841F0010103
:1054D0000160FCF72FFC03466FF07E4000902046F1
:1054E0004FF480010022002507F080FB20B103204B
:1054F00084F8845002B0B0BD2020C4F88800002099
:1055000084F8845002B0B0BD7047000070470000BE
:105510007047000070B5026840F62F04D369116827
:1055200096681C40202C0BD101F0200406F0805519
:105530002D1916D0416F61B3BDE87040084700BF18
:1055400040F60F052B420CD00125C1F2000506EAFA
:10555000050C40F22015C0F200450D4015EB0C057E
:1055600024D1C46EDD0615D5012C13D111F0100520
:1055700010D0102111629168490661D4B0F85C1016
:10558000B0F85E20B0F85E30002B18BF914240F0BA
:105590003F8270BDDD0215D516F4800512D04FF4A0
:1055A00080111162BDE87040FFF7B0BFDD0718BF82
:1055B00011F4807540F00E819D0706F0010E00F198
:1055C00015811EE11A0606D501F0800206F40006D8
:1055D000921940F09D825A0640F1F08011F040028D
:1055E00000F0EC80016851E8001F026821F04001E2
:1055F00042E80013DBB1016851E8001F026821F0A6
:10560000400142E8001393B1016851E8001F0268AD
:1056100021F0400142E800134BB1016851E8001F3E
:10562000026821F0400142E80013002BDAD120216A
:10563000C0F8881000218167BDE8704000F0A6BC6A
:10564000D0F8801009684A6893B2002BA1D0B0F856
:105650005C60B3429DD2A0F85E200968890600F123
:10566000A180016851E8001F026821F4807142E8BE
:105670000013DBB1016851E8001F026821F480715A
:1056800042E8001393B1016851E8001F026821F459
:10569000807142E800134BB1016851E8001F0268B5
:1056A00021F4807142E80013002BDAD1016851E83F
:1056B000021F026821F0010142E80213BBB3016836
:1056C00051E8021F026821F0010142E8021373B39E
:1056D000016851E8021F026821F0010142E802134B
:1056E0002BB3016851E8021F026821F0010142E872
:1056F0000213002BDAD11AE0016851E8021F026898
:1057000021F0400142E80213DBB1016851E8021FB9
:10571000026821F0400142E8021393B1016851E8A8
:10572000021F026821F0400142E802134BB10168F8
:1057300051E8021F026821F0400142E80213002BE9
:10574000DAD12021C0F88C100021C166016851E82F
:10575000001F026821F0100142E80013DBB101686C
:1057600051E8001F026821F0100142E8001393B1D4
:10577000016851E8001F026821F0100142E800139F
:105780004BB1016851E8001F026821F0100142E8A6
:105790000013002BDAD1D0F8801004460846FBF73E
:1057A000DBFE204602210167B0F85C10B0F85E20F5
:1057B000891A89B2BDE87040FFF7D0BD1A0240F1E6
:1057C000B38111F0804200F0AF81BDE87040FFF777
:1057D0009BBE00BF01251562D0F8905045F0010531
:1057E000C0F890509D0706F0010E0AD5BEF1000FDB
:1057F00007D002241462D0F8904044F00404C0F8AA
:1058000090405C070AD5BEF1000F07D00425156251
:10581000D0F8905045F00205C0F890501D070CD507
:1058200001F0200555EA0C0507D008251562D0F8CF
:10583000905045F00805C0F890501D050BD511F0AB
:10584000806508D04FF400651562D0F8905045F09F
:105850002005C0F89050D0F89050002D3FF499AE3C
:105860009B060BD501F0200106F08053C91805D026
:10587000416F19B10446884722682046D0F890103D
:10588000926801F0280102F04002891806D104460E
:10589000FFF73EFE0020C4F8900070BD016851E89B
:1058A000001F026821F4907142E80013DBB1016827
:1058B00051E8001F026821F4907142E8001393B18F
:1058C000016851E8001F026821F4907142E800135A
:1058D0004BB1016851E8001F026821F4907142E861
:1058E0000013002BDAD14FF6FE71CEF6FF7100BF28
:1058F000026852E8022F03680A4043E80226C6B154
:10590000026852E8022F03680A4043E8022686B183
:10591000026852E8022F03680A4043E8022646B1B3
:10592000026852E8022F03680A4043E80226002E6C
:10593000DED1C16E012924D1016851E8001F02683F
:1059400021F0100142E80013DBB1016851E8001FAB
:10595000026821F0100142E8001393B1016851E898
:10596000001F026821F0100142E800134BB10168EA
:1059700051E8001F026821F0100142E80013002BDB
:10598000DAD12021C0F88C100021C166026841677D
:105990009168490640F1C480016851E8021F02681D
:1059A00021F0400142E80213DBB1016851E8021F17
:1059B000026821F0400142E8021393B1016851E806
:1059C000021F026821F0400142E802134BB1016856
:1059D00051E8021F026821F0400142E80213002B47
:1059E000DAD1D0F88010002900F09A804BF6E52239
:1059F000C0F60002044608468A63FBF7EBFD002868
:105A00003FF4C7ADD4F88000816BBDE87040084713
:105A1000891A00BF026852E8002F036822F49072CE
:105A200043E80026DEB1026852E8002F036822F442
:105A3000907243E8002696B1026852E8002F03688E
:105A400022F4907243E800264EB1026852E8002F1B
:105A5000036822F4907243E80026002EDAD14FF654
:105A6000FE72CEF6FF7200BF036853E8023F06687D
:105A7000134046E80235C5B1036853E8023F0668A3
:105A8000134046E8023585B1036853E8023F0668D3
:105A9000134046E8023545B1036853E8023F066803
:105AA000134046E80235002DDED12022C0F88C20BC
:105AB0000022C266426700BF026852E8002F0368F6
:105AC00022F0100243E80026DEB1026852E8002FFF
:105AD000036822F0100243E8002696B1026852E8FB
