:020000040800F2
:1000000038330020AD020008417B0008D17400089D
:100010003D7B000885180008F5E900080000000095
:1000200000000000000000000000000091C6000871
:10003000C1180008000000007191000815C70008F1
:10004000C7020008C70200089DC80008C7020008D0
:10005000C7020008C7020008C7020008C70200085C
:10006000C7020008C5180008C70200089D1800084C
:10007000A9180008B5180008C7020008C702000840
:10008000C7020008C7020008C7020008C70200082C
:10009000C7020008C7020008C7020008C70200081C
:1000A000A9C80008C7020008C7020008C702000864
:1000B000C7020008C7020008C7020008C7020008FC
:1000C000C7020008C7020008B1AF0008C702000855
:1000D00051E10008C7020008C7020008C702000873
:1000E000C7020008C702000819920008C7020008EA
:1000F000C7020008C7020008C7020008C7020008BC
:10010000C7020008C702000855B30008C70200086C
:10011000C7020008C7020008C7020008C70200089B
:10012000C7020008C7020008C7020008C70200088B
:10013000C7020008C702000800F002F800F0A6F8A5
:1001400014A696E8000CB244B344DA4501D100F09D
:100150009DF8BAE80F000FA696E83000A5EB04055D
:1001600004EB0607AAEB0704A7F101074FEA1515F0
:100170004FEA3414A4F10104AC4201D300F086F834
:1001800013F0010F18BFFB1A43F0010300F001F850
:10019000DBE718474040010060400100103A24BFEF
:1001A00078C878C1FAD8520724BF30C830C144BFDC
:1001B00004680C60704700007047000000230024B2
:1001C00000250026103A28BF78C1FBD8520728BF67
:1001D00030C148BF0B6070476E2900F0B8837029AA
:1001E00000F01385662912F0BD80652912F0BA80EF
:1001F000672912F0B780612912F0B68003681B0AE4
:1002000028BF41F08001692900F07681642900F05F
:100210007381752900F070816F2900F0A18478291D
:1002200000F0DF84E92900F03B84E42900F0388401
:10023000F52900F03584EF2900F09E84F82900F0BC
:10024000DE840368DB0928BF41F08001632900F0E8
:10025000BD83732900F0C283E32901F0EF80F32905
:1002600001F0F480002070471FB501F045F904004B
:100270000020002112F060F8401C60600020002186
:1002800012F044F8E0601FBD10B510BD01F006F992
:100290001146FFF7E9FF0EF015FC01F0E3F903B496
:1002A000FFF7F2FF03BC01F029FA0000094880477C
:1002B00009480047FEE7FEE7FEE7FEE7FEE7FEE748
:1002C000FEE7FEE7FEE7FEE704480549054A064B60
:1002D0007047000099C8000839010008382D002037
:1002E00038330020382F0020382F002053EA020C2A
:1002F00000F069802DE9F04B4FF00006002B1FBF86
:10030000B3FA83F503FA05F424FA05F65E4012BF4A
:100310001643B2FA82F502FA05F4C5F120051EBFB4
:1003200022FA05FC44EA0C04203556EA044C4FEA54
:10033000144418BF641C4FF000084FF000099042AD
:1003400071EB030C39D3002919BFB1FA81F701FA17
:1003500007F6B0FA80F700FA07F6C7F120071EBFCC
:1003600020FA07FC46EA0C062037B6FBF4FCA7EBA4
:100370000507103F07F01F0BCBF120062CFA06F6FD
:100380000CFA0BFB44BFB3460026202FA4BF5E46E9
:100390004FF0000B5BEA060C08BF4FF0010B19EBA6
:1003A0000B0948EB0608ABFB027C06FB02CC0BFBFF
:1003B00003CCC01B71EB0C01C1E70B460246414662
:1003C0004846BDE8F08B13B5084318BF4FF0FF3027
:1003D0000146AFF30080BDE81C4070477CB51D4668
:1003E00016460C00009007D04142A14202D320449F
:1003F000401E01E04FF0FF30064B7B442A46694621
:100400000190304600F0BDFA002C02D0009A002185
:1004100011707CBDAB0500000FB41CB50C0007AA21
:10042000009007D04142A14202D32044401E01E087
:100430004FF0FF30074B7B4469460190069800F06F
:10044000A0FA0021002C01D0009A11701CBC5DF8AC
:1004500014FB00006F05000070B504468569006854
:10046000C10601D5302600E02026C00707D070BDA8
:10047000D4E9012130469047206A401C20626D1E5D
:10048000F6D570BD70B5044685690078C00707D100
:1004900070BDD4E9012120209047206A401C2062D1
:1004A0006D1EF6D570BD70B50C460546012A05D007
:1004B0002878800600D5EA69002302E0012305E0E0
:1004C0005B1C934202D2E05C0028F9D1A869E618CF
:1004D000C01AA861286A184428622846FFF7BCFFA2
:1004E00004E0D5E9012114F8010B9047B442F8D398
:1004F0002846FFF7C7FF70BD2DE9F04106460024EE
:1005000010687529314616A510D000F0B5F90028FD
:1005100002DA404213A507E031688A0701D512A527
:1005200002E0490704D511A5012401E000F0ADF96E
:1005300000210A2206F1240709E0B0FBF2FCB0FB1F
:10054000F2F302FB1C00303078541846491C002896
:10055000F3D123462A463046BDE8F04100F09EB96B
:10056000000000002D0000002B0000002000000013
:100570002DE9F05F894604464FF0000ADFF874B1B8
:10058000FB44C0F820A02046E1688847002874D0CA
:10059000252806D0D4E901219047206A401C20621A
:1005A000F1E700265F462046E16888472028054697
:1005B00007DB312D05D2781910F8200C08B106435D
:1005C000F1E7B00701D526F00406C4F81CA0002707
:1005D000C4F818A02A2D09D0284611F08FFE38B390
:1005E00004EB8708303DC8F8185019E059F8041B8F
:1005F000204604EB87029161E1688847012F054698
:1006000018D1E069002820DA26F020061DE0D8F88D
:10061000180000EB800005EB40003038C8F81800E7
:100620002046E1688847054611F068FE0028EED1B3
:10063000012F0AD02E2D08D12046E16888477F1C63
:100640000546022F46F02006C4DBA069002803DA25
:10065000404246F00106A061F00701D026F01006E6
:100660006C2D0BD0682D09D04C2D39D06A2D35D08A
:10067000742D35D07A2D33D016E038E0E1682F465E
:1006800020468847B842054609D16C2F26D04FF442
:100690008060E168064320468847054604E06C2FE9
:1006A0001AD04FF4807006430DB3A5F1410019280C
:1006B00002D8203546F400664A4629462046266080
:1006C0004E46FFF789FD80B101280BD0F61D26F0BC
:1006D000070000F1080956E74020E4E78020D8E74A
:1006E0000020D6E706F104094DE7284652E7206AC4
:1006F000BDE8F09FE81D010010B5431C02E010F8B2
:10070000011B71B18107FAD14FF0013202C88C1A76
:100710008C4314EAC211F9D0C01A0A0603D0C01ED5
:1007200010BDC01A10BD0A0401D0801E10BD090200
:10073000FCD0401E10BD032A40F2308010F0030CA4
:1007400000F0158011F8013BBCF1020F624498BF24
:1007500011F801CB00F8013B38BF11F8013BA2F1C1
:10076000040298BF00F801CB38BF00F8013B11F03C
:10077000030300F05582083AC0F0088051F8043BAA
:10078000083A51F804CBA0E80810F5E7121D5CBF49
:1007900051F8043B40F8043BAFF30080D20724BF7C
:1007A00011F8013B11F801CB48BF11F8012B24BF10
:1007B00000F8013B00F801CB48BF00F8012B70475F
:1007C00002F0FF0343EA032242EA024200F00AB8C1
:1007D00002F0FF0343EA032242EA024200F024B897
:1007E0004FF000020429C0F0128010F0030C00F05A
:1007F0001B80CCF1040CBCF1020F18BF00F8012BD8
:10080000A8BF20F8022BA1EB0C0100F00DB85FEAA5
:10081000C17C24BF00F8012B00F8012B48BF00F871
:10082000012B70474FF0000200B5134694469646E0
:10083000203922BFA0E80C50A0E80C50B1F12001F3
:10084000BFF4F7AF090728BFA0E80C5048BF0CC0A1
:100850005DF804EB890028BF40F8042B08BF7047FF
:1008600048BF20F8022B11F0804F18BF00F8012B71
:10087000704770477047704709684A0501D540B214
:100880007047C905FCD500B2704709684A0501D513
:10089000C0B27047C905FCD580B270472DE9F0475A
:1008A0000D4699469246044600F1240801688806E0
:1008B00004D5E06921F01001216000E00120A84288
:1008C00001DD471B00E00027A1697A1902EB09004E
:1008D000081AA0612078C00602D42046FFF7BCFDAC
:1008E000002608E0D4E901211AF806009047206AA2
:1008F000401C761C20624E45F4DB2078C0060AD5E9
:100900002046FFF7A9FD06E0D4E9012130209047F9
:10091000206A401C2062381EA7F10107F4DC07E0C2
:10092000D4E9012118F805009047206A401C206294
:10093000281EA5F10105F3DC2046FFF7A3FD207872
:10094000000602D50220BDE8F0870120FBE7116810
:100950000268006A530501D508700AE0D30501D585
:10096000088006E0130603D5C217C1E9000200E0C3
:10097000086001207047000001694A1C0261087884
:10098000704700B58FB0CDE90131002105910549CF
:100990007944CDE9031011466846FFF7E9FD0FB031
:1009A00000BD0000E5FFFFFFD1E900239A4202D21B
:1009B000531C0B601070704710B5436913B1AFF34F
:1009C000008001E0FFF76FFD012010BD127800F1FB
:1009D00024010A7000224A700122EDE711684FF0ED
:1009E000FF32E9E72DE9FF5F15468A460446DFF846
:1009F000AC80F8440027D8E900103E46CDE900104D
:100A000010E03AF816106A4602A800F023FD411CD7
:100A100007D02178890603D5E269391891420DD8AB
:100A20000744761C2078800602D5E069B84205DDCF
:100A3000AE42E6DB3AF816000028E2D1A069C01BFE
:100A4000A0612046FFF708FDD8E90010CDE90010AD
:100A5000002017E03AF818106A4602A800F0FAFCE5
:100A6000B0F1FF3F81460BD000250DF1080B05E0EA
:100A7000D4E901211BF8050090476D1C4D45F7D3C3
:100A800008F10100B0428046E4DB206A384420626D
:100A90002046FFF7F7FCBDE8FF9F00008A19010020
:100AA0002DE9F0418046D21D22F007020025D2E94F
:100AB0000002F52915A614D0011E72F1000106DA14
:100AC0000023D0EB030063EB020211A608E0D8F884
:100AD00000108B0701D50FA602E0490701D50EA62D
:100AE00001251146002408F1240704E000F0CAF8AB
:100AF00030323A55641C50EA0102F7D12B46324697
:100B000021464046BDE8F041FFF7C8BE00000000A6
:100B10002D0000002B0000002000000030B4002158
:100B200000F1240408E002F00705D208303542EA5B
:100B30004372DB086554491C52EA0305F3D104688B
:100B4000002310A2250708D504F020040C4304D08C
:100B5000C46901230CA2641EC46130BCFFF79EBEB1
:100B600010B5044621461068FFF78FFE0246204666
:100B7000BDE810400023D1E7D21D22F00701D1E9E2
:100B80000023CBE70000000030000000F0B40D4669
:100B90000188090502D5214C7C4402E01F4C7C44AD
:100BA0000E34002100F1240608E002F00F071209BC
:100BB000E75D42EA03721B097754491C52EA0307B6
:100BC000F3D102780023120704D5702D06D009B1A5
:100BD000022311342246F0BCFFF760BE012310341B
:100BE000F8E770B504460D4621461068FFF74DFE44
:100BF000024629462046BDE870400023C6E7D21DC4
:100C000022F00703D3E90023C0E70368126843F02A
:100C1000200303600823C3610023B7E7EC1701003A
:100C200010B5203AC0F00B80B1E81850A0E8185079
:100C3000B1E81850A0E81850203ABFF4F5AF5FEAC9
:100C4000027C24BFB1E81850A0E8185044BF18C96E
:100C500018C0BDE810405FEA827C24BF51F8043B15
:100C600040F8043B08BF7047D20728BF31F8023B69
:100C700048BF11F8012B28BF20F8023B48BF00F8FD
:100C8000012B704730B5B0F10A0271F100034FEA51
:100C9000900E4EEA817EB0EB0E0061EB91014FEABF
:100CA000101E4EEA017E10EB0E0041EB11114FEACF
:100CB000102E4EEA016E10EB0E0041EB11214FEAAF
:100CC000104E4EEA014E10EB0E0041EB1141401860
:100CD00041F100014FEAD00040EA41704FEAD101F2
:100CE0004FEA810444EA907410EB800544EB010460
:100CF0006D1944EB0404521BA3414FF0000348BF9D
:100D00000A3200D530BD401C41F1000130BD2DE953
:100D1000FF4F0C461E464FF0FF378BB0D2E9000163
:100D2000DDF860800A908A46C1F30A5505B93D4650
:100D3000002108464FF00000BAF1000F00F4400017
:100D400005DA00EB80004FF4400101EA50004FEA61
:100D50009059B9F1010F00DDB9460A9850EA4A00EE
:100D60000ED044F61050A5F2FF3545432F14B8F1CC
:100D7000000F1ED07542291E1EDDC9F100021CE0C5
:100D8000B8F1010F4FF0000001D0302103E0F24331
:100D900005E02154401CB042FBDB3046002200211C
:100DA00021540B99C1F80880C1E900200FB0BDE8BB
:100DB000F08FBD1B6D1CDEE74A4600DA694206A8CB
:100DC00000F0DEFB06AB93E8070003AB83E8070007
:100DD00050460A9910F0B6FE8DE80700A0F50050C5
:100DE0001F3800900398002D0ADD42F21F014A4689
:100DF0000844002303A90390684611F01FF909E095
:100E0000A0F500504A461F38002303A90390684606
:100E100011F029F98DE807000004000C03D04FF011
:100E2000FF30410800E01046B8F1000F03D0002267
:100E3000009215461EE0751E05D4FFF723FF3032E1
:100E400062556D1EF9D5B3460122084302D0002237
:100E50007F1C04E02078302801D100227F1E002A68
:100E6000099784D01DE0112D07DAFFF70BFF303210
:100E700062556D1C50EA0102F5D1084302D000987A
:100E8000C8B10EE00021681E05E0235C625C63547B
:100E90002254401E491C8142F7DBAB46A81B401E72
:100EA0000990002004F80B000B98099AC0F80880FC
:100EB000C0E9002B7AE711264FF0000857E72DE92B
:100EC000F04F88460446D21D22F0070191B0D1E9C7
:100ED0000001CDE90A0111F0FDF902460B98C00F9F
:100EE00001D02D2007E02068810701D52B2002E0EA
:100EF000202101EAC000032A099001D0072A05DB5E
:100F000003464146204600F0FBFA0BE120788006BC
:100F100001D5E06900E00620B8F1650F814606D0F2
:100F2000B8F1660F18D0B8F1670F70D131E000202A
:100F3000B9F1110F009001DB112301E009F1010368
:100F40000AAA01A90CA8FFF7E2FEDDE90C70002651
:100F500009F10105834647E001204B4600904FF020
:100F600000470AAA01A90CA8FFF7D1FEDDE90DB0E0
:100F70000C995D46002610B909F101000D18B9EB76
:100F8000050003D4C0F1FF3609F10105A5EB090006
:100F90002BE0B9F1010F01DA4FF001090020B9F19E
:100FA000110F0090484601DD112300E003460AAA14
:100FB00001A90CA8FFF7ABFEDDE90C704D46002639
:100FC0008346207800070AD4AB4500DA5D4601A8C5
:100FD000012D04DD411911F8011C302907D04F45BE
:100FE00002DA17F1040F04DA012082460FE06D1EC9
:100FF000EEE7002F02DCED1B3E4403E0781CA84224
:1010000000DD7D1CB81B00F1010A4FF0004720787D
:10101000000703D4AA4501DB4FF0FF3A0021B7F1E6
:10102000004F0DF143088DF8431024D002202B23EC
:10103000002F01DA7F422D230A21021EA0F10100B8
:1010400000DC5FB197FBF1FC97FBF1F201FB1C7C2C
:1010500017460CF1300C08F801CDEEE7A8F10100BD
:1010600003702188090501D5452100E06521A0F123
:10107000010800F8011C09980FA9A1EB0807FF1D42
:1010800000B10120411901EBEA70A1693844081A46
:10109000401EA0612078C00602D42046FFF7DCF98C
:1010A000099828B1D4E901219047206A401C2062A8
:1010B0002078C00622D52046FFF7CEF91EE0002E8C
:1010C00004DBB34502DD01A8805D00E03020D4E9F7
:1010D00001219047206A401C2062761CAAF1010081
:1010E0005FEA000A0AD100F007FAC0680168405CB4
:1010F000D4E901219047206A401C2062281EA5F1F6
:101100000105DCDC07E0D4E9012118F8010B904768
:10111000206A401C2062381EA7F10107F3DC20463C
:10112000FFF7B0F9032011B041E600002DE9F04FC0
:1011300004460D46D21D22F0070089B0D0E9009781
:101140004846394611F0C6F80246F80F01D02D2363
:1011500007E02068810701D52B2302E0202101EA66
:10116000C0038DF820300BB1012000E00020032ADD
:10117000824601D0072A04DB2946204600F0C0F948
:101180003FE12078800601D40D2500E0E569C7F332
:101190000A560D2D49DA00214FEA175B08464FF039
:1011A0000000002F00F4400007DA00EB80004FF44D
:1011B000400100EBD07001EA60008115012901DDDA
:1011C0004FF0FF3100224FEA850CBCF1180F06D317
:1011D0001346ACF118004FF08052C24003E04FF4C8
:1011E000801323FA0CF30CF10C0CBCF1200F04D388
:1011F000ACF1200C09FA0CF001E007FA0CF0002920
:101200004FF0004801DD18B90FE00ED140450CD376
:1012100019EB02095F4121B9404502D19F4329EAF8
:101220000209BBEB175F00D0761C2088000502D5B1
:101230007B48784402E07A487844193808AA302379
:1012400002F80A30037C0AF10101002E0AF1020AB9
:1012500053546A4602DC4FF0300101E04FF0310197
:101260004FF001088DF8001002D0A6F2FF3603E01F
:1012700059EA470100D06B4E002D02DC21780907A6
:1012800004D54FF002082E218DF80110C44600212C
:101290000BE0C7F303433F01C35C491C6D1E02F81A
:1012A0000830052908F1010801DA002DF1DC0021E0
:1012B0000CE000EB1973491C1B786D1E082902F81D
:1012C00008304FEA091908F1010801DA002DF0DCB5
:1012D00021688B0602D516E0A8F10108E04505DD7E
:1012E00002EB080313F8013C302BF5D0B8F1000FE6
:1012F00009DD02EB080313F8013C2E2B03D109078B
:1013000001D4A8F10108002D05DD3E2102F80810E6
:101310006D1E08F10108407C002E02F8080008F15B
:10132000010804DA2D20764202F8080002E02B20A2
:1013300002F808000A214FF47A70864208F1010889
:101340000BDB96FBF0F3303302F8083096FBF0F33A
:1013500008F1010800FB136601E0642E0CDB642039
:1013600096FBF0F3303302F8083096FBF0F308F107
:10137000010800FB136601E00A2E06DB96FBF1F084
:10138000303002F8080008F1010896FBF1F001FB8B
:101390001060303002F80800A16908F1010808EB7C
:1013A000050202EB0A00081AA0612078C00602D4E8
:1013B0002046FFF751F8216A08AE01EB0A002062CF
:1013C00004E0D4E9012116F8010B9047BAF1010AB3
:1013D000F7D22078C00602D52046FFF73DF86E46CA
:1013E00009E016F8010B3E280FD0D4E901219047FF
:1013F000206A401C2062B8F10108F2D22046FFF7B3
:1014000041F809B00320BDE8F08F206A284420622B
:1014100003E0D4E90121302090476D1EEBD3F8E7BB
:101420008D11010002FCFFFF10B5436913B1AFF34A
:10143000008001E0FFF7D6FA012010BD128800F10C
:10144000240182840022C2840122EDE711684FF05A
:10145000FF32E9E72DE9F04116460C46054600F05B
:1014600043F8036893F80101012807D0FF2C12D834
:10147000185D80B101202C70BDE8F081D3F8070120
:101480003246214603F20713C7182846BC46BDE87A
:10149000F041002360474FF0FF30EDE7754600F064
:1014A000EBF8AE4605006946534620F00700854636
:1014B00018B020B5FEF708FFBDE820404FF0000649
:1014C0004FF000074FF000084FF0000BAC46ACE8BF
:1014D000C009ACE8C009ACE8C009ACE8C00921F01B
:1014E00007018D467047000010B500F005F8001D9B
:1014F00010BD00BF450E01000048704738000020B5
:101500002DE9F0411F46044603260168072A01F42D
:10151000006004DB08B116A505E016A503E008B1DC
:1015200015A500E015A521F010002060A069C01EDF
:10153000A0610FB1401EA0612046FEF78DFF4FB1A4
:10154000D4E9012138469047206A401C2062C01C23
:10155000206206E0206AFAE7D4E9012115F8010BC0
:101560009047761EF8D22046FEF78CFFBDE8F0814A
:101570004E414E006E616E00494E4600696E660037
:101580002DE9F047814616468AB0354878440DC8A3
:101590008DE80D0032487844801C03AC0DC884E807
:1015A0000D0041F69B300844372190FBF1F290FB8F
:1015B000F1F5A5F1800501FB12041B3C02D5644244
:1015C000012000E00020DFF898A080460027FA44C0
:1015D000AAF1BE0A0EE0E0070AD03246684607EBE1
:1015E000470101230AEB810110F03DFD8DE8070062
:1015F00064107F1C002CEED1194F7F44AE3F19E0E0
:10160000E80715D007EB04100DF1180A90E80E005A
:101610008AE80E00C068F04201D19819089032465D
:10162000012306A903A810F01EFD03AB83E8070001
:101630006D10641C002DE3D14FF001033246694662
:10164000B8F1000F03A802D010F0F8FC01E010F090
:101650000AFDC9E90001C9F808200AB0BDE8F08711
:10166000C40E010010B50446AFF300802046BDE86B
:101670001040FEF714BE000000487047180000201C
:1016800030B44FF0013C50F8042B51F8043BCCFA35
:1016900052F4D51A20D1FCB950F8042B51F8043B70
:1016A000CCFA52F4D51A17D1B4B950F8042B51F82A
:1016B000043BCCFA52F4D51A0ED16CB950F8042B75
:1016C00051F8043BCCFA52F4D51A05D1002CDAD0EB
:1016D00030BC4FF00000704729BAB1FA81F111F027
:1016E0001801D1F120008440F2D1CA40CB4012F061
:1016F000FF0213F0FF0330BCD01A704701491820D5
:10170000ABBEFEE72600020070470000B0B50168DE
:1017100004468A688868C0074FF0000031D012F094
:10172000020218BFB0BD886800F0050001281FD173
:1017300088684FF6E872C7F6FF7210400230886082
:101740000320086001F066FA21688968C90704BFB0
:101750000020B0BD054602E08068C00712D001F04D
:1017600059FA411B20680329F6D38168C907F3D0D1
:10177000A06D40F01000A065E06D40F00100E06554
:101780000120B0BD0020B0BD70B582B0044600207D
:10179000019021688A68D20711D14FF6E876C7F622
:1017A000FF76886806F12F0210420BD0A06D40F042
:1017B0001000A065E06D40F00100E065012002B07E
:1017C00070BD00BF8868304040F00100886042F280
:1017D0000870C4F201000068000225D4607E012870
:1017E0001ED001F017FA21680A68D20718D1054601
:1017F00003E000BF0868C00712D18868C00704D1A1
:101800008868304040F00100886001F003FA401B16
:1018100021680328EED30868C007EBD1C6E700BFF4
:10182000002002B070BD00BF40F20C00C2F2000008
:10183000006842F663518009C0F23E51A0FB0101ED
:10184000012000EB9110019001980028C6D000BF44
:1018500001980138019001980028BFD00198013803
:10186000019001980028B9D00198013801900198A1
:101870000028B3D001980138019001980028E7D1E1
:10188000ACE70000FEE7000080B500F09BFD00F033
:10189000ADFDBDE8804000F09FBD000041F6B800FE
:1018A000C2F2000000F0B2BE41F65800C2F20000E1
:1018B00000F0ACBE41F2F870C2F2000000F0A6BE2B
:1018C00070470000082001F0C5B80000EFF3108059
:1018D00072B600BFFEE700002DE9F04182B0044679
:1018E0000020019094F85400012803D1022002B096
:1018F000BDE8F081012084F854002046FFF706FF80
:1019000021688A68A76DD20746D127F4817702370C
:10191000A765CF68CE6848F20305AE43CE608E68F7
:101920004FF6E8724BF2FF7346F00046C7F6FF72BF
:10193000C0F2020307EA050826F017068E608E68DB
:10194000B6F1FF3F32DC019E01360196019E9E42B8
:1019500000F2A7818E68B6F1FF3F27DC019E0136B9
:101960000196019E9E4200F29C818E68B6F1FF3F77
:101970001CDC019E01360196019E9E4200F291817F
:101980008E68B6F1FF3F11DC019E01360196019E83
:101990009E42D4D985E100BF47F01001A165002126
:1019A00084F8541002B0BDE8F08100BFD1F8B460F3
:1019B0008F6806F07F05174007F100478F608F683A
:1019C000B7F1FF3F28DC019F01370197019F9F423C
:1019D00000F267818F68B7F1FF3F1DDC019F01377F
:1019E0000197019F9F4200F25C818F68B7F1FF3F32
:1019F00012DC019F01370197019F9F4200F2518144
:101A00008F68B7F1FF3F07DC019F01370197019F06
:101A10009F42D4D945E100BFD1F8B4708E6807F079
:101A20007F073D4406EA020707F100478F608F6891
:101A3000B7F1FF3F28DC019F01370197019F9F42CB
:101A400000F22F818F68B7F1FF3F1DDC019F013746
:101A50000197019F9F4200F224818F68B7F1FF3FF9
:101A600012DC019F01370197019F9F4200F219810B
:101A70008F68B7F1FF3F07DC019F01370197019F96
:101A80009F42D4D90DE100BFD1F8B4708E6807F041
:101A90007F073D4406EA020707F100478F608F6821
:101AA000B7F1FF3F28DC019F01370197019F9F425B
:101AB00000F2F7808F68B7F1FF3F1DDC019F01370F
:101AC0000197019F9F4200F2EC808F68B7F1FF3FC2
:101AD00012DC019F01370197019F9F4200F2E180D4
:101AE0008F68B7F1FF3F07DC019F01370197019F26
:101AF0009F42D4D9D5E000BFD1F8B4708E6807F00A
:101B00007F073D4406EA020707F100478F608F68B0
:101B1000B7F1FF3F28DC019F01370197019F9F42EA
:101B200000F2BF808F68B7F1FF3F1DDC019F0137D6
:101B30000197019F9F4200F2B4808F68B7F1FF3F89
:101B400012DC019F01370197019F9F4200F2A9809B
:101B50008F68B7F1FF3F07DC019F01370197019FB5
:101B60009F42D4D99DE000BFD1F8B4708E6807F0D1
:101B70007F073D4406EA020707F100478F608F6840
:101B8000B7F1FF3F26DC019F01370197019F9F427C
:101B900000F287808F68B7F1FF3F1BDC019F0137A0
:101BA0000197019F9F427CD88F68B7F1FF3F11DCFE
:101BB000019F01370197019F9F4272D88F68B7F14B
:101BC000FF3F07DC019F01370197019F9F42D6D954
:101BD00067E000BFD1F8B4708E6807F07F073D441E
:101BE00006EA020707F100478F608F68B7F1FF3FF1
:101BF00024DC019F01370197019F9F4251D88F68D4
:101C0000B7F1FF3F1ADC019F01370197019F9F4207
:101C100047D88F68B7F1FF3F10DC019F013701976C
:101C2000019F9F423DD88F68B7F1FF3F06DC019FBF
:101C300001370197019F9F42D7D932E0D1F8B470A4
:101C40008E6807F07F073D4406EA020707F1004768
:101C50008F608F68B7F1FF3F30DC019F013701973C
:101C6000019F9F421DD88F68B7F1FF3F26DC019F7F
:101C700001370197019F9F4213D88F68B7F1FF3F4B
:101C80001CDC019F01370197019F9F4209D88F6893
:101C9000B7F1FF3F12DC019F01370197019F9F427F
:101CA000D7D9A06D40F0100020F00200A065002000
:101CB00084F85400012002B0BDE8F0810646D1F856
:101CC000B4008B6800F07F00134043F001038B6089
:101CD000D1F8B430284423F07F0343EAD000C1F8A0
:101CE000B4008868104040F00200886000F092FF65
:101CF00021688A68D20709D1C86840EA0800C8602C
:101D0000A16D012060F30101304647E6054602E07F
:101D10008868C007F0D000F07DFF401B21680328D1
:101D2000F6D38868C007F3D0A06D40F01000A0651E
:101D3000E06D40F00100E065012002B0BDE8F081F7
:101D40002DE9F04181B00022009290F85420012A40
:101D500004D10221084601B0BDE8F08101230268E8
:101D600080F8543093685B071AD44B680569022BDE
:101D70001CD1042745F00403C8F20007BB425DD123
:101D80000B684FF6FF77D943C0F20307966A61EA02
:101D9000070131409162B3F1FF3F00F3F08052E060
:101DA000816D41F0200181650121E9E0042445F0C5
:101DB0000405C8F20004A5424FF6FF74C0F2030404
:101DC00060D1D1F800E0936A0EEA04052B439362D8
:101DD000896853694FF6007701EA0E21C0F2FF3798
:101DE00023EA0E2339401943BEF1FF3F516100F34E
:101DF000C68042F2087CC4F2010CDCF8003041F2EB
:101E00000001CBF200018E4503F0E07208BF13F42D
:101E100000015DD044F20001CBF600018E4540F098
:101E20008D800021B1EB126F40F08880DCF800104B
:101E300021F0E071114341F0807191E00B68B3F142
:101E4000FF3F00F39C8042F20871C4F2010144F2AA
:101E500000070A68CBF60007BB4200F0898042F217
:101E60000007CBF20047BB4200F07E8041F2000742
:101E7000CBF20007BB4240F082800B6802F0A072F8
:101E800079E000BFD1F800E0076E03F01F0C0F25CA
:101E90009EFAAEF6D0F81C8005FA0CF5B6FA86F676
:101EA000AF431EEA040F08BFCEF3846606FA0CF4B3
:101EB0003C43B8EB930F04668AD9946AEB434FEA2C
:101EC0009E65234005F00F0404FA0CF73B437EE7C0
:101ED000DCF8001021F0E071114341F40001CCF86E
:101EE000001040F20C01C2F20001096842F6635290
:101EF0008909C0F23E52A1FB0212910901EB410196
:101F00000C2202EB810100910099C1B300990139C3
:101F10000091009999B3009901390091009971B32A
:101F2000009901390091009949B300990139009154
:101F3000009900294FF00001E8D121E042F20001B0
:101F4000CBF200418E454FF0000108BF13F480032F
:101F500016D1DCF8001021F0E071114341F480014A
:101F6000CCF800100BE000BF0B6802F0C07202E07A
:101F70000B6802F4400223F0E0731A440A60002167
:101F8000002280F85420084601B0BDE8F08100002E
:101F90000068006C7047000070B582B00021002816
:101FA000019100F00F81816D21B102689168C90033
:101FB0000CD53CE0044600F021F920460021E16503
:101FC00084F8541002689168C90030D491684FF6C3
:101FD000E873C6F6FF73194001F18051916040F239
:101FE0000C01C2F20001096842F663538909C0F28C
:101FF0003E53A1FB03139909022303EB4101019115
:102000000199A1B1019901390191019979B1019920
:1020100001390191019951B1019901390191019958
:1020200029B101990139019101990029EAD19168F9
:10203000C9000BD4816D4FF0010E41F01001816594
:10204000C16D41F00101C16502E000BF4FF0000E1B
:102050009368846D03F0040304F010041B19836D6E
:1020600058D123F48173023383659368DB0769D108
:10207000037ED0E9024C457E44EA8333847E0169C5
:1020800043EAC53343EA4433056B21F00046B1F11E
:10209000FF3F43EA0C03C8BF4FF4001690F82C1022
:1020A000002D18BF43F4805390F820503343012D86
:1020B00043EA41030AD1002C00F09880816D41F081
:1020C00020018165C16D41F00101C165446A24B1FF
:1020D000816A04F4E07631430B43D16840F2012673
:1020E000CFF6FE7631401943D160436890F83C103A
:1020F000D0F84CC0012903F0404413D100F1400650
:1021000062CE29433143214341EA0C0141F00104ED
:102110000AE000BF43F0100181654FF0010E7046E8
:1021200002B070BD44EA0C0411694FF60246C1F6D4
:10213000FF7631402143B3F1004F116118BFB3F175
:10214000404F45D10469D0E90D315669B4F5001FFF
:1021500026F0070646EA03065661566926F0700621
:1021600046EA0111516105D094B9916A61F00F01FD
:102170000DE000BF916AC1691C2505EB8101066E67
:1021800001F01C016FF00F0505FA01F13143916276
:10219000516901F0070199420AD10021C165816DA1
:1021A000012262F301018165704602B070BD00BF7B
:1021B000816D41F0100121F002018165C16D41F096
:1021C0000101C1654FF0010E704602B070BD00BF45
:1021D000B3F1804FB6D042F20871C4F201010E682B
:1021E0009B0C63F395460E60ACE700BF43F480336D
:1021F000446A002C7FF46CAF6FE7000080B586B0B6
:10220000006842F20042C4F2010200219042CDE98E
:102210000311CDE90111009102D006B080BD00BFCD
:102220004C20C5F60000426942F4007242614269E6
:1022300002F400720592059A026842F002020260FE
:10224000006800F002000590059808200090032027
:10225000CDE9010140F20040C4F60000694600F0FB
:1022600005FC06B080BD0000F0B581B004464069B1
:102270000D46082802D1082705E000BF2068C06885
:10228000C00755D1042700F0C5FC21680A683A420E
:102290001CD0204650F8582F42F400720260CA68E1
:1022A00012F4406F56D1A27E002A53D10A68120759
:1022B00050D58A68520743D44A6840F2011322F08D
:1022C0000C024A6002689A4341E000BF0646681C5F
:1022D00029D065B900F09EFC2168086838420FD00B
:1022E00008683842F6D0D4E708683842D1D100F007
:1022F00091FC801B2168A842F6D908683842F3D1C6
:10230000A06D40F00400A065002084F85400032074
:1023100001B0F0BD08683842BBD108683842B8D176
:1023200008683842B5D108683842F3D0B1E700BF39
:10233000A06D40F02000A065012001B0F0BD00BFFD
:10234000A06D40F02000A065204650F85C2F42F0C0
:1023500001020260207E002804BF0C2008600020DB
:1023600001B0F0BD10B501688968490703D490F841
:102370005410012902D1022010BD00BF012180F8B4
:1023800054100446FFF700FA20B1002084F85400EE
:10239000012010BD2168A06D40F60172904300F548
:1023A0008070A06500201C22E0650A6084F854005B
:1023B0008A684FF6E873C7F6FF731A4004328A60E2
:1023C00010BD000042F20400CEF20400016821F0CA
:1023D000010101607047000042F20400CEF20400E7
:1023E000016821F0040101607047000042F204001E
:1023F000CEF20400016821F0020101607047000084
:10240000002804BF0120704790F8251002292DD123
:1024100080B50168D0E910CE826C0B6823F00E0302
:102420000B60136823F4807313600A6822F00102C2
:102430000A600EF01C02012101FA02F2CCF804201D
:10244000D0E913325A60426D32B1136823F48073BD
:102450001360D0E91623536080F825100021BDE8F1
:102460008040002280F82420084670470421C16380
:102470000121002280F824200846704790F825109A
:1024800002292FD180B50168D0E910CE826C0B688B
:1024900023F00E030B600B6823F001030B6011683F
:1024A00021F4807111600EF01C02012101FA02F288
:1024B000CCF80420D0E913325A60426D32B113686F
:1024C00023F480731360D0E91623536080F825103D
:1024D000816B0022002980F8242018BF8847002043
:1024E00080BD00BF0421C16301207047002804BFE4
:1024F000012070470068CB06026805D5C90254BFA9
:1025000022F4801242F48012026000207047000022
:1025100000284FF0010C04BF012070472DE9F04F57
:1025200040F20444D0E9002EC4F202044FF6F83120
:10253000231DCBF6FD719A4238BF01F580614CF640
:10254000CD451144CCF6CC45A1FB051A02F0FC01A7
:10255000A1F10801A1FB051B116840F2000921F05F
:102560000101C4F20209116009F580616FF00306F0
:102570003CBF0021C4F2020104F5836506EA9A0615
:102580001C279A4238BF04F57F75C0E91016002158
:1025900007EA9A0711600CFA07F79A4238BF09F167
:1025A00004042760072404EB1B149A4238BF4FEA47
:1025B0001B1404F01F0240F680080CFA02F3AEF17F
:1025C0000102C4F20208AF19032AC0E912780365B8
:1025D000A951C8F8043008D8012708EB820307FA8C
:1025E00002F2C3F88010C8F8C420C0E91511C16513
:1025F000C0E90B11C0E90D11C16380F8251080F806
:102600002410BDE8F04F08467047000070B5D0E9CF
:1026100010C20168DCF8004002F01C0304220E68BE
:102620009A40224218BF16F0040523D1022202FA72
:1026300003FE1EEA040F18BF16F002022AD124FA84
:1026400003F2120714D516F0080208BF70BD0A681D
:1026500022F00E020A60012101FA03F2CCF80420F4
:10266000C16380F82510416B002280F8242069B9ED
:1026700070BD00BF0B689B0603D40B6823F00403F6
:102680000B60CCF80420016B0029F1D0BDE870404C
:10269000084700BF0A68920606D40A6822F00A02B8
:1026A0000A60012280F825200422C4F2020202F10D
:1026B0007C03994288BF02F58062C2F800E0C16ADB
:1026C0000022002980F82420E0D1D1E700284FF033
:1026D000010100F091802DE9F04F0026C4F20206BE
:1026E00003684FF6F83706F58169CBF6FD774B4561
:1026F00038BF07F580674CF6CD451F44CCF6CC4576
:10270000A7FB057803F0FC07A7F1080740F6840E45
:10271000A7FB057BC4F2020E06F580646FF003058B
:10272000D0E902AC02693CBF0024C4F20204AEF15D
:10273000680705EA98054B4538BF06F50067C0E90C
:102740001045022480F825401C6847F6F07624EAFC
:1027500006061E60466942EA0C0284693243C66975
:102760002243046A32431E682243324342EA0A0289
:102770001A604B454FF0070303EB1B1338BF4FEABA
:102780001B1303F01F037A19AEF1040701FA03F3D8
:10279000BAF5804FC7648264036505D100214160AA
:1027A0001160CEF8003019E0416801F07F0701396F
:1027B00003294FF000011760CEF800300ED87A1EC2
:1027C0000EEB820747F87C1F02F0030101228A40CA
:1027D0000EF1BC033946CEF8C02001E000230022F0
:1027E000C0E91513C26500210122C16380F82520CC
:1027F00080F82410BDE8F04F0846704790F824C0D8
:10280000BCF1010F04BF022070474FF0010C80F8AB
:1028100024C090F825C0BCF1010F3BD12DE9F04157
:102820004FF0020C80F825C04FF0000CC0F83CC0FF
:10283000D0F800C000F14C0E9EE83040DCF800609B
:10284000BEF1000F26F00106CCF8006065601CBFE9
:10285000D0E916456560D0E91056012706F01C0640
:10286000846807FA06F6D0F830806E60CCF8043041
:102870000B46102C04BF13460A46CCF80830CCF89F
:102880000C20DCF80010B8F1000F0BD041F00E0165
:1028900010E000BF8021C163002180F824100120D6
:1028A000704700BF21F00401CCF80010DCF80010E4
:1028B00041F00A01CCF80010806C0168C90303D50F
:1028C000016841F480710160BEF1000F05D0DEF8AF
:1028D000000040F48070CEF80000DCF8000040F00A
:1028E0000100CCF800000020BDE8F08181B000902C
:1028F000009801B00AF010B8002908BF70472DE910
:10290000F04F82B040F60003C4F60003072298425D
:1029100008BF0222009200F120020192019C4FF0B8
:10292000000B00274FF0000A25E000BF06680322D5
:1029300002FA0BF52E436FF00302066002EA5A0218
:1029400007F01C0EA3580F2606FA0EF6B343A35049
:102950008268AA438260426822EA0C024260C2682E
:10296000AA43C2600AF1010A31FA0AF207F1040728
:102970000BF1020B4CD0012202FA0AFC1CEA0108FE
:10298000F0D008222AF00305C4F20102AB58B0F1DE
:10299000904F0BD040F20042C4F60002DDF800E098
:1029A000904208BF4FF0010E02E000BF4FF0000E52
:1029B00007F00C05072202FA05F903EA09060EFAE8
:1029C00005F5AE42B2D140F60002C5F60002D2F8DB
:1029D00080604FEA9A0526EA0806C2F88060D2F8BD
:1029E000846026EA0806C2F88460166826EA0806AB
:1029F0001660566826EA080656600822C4F20102EC
:102A000052F8256026EA090642F825608EE700BFE5
:102A100002B0BDE8F04F7047082818BF704780B576
:102A200006A100200BF0E8FF41F6F070C2F20000B2
:102A300001210170BDE88040704700BF424F4F54F4
:102A40002062746E20697320507265737365640A26
:102A50000000000040F60C01C5F600010A680242C1
:102A600014BF08607047FFF7D7BF00002DE9F04F93
:102A700082B00F68002F00F0BD8000F1200240F608
:102A800000030092C4F6000307224FF0000A00265C
:102A90004FF00008984208BF022201924AE000BFAE
:102AA00040F20042C4F60002019B904208BF01239D
:102AB0000AF00C050727AF402CEA0707AB403B4361
:102AC00008274FEA9802C4F2010740F6000447F8CD
:102AD0002230C5F6000422684B6842EA0907DD028D
:102AE00058BF22EA0907276062689D0242EA090787
:102AF00058BF22EA09076760D4F88020DD0342EA64
:102B0000090758BF22EA0907C4F88070D4F8842066
:102B10009B0342EA090758BF22EA0907C4F88470F8
:102B20000F6808F1010837FA08F206F102060AF107
:102B3000040A5FD0012202FA08FE17EA0E09EFD05C
:102B4000D1F804C003220CF0030BABF1010302FA2D
:102B500006F7012B6FEA070410D88368CF6823407B
:102B6000B7403B4383604368CCF3001723EA0E036E
:102B700007FA08F73B43436006E000BFBBF1030FD1
:102B800002D14FF0030B1EE0C3688F682340B740AB
:102B90003B43BBF1020FC36015D16FF00302009BF2
:102BA00002EA580E53F80EC00AF01C050F220F69F6
:102BB000AA402CEA0202AF403A4343F80E20D1F873
:102BC00004C00CF0030B02680BFA06F322401A4310
:102BD0001CF4403F0260A3D0082328F00302C4F293
:102BE000010352F803C0B0F1904F7FF459AF0023B6
:102BF0005EE700BF02B0BDE8F08F0000006908404A
:102C000018BF0120704700001823002A08BF28239E
:102C1000C150704740F62560C2F2000000780128DC
:102C20001CBF0020704709F007BF000040F2000001
:102C300042F6F441C2F20000C2F2000100780A68D4
:102C4000104408607047000080B5032000F0BEF813
:102C500000F02AFB40F20C01C2F2000108600F20D4
:102C600000F008F800281CBF012080BD00F054F8D7
:102C7000002080BDB0B588B06021C5F600010A68AB
:102C8000054642F400620A60096801A801F4006187
:102C900001910199694600F0DBFA00F033FB4DF633
:102CA0008361C4F21B31A0FB01014FF0FF3000EB48
:102CB000914141F6C01042F60042C2F20000C4F257
:102CC000010240F2E7330024C0E90021C0E90243D9
:102CD000046103F0EBFB08B108B0B0BD41F6C010D1
:102CE000C2F2000003F056FC0028F5D1182000F0D5
:102CF0002FF80F2D0CD818202946002200F03AF8A2
:102D000040F204010020C2F200010D6008B0B0BD25
:102D1000012008B0B0BD00006FF001000F210022BB
:102D200000F028B8002848BF704700F01F010122BA
:102D300002FA01F11C2202EAD0004EF28012CEF219
:102D400000028150BFF34F8FBFF36F8F70470000B9
:102D5000002848BF704700F01F01012202FA01F16C
:102D60001C2202EAD0004EF20012CEF20002815084
:102D70007047000010B54EF60C5CCEF2000CDCF88B
:102D80000030C3F3022E8EF00704042C28BF042465
:102D9000BEF103034FF0FF3E0EFA04F438BF0023E8
:102DA000A14399400EFA03F39A43114300F00F0236
:102DB00000F160430901043A03F5644362440028CA
:102DC00048BF02F10C03197010BD00004EF60C5103
:102DD000CEF200010A684FF6FF031A4060F30A22A0
:102DE00042F0806040F0FD700860704740F20040A3
:102DF000C5F60000006800F4C060704740F2004073
:102E0000C5F60000016841F4807101607047000060
:102E1000F0B581B0044680788826C007C5F6000664
:102E200000F0AC80FFF7EAFFFFF7F4FE054600BFB5
:102E3000D6F87803C00577D4FFF7ECFE401B0228D4
:102E4000F6D903202168CA0700F09D8062683368C4
:102E500023EA124392B21A4332608A0740F1968005
:102E6000A268336823EA124392B21A4332608A0698
:102E700040F18F802269336823F440631A43326043
:102E80008A0540F18980226A33684FF6FF7767EA46
:102E900002073B4043EA024232604A0540F17F802C
:102EA000626A33684FF6FF7767EA02073B4043EAFE
:102EB000024232600A0575D5A26A33684FF6FF7781
:102EC00067EA02073B4043EA024232604A066BD59A
:102ED000626933686FF47F2767EA12173B4002F498
:102EE0007F4243EA021232600A065FD5A269336864
:102EF0006FF47F2767EA12173B4002F47F4243EAF0
:102F000002123260CA0553D5E26933686FF47F2735
:102F100067EA12173B4002F47F4243EA0212326032
:102F2000CA0657D546E000BFB168606B01F4407136
:102F300081421ED0B168B26821F4407342F48032FD
:102F4000B260B268890722F480320146B260B36091
:102F50000FD5FFF75FFE054641F28837B06880075E
:102F600006D4FFF757FE401BB842F7D969E700BF08
:102F7000616BB06820F440700843B06000202168A5
:102F8000CA077FF463AF8A073FF56AAF8A063FF549
:102F900071AF8A053FF577AF4A053FF581AF0A0566
:102FA0003FF58AAF4A0693D40A069FD4CA05ABD42C
:102FB000CA060FD5E2683368B2F5807F23F4407308
:102FC00043EA0203336005D156F87C2C42F080724C
:102FD00046F87C2C0A0407D5226B336823F0404363
:102FE00043EA020333609AB1490419D5E16A3268B1
:102FF000B1F1005F22F0405242EA010232600FD18B
:1030000056F87C1C41F4803146F87C1C01B0F0BDC0
:1030100056F87C2C42F0807246F87C2C4904E5D4AA
:1030200001B0F0BD2DE9F04381B0002800F0EA8046
:1030300044F20008C5F600080546D8F800000C4622
:1030400000F00700884215D2D8F8000020F00700F1
:103050002043C8F80000FFF7DDFD0646D8F8000061
:1030600000F00700A04205D0FFF7D4FD801B022826
:10307000F4D977E0286808278107C5F6000714D53A
:10308000A868396821F0F00108433860FFF7C2FDF5
:10309000064600BF3868C00306D4FFF7BBFD801B9F
:1030A0000228F7D95EE000BF2868810615D5686957
:1030B000D7F8001121F0F0010843C7F80001FFF72D
:1030C000A9FD0646D7F80001800305D4FFF7A2FD4D
:1030D000801B0228F6D945E02868410617D5A86963
:1030E000D7F8001121F00F0141EA1010C7F80001D4
:1030F000FFF790FD064600BFD7F80001C00305D4D6
:10310000FFF788FD801B0228F6D92BE028684107CD
:1031100013D5E868396821F4E06108433860FFF7A7
:1031200079FD06463868800306D4FFF773FD801BDF
:103130000228F7D916E000BF2868010717D52869CB
:10314000396821F4605141EAC0003860FFF762FD40
:10315000064600BF3868400308D4FFF75BFD801BBC
:103160000228F7D9032001B0BDE8F0832868C00722
:103170001ED1D8F8000000F00700A04224D9D8F8EA
:10318000000020F007002043C8F80000FFF742FDD0
:10319000054600BFD8F8000000F00700A04213D099
:1031A000FFF738FD401B02284FF00300F2D947E03B
:1031B00068684FF0B041096840B3032820D0022866
:1031C00042D189031ED523E000F0B8F839683C22CB
:1031D00002EA910142F27842C0F60102515840F2EF
:1031E0000C02B0FBF1F140F20400C2F200000068F2
:1031F000C2F20002116001B0BDE8F043FFF73ABD32
:10320000890105D4012001B0BDE8F0838907F9D513
:10321000396821F0030108433860FFF7FBFC0646DC
:1032200041F288393868696800F00C00B0EB810F12
:103230009FD0FFF7EFFC801B48454FF00300F1D90A
:1032400001B0BDE8F08300BF4905DBD5E0E7000031
:10325000002818BF002901D1704700BF6F2240F23B
:10326000080C0260C5F6000CDCF8003003F00C021C
:10327000426003F0F002826003F4E062C26003F493
:1032800060520261DCF8002102F0F0031201D2B2B8
:103290004361826144F20000C5F60000006800F05E
:1032A000070008607047000080B500F047F808216B
:1032B000C5F6000109683C2202EA910142F2784217
:1032C000C0F601025158B0FBF1F080BD80B500F0AE
:1032D00035F80821C5F600010A683C2303EA92028A
:1032E00042F27843C0F601039A580968B0FBF2F045
:1032F00042F2B842C1F30221C0F6010252F8211095
:10330000C84080BD80B500F019F80821C5F600015D
:103310000A683C2303EA920242F27843C0F60103B2
:103320009A580968B0FBF2F042F2B842C1F3C221E8
:10333000C0F6010252F82110C84080BD0C21C5F62C
:10334000000151F8040C10F00C02086805D00C2A9A
:1033500016D100F00300012812D14FF0B0400368ED
:1033600000681B0706D400071CD4D1F88800C0F3FE
:10337000032022E000071BD4D1F8880015E000BF2D
:1033800042F20040042AC0F2F40022D0082A1FD1E1
:103390004FF0B0421268D2025CBF44F60000C0F2A7
:1033A000E81016E04FF0B0400068002005E000BFD4
:1033B0004FF0B0400068C0F3031042F28C53C0F6E7
:1033C000010353F82030002A184618BF002001E0FE
:1033D0000020002351F8042C02F00C020C2A18BF24
:1033E0007047086800F0030242F20040022AC0F26F
:1033F000F4000AD0032A09D14FF0B0421268D20279
:103400005CBF44F60000C0F2E810034608680A6892
:10341000C0F30620C2F30212584301320968B0FB20
:10342000F2F0012202EB5171B0FBF1F070470000A5
:10343000002804BF012070472DE9F04F81B040F211
:10344000900B0446C5F6000B5BF8880C5BF8841CF7
:10345000227800F00C08900601F0030A26D42078A8
:10346000C00759D0B8F1080F52D0B8F10C0F08BFFF
:10347000BAF1030F4CD04FF0B0400268D4E9011309
:1034800022F480121A4302600268B1F5803F09D02D
:10349000B1F5041F40F0348242F400114FF0B04205
:1034A0001160126842F48031016035E2B8F1000F1A
:1034B0001ED0B8F10C0F08BFBAF1010F18D0216A65
:1034C0004FF0B0463068002900F0688140F00100FC
:1034D0003060FFF79FFB05463068800700F186816A
:1034E000FFF798FB401B02284FF00300F4D957E385
:1034F000206A002800F0B4824FF0B041A06A0A6848
:10350000120700F1D380DBF804100909CFE000BFF7
:103510006068002800F0A482207880072FD5B8F1D9
:10352000040F1FD0B8F10C0F08BFBAF1020F19D069
:1035300021694FF0B0463068002900F0FF8140F467
:1035400080703060FFF766FB054600BF30684005BD
:103550000CD4FFF75FFB401B02284FF00300F5D9A6
:103560001EE300BF2069002800F07A8260695BF8E2
:103570008C1C21F0FE4141EA00604BF88C0C207855
:10358000000729D42078400752D4E56A002D00F0C6
:10359000D482B8F10C0F40F03F81012D00F0608221
:1035A0005BF8840C216B00F003028A4240F05882E1
:1035B000616B00F070028A4240F05282A16B00F40D
:1035C000FE42B2EB012F40F04B82616C00F0604094
:1035D000884200F0B28243E2A069DBF804100028C0
:1035E00000F0EE80E06901F01002904200F0C2822B
:1035F00001F00302022A00F03382C90700F0B3820F
:10360000DBF8040020F00100CBF80400FFF702FB18
:10361000054600BFDBF80400800740F1A382FFF7F6
:10362000F9FA401B11284FF00300F3D9B8E200BFAC
:10363000DBF87003C00511D4FFF7E0FBFFF7EAFAEF
:10364000054600BFDBF87003C00507D4FFF7E2FAB8
:10365000401B02284FF00300F4D9A1E2E0680028E3
:1036600000F07E81852801D0052805D1DBF8000017
:1036700040F00400CBF80000FFF7CCFADBF80010B4
:10368000054641F0010041F28836CBF8000000BF4A
:10369000DBF80000800700F11381FFF7BBFA401B45
:1036A000B0424FF00300F3D97AE200BF096801F09D
:1036B000F00144F20006884242F2784942F28C510D
:1036C000C5F60006C0F60109C0F6010128D93C2262
:1036D00002EA90000858DBF8781001F00F0159F861
:1036E0002110B0FBF1F5FFF781FBB0F5007F40F052
:1036F000B7804EF6BF20C0F22110854240F2DC8038
:1037000049F23F30C0F23420854240F243814AF60C
:103710003F60C0F2EB20854240F2B680002740E1D6
:103720004FF0B042136843F008031360136823F0AE
:10373000F00303431360626A5BF88C3C23F47F431D
:1037400043EA02224BF88C2C6FF0030202EA90004D
:103750000858DBF8781001F00F0159F82110B0FB80
:10376000F1F5FFF743FBB0F5007F40F08F804EF698
:10377000BF20C0F22110854240F2A08049F23F30C4
:10378000C0F23420854240F251814AF63F60C0F2D7
:10379000EB20854240F28E8000274EE120F00100B0
:1037A0003060FFF737FA0546306880077FF557AE7F
:1037B000FFF730FA401B02284FF00300F4D9EFE185
:1037C00021F00100CBF80400FFF724FA054600BF02
:1037D000DBF8040080077FF5D5AEFFF71BFA401B2E
:1037E00011284FF00300F3D9DAE100BF4FF0B040E9
:1037F000016841F0080101600168D4E9092321F062
:10380000F001194301605BF88C0C20F47F4040EA22
:1038100002204BF88C0C22E64FF0B046306820F0C6
:1038200080703060FFF7F6F9022D05460CD100BF1D
:103830003068800140F14881FFF7ECF9401B0A280D
:103840004FF00300F4D9ABE13068800140F16C81A6
:10385000FFF7E0F9401B0A284FF00300F4D99FE17D
:103860004CF6BF70C0F26A00854225D945F63F503C
:10387000C0F2C600854240F28D8046F23F60C0F241
:10388000031085423FF64AAF022084E04CF6BF7039
:10389000C0F26A00854211D945F63F50C0F2C60019
:1038A000854240F2C38046F23F60C0F20310854279
:1038B0003FF672AF0220BAE000206CE00020B6E0D4
:1038C000E06840F00400852840F0CE80FFF7A2F9C0
:1038D000DBF80010054641F0800041F28836CBF855
:1038E000000000BFDBF8000000053FF54EAEFFF71B
:1038F00091F9401BB0424FF00300F3D950E100BFF3
:1039000022F480304FF0B04630603068002920F457
:103910000010306000F01681FFF77CF905464FF08B
:10392000B04600BF306880033FF5F6ADFFF772F98F
:10393000401B64284FF00300F4D931E120F480707B
:103940003060FFF767F90546306840057FF517AE30
:10395000FFF760F9401B02284FF00300F4D91FE184
:10396000FFF758F9DBF80010064621F0800041F21D
:103970008837CBF8000000BFDBF80050FFF74AF9AA
:103980002905054640F18A80A81BB8424FF0030084
:10399000F2D905E1012042F26C41C0F6010151F873
:1039A0002070306820F0070038433060FFF732F9AC
:1039B000054600BF306800F00700B84206D0FFF7A8
:1039C00029F9401B0228F5D94AE000BF4FF0B0406A
:1039D000016841F0080101600168D4E9092321F080
:1039E000F001194301605BF88C0C20F47F4040EA41
:1039F00002204BF88C0CFFF7A1FC5BF8881C3C22E2
:103A000002EA910159F8011040F20C02B0FBF1F109
:103A100040F20400C2F200000068C2F2000211602D
:103A2000FFF728F9002840F0BB8018E5012042F29A
:103A30006C41C0F6010151F82070306820F0070099
:103A400038433060FFF7E6F8054600BF306800F005
:103A50000700B842CFD0FFF7DDF8401B0228F5D9A8
:103A6000012001B0BDE8F08FFFF7D4F8DBF80010BB
:103A7000054621F0800041F28836CBF8000000BFF7
:103A8000DBF8000000057FF580ADFFF7C3F8401BB1
:103A9000B0424FF00300F3D982E000BFDBF8000032
:103AA00041F2883620F00100CBF80000DBF800007E
:103AB00080077FF56AADFFF7ADF8401BB0424FF0CD
:103AC0000300F3D96CE000BF5BF8840C48F28C0172
:103AD000C1F2C11104F1300708408ECFD4E910655E
:103AE0000843104340EA03203843304328434BF84F
:103AF000840C4FF0B045286840F0807028605BF877
:103B0000840C40F080504BF8840CFFF783F8044697
:103B10002868800111D4FFF77DF8001B0A284FF0B8
:103B20000300F5D93CE000BF5BF8840C4FF6FC7154
:103B3000CEF6FE6108404BF8840C002001B0BDE8D1
:103B4000F08F00BFFFF766F8054600BF30688003BE
:103B50007FF5E2ACFFF75EF8401B64284FF00300EE
:103B6000F4D91DE0E069DBF8041021F010010843EE
:103B7000CBF80400DBF8040040F00100CBF80400AF
:103B8000FFF748F8054600BFDBF8040080073FF563
:103B9000F9ACFFF73FF8401B11284FF00300F3D9B1
:103BA00001B0BDE8F08F0000704700004BF200103C
:103BB000C4F2000050F82100704700004BF20010E2
:103BC000C4F2000040F821207047000090F82C104B
:103BD00001294FF0020117D080F82D1042F6240180
:103BE000C4F20001CA220A6053220A6051F80C2C68
:103BF00042F0200241F80C2CFF220A60012180F8DB
:103C00002D10002180F82C100846704710B541F6A1
:103C10001814C2F2000420460221FFF7C7FF421C1D
:103C200020460221BDE81040FFF7C8BF10B542F69C
:103C30005401C4F200010A680446520604D540202B
:103C400088602046FFF7E2FF012084F82D0010BDB8
:103C500090F82C1001294FF002011FD080F82D1090
:103C600042F62401C4F20001CA220A6053220A600B
:103C700051F80C2C42F0800241F80C2C40F68002E6
:103C8000C5F60002136843F480231360FF220A6024
:103C9000012180F82D10002180F82C100846704773
:103CA0000AF06EBC70B542F65C050446C4F200052D
:103CB00055F8080C216B01EA0006F00706D1B007A1
:103CC0000BD4012084F82D0070BD00BF01202860B6
:103CD0002046FFF7E5FFB007F3D502202860204615
:103CE000FFF762FF012084F82D0070BD90F82C20B2
:103CF000012A4FF002023CD0B0B542F6240CC4F2C7
:103D0000000CCA2380F82D20CCF800305323CCF8C7
:103D100000305CF80CEC6FF40853B1F5807F08BFFD
:103D20006FF488534FF028046FF0020503EA0E0386
:103D300008BF202408BF6FF001054CF80C3C54F874
:103D40000C30B1F5807F23F0004144F80C10016B7A
:103D500008BF012229400163FF21CCF83820CCF8AC
:103D600000100121002280F82D1080F82C20BDE8E1
:103D7000B040104670470000002804BF0120704783
:103D800070B5044690F82D0028B9002084F82C0066
:103D9000204600F061F842F60C060220C4F200064C
:103DA00084F82D003068C00648D4CA20B061532082
:103DB000B0613068400612D4306840F08000306056
:103DC000FEF728FF3168490609D40546FEF722FFB1
:103DD000401BB0F57A7F37D830684006F6D5F068DA
:103DE0004FF6BF71CFF68F310840F060231D226976
:103DF0000BCB1043A269F56810432843F06043EAF7
:103E0000014070603068D4E9091220F4F85008438A
:103E100010433060204605F005FA18B1FF21B1616A
:103E200070BD00BFF068D4E9071220F060406369FC
:103E3000104308431843F060FF20B061012084F86C
:103E40002D00002070BD00BF032084F82D003168D4
:103E5000FF21B16170BD000010B590B0044601A80B
:103E600004303021FCF7DEFC206842F60001C4F289
:103E70000001884202D010B010BD00BF4FF4803066
:103E800001904FF480700E9001A8FEF7C1FF00284A
:103E900018BFFDF71BFD5820C5F60000816B0022FE
:103EA00041F400418163016841F480610160006870
:103EB000052100F480600F900F980220FEF75AFF52
:103EC0000220FEF745FF2A2005210022FEF752FFBF
:103ED0002A20FEF73DFF10B010BD000090F82C30F6
:103EE000012B4FF0020300F0FA802DE9F04742F673
:103EF000180C0124C4F2000C80F82C4080F82D30FE
:103F00005CF80C3C03F4407ABAF5807F02D10022C1
:103F10008AE000BFF2B14A69B2F1803F08D0B2F541
:103F2000000F05D0DCF800305B065CBF0023CB70CF
:103F30000B784F788E781B04CD7843EA07230C6A00
:103F4000334491F824E043EA8553234343EA0E6364
:103F50001A4369E0DCF80020520605D44FF0000E49
:103F600081F803E003E000BFCA784FEA825E0D7873
:103F70004FF0CD08A5F10A02D7B207FB08F7FF0AF8
:103F800007EB87034E785FFA85F9A2EB43028C7842
:103F900002EB0712B9F1090F88BF02F110055FFAB1
:103FA00085F9A6F10A05EFB207FB08F7FF0A07EB50
:103FB0008702F3B2A5EB420202EB0712092B88BF7E
:103FC00002F11006A4F10A05F2B2EEB206FB08F601
:103FD000F60A06EB8607E3B2A5EB470505EB0615E7
:103FE000092B88BF05F11004E3B291F824401202B6
:103FF000A4F10A05EEB206FB08F6F60A42EA094207
:1040000006EB86071A44E3B2A5EB470505EB061558
:10401000092B88BF05F110040B6A4D6943EA0E03B2
:104020002B431A4342EA0462CA23CCF80C305323D0
:10403000CCF80C308B6ADCF80040B3F5807F0DD1F2
:1040400024F48853CCF800300123BAF5807FCCF8F3
:10405000443011D1D1E906231A4310E024F4085367
:10406000CCF800300223BAF5807FCCF844300FD171
:10407000D1E906231A430EE0CCF828208A69CCF84F
:104080002C200CF158034FF4885201240AE000BFA1
:10409000CCF830208A69CCF834200CF15C034FF462
:1040A0000852022449681960016B0023214301630F
:1040B000DCF800101143CCF8001040F68001C5F682
:1040C00000010A6842F400320A60FF21CCF80C10AB
:1040D000012180F82D1080F82C30BDE8F0471846FB
:1040E0007047000070470000B0B582B001684A68B0
:1040F0008B6803F04105012D08D112F0400505D071
:10410000C16C02B0BDE8B040084700BF9D0707D5AD
:1041100012F0800504D0016D02B0BDE8B040084740
:1041200013F4B07F18BF12F0200501D102B0B0BD6A
:104130005D0618D590F85D50032D09D1002001903F
:10414000C868019088680190019802B0B0BD00BFB6
:10415000056E45F00405056600250195CD680195BD
:104160008D680195019D9D0604D4DB0511D4036E75
:10417000DBB9DBE7056E45F0010505660025019515
:104180008D6801950D6825F040050D60019DDB05EA
:10419000EDD5036E43F008030366002301938B689B
:1041A0000193019B036E002BC0D04B68920723F054
:1041B000E0034B604FF0010380F85D3026D04A6881
:1041C0004AF6BD7422F003024A60816DC0F6000415
:1041D00059B1054608468C63FEF750F9014628465A
:1041E00019B1016E41F040010166416D00299DD079
:1041F0008C6304460846FEF741F9002896D0206EED
:1042000040F04000206602B0B0BD00BF02B0BDE883
:10421000B040FFF767BF0000002804BF01207047CF
:10422000416A19B100210161142104E04168B1F52E
:10423000827F02D01C210022425070B590F85D10A0
:1042400031B9002180F85C10044600F073F8204674
:10425000022180F85D100168D0F80CE00A68BEF514
:10426000E06F22F040020A604FF000034EF400625B
:1042700098BF0123B2F5706F4FF0000218BF826241
:104280004FEA033CD0E90123D0E9044502F48272ED
:1042900003F404431A4404F0020384691A4405F049
:1042A0000103C5691A4404F400731A4405F0380385
:1042B000056A866A1A4405F080052A4406F400550A
:1042C0002A43B6F5005F0A6010D1026B022A05D0BE
:1042D00062B9BEF5E06F07D9022202630A6842F4B0
:1042E00000620A6002E000BF01220263042202EAC7
:1042F0001442446A0EF47063456B43EA0C0304F005
:1043000010041A4305F0080522432A434A60B6F513
:10431000005F04BF828D0A61CA6922F40062CA612B
:1043200000210122016680F85D20BDE8704008464A
:1043300070470000B0B586B00446006843F2000143
:10434000C4F2010100258842CDE90355CDE90155AC
:10435000009501D006B0B0BD4C20C5F60000416903
:1043600041F480514161416901F480510591059901
:10437000016841F0010101600068694600F0010038
:1043800005900598E02000900220CDE9010503206A
:104390000390052004904FF09040FEF767FB41F238
:1043A000F8703021C2F20000C4F20201082210238A
:1043B0004FF0800C80E82E10C0E90555C0E9075584
:1043C000FEF784F9002818BFFDF780FA41F2F8756E
:1043D000C2F2000528461021FEF788F8002818BF11
:1043E000FDF774FA2220052100226565AC62FEF714
:1043F000C1FC2220FEF7ACFC06B0B0BD2DE9F043B5
:1044000083B0044690F85C00012803D1022003B079
:10441000BDE8F0834FF001081D460F46164684F8AC
:104420005C80FEF7F7FB94F85D1001294CD18146C2
:10443000002F4FF0010018BF002E00F0FD80032078
:10444000002284F85D002266A763A687E6872264BF
:10445000A4F84420A4F84620A0683146B0F5004FE7
:104460002068E26422655FD1026822F040020260A7
:10447000026842F480420260A26AB2F5005F57D03F
:104480000268520603D4026842F040020260626889
:104490000139E368B2FA82F2B1FA81F152094909AD
:1044A000B3F5E06F41EA02014ED931B137F8021B92
:1044B000C160A763E08F0138E087E08F002800F03B
:1044C0008180681C0DD11EE00220B5E0A16B31F89F
:1044D000022BC260A163E08F0138E087E08F0028E3
:1044E00070D0206881688907F0D4FEF793FBA0EBB9
:1044F0000900A842F2D303209EE000BFFEF78AFB2A
:10450000E08F00285ED0206881688907F6D5A16B0E
:1045100031F8022BC260A163E08F0138E087E08FA1
:104520000028F0D14EE000BFA26AB2F5005FA7D12B
:10453000026822F400520260026842F400520260F3
:10454000026852069FD5A2E789B1E18F02294FF692
:10455000FE7103D337F8022BC26004E03A780131D0
:104560000273A06B471CA763E08F0844E087E08FCD
:1045700040B3681C6DD04FF6FE70471C08E000BFCA
:10458000FEF748FBA0EB0900A842B4D2E08FC8B107
:10459000216888688007F3D5E28FA06B022A05D3D3
:1045A00030F8022BCA604FF6FE7104E00078087301
:1045B000A06B39460130A063E08F0844E087E08FAC
:1045C0000028E5D1A06AB0F5005F04D12068016839
:1045D00041F48051016020464FF4C05100222B4627
:1045E000CDF8009006F05AFD90B9204680210022B7
:1045F0002B46CDF8009006F01DFE48B920464FF43A
:10460000C06100222B46CDF8009006F047FD28B18E
:10461000206E40F02000206620202066A06838B977
:10462000002002902068C168029180680290029880
:10463000206E002818BF0120002184F85D8084F8D6
:104640005C1003B0BDE8F083FEF7E4FAE08F0028C9
:10465000B8D0206881688907F6D5E28FA16B012A5E
:1046600008D931F8022BC260A163E08F0238E087DD
:10467000ECE700BF09780173A06B0130A063E08F05
:104680000138E087E2E700002DE9F04784B00446F6
:10469000002003908DF80B0094F85C00012803D1F2
:1046A000022004B0BDE8F08701201E4615460F46E3
:1046B00084F85C00FEF7AEFA94F85D20D4E900318E
:1046C000012AD3F800E0D3F804C0814640F0A2806C
:1046D000002F4FF0010018BF002D00F09F81002E29
:1046E00000F09C8194F85D0004281CBF052084F82C
:1046F0005D00002020662564A4F84660A4F84460AC
:10470000A763E687A26AA687B2F5005FE06420652A
:1047100007D1186820F400501860186840F4005061
:104720001860E0685A68B0F5E06F22F480521546D0
:1047300098BF05F58055012E88BF15465D601A6843
:10474000520603D41A6842F040021A60721EB1FA8F
:1047500081F1B2FA82F2DDF8308049095209B0F5F0
:10476000E06F42EA010065D930B137F8020BD8603A
:10477000A763E08F0138E0870CF0080101270EF0F5
:10478000040087EAD10141EA900508F1010600BF63
:10479000E08F20B9B4F84600002800F0D7802068E8
:1047A000816889071BD5E18FC9B1012F17D1A16B92
:1047B00031F8022BC260A163E18F0139E187E18FFB
:1047C00061B9A16AB1F5005F08D11DB9016841F472
:1047D00000710160016841F4805101600027816827
:1047E000C9070DD0B4F8461051B1C068216C01273B
:1047F00021F8020B2164B4F846000138A4F8460001
:10480000FEF708FA002EC3D0A0EB09004045BFD345
:1048100099E000BFB1F5827F0AD1042A4FF002006F
:1048200040F0FC80A268002A3FF452AFF6E000BFDF
:104830000220F3E04FF6FE7A90B1E08F022805D314
:1048400037F8020BD8604FF6FE7005E03878187321
:10485000A06B471C0AF10100A763E18F0844E087C1
:104860000CF0080101250EF0040085EAD10141EAAF
:10487000900608F1010700BFE08F18B9B4F84600B0
:10488000002863D02068816889072AD5E18F41B369
:10489000012D26D1E28FA16B022A05D331F8022B1C
:1048A000C2604FF6FE7005E009780173A06B411CF1
:1048B0000AF10100E28F1044E087A163E08F08B1A4
:1048C00020680DE0A16A2068B1F5005F08D11EB92B
:1048D000016841F400710160016841F48051016098
:1048E00000258168C90725D0B4F8461011B3B4F883
:1048F0004610022912D3C168226C22F8021B2264DE
:10490000B4F846100239A4F84610B4F8461001294C
:104910000FD8416841F4805141600AE0007B216C6E
:104920000870206C01302064B4F846000138A4F807
:1049300046000125FEF76EF9002F9DD0A0EB09007F
:104940004045FFF499AF032068E000BFA06AB0F5CE
:10495000005F2ED12046012101224346CDF8009070
:1049600006F068FC20B1206E40F00201032054E004
:10497000E0682568B0F5706F04D1E868039003988B
:1049800017E000BF287B8DF80B009DF80B00206B13
:1049900002280ED12046012101224346CDF8009085
:1049A00006F048FC0028DED1287B8DF80B009DF82E
:1049B0000B0020688168C90602D4002508E000BF0A
:1049C000216E012541F0020121664FF6EF718160F1
:1049D00020464FF4C05100224346CDF8009006F027
:1049E0005DFBA0B92046802100224346CDF800900F
:1049F00006F020FC58B920464FF4C061002243461F
:104A0000CDF8009006F04AFB0146284631B1206EF1
:104A1000202140F02000206601202166012184F839
:104A20005D10002184F85C1004B0BDE8F087000040
:104A300090F85C30012B04BF02207047012380F8FE
:104A40005C3090F85D30012B0AD100294FF0010352
:104A500018BF002A0AD1002180F85C101846704760
:104A60000223002180F85C101846704770B50323BC
:104A700080F85D300023036681638287C287036408
:104A8000C0E91333A0F84430A0F8463083680268C8
:104A9000B3F5004F07D1136823F040031360136888
:104AA00043F480431360836AB3F5005F07D1136852
:104AB00023F400531360136843F400531360D0F8D9
:104AC00054C04AF6ED7E4AF6F5744AF6CD75C0F646
:104AD000000EC0F60004C0F600050026CCE90B4E1F
:104AE000CCE90D56C3685668B3F5E06F26F48046EE
:104AF000566017D8DCF81830B3F5806F12D1C68F26
:104B00005368F60706D123F480435360C38F5B08D4
:104B100007E000BF43F480435360C38F012606EBD8
:104B20005303C387C38F04460C326046FDF766FE0D
:104B300040B1216E204641F010010123216684F826
:104B40005D3011E0216820460A68520603D40A68E5
:104B500042F040020A604A68002342F020024A60A4
:104B60004A6842F002024A60BDE87040002180F8C5
:104B70005C10184670470000704700007047000046
:104B800051B1012918BF70474FF4807040F2BC0149
:104B9000C2F2000189680847802040F2BC01C2F2DD
:104BA000000189680847000040F2BC00C2F2000022
:104BB00081684020084700002DE9F04182B08779E4
:104BC000012F02D14779012F04D1022002B0BDE8A4
:104BD000F08100BF067940F2904C40F20C0EC5F611
:104BE000000C0127012EC2F2000E477127D1DEF81A
:104BF000004004EB4404C4F34F340094DCF800405C
:104C000024F40044CCF80040009C013C0094009C3B
:104C10007CB1009C013C0094009C54B1009C013C80
:104C20000094009C2CB1009C013C0094009C002C42
:104C3000EAD1DCF8004044F40044CCF80040DEF84F
:104C40000040642504EB4404C4F34B446C430194DA
:104C50005CF87C4C019D5DB1019DA408013D01956E
:104C60005CF87C5C04EA5504E407F1D102E000BF83
:104C700002248460DCF80040642624F40044CCF86C
:104C80000040DEF800500824C5EBC505C5F34C45CF
:104C9000C5F6010475430195019DFDB1019D013DDE
:104CA00001952568AD071BD4019DBDB1019D013D56
:104CB00001952568AD0713D4019D7DB1019D013D8E
:104CC00001952568AD070BD4019D3DB1019D013DC6
:104CD00001952568AD07DFD502E000BF012585609D
:104CE0002171DEF800106425C1EBC101C1F34C4114
:104CF00069430191019DFDB1019D013D019525682B
:104D0000ED071BD1019DBDB1019D013D01952568B8
:104D1000ED0713D1019D7DB1019D013D01952568F0
:104D2000ED070BD1019D3DB1019D013D0195256828
:104D3000ED07DFD002E000BF0125856065680191C5
:104D40000199F9B1019901390191216889071BD4B1
:104D50000199B9B10199013901912168890713D4E9
:104D6000019979B1019901390191216889070BD421
:104D7000019939B101990139019121688907DFD57C
:104D800002E000BF0121816000212171DEF80010E6
:104D90006425C1EBC101C1F34C4169430191019903
:104DA000F1B10199013901912168C9071AD101991D
:104DB000B1B10199013901912168C90712D1019955
:104DC00071B10199013901912168C9070AD101998D
:104DD00031B10199013901912168C907DFD001E0A2
:104DE000012181606168002B66D0002164250126C5
:104DF0004FF0FF0807E000BF866067680131994205
:104E000002F8017B58D2DEF80070C7EBC707C7F382
:104E10004C476F430197019FF7B1019F013F0197F5
:104E20002768BF0719D4019FB7B1019F013F0197C0
:104E30002768BF0711D4019F77B1019F013F0197F8
:104E40002768BF0709D4019F37B1019F013F019730
:104E50002768BF07DFD500E0866084F80480DEF8AD
:104E60000070C7EBC707C7F34C476F430197019F1B
:104E7000002FC1D0019F013F01972768FF07BCD1D8
:104E8000019F002FB8D0019F013F01972768FF07BE
:104E9000B3D1019F002FAFD0019F013F0197276839
:104EA000FF07AAD1019F002FA6D0019F013F0197C4
:104EB0002768FF07DBD0A0E7DCF80010642241F48C
:104EC0000041CCF80010DEF8001001EB4101C1F305
:104ED0004B415143019100BF5CF87C1C019A5AB1CF
:104EE000019A8908013A01925CF87C2C01EA52018E
:104EF000C907F1D102E000BF02218160816801226F
:104F0000002918BF0121827100224271084602B0B7
:104F1000BDE8F0812DE9F04382B08779012F02D1FD
:104F20004779012F04D1022002B0BDE8F08300BF11
:104F3000067940F2904C40F20C0EC5F6000C0127A9
:104F4000012EC2F2000E477127D1DEF8004004EBBB
:104F50004404C4F34F340094DCF8004024F40044CB
:104F6000CCF80040009C013C0094009C7CB1009C6B
:104F7000013C0094009C54B1009C013C0094009CB6
:104F80002CB1009C013C0094009C002CEAD1DCF880
:104F9000004044F40044CCF80040DEF800406425B2
:104FA00004EB4404C4F34B446C4301945CF87C4C24
:104FB000019D5DB1019DA408013D01955CF87C5CFB
:104FC00004EA5504E407F1D102E000BF0224846042
:104FD00001F0EF04843CB4FA84F464090471DCF851
:104FE0000040642624F40044CCF80040DEF8005071
:104FF0000824C5EBC505C5F34C45C5F6010475434A
:105000000195019DF5B1019D013D01952568AD0713
:105010001AD4019DB5B1019D013D01952568AD07EB
:1050200012D4019D75B1019D013D01952568AD0723
:105030000AD4019D35B1019D013D01952568AD075B
:10504000DFD501E0012585602171DEF8005064277D
:10505000C5EBC506C6F34C467E430196019EFEB1E4
:10506000019E013E01962668F6071BD1019EBEB146
:10507000019E013E01962668F60713D1019E7EB17E
:10508000019E013E01962668F6070BD1019E3EB1B6
:10509000019E013E01962668F607DFD002E000BFC0
:1050A000012686606668002B68D000264FF06409F0
:1050B0004FF0010806E000BFC0F8088001366768BD
:1050C0009E425BD0C5EBC505975DC5F34C4505FB1E
:1050D00009F50195019DFDB1019D013D01952568F1
:1050E000AD071BD4019DBDB1019D013D0195256812
:1050F000AD0713D4019D7DB1019D013D019525684A
:10510000AD070BD4019D3DB1019D013D0195256881
:10511000AD07DFD502E000BFC0F808802771DEF8D8
:105120000050C5EBC507C7F34C4707FB09F70197CC
:10513000019F002FC0D0019F013F01972768FF0703
:10514000BCD1019F002FB7D0019F013F0197276875
:10515000FF07B3D1019F002FAED0019F013F019700
:105160002768FF07AAD1019F002FA5D0019F013F0B
:1051700001972768FF07DBD0A0E700BFDCF800201D
:10518000842942F40042CCF800201BD0DEF8001045
:10519000642201EB4101C1F34B415143019100BF36
:1051A0005CF87C1C019A5AB1019A8908013A019273
:1051B0005CF87C2C01EA5201C907F1D102E000BF82
:1051C0000221816081680122002918BF01218271BA
:1051D00000224271084602B0BDE8F08340F2BC00F4
:1051E000C2F20000816820200847000040F2BC00A5
:1051F000C2F2000081681020084700002DE9F0414C
:1052000082B0044600200DF10605ADF806002046E8
:1052100012212A460223FFF7CFFC9DF907709DF863
:105220000680204602212A460223FEB2FFF772FEC4
:10523000F80721D1B00724D4700727D430072AD427
:10524000F0062DD4B00630D4700633D4B7F1FF3F4A
:1052500036DD5FEA887002D5204600F057FD5FEA30
:1052600048605CBF02B0BDE8F081204602B0BDE8F6
:10527000F04100F0C1B800BF204600F057FDB00774
:10528000DAD5204600F03AFD7007D7D5204600F069
:10529000D5F83007D4D5204600F040FDF006D1D532
:1052A0002046FFF7A3FFB006CED52046FFF796FFB6
:1052B0007006CBD52046FFF777FCB7F1FF3FC8DC7F
:1052C00008F001012046FFF75BFC5FEA8870C3D459
:1052D000C5E70000002804BF0120704770B582B008
:1052E000867994250446032EC5F6000501D0002ECC
:1052F0004ED100206071204600F086F840F6900004
:10530000C5F600000168002E41F4805101603FD1D4
:105310000220A0712868642120F40040286040F237
:105320000C00C2F200000068C0EBC000C0F34C40AB
:10533000484301900198002848D001980138019015
:105340002868400418D5019800283FD001980138FA
:105350000190286840040FD50198B8B3019801382E
:1053600001902868400407D5019878B30198013866
:10537000019028684004DDD4D5F8FC0340F40040D7
:10538000C5F8FC03D5F8740340F40060C5F8740355
:105390004FF400600021C5F88403C5F601012068C0
:1053A0000A6840F4417022F040020A6008604FF43D
:1053B000B8504860086840F0400008600120207143
:1053C0000020A0600121A17102B070BD0120A06089
:1053D000D5F8FC1341F40041C5F8FC13D5F874135B
:1053E00041F40061C5F874134FF40061C5F88413EB
:1053F0000121A17102B070BD40F2BC00C2F20000F8
:1054000081684FF48040084780B582B06420C5F6BB
:1054100000000168002241F00101016000680521DF
:1054200000F00100019001983220FDF7A3FC32202A
:1054300002B0BDE88040FDF78BBC000040F2BC002C
:10544000C2F2000081680420084700002DE9F04105
:1054500082B08779012F02D14779012F04D1022030
:1054600002B0BDE8F08100BF067940F2904C40F2F6
:105470000C0EC5F6000C0127012EC2F2000E47717A
:1054800027D1DEF8004004EB4404C4F34F34009409
:10549000DCF8004024F40044CCF80040009C013CBF
:1054A0000094009C7CB1009C013C0094009C54B191
:1054B000009C013C0094009C2CB1009C013C009499
:1054C000009C002CEAD1DCF8004044F40044CCF805
:1054D0000040DEF80040642504EB4404C4F34B4470
:1054E0006C4301945CF87C4C019D5DB1019DA40866
:1054F000013D01955CF87C5C04EA5504E407F1D1B8
:1055000002E000BF02248460DCF80040642624F43A
:105510000044CCF80040DEF800500824C5EBC50577
:10552000C5F34C45C5F6010475430195019DFDB1D8
:10553000019D013D01952568AD071BD4019DBDB1BD
:10554000019D013D01952568AD0713D4019D7DB1F5
:10555000019D013D01952568AD070BD4019D3DB12D
:10556000019D013D01952568AD07DFD502E000BF33
:10557000012585601E252571DEF800506426C5EBE7
:10558000C505C5F34C4575430195019EF6B1019ED5
:10559000013E01962668F6071AD1019EB6B1019E1A
:1055A000013E01962668F60712D1019E76B1019E52
:1055B000013E01962668F6070AD1019E36B1019E8A
:1055C000013E01962668F607DFD001E001268660DD
:1055D00066680195019DFDB1019D013D019525681C
:1055E000AD071BD4019DBDB1019D013D019525680D
:1055F000AD0713D4019D7DB1019D013D0195256845
:10560000AD070BD4019D3DB1019D013D019525687C
:10561000AD07DFD502E000BF012585602171DEF80E
:1056200000106425C1EBC101C1F34C4169430191F4
:10563000019DFDB1019D013D01952568ED071BD13F
:10564000019DBDB1019D013D01952568ED0713D177
:10565000019D7DB1019D013D01952568ED070BD1AF
:10566000019D3DB1019D013D01952568ED07DFD00C
:1056700002E000BF01258560656801910199F9B1DB
:10568000019901390191216889071BD40199B9B1A8
:105690000199013901912168890713D4019979B1E0
:1056A000019901390191216889070BD4019939B118
:1056B00001990139019121688907DFD502E000BF16
:1056C0000121816000212171DEF800106425C1EB09
:1056D000C101C1F34C41694301910199F1B10199B3
:1056E000013901912168C9071AD10199B1B1019914
:1056F000013901912168C90712D1019971B101994C
:10570000013901912168C9070AD1019931B1019983
:10571000013901912168C907DFD001E001218160D1
:105720006168002B66D00021642501264FF0FF0838
:1057300007E000BF866067680131994202F8017B8B
:1057400058D2DEF80070C7EBC707C7F34C476F436A
:105750000197019FF7B1019F013F01972768BF079C
:1057600019D4019FB7B1019F013F01972768BF0777
:1057700011D4019F77B1019F013F01972768BF07AF
:1057800009D4019F37B1019F013F01972768BF07E7
:10579000DFD500E0866084F80480DEF80070C7EB97
:1057A000C707C7F34C476F430197019F002FC1D034
:1057B000019F013F01972768FF07BCD1019F002F80
:1057C000B8D0019F013F01972768FF07B3D1019F20
:1057D000002FAFD0019F013F01972768FF07AAD193
:1057E000019F002FA6D0019F013F01972768FF0767
:1057F000DBD0A0E7DCF80010642241F40041CCF8D3
:105800000010DEF8001001EB4101C1F34B415143A0
:10581000019100BF5CF87C1C019A5AB1019A890879
:10582000013A01925CF87C2C01EA5201C907F1D1DE
:1058300002E000BF0221816081680122002918BFB7
:105840000121827100224271084602B0BDE8F08158
:105850002DE9F04182B08779012F02D14779012FDC
:1058600004D1022002B0BDE8F08100BF067940F209
:10587000904C40F20C0EC5F6000C0127012EC2F22E
:10588000000E477127D1DEF8004004EB4404C4F356
:105890004F340094DCF8004024F40044CCF800407D
:1058A000009C013C0094009C7CB1009C013C009455
:1058B000009C54B1009C013C0094009C2CB1009CC5
:1058C000013C0094009C002CEAD1DCF8004044F438
:1058D0000044CCF80040DEF80040642504EB4404AA
:1058E000C4F34B446C4301945CF87C4C019D5DB166
:1058F000019DA408013D01955CF87C5C04EA550417
:10590000E407F1D102E000BF02248460DCF800402B
:10591000642624F40044CCF80040DEF8005008244B
:10592000C5EBC505C5F34C45C5F6010475430195A6
:10593000019DFDB1019D013D01952568AD071BD479
:10594000019DBDB1019D013D01952568AD0713D4B1
:10595000019D7DB1019D013D01952568AD070BD4E9
:10596000019D3DB1019D013D01952568AD07DFD544
:1059700002E000BF012585601D252571DEF800507D
:105980006426C5EBC505C5F34C4575430195019EDD
:10599000F6B1019E013E01962668F6071AD1019ED6
:1059A000B6B1019E013E01962668F60712D1019E0E
:1059B00076B1019E013E01962668F6070AD1019E46
:1059C00036B1019E013E01962668F607DFD001E060
:1059D0000126866066680E0A0195019DF5B1019D5C
:1059E000013D01952568AD071AD4019DB5B1019D12
:1059F000013D01952568AD0712D4019D75B1019D4A
:105A0000013D01952568AD070AD4019D35B1019D81
:105A1000013D01952568AD07DFD501E001258560D1
:105A20002671DEF800506426C5EBC505C5F34C456C
:105A300075430195019EFEB1019E013E01962668C7
:105A4000F6071BD1019EBEB1019E013E019626685C
:105A5000F60713D1019E7EB1019E013E0196266894
:105A6000F6070BD1019E3EB1019E013E01962668CC
:105A7000F607DFD002E000BF012686606668019568
:105A8000019DFDB1019D013D01952568AD071BD428
:105A9000019DBDB1019D013D01952568AD0713D460
:105AA000019D7DB1019D013D01952568AD070BD498
:105AB000019D3DB1019D013D01952568AD07DFD5F3
:105AC00002E000BF012585602171DEF80010642529
:105AD000C1EBC101C1F34C4169430191019DFDB18D
