:020000040800F2
:10000000D8120020AD020008653E0008B53B00088C
:10001000613E0008AD1600087D7000080000000079
:100020000000000000000000000000006D680008F3
:10003000E116000800000000CD56000871680008B5
:10004000C7020008C7020008C7020008C70200086C
:10005000C7020008C7020008C7020008C70200085C
:10006000C7020008C7020008C7020008B11600084E
:10007000BD160008C9160008D5160008C7020008FA
:10008000C7020008C7020008C7020008C70200082C
:10009000C7020008C7020008C7020008C70200081C
:1000A000C7020008C7020008C7020008C70200080C
:1000B000C7020008C7020008C7020008C7020008FC
:1000C000C7020008C7020008C9640008C702000888
:1000D0006570000871700008C7020008C7020008B8
:1000E000C7020008C7020008C7020008C7020008CC
:1000F000C7020008C7020008C7020008C7020008BC
:10010000C7020008C7020008C7020008C7020008AB
:10011000C7020008C7020008C7020008C70200089B
:10012000C7020008C7020008C7020008C70200088B
:10013000C7020008C702000800F002F800F0A6F8A5
:1001400014A696E8000CB244B344DA4501D100F09D
:100150009DF8BAE80F000FA696E83000A5EB04055D
:1001600004EB0607AAEB0704A7F101074FEA1515F0
:100170004FEA3414A4F10104AC4201D300F086F834
:1001800013F0010F18BFFB1A43F0010300F001F850
:10019000DBE718477498000094980000103A24BFD9
:1001A00078C878C1FAD8520724BF30C830C144BFDC
:1001B00004680C60704700007047000000230024B2
:1001C00000250026103A28BF78C1FBD8520728BF67
:1001D00030C148BF0B6070476E2900F02F83702933
:1001E00000F08984662907F0F985652907F0F6850E
:1001F000672907F0F385612907F0F28503681B0A78
:1002000028BF41F08001692900F0DC82642900F0F8
:10021000D982752900F0D6826F2900F017847829D9
:1002200000F05584E92900F0B183E42900F0AE83A1
:10023000F52900F0AB83EF2900F01484F82900F0D1
:1002400054840368DB0928BF41F08001632900F072
:100250003383732900F03883E32901F0BD80F3294B
:1002600001F0C280002070471FB501F013F90400AF
:100270000020002107F09CFD401C60600020002150
:1002800007F080FDE0601FBD10B510BD01F0D4F88F
:100290001146FFF7E9FF07F055F801F0B1F903B493
:1002A000FFF7F2FF03BC01F0F9F9000009488047AD
:1002B00009480047FEE7FEE7FEE7FEE7FEE7FEE748
:1002C000FEE7FEE7FEE7FEE704480549054A064B60
:1002D000704700007568000839010008D80C00203C
:1002E000D8120020D80E0020D80E002053EA020CAD
:1002F00000F069802DE9F04B4FF00006002B1FBF86
:10030000B3FA83F503FA05F424FA05F65E4012BF4A
:100310001643B2FA82F502FA05F4C5F120051EBFB4
:1003200022FA05FC44EA0C04203556EA044C4FEA54
:10033000144418BF641C4FF000084FF000099042AD
:1003400071EB030C39D3002919BFB1FA81F701FA17
:1003500007F6B0FA80F700FA07F6C7F120071EBFCC
:1003600020FA07FC46EA0C062037B6FBF4FCA7EBA4
:100370000507103F07F01F0BCBF120062CFA06F6FD
:100380000CFA0BFB44BFB3460026202FA4BF5E46E9
:100390004FF0000B5BEA060C08BF4FF0010B19EBA6
:1003A0000B0948EB0608ABFB027C06FB02CC0BFBFF
:1003B00003CCC01B71EB0C01C1E70B460246414662
:1003C0004846BDE8F08B13B5084318BF4FF0FF3027
:1003D0000146AFF30080BDE81C4070477CB51D4668
:1003E00016460C00009007D04142A14202D320449F
:1003F000401E01E04FF0FF30064B7B442A46694621
:100400000190304600F033FA002C02D0009A00210F
:1004100011707CBD970400000FB41CB50C0007AA36
:10042000009007D04142A14202D32044401E01E087
:100430004FF0FF30074B7B4469460190069800F06F
:1004400016FA0021002C01D0009A11701CBC5DF836
:1004500014FB00005B04000070B50C460546012A41
:1004600005D02878800600D5EA69002302E0012340
:1004700005E05B1C934202D2E05C0028F9D1A86938
:10048000E618C01AA861286A18442862284600F0B5
:100490005FF904E0D5E9012114F8010B9047B4425B
:1004A000F8D3284600F06AF970BD00002DE9F05F2E
:1004B000894604464FF0000ADFF874B1FB44C0F8E7
:1004C00020A02046E1688847002874D0252806D05F
:1004D000D4E901219047206A401C2062F1E7002600
:1004E0005F462046E16888472028054607DB312D16
:1004F00005D2781910F8200C08B10643F1E7B007CF
:1005000001D526F00406C4F81CA00027C4F818A0E2
:100510002A2D09D0284607F02DFC38B304EB8708B4
:10052000303DC8F8185019E059F8041B204604EB78
:1005300087029161E1688847012F054618D1E0697B
:10054000002820DA26F020061DE0D8F8180000EB7D
:10055000800005EB40003038C8F818002046E168FC
:100560008847054607F006FC0028EED1012F0AD087
:100570002E2D08D12046E16888477F1C0546022FB2
:1005800046F02006C4DBA069002803DA404246F0AA
:100590000106A061F00701D026F010066C2D0BD0EB
:1005A000682D09D04C2D39D06A2D35D0742D35D019
:1005B0007A2D33D016E038E0E1682F462046884790
:1005C000B842054609D16C2F26D04FF48060E1680F
:1005D000064320468847054604E06C2F1AD04FF4A6
:1005E000807006430DB3A5F14100192802D82035CB
:1005F00046F400664A462946204626604E46FFF7E6
:10060000EBFD80B101280BD0F61D26F0070000F1AC
:10061000080956E74020E4E78020D8E70020D6E725
:1006200006F104094DE7284652E7206ABDE8F09F2D
:100630002479000010B5431C02E010F8011B71B1D1
:100640008107FAD14FF0013202C88C1A8C4314EAA8
:10065000C211F9D0C01A0A0603D0C01E10BDC01ABC
:1006600010BD0A0401D0801E10BD0902FCD0401E3E
:1006700010BD032A40F2308010F0030C00F015800A
:1006800011F8013BBCF1020F624498BF11F801CB95
:1006900000F8013B38BF11F8013BA2F1040298BFFA
:1006A00000F801CB38BF00F8013B11F0030300F064
:1006B0002D82083AC0F0088051F8043B083A51F8FE
:1006C00004CBA0E80810F5E7121D5CBF51F8043B0D
:1006D00040F8043BAFF30080D20724BF11F8013B80
:1006E00011F801CB48BF11F8012B24BF00F8013BE2
:1006F00000F801CB48BF00F8012B70474FF0000213
:1007000000B5134694469646203922BFA0E80C5007
:10071000A0E80C50B1F12001BFF4F7AF090728BFE2
:10072000A0E80C5048BF0CC05DF804EB890028BF5E
:1007300040F8042B08BF704748BF20F8022B11F087
:10074000804F18BF00F8012B704770477047704703
:1007500070B5044685690068C10601D5302600E001
:100760002026C00707D070BDD4E90121304690474C
:10077000206A401C20626D1EF6D570BD70B504461F
:1007800085690078C00707D170BDD4E90121202018
:100790009047206A401C20626D1EF6D570BD096826
:1007A0004A0501D540B27047C905FCD500B2704773
:1007B00009684A0501D5C0B27047C905FCD580B2A9
:1007C000704700002DE9F0410646002410687529A5
:1007D000314616A510D0FFF7E2FF002802DA4042AA
:1007E00013A507E031688A0701D512A502E0490781
:1007F00004D511A5012401E0FFF7DAFF00210A2248
:1008000006F1240709E0B0FBF2FCB0FBF2F302FBB7
:100810001C00303078541846491C0028F3D1234678
:100820002A463046BDE8F04100F0E7B9000000007C
:100830002D0000002B00000020000000116802685D
:10084000006A530501D508700AE0D30501D5088078
:1008500006E0130603D5C217C1E9000200E00860F4
:100860000120704701694A1C02610878704700B591
:100870008FB0CDE901310021059105497944CDE9D9
:10088000031011466846FFF711FE0FB000BD0000CF
:10089000E5FFFFFFD1E900239A4202D2531C0B600F
:1008A0001070704710B5436913B1AFF3008001E0D9
:1008B000FFF7D2FD012010BD127800F124010A706B
:1008C00000224A700122EDE711684FF0FF32E9E79C
:1008D0002DE9FF5F15468A460446DFF8AC80F844F0
:1008E0000027D8E900103E46CDE9001010E03AF8A4
:1008F00016106A4602A800F07BFD411C07D0217843
:10090000890603D5E269391891420DD80744761C4F
:100910002078800602D5E069B84205DDAE42E6DB0C
:100920003AF816000028E2D1A069C01BA061204659
:10093000FFF70EFFD8E90010CDE90010002017E006
:100940003AF818106A4602A800F052FDB0F1FF3FD5
:1009500081460BD000250DF1080B05E0D4E90121FB
:100960001BF8050090476D1C4D45F7D308F10100B9
:10097000B0428046E4DB206A384420622046FFF71C
:10098000FDFEBDE8FF9F0000167500002DE9F04157
:100990008046D21D22F007020025D2E90002F52987
:1009A00015A614D0011E72F1000106DA0023D0EB67
:1009B000030063EB020211A608E0D8F800108B07D1
:1009C00001D50FA602E0490701D50EA60125114663
:1009D000002408F1240704E000F0CAF830323A5548
:1009E000641C50EA0102F7D12B46324621464046AC
:1009F000BDE8F04100F001B9000000002D0000004A
:100A00002B0000002000000030B4002100F124047D
:100A100008E002F00705D208303542EA4372DB08ED
:100A20006554491C52EA0305F3D10468002310A25F
:100A3000250708D504F020040C4304D0C469012321
:100A40000CA2641EC46130BC00F0D7B810B50446D7
:100A500021461068FFF7ACFE02462046BDE8104074
:100A60000023D1E7D21D22F00701D1E90023CBE713
:100A70000000000030000000F0B40D4601880905B8
:100A800002D5214C7C4402E01F4C7C440E340021F2
:100A900000F1240608E002F00F071209E75D42EAC0
:100AA00003721B097754491C52EA0307F3D10278F9
:100AB0000023120704D5702D06D009B1022311348A
:100AC0002246F0BC00F099B801231034F8E770B565
:100AD00004460D4621461068FFF76AFE0246294685
:100AE0002046BDE870400023C6E7D21D22F0070370
:100AF000D3E90023C0E70368126843F020030360D2
:100B00000823C3610023B7E77873000010B5203ACB
:100B1000C0F00B80B1E81850A0E81850B1E81850A8
:100B2000A0E81850203ABFF4F5AF5FEA027C24BF7A
:100B3000B1E81850A0E8185044BF18C918C0BDE863
:100B400010405FEA827C24BF51F8043B40F8043B2C
:100B500008BF7047D20728BF31F8023B48BF11F8E1
:100B6000012B28BF20F8023B48BF00F8012B70473B
:100B700030B5B0F10A0271F100034FEA900E4EEA6F
:100B8000817EB0EB0E0061EB91014FEA101E4EEA40
:100B9000017E10EB0E0041EB11114FEA102E4EEAD0
:100BA000016E10EB0E0041EB11214FEA104E4EEAA0
:100BB000014E10EB0E0041EB1141401841F10001D4
:100BC0004FEAD00040EA41704FEAD1014FEA810478
:100BD00044EA907410EB800544EB01046D1944EB7A
:100BE0000404521BA3414FF0000348BF0A3200D552
:100BF00030BD401C41F1000130BD2DE9F0470D46EC
:100C000099469246044600F124080168880604D5F6
:100C1000E06921F01001216000E00120A84201DD1F
:100C2000471B00E00027A1697A1902EB0900081AA6
:100C3000A0612078C00602D42046FFF789FD002677
:100C400008E0D4E901211AF806009047206A401C08
:100C5000761C20624E45F4DB2078C0060AD520467B
:100C6000FFF776FD06E0D4E9012130209047206AA5
:100C7000401C2062381EA7F10107F4DC07E0D4E92C
:100C8000012118F805009047206A401C2062281EA8
:100C9000A5F10105F3DC2046FFF770FD2078000682
:100CA00002D50220BDE8F0870120FBE72DE9FF4FC8
:100CB0000C461E464FF0FF378BB0D2E90001DDF83D
:100CC00060800A908A46C1F30A5505B93D46002165
:100CD00008464FF00000BAF1000F00F4400005DABA
:100CE00000EB80004FF4400101EA50004FEA9059B8
:100CF000B9F1010F00DDB9460A9850EA4A000ED05A
:100D000044F61050A5F2FF3545432F14B8F1000FFB
:100D10001ED07542291E1EDDC9F100021CE0B8F18B
:100D2000010F4FF0000001D0302103E0F24305E055
:100D30002154401CB042FBDB3046002200212154EC
:100D40000B99C1F80880C1E900200FB0BDE8F08F11
:100D5000BD1B6D1CDEE74A4600DA694206A800F0BA
:100D6000DDFB06AB93E8070003AB83E807005046C2
:100D70000A9906F023FC8DE80700A0F500501F3803
:100D800000900398002D0ADD42F21F014A460844F4
:100D9000002303A90390684606F08CFE09E0A0F545
:100DA00000504A461F38002303A90390684606F006
:100DB00096FE8DE807000004000C03D04FF0FF30D2
:100DC000410800E01046B8F1000F03D00022009265
:100DD00015461EE0751E05D4FFF7CAFE3032625577
:100DE0006D1EF9D5B3460122084302D000227F1CB4
:100DF00004E02078302801D100227F1E002A0997C4
:100E000084D01DE0112D07DAFFF7B2FE30326255B3
:100E10006D1C50EA0102F5D1084302D00098C8B118
:100E20000EE00021681E05E0235C625C63542254DE
:100E3000401E491C8142F7DBAB46A81B401E0990AF
:100E4000002004F80B000B98099AC0F80880C0E94C
:100E5000002B7AE711264FF0000857E72DE9F04FF5
:100E600088460446D21D22F0070191B0D1E9000165
:100E7000CDE90A0106F06AFF02460B98C00F01D0C7
:100E80002D2007E02068810701D52B2002E02021DA
:100E900001EAC000032A099001D0072A05DB0346B6
:100EA0004146204600F0FAFA0BE12078800601D591
:100EB000E06900E00620B8F1650F814606D0B8F180
:100EC000660F18D0B8F1670F70D131E00020B9F18A
:100ED000110F009001DB112301E009F101030AAABF
:100EE00001A90CA8FFF7E2FEDDE90C70002609F16C
:100EF0000105834647E001204B4600904FF0004734
:100F00000AAA01A90CA8FFF7D1FEDDE90DB00C99E2
:100F10005D46002610B909F101000D18B9EB050076
:100F200003D4C0F1FF3609F10105A5EB09002BE060
:100F3000B9F1010F01DA4FF001090020B9F1110FE9
:100F40000090484601DD112300E003460AAA01A9EA
:100F50000CA8FFF7ABFEDDE90C704D46002683467A
:100F6000207800070AD4AB4500DA5D4601A8012DC0
:100F700004DD411911F8011C302907D04F4502DA70
:100F800017F1040F04DA012082460FE06D1EEEE730
:100F9000002F02DCED1B3E4403E0781CA84200DD7C
:100FA0007D1CB81B00F1010A4FF0004720780007B4
:100FB00003D4AA4501DB4FF0FF3A0021B7F1004FFF
:100FC0000DF143088DF8431024D002202B23002F6D
:100FD00001DA7F422D230A21021EA0F1010000DC6C
:100FE0005FB197FBF1FC97FBF1F201FB1C7C17460C
:100FF0000CF1300C08F801CDEEE7A8F10100037008
:101000002188090501D5452100E06521A0F10108ED
:1010100000F8011C09980FA9A1EB0807FF1D00B1FA
:101020000120411901EBEA70A1693844081A401EF9
:10103000A0612078C00602D42046FFF789FB0998FA
:1010400028B1D4E901219047206A401C2062207811
:10105000C00622D52046FFF77BFB1EE0002E04DBF6
:10106000B34502DD01A8805D00E03020D4E9012114
:101070009047206A401C2062761CAAF101005FEABA
:10108000000A0AD100F006FAC0680168405CD4E9A1
:1010900001219047206A401C2062281EA5F101050D
:1010A000DCDC07E0D4E9012118F8010B9047206A45
:1010B000401C2062381EA7F10107F3DC2046FFF731
:1010C0005DFB032011B041E62DE9F04F04460D46CB
:1010D000D21D22F0070089B0D0E900974846394672
:1010E00006F034FE0246F80F01D02D2307E02068F9
:1010F000810701D52B2302E0202101EAC0038DF8EE
:1011000020300BB1012000E00020032A824601D0EC
:10111000072A04DB2946204600F0C0F93FE1207889
:10112000800601D40D2500E0E569C7F30A560D2DB0
:1011300049DA00214FEA175B08464FF00000002F04
:1011400000F4400007DA00EB80004FF4400100EBB0
:10115000D07001EA60008115012901DD4FF0FF31F7
:1011600000224FEA850CBCF1180F06D31346ACF1F0
:1011700018004FF08052C24003E04FF4801323FA6E
:101180000CF30CF10C0CBCF1200F04D3ACF1200CCF
:1011900009FA0CF001E007FA0CF000294FF00048C2
:1011A00001DD18B90FE00ED140450CD319EB02094F
:1011B0005F4121B9404502D19F4329EA0209BBEBB7
:1011C000175F00D0761C2088000502D57B48784444
:1011D00002E07A487844193808AA302302F80A3025
:1011E000037C0AF10101002E0AF1020A53546A46F7
:1011F00002DC4FF0300101E04FF031014FF0010807
:101200008DF8001002D0A6F2FF3603E059EA47013C
:1012100000D06B4E002D02DC2178090704D54FF079
:1012200002082E218DF80110C44600210BE0C7F3FF
:1012300003433F01C35C491C6D1E02F808300529B9
:1012400008F1010801DA002DF1DC00210CE000EBCF
:101250001973491C1B786D1E082902F808304FEAE3
:10126000091908F1010801DA002DF0DC21688B066C
:1012700002D516E0A8F10108E04505DD02EB080300
:1012800013F8013C302BF5D0B8F1000F09DD02EB6B
:10129000080313F8013C2E2B03D1090701D4A8F150
:1012A0000108002D05DD3E2102F808106D1E08F131
:1012B0000108407C002E02F8080008F1010804DA59
:1012C0002D20764202F8080002E02B2002F80800E8
:1012D0000A214FF47A70864208F101080BDB96FB75
:1012E000F0F3303302F8083096FBF0F308F1010810
:1012F00000FB136601E0642E0CDB642096FBF0F328
:10130000303302F8083096FBF0F308F1010800FBD7
:10131000136601E00A2E06DB96FBF1F0303002F88E
:10132000080008F1010896FBF1F001FB1060303075
:1013300002F80800A16908F1010808EB050202EBB8
:101340000A00081AA0612078C00602D42046FFF7E0
:10135000FFF9216A08AE01EB0A00206204E0D4E93B
:10136000012116F8010B9047BAF1010AF7D2207853
:10137000C00602D52046FFF7EBF96E4609E016F8E5
:10138000010B3E280FD0D4E901219047206A401C70
:101390002062B8F10108F2D22046FFF7EFF909B058
:1013A0000320BDE8F08F206A2844206203E0D4E9DE
:1013B0000121302090476D1EEBD3F8E7696C0000E7
:1013C00002FCFFFF10B5436913B1AFF3008001E0E9
:1013D000FFF77EFA012010BD128800F124018284FB
:1013E0000022C2840122EDE711684FF0FF32E9E7E5
:1013F0002DE9F04116460C46054600F043F8036817
:1014000093F80101012807D0FF2C12D8185D80B194
:1014100001202C70BDE8F081D3F807013246214647
:1014200003F20713C7182846BC46BDE8F041002365
:1014300060474FF0FF30EDE7754600F0EBF8AE4641
:1014400005006946534620F00700854618B020B5D0
:10145000FEF73AFFBDE820404FF000064FF00007CE
:101460004FF000084FF0000BAC46ACE8C009ACE808
:10147000C009ACE8C009ACE8C00921F007018D46FD
:101480007047000010B500F005F8001D10BD00BF4A
:101490002169000000487047400000202DE9F0411C
:1014A0001F46044603260168072A01F4006004DB96
:1014B00008B116A505E016A503E008B115A500E0E2
:1014C00015A521F010002060A069C01EA0610FB119
:1014D000401EA0612046FFF73BF94FB1D4E901213E
:1014E00038469047206A401C2062C01C206206E0FB
:1014F000206AFAE7D4E9012115F8010B9047761E1E
:10150000F8D22046FFF73AF9BDE8F0814E414E008F
:101510006E616E00494E4600696E66002DE9F04727
:10152000814616468AB0354878440DC88DE80D00CE
:1015300032487844801C03AC0DC884E80D0041F6A5
:101540009B300844372190FBF1F290FBF1F5A5F1B7
:10155000800501FB12041B3C02D56442012000E01F
:101560000020DFF898A080460027FA44AAF1BE0ABE
:101570000EE0E0070AD03246684607EB4701012338
:101580000AEB810106F0ABFA8DE8070064107F1CBE
:10159000002CEED1194F7F44AE3F19E0E80715D07B
:1015A00007EB04100DF1180A90E80E008AE80E000F
:1015B000C068F04201D1981908903246012306A96B
:1015C00003A806F08CFA03AB83E807006D10641CD7
:1015D000002DE3D14FF0010332466946B8F1000F08
:1015E00003A802D006F066FA01E006F078FAC9E92D
:1015F0000001C9F808200AB0BDE8F087A069000022
:1016000010B50446AFF300802046BDE81040FEF759
:1016100046BE000000487047200000200000000087
:1016200030B44FF0013C50F8042B51F8043BCCFA95
:1016300052F4D51A20D1FCB950F8042B51F8043BD0
:10164000CCFA52F4D51A17D1B4B950F8042B51F88A
:10165000043BCCFA52F4D51A0ED16CB950F8042BD5
:1016600051F8043BCCFA52F4D51A05D1002CDAD04B
:1016700030BC4FF00000704729BAB1FA81F111F087
:101680001801D1F120008440F2D1CA40CB4012F0C1
:10169000FF0213F0FF0330BCD01A70470149182035
:1016A000ABBEFEE72600020070470000FEE7000028
:1016B00040F68820C2F2000000F0A2B840F62820D0
:1016C000C2F2000000F09CB840F6E820C2F2000030
:1016D00000F096B840F6C810C2F2000000F090B8D2
:1016E00070470000EFF3108072B600BFFEE7000005
:1016F000002804BF0120704790F8251002292DD141
:1017000080B50168D0E910CE826C0B6823F00E031F
:101710000B60136823F4807313600A6822F00102DF
:101720000A600EF01C02012101FA02F2CCF804203A
:10173000D0E913325A60426D32B1136823F48073DA
:101740001360D0E91623536080F825100021BDE80E
:101750008040002280F82420084670470421C1639D
:101760000121002280F824200846704790F82510B7
:1017700002292FD180B50168D0E910CE826C0B68A8
:1017800023F00E030B600B6823F001030B6011685C
:1017900021F4807111600EF01C02012101FA02F2A5
:1017A000CCF80420D0E913325A60426D32B113688C
:1017B00023F480731360D0E91623536080F825105A
:1017C000816B0022002980F8242018BF8847002060
:1017D00080BD00BF0421C16301207047002804BF01
:1017E000012070470068CB06026805D5C90254BFC6
:1017F00022F4801242F48012026000207047000040
:1018000070B5D0E910C20168DCF8004002F01C039A
:1018100004220E689A40224218BF16F0040523D114
:10182000022202FA03FE1EEA040F18BF16F002029B
:101830002AD124FA03F2120714D516F0080208BFC1
:1018400070BD0A6822F00E020A60012101FA03F25B
:10185000CCF80420C16380F82510416B002280F889
:10186000242069B970BD00BF0B689B0603D40B68C8
:1018700023F004030B60CCF80420016B0029F1D0A5
:10188000BDE87040084700BF0A68920606D40A689F
:1018900022F00A020A60012280F825200422C4F204
:1018A000020202F17C03994288BF02F58062C2F80D
:1018B00000E0C16A0022002980F82420E0D1D1E7AD
:1018C00000284FF0010100F091802DE9F04F002633
:1018D000C4F2020603684FF6F83706F58169CBF6C5
:1018E000FD774B4538BF07F580674CF6CD451F4463
:1018F000CCF6CC45A7FB057803F0FC07A7F1080759
:1019000040F6840EA7FB057BC4F2020E06F5806448
:101910006FF00305D0E902AC02693CBF0024C4F2B9
:101920000204AEF1680705EA98054B4538BF06F595
:101930000067C0E91045022480F825401C6847F67E
:10194000F07624EA06061E60466942EA0C028469C3
:101950003243C6692243046A32431E68224332433B
:1019600042EA0A021A604B454FF0070303EB1B13D0
:1019700038BF4FEA1B1303F01F037A19AEF10407B7
:1019800001FA03F3BAF5804FC7648264036505D199
:10199000002141601160CEF8003019E0416801F08B
:1019A0007F07013903294FF000011760CEF800309E
:1019B0000ED87A1E0EEB820747F87C1F02F0030157
:1019C00001228A400EF1BC033946CEF8C02001E066
:1019D00000230022C0E91513C26500210122C16362
:1019E00080F8252080F82410BDE8F04F08467047A5
:1019F00090F824C0BCF1010F04BF022070474FF0E3
:101A0000010C80F824C090F825C0BCF1010F3BD137
:101A10002DE9F0414FF0020C80F825C04FF0000C8A
:101A2000C0F83CC0D0F800C000F14C0E9EE8304039
:101A3000DCF80060BEF1000F26F00106CCF8006073
:101A400065601CBFD0E916456560D0E910560127D6
:101A500006F01C06846807FA06F6D0F830806E603F
:101A6000CCF804300B46102C04BF13460A46CCF8C1
:101A70000830CCF80C20DCF80010B8F1000F0BD0C7
:101A800041F00E0110E000BF8021C163002180F809
:101A900024100120704700BF21F00401CCF8001091
:101AA000DCF8001041F00A01CCF80010806C0168ED
:101AB000C90303D5016841F480710160BEF1000FD4
:101AC00005D0DEF8000040F48070CEF80000DCF8AD
:101AD000000040F00100CCF800000020BDE8F081DB
:101AE000B0B5044600F0E4F8054640F20000C2F24A
:101AF00000000078611C18BF044400BF00F0D8F853
:101B0000401BA042FAD3B0BD2DE9F04F82B00F6860
:101B1000002F00F0BD8000F1200240F6000300928B
:101B2000C4F6000307224FF0000A00264FF0000819
:101B3000984208BF022201924AE000BF40F20042F0
:101B4000C4F60002019B904208BF01230AF00C0575
:101B50000727AF402CEA0707AB403B4308274FEA73
:101B60009802C4F2010740F6000447F82230C5F697
:101B7000000422684B6842EA0907DD0258BF22EAE6
:101B80000907276062689D0242EA090758BF22EAF6
:101B900009076760D4F88020DD0342EA090758BFCF
:101BA00022EA0907C4F88070D4F884209B0342EA33
:101BB000090758BF22EA0907C4F884700F6808F1C2
:101BC000010837FA08F206F102060AF1040A5FD0AA
:101BD000012202FA08FE17EA0E09EFD0D1F804C07C
:101BE00003220CF0030BABF1010302FA06F7012B01
:101BF0006FEA070410D88368CF682340B7403B439F
:101C000083604368CCF3001723EA0E0307FA08F752
:101C10003B43436006E000BFBBF1030F02D14FF02E
:101C2000030B1EE0C3688F682340B7403B43BBF102
:101C3000020FC36015D16FF00302009B02EA580E39
:101C400053F80EC00AF01C050F220F69AA402CEAB7
:101C50000202AF403A4343F80E20D1F804C00CF022
:101C6000030B02680BFA06F322401A431CF4403FB0
:101C70000260A3D0082328F00302C4F2010352F843
:101C800003C0B0F1904F7FF459AF00235EE700BF6F
:101C900002B0BDE8F08F00000069084018BF0120C5
:101CA000704700001823002A08BF2823C15070473E
:101CB00040F6D440C2F200000068704740F20000D5
:101CC00040F6D441C2F20000C2F2000100780A6876
:101CD000104408607047000080B5032000F078F8D9
:101CE00000F0B8FA40F20801C2F2000108600F20CB
:101CF00000F008F800281CBF012080BD00F028F883
:101D0000002080BDB0B540F20005C2F20005297880
:101D1000E1B1044600F09EFA29784FF47A72B2FBE2
:101D2000F1F1B0FBF1F001F049F901460F2C4FF051
:101D300001000AD8002918BFB0BD4FF0FF3021467E
:101D4000002200F019F800206C60B0BD0120B0BD89
:101D500070470000002848BF704700F01F010122B3
:101D600002FA01F11C2202EAD0004EF20012CEF279
:101D7000000281507047000010B54EF60C5CCEF2A8
:101D8000000CDCF80030C3F3022E8EF00704042CA4
:101D900028BF0424BEF103034FF0FF3E0EFA04F403
:101DA00038BF0023A14399400EFA03F39A4311432D
:101DB00000F00F0200F160430901043A03F56443A7
:101DC0006244002848BF02F10C03197010BD0000E6
:101DD0004EF60C51CEF200010A684FF6FF031A408E
:101DE00060F30A2242F0806040F0FD7008607047A6
:101DF00040F20040C5F60000006800F4C060704783
:101E000040F20040C5F60000016841F480710160B5
:101E100070470000F0B581B0044680788826C0077E
:101E2000C5F6000600F0AC80FFF7EAFFFFF740FFC1
:101E3000054600BFD6F87803C00577D4FFF738FF12
:101E4000401B0228F6D903202168CA0700F09D80B4
:101E50006268336823EA124392B21A4332608A07F7
:101E600040F19680A268336823EA124392B21A4383
:101E700032608A0640F18F802269336823F4406320
:101E80001A4332608A0540F18980226A33684FF62E
:101E9000FF7767EA02073B4043EA024232604A05A5
:101EA00040F17F80626A33684FF6FF7767EA020786
:101EB0003B4043EA024232600A0575D5A26A3368A4
:101EC0004FF6FF7767EA02073B4043EA024232607F
:101ED0004A066BD5626933686FF47F2767EA121789
:101EE0003B4002F47F4243EA021232600A065FD5A9
:101EF000A26933686FF47F2767EA12173B4002F448
:101F00007F4243EA02123260CA0553D5E269336860
:101F10006FF47F2767EA12173B4002F47F4243EADF
:101F200002123260CA0657D546E000BFB168606B46
:101F300001F4407181421ED0B168B26821F440734F
:101F400042F48032B260B268890722F480320146DE
:101F5000B260B3600FD5FFF7ABFE054641F288379C
:101F6000B068800706D4FFF7A3FE401BB842F7D93C
:101F700069E700BF616BB06820F440700843B0604F
:101F800000202168CA077FF463AF8A073FF56AAF74
:101F90008A063FF571AF8A053FF577AF4A053FF5F1
:101FA00081AF0A053FF58AAF4A0693D40A069FD44B
:101FB000CA05ABD4CA060FD5E2683368B2F5807F94
:101FC00023F4407343EA0203336005D156F87C2CB6
:101FD00042F0807246F87C2C0A0407D5226B3368E5
:101FE00023F0404343EA020333609AB1490419D510
:101FF000E16A3268B1F1005F22F0405242EA010228
:1020000032600FD156F87C1C41F4803146F87C1CBC
:1020100001B0F0BD56F87C2C42F0807246F87C2C62
:102020004904E5D401B0F0BD2DE9F04381B00028AA
:1020300000F0EA8044F20008C5F600080546D8F82A
:1020400000000C4600F00700884215D2D8F80000C6
:1020500020F007002043C8F80000FFF729FE0646DD
:10206000D8F8000000F00700A04205D0FFF720FEDE
:10207000801B0228F4D977E0286808278107C5F675
:10208000000714D5A868396821F0F00108433860CA
:10209000FFF70EFE064600BF3868C00306D4FFF700
:1020A00007FE801B0228F7D95EE000BF2868810682
:1020B00015D56869D7F8001121F0F0010843C7F879
:1020C0000001FFF7F5FD0646D7F80001800305D4AF
:1020D000FFF7EEFD801B0228F6D945E0286841068F
:1020E00017D5A869D7F8001121F00F0141EA1010A7
:1020F000C7F80001FFF7DCFD064600BFD7F8000176
:10210000C00305D4FFF7D4FD801B0228F6D92BE0CD
:102110002868410713D5E868396821F4E06108436D
:102120003860FFF7C5FD06463868800306D4FFF720
:10213000BFFD801B0228F7D916E000BF2868010701
:1021400017D52869396821F4605141EAC000386028
:10215000FFF7AEFD064600BF3868400308D4FFF71E
:10216000A7FD801B0228F7D9032001B0BDE8F0834A
:102170002868C0071ED1D8F8000000F00700A04270
:1021800024D9D8F8000020F007002043C8F8000048
:10219000FFF78EFD054600BFD8F8000000F00700ED
:1021A000A04213D0FFF784FD401B02284FF003002C
:1021B000F2D947E068684FF0B041096840B303289E
:1021C00020D0022842D189031ED523E000F08CF8EC
:1021D00039683C2202EA910147F6F062C0F600023B
:1021E000515840F20802B0FBF1F140F20400C2F293
:1021F00000000068C2F20002116001B0BDE8F043C7
:10220000FFF780BD890105D4012001B0BDE8F0834E
:102210008907F9D5396821F0030108433860FFF7D1
:1022200047FD064641F288393868696800F00C00BD
:10223000B0EB810F9FD0FFF73BFD801B48454FF06F
:102240000300F1D901B0BDE8F08300BF4905DBD53B
:10225000E0E7000080B500F047F80821C5F600016E
:1022600009683C2202EA910147F6F062C0F60002DA
:102270005158B0FBF1F080BD80B500F035F8082171
:10228000C5F600010A683C2303EA920247F6F063B0
:10229000C0F600039A580968B0FBF2F047F63072B6
:1022A000C1F30221C0F6000252F82110C84080BDDF
:1022B00080B500F019F80821C5F600010A683C2332
:1022C00003EA920247F6F063C0F600039A580968E1
:1022D000B0FBF2F047F63072C1F3C221C0F6000243
:1022E00052F82110C84080BD0C21C5F6000151F8FC
:1022F000040C10F00C02086805D00C2A16D100F06E
:102300000300012812D14FF0B040036800681B079A
:1023100006D400071CD4D1F88800C0F3032022E0C3
:1023200000071BD4D1F8880015E000BF42F200403E
:10233000042AC0F2F40022D0082A1FD14FF0B04284
:102340001268D2025CBF44F60000C0F2E81016E04A
:102350004FF0B0400068002005E000BF4FF0B040F3
:102360000068C0F3031047F65073C0F6000353F83B
:102370002030002A184618BF002001E0002000236A
:1023800051F8042C02F00C020C2A18BF70470868A0
:1023900000F0030242F20040022AC0F2F4000AD028
:1023A000032A09D14FF0B0421268D2025CBF44F652
:1023B0000000C0F2E810034608680A68C0F306206F
:1023C000C2F30212584301320968B0FBF2F0012255
:1023D00002EB5171B0FBF1F070470000002804BF20
:1023E000012070472DE9F04F81B040F2900B044678
:1023F000C5F6000B5BF8880C5BF8841C227800F0B3
:102400000C08900601F0030A26D42078C00759D0A2
:10241000B8F1080F52D0B8F10C0F08BFBAF1030F92
:102420004CD04FF0B0400268D4E9011322F480127E
:102430001A4302600268B1F5803F09D0B1F5041F6C
:1024400040F0348242F400114FF0B0421160126843
:1024500042F48031016035E2B8F1000F1ED0B8F1CE
:102460000C0F08BFBAF1010F18D0216A4FF0B04627
:102470003068002900F0688140F001003060FFF70B
:1024800017FC05463068800700F18681FFF710FCD5
:10249000401B02284FF00300F4D957E3206A0028BC
:1024A00000F0B4824FF0B041A06A0A68120700F150
:1024B000D380DBF804100909CFE000BF6068002872
:1024C00000F0A482207880072FD5B8F1040F1FD028
:1024D000B8F10C0F08BFBAF1020F19D021694FF003
:1024E000B0463068002900F0FF8140F48070306011
:1024F000FFF7DEFB054600BF306840050CD4FFF750
:10250000D7FB401B02284FF00300F5D91EE300BFA4
:102510002069002800F07A8260695BF88C1C21F049
:10252000FE4141EA00604BF88C0C2078000729D46A
:102530002078400752D4E56A002D00F0D482B8F12B
:102540000C0F40F03F81012D00F060825BF8840C9D
:10255000216B00F003028A4240F05882616B00F068
:1025600070028A4240F05282A16B00F4FE42B2EB4C
:10257000012F40F04B82616C00F06040884200F017
:10258000B28243E2A069DBF80410002800F0EE807C
:10259000E06901F01002904200F0C28201F00302F3
:1025A000022A00F03382C90700F0B382DBF804008E
:1025B00020F00100CBF80400FFF77AFB054600BFCE
:1025C000DBF80400800740F1A382FFF771FB401B9A
:1025D00011284FF00300F3D9B8E200BFDBF8700315
:1025E000C00511D4FFF70CFCFFF762FB054600BFE6
:1025F000DBF87003C00507D4FFF75AFB401B022825
:102600004FF00300F4D9A1E2E068002800F07E81D9
:10261000852801D0052805D1DBF8000040F0040032
:10262000CBF80000FFF744FBDBF80010054641F053
:10263000010041F28836CBF8000000BFDBF8000053
:10264000800700F11381FFF733FB401BB0424FF0CE
:102650000300F3D97AE200BF096801F0F00144F207
:102660000006884247F6F06947F65071C5F6000645
:10267000C0F60009C0F6000128D93C2202EA900009
:102680000858DBF8781001F00F0159F82110B0FB61
:10269000F1F5FFF7ADFBB0F5007F40F0B7804EF6E7
:1026A000BF20C0F22110854240F2DC8049F23F3069
:1026B000C0F23420854240F243814AF63F60C0F2C6
:1026C000EB20854240F2B680002740E14FF0B04257
:1026D000136843F008031360136823F0F003034307
:1026E0001360626A5BF88C3C23F47F4343EA022266
:1026F0004BF88C2C6FF0030202EA90000858DBF8CC
:10270000781001F00F0159F82110B0FBF1F5FFF737
:102710006FFBB0F5007F40F08F804EF6BF20C0F217
:102720002110854240F2A08049F23F30C0F23420AF
:10273000854240F251814AF63F60C0F2EB2085426B
:1027400040F28E8000274EE120F001003060FFF75C
:10275000AFFA0546306880077FF557AEFFF7A8FA55
:10276000401B02284FF00300F4D9EFE121F00100F3
:10277000CBF80400FFF79CFA054600BFDBF8040025
:1027800080077FF5D5AEFFF793FA401B11284FF075
:102790000300F3D9DAE100BF4FF0B040016841F027
:1027A000080101600168D4E9092321F0F00119430F
:1027B00001605BF88C0C20F47F4040EA02204BF86B
:1027C0008C0C22E64FF0B046306820F0807030600C
:1027D000FFF76EFA022D05460CD100BF306880016C
:1027E00040F14881FFF764FA401B0A284FF00300CC
:1027F000F4D9ABE13068800140F16C81FFF758FA01
:10280000401B0A284FF00300F4D99FE14CF6BF703B
:10281000C0F26A00854225D945F63F50C0F2C60095
:10282000854240F28D8046F23F60C0F2031085423F
:102830003FF64AAF022084E04CF6BF70C0F26A0057
:10284000854211D945F63F50C0F2C600854240F29C
:10285000C38046F23F60C0F2031085423FF672AF7C
:102860000220BAE000206CE00020B6E0E06840F012
:102870000400852840F0CE80FFF71AFADBF800103C
:10288000054641F0800041F28836CBF8000000BFD9
:10289000DBF8000000053FF54EAEFFF709FA401BDC
:1028A000B0424FF00300F3D950E100BF22F4803072
:1028B0004FF0B04630603068002920F400103060DE
:1028C00000F01681FFF7F4F905464FF0B04600BF5F
:1028D000306880033FF5F6ADFFF7EAF9401B642846
:1028E0004FF00300F4D931E120F480703060FFF73D
:1028F000DFF90546306840057FF517AEFFF7D8F9D8
:10290000401B02284FF00300F4D91FE1FFF7D0F974
:10291000DBF80010064621F0800041F28837CBF842
:10292000000000BFDBF80050FFF7C2F9290505469B
:1029300040F18A80A81BB8424FF00300F2D905E1AC
:10294000012047F6E461C0F6000151F820703068BC
:1029500020F0070038433060FFF7AAF9054600BFB2
:10296000306800F00700B84206D0FFF7A1F9401B1D
:102970000228F5D94AE000BF4FF0B040016841F0AD
:10298000080101600168D4E9092321F0F00119432D
:1029900001605BF88C0C20F47F4040EA02204BF889
:1029A0008C0CFFF7A1FC5BF8881C3C2202EA910129
:1029B00059F8011040F20802B0FBF1F140F20400B6
:1029C000C2F200000068C2F200021160FFF79AF93B
:1029D000002840F0BB8018E5012047F6E461C0F60E
:1029E000000151F82070306820F007003843306053
:1029F000FFF75EF9054600BF306800F00700B842F7
:102A0000CFD0FFF755F9401B0228F5D9012001B0BE
:102A1000BDE8F08FFFF74CF9DBF80010054621F018
:102A2000800041F28836CBF8000000BFDBF80000E0
:102A300000057FF580ADFFF73BF9401BB0424FF03A
:102A40000300F3D982E000BFDBF8000041F28836D2
:102A500020F00100CBF80000DBF8000080077FF5D4
:102A60006AADFFF725F9401BB0424FF00300F3D9E0
:102A70006CE000BF5BF8840C48F28C01C1F2C1111C
:102A800004F1300708408ECFD4E9106508431043A5
:102A900040EA03203843304328434BF8840C4FF07E
:102AA000B045286840F0807028605BF8840C40F0E6
:102AB00080504BF8840CFFF7FBF80446286880012F
:102AC00011D4FFF7F5F8001B0A284FF00300F5D9E1
:102AD0003CE000BF5BF8840C4FF6FC71CEF6FE6163
:102AE00008404BF8840C002001B0BDE8F08F00BF17
:102AF000FFF7DEF8054600BF306880037FF5E2ACE3
:102B0000FFF7D6F8401B64284FF00300F4D91DE00E
:102B1000E069DBF8041021F010010843CBF8040051
:102B2000DBF8040040F00100CBF80400FFF7C0F828
:102B3000054600BFDBF8040080073FF5F9ACFFF75E
:102B4000B7F8401B11284FF00300F3D901B0BDE8DE
:102B5000F08F000070470000B0B582B001684A688D
:102B60008B6803F04105012D08D112F0400505D016
:102B7000C16C02B0BDE8B040084700BF9D0707D553
:102B800012F0800504D0016D02B0BDE8B0400847E6
:102B900013F4B07F18BF12F0200501D102B0B0BD10
:102BA0005D0618D590F85D50032D09D100200190E5
:102BB000C868019088680190019802B0B0BD00BF5C
:102BC000056E45F00405056600250195CD68019563
:102BD0008D680195019D9D0604D4DB0511D4036E1B
:102BE000DBB9DBE7056E45F00105056600250195BB
:102BF0008D6801950D6825F040050D60019DDB0590
:102C0000EDD5036E43F008030366002301938B6840
:102C10000193019B036E002BC0D04B68920723F0F9
:102C2000E0034B604FF0010380F85D3026D04A6826
:102C300046F2D54422F003024A60816DC0F60004DA
:102C400059B1054608468C63FEF790FD01462846BB
:102C500019B1016E41F040010166416D00299DD01E
:102C60008C6304460846FEF781FD002896D0206E4E
:102C700040F04000206602B0B0BD00BF02B0BDE829
:102C8000B040FFF767BF0000002804BF0120704775
:102C9000416A19B100210161142104E04168B1F5D4
:102CA000827F02D01C210022425070B590F85D1046
:102CB00031B9002180F85C10044600F073F820461A
:102CC000022180F85D100168D0F80CE00A68BEF5BA
:102CD000E06F22F040020A604FF000034EF4006201
:102CE00098BF0123B2F5706F4FF0000218BF8262E7
:102CF0004FEA033CD0E90123D0E9044502F4827293
:102D000003F404431A4404F0020384691A4405F0EE
:102D10000103C5691A4404F400731A4405F038032A
:102D2000056A866A1A4405F080052A4406F40055AF
:102D30002A43B6F5005F0A6010D1026B022A05D063
:102D400062B9BEF5E06F07D9022202630A6842F455
:102D500000620A6002E000BF01220263042202EA6C
:102D60001442446A0EF47063456B43EA0C0304F0AA
:102D700010041A4305F0080522432A434A60B6F5B9
:102D8000005F04BF828D0A61CA6922F40062CA61D1
:102D900000210122016680F85D20BDE870400846F0
:102DA00070470000B0B586B00446006843F20001E9
:102DB000C4F2010100258842CDE90355CDE9015552
:102DC000009501D006B0B0BD4C20C5F600004169A9
:102DD00041F480514161416901F4805105910599A7
:102DE000016841F0010101600068694600F00100DE
:102DF00005900598E02000900220CDE90105032010
:102E00000390052004904FF09040FEF77DFE40F6C1
:102E1000C8104421C2F20000C4F2020108221023AB
:102E20004FF0800C80E82E10C0E90555C0E9075529
:102E3000FEF746FD002818BFFEF754FC40F6C81503
:102E4000C2F2000528461021FEF7C8FC002818BF72
:102E5000FEF748FC2220002100226565AC62FEF7E7
:102E60008BFF2220FEF776FF06B0B0BD90F85C30F5
:102E7000012B04BF02207047012380F85C3090F8DA
:102E80005D30012B0AD100294FF0010318BF002A41
:102E90000AD1002180F85C101846704702230021F7
:102EA00080F85C101846704770B5032380F85D30D9
:102EB0000023036681638287C2870364C0E91333FA
:102EC000A0F84430A0F8463083680268B3F5004F9C
:102ED00007D1136823F040031360136843F4804361
:102EE0001360836AB3F5005F07D1136823F40053BE
:102EF0001360136843F400531360D0F854C046F2D3
:102F0000055E46F20D5446F2E545C0F6000EC0F6E9
:102F10000004C0F600050026CCE90B4ECCE90D56A6
:102F2000C3685668B3F5E06F26F48046566017D83C
:102F3000DCF81830B3F5806F12D1C68F5368F607EE
:102F400006D123F480435360C38F5B0807E000BFC2
:102F500043F480435360C38F012606EB5303C387BA
:102F6000C38F04460C326046FEF742FD40B1216E2D
:102F7000204641F010010123216684F85D3011E004
:102F8000216820460A68520603D40A6842F04002CB
:102F90000A604A68002342F020024A604A6842F010
:102FA00002024A60BDE87040002180F85C101846BB
:102FB000704700007047000070470000411E00206D
:102FC000B0EB116F1CBF012070474EF21002CEF221
:102FD000000251604EF62351CEF20001F0230B7037
:102FE000072190601160704790F88410012904BF98
:102FF000022070472421C0F8881001680A680B6815
:1030000022F0005223F001030B60002343660A60A4
:103010002021C0F8881080F884300020704700001C
:1030200090F88410012904BF0220704780B5242144
:10303000C0F88810016849F6B01C0A680B6842F0B5
:10304000005223F001030B604FF0005343660A6007
:103050008A688968C0F6000C490F49F6B81E1CF84A
:103060000130C0F6000E1EF80110C2F34262DB0010
:10307000B3FBF1F11CF802301EF80220DB00B3FBB9
:10308000F2F2A0F86A102021A0F86820C0F8881099
:10309000002180F88410002080BD000070470000EF
:1030A0007047000090F88420012A04BF0220704776
:1030B000B0B52422C0F888200268D0F864E0D2F8C5
:1030C00000C01368BEF1000F23F001031360936882
:1030D00023F0606341EA0301916019D0936891681D
:1030E00049F6B01E490FC0F6000E49F6B8151EF895
:1030F0000140C0F60005695CC3F34263E400B4FB21
:10310000F1F11EF80340EB5CE500B5FBF3F301E0E1
:1031100001210123A0F86A102021A0F86830C2F82C
:1031200000C0C0F88810002180F884100020B0BDD5
:1031300090F88420012A04BF02207047B0B52422F1
:10314000C0F888200268D0F864E0D2F800C01368A4
:10315000BEF1000F23F001031360936823F0604376
:1031600041EA0301916019D09368916849F6B01E55
:10317000490FC0F6000E49F6B8151EF80140C0F61A
:103180000005695CC3F34263E400B4FBF1F11EF88F
:103190000340EB5CE500B5FBF3F301E00121012303
:1031A000A0F86A102021A0F86830C2F800C0C0F86A
:1031B0008810002180F884100020B0BD7047000006
:1031C000704700007047000070B5026840F62F0499
:1031D000D369116896681C40202C0BD101F02004A3
:1031E00006F080552D1916D0416F61B3BDE87040CF
:1031F000084700BF40F60F052B420CD00125C1F255
:10320000000506EA050C40F22015C0F200450D400D
:1032100015EB0C0524D1C46EDD0615D5012C13D198
:1032200011F0100510D0102111629168490661D487
:10323000B0F85C10B0F85E20B0F85E30002B18BF1C
:10324000914240F03F8270BDDD0215D516F4800535
:1032500012D04FF480111162BDE87040FFF7B0BF8B
:10326000DD0718BF11F4807540F00E819D0706F050
:10327000010E00F115811EE11A0606D501F080024B
:1032800006F40006921940F09D825A0640F1F08043
:1032900011F0400200F0EC80016851E8001F026864
:1032A00021F0400142E80013DBB1016851E8001F42
:1032B000026821F0400142E8001393B1016851E82F
:1032C000001F026821F0400142E800134BB1016881
:1032D00051E8001F026821F0400142E80013002B72
:1032E000DAD12021C0F8881000218167BDE8704044
:1032F00000F05CBCD0F8801009684A6893B2002BDB
:10330000A1D0B0F85C60B3429DD2A0F85E200968FD
:10331000890600F1A180016851E8001F026821F4CC
:10332000807142E80013DBB1016851E8001F0268B8
:1033300021F4807142E8001393B1016851E8001F45
:10334000026821F4807142E800134BB1016851E832
:10335000001F026821F4807142E80013002BDAD1CB
:10336000016851E8021F026821F0010142E80213DE
:10337000BBB3016851E8021F026821F0010142E875
:10338000021373B3016851E8021F026821F00101C2
:1033900042E802132BB3016851E8021F026821F0D2
:1033A000010142E80213002BDAD11AE0016851E86A
:1033B000021F026821F0400142E80213DBB10168FC
:1033C00051E8021F026821F0400142E8021393B164
:1033D000016851E8021F026821F0400142E802132F
:1033E0004BB1016851E8021F026821F0400142E838
:1033F0000213002BDAD12021C0F88C100021C16605
:10340000016851E8001F026821F0100142E8001332
:10341000DBB1016851E8001F026821F0100142E8A9
:10342000001393B1016851E8001F026821F01001F8
:1034300042E800134BB1016851E8001F026821F017
:10344000100142E80013002BDAD1D0F880100446B6
:103450000846FEF74DF9204602210167B0F85C10DE
:10346000B0F85E20891A89B2BDE87040FFF716BE39
:103470001A0240F1B38111F0804200F0AF81BDE843
:103480007040FFF79BBE00BF01251562D0F8905039
:1034900045F00105C0F890509D0706F0010E0AD5D1
:1034A000BEF1000F07D002241462D0F8904044F01F
:1034B0000404C0F890405C070AD5BEF1000F07D0A5
:1034C00004251562D0F8905045F00205C0F89050E0
:1034D0001D070CD501F0200555EA0C0507D008257D
:1034E0001562D0F8905045F00805C0F890501D05C1
:1034F0000BD511F0806508D04FF400651562D0F847
:10350000905045F02005C0F89050D0F89050002D14
:103510003FF499AE9B060BD501F0200106F08053D5
:10352000C91805D0416F19B1044688472268204662
:10353000D0F89010926801F0280102F0400289183A
:1035400006D10446FFF73EFE0020C4F8900070BD8F
:10355000016851E8001F026821F4907142E80013ED
:10356000DBB1016851E8001F026821F4907142E864
:10357000001393B1016851E8001F026821F49071B3
:1035800042E800134BB1016851E8001F026821F4C2
:10359000907142E80013002BDAD14FF6FE71CEF69F
:1035A000FF7100BF026852E8022F03680A4043E837
:1035B0000226C6B1026852E8022F03680A4043E8B7
:1035C000022686B1026852E8022F03680A4043E8E7
:1035D000022646B1026852E8022F03680A4043E817
:1035E0000226002EDED1C16E012924D1016851E8E6
:1035F000001F026821F0100142E80013DBB10168EE
:1036000051E8001F026821F0100142E8001393B155
:10361000016851E8001F026821F0100142E8001320
:103620004BB1016851E8001F026821F0100142E827
:103630000013002BDAD12021C0F88C100021C166C4
:10364000026841679168490640F1C480016851E809
:10365000021F026821F0400142E80213DBB1016859
:1036600051E8021F026821F0400142E8021393B1C1
:10367000016851E8021F026821F0400142E802138C
:103680004BB1016851E8021F026821F0400142E895
:103690000213002BDAD1D0F88010002900F09A80B4
:1036A00046F66112C0F60002044608468A63FEF739
:1036B0005DF800283FF4C7ADD4F88000816BBDE809
:1036C00070400847891A00BF026852E8002F03685B
:1036D00022F4907243E80026DEB1026852E8002F1F
:1036E000036822F4907243E8002696B1026852E81B
:1036F000002F036822F4907243E800264EB102685E
:1037000052E8002F036822F4907243E80026002E4E
:10371000DAD14FF6FE72CEF6FF7200BF036853E8AF
:10372000023F0668134046E80235C5B1036853E816
:10373000023F0668134046E8023585B1036853E846
:10374000023F0668134046E8023545B1036853E876
:10375000023F0668134046E80235002DDED12022E4
:10376000C0F88C200022C266426700BF026852E89F
:10377000002F036822F0100243E80026DEB1026841
:1037800052E8002F036822F0100243E8002696B1A9
:10379000026852E8002F036822F0100243E8002676
:1037A0004EB1026852E8002F036822F0100243E88D
:1037B0000026002EDAD1022289B20267BDE87040ED
:1037C000FFF76CBC816F00293FF43DADBDE8704050
:1037D000084700BFBDE87040FFF7F4BCDA017FF591
:1037E00032ADB1F1FF3FC8BF70BDBDE87040FFF71B
:1037F00057BC0000002804BF01207047B0B582B05C
:103800000446D0F8880028B9002084F884002046B7
:1038100000F05CF82420C4F888002068016821F0DA
:1038200001010160204603F0EDF918B1012002B05A
:10383000B0BD00BFA06A10B1204603F01DF820689B
:10384000416821F490414160816821F02A01816042
:10385000016841F0010101600020C4F89000FEF70A
:1038600027FA216805460A68120710D56FF07E4CCA
:1038700020464FF4001100222B46CDF800C003F083
:10388000EDFA18B1032002B0B0BD00BF216808688E
:1038900040070FD56FF07E4C20464FF48001002288
:1038A0002B46CDF800C003F0D9FA18B1032002B0BE
:1038B000B0BD00BF2020C4F88800C4F88C000020F0
:1038C000E066206784F8840002B0B0BDF0B595B022
:1038D000044600201390CDE91100CDE90F0001A8A6
:1038E0003821FCF70BFF206844F20041C4F20001CC
:1038F000884200F0878043F60001C4F2010188424B
:1039000040F0DE80012001904FF44030029001A889
:10391000FEF780FA002818BFFDF7E4FE4C20C5F63C
:1039200000004169082641F4804141614169002558
:1039300001F48041149114990168C4F2020641F027
:103940000101016000680FA900F0010014901498B3
:103950004FF4C0600F9002201090072013904FF09A
:103960009040CDE91155FEF7CFF840F68820C2F21D
:103970000000122110228023C0E90061C0E9022565
:10398000C0E90435C0E906550562FDF799FF002836
:1039900018BFFDF7A7FE40F68825C2F200052846AD
:1039A0001021FDF71BFF002818BFFDF79BFE40F616
:1039B000282006F11401C2F2000000238027E567E9
:1039C000AC62112280E80E00C0E90337C0E905337C
:1039D000C0E90733FDF774FF002818BFFDF782FE2A
:1039E00040F62825C2F2000528461021FDF7F6FE14
:1039F00000284FF024064FF0800718BFFDF772FE35
:103A000054E000BF4FF440200225039001A8019527
:103A1000FEF700FA002818BFFDF764FE4C20C5F63B
:103A20000000C16841F40031C160C16801F4003197
:103A300014911499016841F00101016000680FA917
:103A400000F00100149014980C20CDE90F05072018
:103A5000002513904FF09040CDE91155FEF754F832
:103A60000820C4F2020000F1280140F6E820C2F26A
:103A7000000014221023802780E8AE00C0E905551D
:103A8000C0E90755FDF71CFF002818BFFDF72AFE07
:103A900040F6E825C2F2000528461021FDF79EFEFB
:103AA00025264FF07C0708B1FDF71CFE30460021AB
:103AB0000022E551AC62FEF75FF93046FEF74AF9A5
:103AC00015B0F0BDD0F88830202B09D194460029DC
:103AD0004FF0010218BFBCF1000F05D1104670472E
:103AE00002221046704700BFB0B5002221230165B5
:103AF000A0F854C0A0F856C0C0F89020C0F8883094
:103B0000C36F2BB346F67115C0F6000546F64D346B
:103B100046F6FD3E5D630568C0F60004C0F6000E83
:103B2000C3E90B4E9A6305F1280204461846634622
:103B3000FDF75EFF0146204651B11021C0F89010FC
:103B40002021C0F888100122BDE8B040104670471F
:103B5000016840220A6200BF016851E8021F026842
:103B600041F0800142E80213DBB1016851E8021F15
:103B7000026841F0800142E8021393B1016851E804
:103B8000021F026841F0800142E802134BB1016854
:103B900051E8021F026841F0800142E80213002B45
:103BA000DAD10022BDE8B0401046704770470000EF
:103BB00070470000FEE7000080B582B04820C5F6DF
:103BC00000000168002241F004010160016801F079
:103BD000040100910099016841F001010160006851
:103BE000002100F00100019001980B20FEF7C4F8BD
:103BF0000B20FEF7AFF80C2000210022FEF7BCF8E6
:103C00000C20FEF7A7F80D2000210022FEF7B4F8E3
:103C10000D20FEF79FF80E2000210022FEF7ACF8E1
:103C20000E2002B0BDE88040FEF794B82DE9F043C5
:103C300087B000264C200596CDE90366CDE90166E4
:103C4000C5F600000168002241F001010160016831
:103C500001F0010106910699016841F080010160BF
:103C6000016801F0800106910699016841F00201A6
:103C70000160016801F0020106910699016841F0B6
:103C800004010160006840F2031100F00400069096
:103C900006984FF09040FEF705F840F20049C4F650
:103CA000000948464FF4805100224FF48058FDF738
:103CB000F9FF01AD032701244FF0904029460197F9
:103CC000CDE902460496FDF71FFF4FF4807001A96D
:103CD000D1C14FF090402946FDF716FF0820019012
:103CE0004FF48810CDE9020609F5C0502946FDF7CA
:103CF0000BFF48462946CDE90184CDE90367FDF76E
:103D000003FF07B0BDE8F083B0B540F6483043F29A
:103D10000001C2F20000C4F201014FF482720023DC
:103D20004FF4E06C4FF0020E01244FF4007580E870
:103D30000E500721C0E90545C361C0E90833C0E959
:103D40000A31C0E90C33FEF79FFF002808BFB0BD61
:103D5000BDE8B040FDF7C6BC80B540F6AC3043F6D8
:103D60000001C2F20000C4F2010100234FF00C0C6C
:103D70004FF4165280E80E00C0E90333C0E905C3D2
:103D8000C0E90733C0E90933FFF734FD002818BF45
:103D9000FDF7A8FC40F6AC30C2F200000021FFF7AE
:103DA000C7F9002818BFFDF79DFC40F6AC30C2F201
:103DB00000000021FFF776F9002818BFFDF792FCFC
:103DC00040F6AC30C2F20000FFF72AF9002808BF25
:103DD00080BDBDE88040FDF785BC000080B540F6A1
:103DE000404044F20041C2F20000C4F2000100234E
:103DF0004FF00C0C4FF4165280E80E00C0E903336C
:103E0000C0E905C3C0E90733C0E90933FFF7F2FC95
:103E1000002818BFFDF766FC40F64040C2F20000E3
:103E20000021FFF785F9002818BFFDF75BFC40F67D
:103E30004040C2F200000021FFF734F9002818BF0B
:103E4000FDF750FC40F64040C2F20000FFF7CCF80E
:103E5000002808BF80BDBDE88040FDF743BC0000DE
:103E6000FEE70000FEE700004FF60040CFF6FF70CF
:103E700040F2A00CC2F2000C002203460CEB03013E
:103E800013F5807381F8002481F8082481F8102448
:103E900081F8182481F8202481F8282481F830241E
:103EA00081F8382481F8402481F8482481F850248E
:103EB00081F8582481F8602481F8682481F87024FE
:103EC00081F8782481F8802481F8882481F890246E
:103ED00081F8982481F8A02481F8A82481F8B024DE
:103EE00081F8B82481F8C02481F8C82481F8D0244E
:103EF00081F8D82481F8E02481F8E82481F8F024BE
:103F000081F8F824BAD10022034600BF0CEB03016C
:103F100013F5807381F8012481F8092481F81124B4
:103F200081F8192481F8212481F8292481F8312489
:103F300081F8392481F8412481F8492481F85124F9
:103F400081F8592481F8612481F8692481F8712469
:103F500081F8792481F8812481F8892481F89124D9
:103F600081F8992481F8A12481F8A92481F8B12449
:103F700081F8B92481F8C12481F8C92481F8D124B9
:103F800081F8D92481F8E12481F8E92481F8F12429
:103F900081F8F924BAD10022034600BF0CEB0301DB
:103FA00013F5807381F8022481F80A2481F8122421
:103FB00081F81A2481F8222481F82A2481F83224F5
:103FC00081F83A2481F8422481F84A2481F8522465
:103FD00081F85A2481F8622481F86A2481F87224D5
:103FE00081F87A2481F8822481F88A2481F8922445
:103FF00081F89A2481F8A22481F8AA2481F8B224B5
:1040000081F8BA2481F8C22481F8CA2481F8D22424
:1040100081F8DA2481F8E22481F8EA2481F8F22494
:1040200081F8FA24BAD10022034600BF0CEB030149
:1040300013F5807381F8032481F80B2481F813248D
:1040400081F81B2481F8232481F82B2481F8332460
:1040500081F83B2481F8432481F84B2481F85324D0
:1040600081F85B2481F8632481F86B2481F8732440
:1040700081F87B2481F8832481F88B2481F89324B0
:1040800081F89B2481F8A32481F8AB2481F8B32420
:1040900081F8BB2481F8C32481F8CB2481F8D32490
:1040A00081F8DB2481F8E32481F8EB2481F8F32400
:1040B00081F8FB24BAD10022034600BF0CEB0301B8
:1040C00013F5807381F8042481F80C2481F81424FA
:1040D00081F81C2481F8242481F82C2481F83424CC
:1040E00081F83C2481F8442481F84C2481F854243C
:1040F00081F85C2481F8642481F86C2481F87424AC
:1041000081F87C2481F8842481F88C2481F894241B
:1041100081F89C2481F8A42481F8AC2481F8B4248B
:1041200081F8BC2481F8C42481F8CC2481F8D424FB
:1041300081F8DC2481F8E42481F8EC2481F8F4246B
:1041400081F8FC24BAD10022034600BF0CEB030126
:1041500013F5807381F8052481F80D2481F8152466
:1041600081F81D2481F8252481F82D2481F8352437
:1041700081F83D2481F8452481F84D2481F85524A7
:1041800081F85D2481F8652481F86D2481F8752417
:1041900081F87D2481F8852481F88D2481F8952487
:1041A00081F89D2481F8A52481F8AD2481F8B524F7
:1041B00081F8BD2481F8C52481F8CD2481F8D52467
:1041C00081F8DD2481F8E52481F8ED2481F8F524D7
:1041D00081F8FD24BAD10022034600BF0CEB030195
:1041E00013F5807381F8062481F80E2481F81624D3
:1041F00081F81E2481F8262481F82E2481F83624A3
:1042000081F83E2481F8462481F84E2481F8562412
:1042100081F85E2481F8662481F86E2481F8762482
:1042200081F87E2481F8862481F88E2481F89624F2
:1042300081F89E2481F8A62481F8AE2481F8B62462
:1042400081F8BE2481F8C62481F8CE2481F8D624D2
:1042500081F8DE2481F8E62481F8EE2481F8F62442
:1042600081F8FE24BAD100220CEB000110F5807019
:1042700081F8072481F80F2481F8172481F81F247E
:1042800081F8272481F82F2481F8372481F83F24EE
:1042900081F8472481F84F2481F8572481F85F245E
:1042A00081F8672481F86F2481F8772481F87F24CE
:1042B00081F8872481F88F2481F8972481F89F243E
:1042C00081F8A72481F8AF2481F8B72481F8BF24AE
:1042D00081F8C72481F8CF2481F8D72481F8DF241E
:1042E00081F8E72481F8EF2481F8F72481F8FF248E
:1042F000BAD100F023BE00002DE9F04381B04FF6A3
:10430000004640F20044C820CFF6FF76C4F6000411
:104310004FF0C808FDF7E4FBAE208DF803004FF026
:1043200090404FF4807100220027FDF7BBFC20462F
:104330004FF480510022FDF7B5FC40F64835C2F23B
:1043400000050DF1030128460122FEF78FFD2046EE
:104350004FF480510122FDF7A5FC4FF090404FF43F
:1043600080710122FDF79EFC4FF090404FF4807168
:1043700000228DF80370FDF795FC20464FF4805124
:104380000022FDF78FFC0DF1030128460122FEF704
:104390006DFD20464FF480510122FDF783FC4FF064
:1043A00090404FF480710122FDF77CFC10208DF8C5
:1043B00003004FF090404FF480710022FDF772FC33
:1043C00020464FF480510022FDF76CFC0DF10301F3
:1043D00028460122FEF74AFD20464FF48051012273
:1043E000FDF760FC4FF090404FF480710122FDF723
:1043F00059FC4FF040094FF090404FF4807100227B
:104400008DF80390FDF74EFC20464FF480510022BA
:10441000FDF748FC0DF1030128460122FEF726FDB9
:1044200020464FF480510122FDF73CFC4FF09040B4
:104430004FF480710122FDF735FC81208DF80300D7
:104440004FF090404FF480710022FDF72BFC204686
:104450004FF480510022FDF725FC0DF103012846A1
:104460000122FEF703FD20464FF480510122FDF7A3
:1044700019FC4FF090404FF480710122FDF712FCBF
:10448000CF208DF803004FF090404FF48071002250
:10449000FDF708FC20464FF480510022FDF702FC96
:1044A0000DF1030128460122FEF7E0FC20464FF4FF
:1044B00080510122FDF7F6FB4FF090404FF48071E0
:1044C0000122FDF7EFFBA1208DF803004FF0904093
:1044D0004FF480710022FDF7E5FB20464FF4805138
:1044E0000022FDF7DFFB0DF1030128460122FEF754
:1044F000BDFC20464FF480510122FDF7D3FB4FF065
:1045000090404FF480710122FDF7CCFB4FF09040BA
:104510004FF4807100228DF80380FDF7C3FB204625
:104520004FF480510022FDF7BDFB0DF10301284639
:104530000122FEF79BFC20464FF480510122FDF73B
:10454000B1FB4FF090404FF480710122FDF7AAFBC0
:104550004FF0A6084FF090404FF4807100228DF884
:104560000380FDF79FFB20464FF480510022FDF7AA
:1045700099FB0DF1030128460122FEF777FC204646
:104580004FF480510122FDF78DFB4FF090404FF426
:1045900080710122FDF786FBA8208DF803004FF003
:1045A00090404FF480710022FDF77CFB20464FF4D1
:1045B00080510022FDF776FB0DF103012846012210
:1045C000FEF754FC20464FF480510122FDF76AFBB0
:1045D0004FF090404FF480710122FDF763FB3F20C4
:1045E0008DF803004FF090404FF480710022FDF7EA
:1045F00059FB20464FF480510022FDF753FB0DF18B
:10460000030128460122FEF731FC20464FF4805179
:104610000122FDF747FB4FF090404FF480710122DB
:10462000FDF740FBD3208DF803004FF090404FF48E
:1046300080710022FDF736FB20464FF480510022A6
:10464000FDF730FB0DF1030128460122FEF70EFCB9
:1046500020464FF480510122FDF724FB4FF090409B
:104660004FF480710122FDF71DFB4FF090404FF495
:10467000807100228DF80370FDF714FB20464FF483
:1046800080510022FDF70EFB0DF1030128460122A7
:10469000FEF7ECFB20464FF480510122FDF702FBB0
:1046A0004FF090404FF480710122FDF7FBFAD520C6
:1046B0008DF803004FF090404FF480710022FDF719
:1046C000F1FA20464FF480510022FDF7EBFA0DF18C
:1046D000030128460122FEF7C9FB20464FF4805112
:1046E0000122FDF7DFFA4FF090404FF48071012274
:1046F000FDF7D8FA80208DF803004FF090404FF47A
:1047000080710022FDF7CEFA20464FF4805100223E
:10471000FDF7C8FA0DF1030128460122FEF7A6FBBA
:1047200020464FF480510122FDF7BCFA4FF0904033
:104730004FF480710122FDF7B5FAD9208DF80300FE
:104740004FF090404FF480710022FDF7ABFA204605
:104750004FF480510022FDF7A5FA0DF10301284620
:104760000122FEF783FB20464FF480510122FDF722
:1047700099FA4FF090404FF480710122FDF792FAC0
:10478000F1208DF803004FF090404FF4807100222B
:10479000FDF788FA20464FF480510022FDF782FA97
:1047A0000DF1030128460122FEF760FB20464FF47D
:1047B00080510122FDF776FA4FF090404FF480715E
:1047C0000122FDF76FFADA208DF803004FF09040D8
:1047D0004FF480710022FDF765FA20464FF48051B6
:1047E0000022FDF75FFA0DF1030128460122FEF7D2
:1047F0003DFB20464FF480510122FDF753FA4FF064
:1048000090404FF480710122FDF74CFA12208DF890
:1048100003004FF090404FF480710022FDF742FA00
:1048200020464FF480510022FDF73CFA0DF10301C0
:1048300028460122FEF71AFB20464FF48051012240
:10484000FDF730FA4FF090404FF480710122FDF7F0
:1048500029FADB208DF803004FF090404FF480716F
:104860000022FDF71FFA20464FF480510022FDF789
:1048700019FA0DF1030128460122FEF7F7FA204646
:104880004FF480510122FDF70DFA4FF090404FF4A4
:1048900080710122FDF706FA4FF090404FF48071CD
:1048A00000228DF80390FDF7FDF920464FF480516A
:1048B0000022FDF7F7F90DF1030128460122FEF76A
:1048C000D5FA20464FF480510122FDF7EBF94FF065
:1048D00090404FF480710122FDF7E4F920208DF81B
:1048E00003004FF090404FF480710022FDF7DAF999
:1048F00020464FF480510022FDF7D4F90DF1030159
:1049000028460122FEF7B2FA20464FF480510122D8
:10491000FDF7C8F94FF090404FF480710122FDF788
:10492000C1F902208DF803004FF090404FF48071E0
:104930000022FDF7B7F920464FF480510022FDF721
:10494000B1F90DF1030128460122FEF78FFA204646
:104950004FF480510122FDF7A5F94FF090404FF43C
:1049600080710122FDF79EF98D208DF803004FF034
:1049700090404FF480710022FDF794F920464FF4E7
:1049800080510022FDF78EF90DF103012846012226
:10499000FEF76CFA20464FF480510122FDF782F9B0
:1049A0004FF090404FF480710122FDF77BF9142005
:1049B0008DF803004FF090404FF480710022FDF716
:1049C00071F920464FF480510022FDF76BF90DF18B
:1049D000030128460122FEF749FA20464FF4805190
:1049E0000122FDF75FF94FF090404FF480710122F2
:1049F000FDF758F9A4208DF803004FF090404FF4D4
:104A000080710022FDF74EF920464FF480510022BC
:104A1000FDF748F90DF1030128460122FEF726FAB9
:104A200020464FF480510122FDF73CF94FF09040B1
:104A30004FF480710122FDF735F94FF090404FF4AB
:104A4000807100228DF80380FDF72CF920464FF489
:104A500080510022FDF726F90DF1030128460122BD
:104A6000FEF704FA20464FF480510122FDF71AF9AF
:104A70004FF090404FF480710122FDF713F940F29E
:104A8000A000C2F200003146421811F5807182F890
:104A9000007482F8087482F8107482F8187482F82E
:104AA000207482F8287482F8307482F8387482F89E
:104AB000407482F8487482F8507482F8587482F80E
:104AC000607482F8687482F8707482F8787482F87E
:104AD000807482F8887482F8907482F8987482F8EE
:104AE000A07482F8A87482F8B07482F8B87482F85E
:104AF000C07482F8C87482F8D07482F8D87482F8CE
:104B0000E07482F8E87482F8F07482F8F874BBD12B
:104B100000213246831812F5807283F8011483F85D
:104B2000091483F8111483F8191483F8211483F8F5
:104B3000291483F8311483F8391483F8411483F865
:104B4000491483F8511483F8591483F8611483F8D5
:104B5000691483F8711483F8791483F8811483F845
:104B6000891483F8911483F8991483F8A11483F8B5
:104B7000A91483F8B11483F8B91483F8C11483F825
:104B8000C91483F8D11483F8D91483F8E11483F895
:104B9000E91483F8F11483F8F914BBD100213246EB
:104BA000831812F5807283F8021483F80A1483F8CC
:104BB000121483F81A1483F8221483F82A1483F841
:104BC000321483F83A1483F8421483F84A1483F8B1
:104BD000521483F85A1483F8621483F86A1483F821
:104BE000721483F87A1483F8821483F88A1483F891
:104BF000921483F89A1483F8A21483F8AA1483F801
:104C0000B21483F8BA1483F8C21483F8CA1483F870
:104C1000D21483F8DA1483F8E21483F8EA1483F8E0
:104C2000F21483F8FA14BBD100213246831812F52E
:104C3000807283F8031483F80B1483F8131483F839
:104C40001B1483F8231483F82B1483F8331483F88C
:104C50003B1483F8431483F84B1483F8531483F8FC
:104C60005B1483F8631483F86B1483F8731483F86C
:104C70007B1483F8831483F88B1483F8931483F8DC
:104C80009B1483F8A31483F8AB1483F8B31483F84C
:104C9000BB1483F8C31483F8CB1483F8D31483F8BC
:104CA000DB1483F8E31483F8EB1483F8F31483F82C
:104CB000FB14BBD100213246831812F5807283F8B1
:104CC000041483F80C1483F8141483F81C1483F868
:104CD000241483F82C1483F8341483F83C1483F8D8
:104CE000441483F84C1483F8541483F85C1483F848
:104CF000641483F86C1483F8741483F87C1483F8B8
:104D0000841483F88C1483F8941483F89C1483F827
:104D1000A41483F8AC1483F8B41483F8BC1483F897
:104D2000C41483F8CC1483F8D41483F8DC1483F807
:104D3000E41483F8EC1483F8F41483F8FC14BBD166
:104D400000213246831812F5807283F8051483F827
:104D50000D1483F8151483F81D1483F8251483F8B3
:104D60002D1483F8351483F83D1483F8451483F823
:104D70004D1483F8551483F85D1483F8651483F893
:104D80006D1483F8751483F87D1483F8851483F803
:104D90008D1483F8951483F89D1483F8A51483F873
:104DA000AD1483F8B51483F8BD1483F8C51483F8E3
:104DB000CD1483F8D51483F8DD1483F8E51483F853
:104DC000ED1483F8F51483F8FD14BBD100213246AD
:104DD000831812F5807283F8061483F80E1483F892
:104DE000161483F81E1483F8261483F82E1483F8FF
:104DF000361483F83E1483F8461483F84E1483F86F
:104E0000561483F85E1483F8661483F86E1483F8DE
:104E1000761483F87E1483F8861483F88E1483F84E
:104E2000961483F89E1483F8A61483F8AE1483F8BE
:104E3000B61483F8BE1483F8C61483F8CE1483F82E
:104E4000D61483F8DE1483F8E61483F8EE1483F89E
:104E5000F61483F8FE14BBD1002100BF821916F5A9
:104E6000807682F8071482F80F1482F8171482F8FB
:104E70001F1482F8271482F82F1482F8371482F84E
:104E80003F1482F8471482F84F1482F8571482F8BE
:104E90005F1482F8671482F86F1482F8771482F82E
:104EA0007F1482F8871482F88F1482F8971482F89E
:104EB0009F1482F8A71482F8AF1482F8B71482F80E
:104EC000BF1482F8C71482F8CF1482F8D71482F87E
:104ED000DF1482F8E71482F8EF1482F8F71482F8EE
:104EE000FF14BBD100F02AF8AF208DF803004FF07B
:104EF00090404FF480710022FCF7D4FE20464FF41E
:104F000080510022FCF7CEFE40F64830C2F200008D
:104F10000DF103010122FDF7A9FF20464FF4805156
:104F20000122FCF7BFFE4FF090404FF48071012248
:104F3000FCF7B8FE01B0BDE8F08300002DE9F04FAA
:104F400081B040F2004440F2A00640F64835C4F675
:104F50000004C2F20006C2F200050DF101090DF1D4
:104F6000020B0DF103074FF0000800BF48F0B0003E
:104F70008DF800004FF090404FF480710022FCF754
:104F800091FE20464FF480510022FCF78BFE28460C
:104F900069460122FDF76AFF20464FF48051012245
:104FA000FCF780FE4FF090404FF480710122FCF737
:104FB00079FE00208DF801004FF090404FF4807191
:104FC0000022FCF76FFE20464FF480510022FCF7D0
:104FD00069FE284649460122FDF748FF20464FF466
:104FE00080510122FCF75EFE4FF090404FF480713B
:104FF0000122FCF757FE10208DF802004FF0904080
:105000004FF480710022FCF74DFE20464FF4805192
:105010000022FCF747FE284659460122FDF726FFED
:1050200020464FF480510122FCF73CFE4FF09040A7
:105030004FF480710122FCF735FE6FF0070A00BFC4
:1050400006EB0A00007A4FF480718DF803004FF0F0
:1050500090400122FCF726FE20464FF480510022AA
:10506000FCF720FE284639460122FDF7FFFE2046C8
:105070004FF480510122FCF715FE4FF090404FF4A1
:1050800080710122FCF70EFE0AF1080ABAF57E7F54
:10509000D6D108F10108B8F1080F06F101067FF436
:1050A00065AF01B0BDE8F08F2DE9F04F91B01A9DCA
:1050B000082B8446074610900D9340F0FD80203A5F
:1050C000002DD3B200F0EA8101F00702012000FABE
:1050D00002F20E924A1C0F9202F0070200FA02F24C
:1050E00001F1020A0D920AF0070200FA02F2CF1C47
:1050F0000C9207F0070200FA02F201F1040E0B9283
:105100000EF0070201F1050800FA02F208F00705A7
:1051100001F106090A9200FA05F209F00705CC1D13
:1051200000FA05FB04F0070500FA05F647F6A87536
:1051300003EB4300C0F6000505EB400010900F980C
:105140000992C3B20E985FFA8EF2C04307900D9891
:105150004FEAD20EC04306900C985FFA88F2C04323
:1051600005900B984FEAD208C04304900A985FFA62
:1051700089F2C043039009985FFA8AF5C043FFB2F1
:105180004FEAD209E2B202906FEA0B00C908DB08CD
:10519000ED08FF084FEAD20ACDF820B0CDE9006053
:1051A000F0434FF0000B0F900EE000BF14F80A2000
:1051B0000F9802400BF1010BBBF1060F0CF1010C33
:1051C00004F80A2000F0548210985FFA8CF410F86A
:1051D0000B6040F2A000C2F20000F20700EBC40432
:1051E00032D1625C079802406254B20732D5E25C69
:1051F0000D980243E254720732D5625D0C98024367
:105200006255320732D5E25D0B980243E255F20651
:1052100032D514F80E200A98024304F80E20B20684
:1052200032D514F808200998024304F808207206C1
:1052300032D514F809200898024304F8092072B204
:10524000B2F1FF3FB2DC32E0625C0E98024362547E
:10525000B207CCD4E25C06980240E2547207CCD488
:10526000625D0598024062553207CCD4E25D049835
:105270000240E255F206CCD414F80E200398024006
:1052800004F80E20B206CCD414F80820029802408C
:1052900004F808207206CCD414F8092001980240C2
:1052A00004F8092072B2B2F1FF3F3FF77FAF14F864
:1052B0000A20009802437DE7DC08012758085E07B2
:1052C00018BF07EBD30404FB00F7FEB2002E0F90CB
:1052D00000F0CE81203A002DD3B200F0E2800D988C
:1052E0000C93182800F2C481012202FA00F041F266
:1052F0000002C0F20112104200F0BA810C9B48F289
:10530000D01203EB4300C0F6000202EB800B48F220
:105310004460C0F6000000EB03100B900D984FF0B6
:10532000000A67464FF0010EA6E000BF0B9800EBA5
:105330000A0540F2A002F8B2CCB2C2F20002E408C0
:1053400002EBC00901F0070819F8040095F90050B4
:105350000EFA08F640EA0602EB0708BF20EA06024A
:10536000481C09F80420C2B2D20800F0070019F85E
:1053700002300EFA00F043EA0004AE0758BF23EAF9
:105380000004881C09F80240C2B2D20800F00700ED
:1053900019F802300EFA00F043EA00046E0758BF15
:1053A00023EA0004C81C09F80240C2B2D20800F087
:1053B000070019F802300EFA00F043EA00042E0745
:1053C00058BF23EA0004081D09F80240C2B2D208FF
:1053D00000F0070019F802300EFA00F043EA00046A
:1053E000EE0658BF23EA0004481D09F80240C2B285
:1053F000D20800F0070019F802300EFA00F043EA74
:105400000004AE0658BF23EA0004881D09F80240D4
:10541000C2B2D20800F0070019F802300EFA00F00C
:1054200043EA00046E0658BF23EA0004C81D09F8C9
:105430000240C2B2D20800F0070019F802300EFA9A
:1054400000F023EA00040137002D48BF43EA0004BE
:1054500009F80240F8B20F9AA0EB0C0090421098A5
:1054600004BF074608310E9E0D980AF1010A013E5D
:105470000BF1010B00F0FC8010280E963FF456AFA4
:105480000C285D463FF455AF0C9848F6344200EBCB
:10549000C000C0F6000202EB800048E706270420A7
:1054A0000F9047F6A87203EB4300C0F6000248F2E3
:1054B00044650B9002EB4008F8B2C0F600050E9070
:1054C0000C9305EB03100D9B00224FF0010E4FF0E3
:1054D00000090A900AE000BF09F101090E985FFA7D
:1054E00089F2824208F1010880F0C280082B45460B
:1054F0001CD00C2B12D0102B0CD0182B40F0B880E5
:105500000C9800EBC00548F63440C0F6000000EBF4
:1055100085050AE00A98851808E000BF0B9848F254
:10552000D014C0F6000404EB8005154440F2A0003E
:1055300095F900205FFA8CF5CFB2C2F20000FF08A7
:1055400000EBC50B01F0070A1BF807500EFA0AF42E
:10555000D00725EA040601F1010008BF45EA040668
:10556000C4B20BF80760E40800F007001BF8045011
:105570000EFA00F025EA0006970758BF45EA000634
:10558000881C0BF80460C4B2E40800F007001BF8A4
:1055900004500EFA00F025EA0006570758BF45EA06
:1055A0000006C81C0BF80460C4B2E40800F0070051
:1055B0001BF804500EFA00F025EA0006170758BF42
:1055C00045EA0006081D0BF80460C4B2E40800F0C8
:1055D00007001BF804500EFA00F025EA0006D70673
:1055E00058BF45EA0006481D0BF80460C4B2E40841
:1055F00000F007001BF804500EFA00F025EA000640
:10560000970658BF45EA0006881D0BF80460C4B22F
:10561000E40800F007001BF804500EFA00F025EA39
:105620000006570658BF45EA0006C81D0BF804607F
:10563000C4B2E40800F007001BF804500EFA00F0B2
:1056400045EA0006002A48BF25EA0006082B0CF1AF
:10565000010C0BF804603FF43FAF109A5FFA8CF036
:105660000F9C801AA04204BF9446083134E700BF63
:1056700011B0BDE8F08F00002DE9F04381B09946EC
:1056800013780D46A3F12001C9B25E291BD8DDF8BD
:10569000208006464FEA5907541EB9F1080F08BF8B
:1056A000062700BFF0B2DAB229464B46CDF800809B
:1056B000FFF7FAFCA3783E44A3F12000C0B25F28B4
:1056C00004F10104EED301B0BDE8F083704700009F
:1056D00040F22050C2F2000003210161416149F60D
:1056E000FC1240F2C851C0F60002C2F20001826111
:1056F000C1614FF480610162002181624162C16237
:10570000026640F28002C2F20002013242661022BA
:10571000826653220167C1664167BFF35F8F0270E3
:105720004522472342708370C370027152222023A6
:1057300042718371C2715422027242728172C172CB
:10574000017341738173C173BFF35F8F70470000B2
:105750002DE9F04F85B040F22059C2F2000999F8C6
:1057600000208A4605465AB30F2D00F28480504629
:10577000FAF760FFEFF311824FF0200181F31188F7
:105780000192D9F82440D9F828108046A1426FEA46
:10579000040077D901EB000BD9F82C0000F00300CE
:1057A00002287BD0012800F01181002840F01181EF
:1057B00008F10400834580F0B1814FF0000BA5E1B2
:1057C0000320C9F81000C9F8140049F6FC1140F292
:1057D000C850C0F60001C2F20000C9F81810C9F89C
:1057E0001C004FF48060C9F820000020C9F8280090
:1057F000C9F82400C9F82C00C9F8601040F28001F3
:10580000C2F200010131C9F864101021C9F8681012
:105810005321C9F87000C9F86C00C9F87400BFF3CF
:105820005F8F89F800104521472289F8011089F817
:10583000022089F8032089F804105221202289F8D7
:10584000051089F8062089F80710542189F80810F6
:1058500089F8091089F80A0089F80B0089F80C000A
:1058600089F80D0089F80E0089F80F00BFF35F8FEB
:105870000F2D7FF67CAF4FF0FF3B584605B0BDE8DB
:10588000F08F00BFD9F82020084400EB020BD9F8B4
:105890002C0000F0030002287FF484AF49F6A01129
:1058A000C0F60001495DFF2004AD02268DF810000E
:1058B0008DF81110D9F82810D9F82000E243A14240
:1058C0001144A0EB040798BF0144B94238BF0F460A
:1058D000D9F81C00B74228BF3746204429463A462B
:1058E000FAF7C7FED9F820003919F61B0C1A3D4407
:1058F00018BF0C46002EBFF35F8FC9F82440D9D1E2
:105900004FF0000BD9F82810D9F82000E243A1424B
:105910001144A0EB040798BF0144B94238BF0F46B9
:10592000D9F81C00474528BF4746204451463A460F
:10593000FAF79FFED9F820003919A8EB07080C1ACE
:10594000BB44BA4418BF0C46B8F1000FBFF35F8FD9
:10595000C9F82440D6D140F28000C2F2000000789D
:1059600049F6A012C0F60002105CFF210DF11207EB
:1059700002258DF812108DF8130000BFD9F82810F9
:10598000D9F82000E243A1421144A0EB040698BFDD
:105990000144B14238BF0E46D9F81C00AE4228BFC0
:1059A0002E46204439463246FAF763FED9F82000E5
:1059B0003119AD1B0C1A374418BF0C46002DBFF32C
:1059C0005F8FC9F82440D9D1A0E000BFBBF1040F1C
:1059D00002D24FF0FF3B99E049F6A011C0F600015A
:1059E000495DFF2003AD4E464FF002098DF80C00D3
:1059F0008DF80D10B16A306AE243A1421144A0EB68
:105A0000040798BF0144B94238BF0F46F0694F45BB
:105A100028BF4F46204429463A46FAF72AFE306A04
:105A20003919A9EB07090C1A3D4418BF0C46B9F106
:105A3000000FBFF35F8F7462DCD1ABF10407B84590
:105A400038BF47464FF0000BB04600BFD8F82810CB
:105A5000D8F82000E243A1421144A0EB040698BF0D
:105A60000144B14238BF0E46D8F81C00BE4228BFE0
:105A70003E46204451463246FAF7FBFDD8F8200056
:105A80003119BF1B0C1AB344B24418BF0C46002F87
:105A9000BFF35F8FC8F82440D8D140F28000C2F233
:105AA0000000007849F6A012C0F60002105CFF2149
:105AB0000DF10E0702258DF80E108DF80F0000BFB6
:105AC000D8F82810D8F82000E243A1421144A0EBF6
:105AD000040698BF0144B14238BF0E46D8F81C00F6
