:020000040800F2
:10000000780600200102000865110008FD100008B4
:1000100061110008090300087911000800000000C0
:100020000000000000000000000000006D1100084A
:100030000D0300080000000069110008711100089C
:100040001B0200081B0200081B0200081B0200081C
:100050001B0200081B0200081B0200081B0200080C
:100060001B0200081B0200081B0200081B020008FC
:100070001B0200081B0200081B0200081B020008EC
:100080001B0200081B0200081B0200081B020008DC
:100090001B0200081B0200081B0200081B020008CC
:1000A0001B0200081B0200081B0200081B020008BC
:1000B0001B0200081B0200081B0200081B020008AC
:1000C0001B0200081B0200081B0200081B0200089C
:1000D0001B0200081B0200081B0200081B0200088C
:1000E0001B0200081B0200081B0200081B0200087C
:1000F0001B0200081B0200081B0200081B0200086C
:100100001B0200081B0200081B0200081B0200085B
:100110001B0200081B0200081B0200081B0200084B
:100120001B0200081B0200081B0200081B0200083B
:100130001B0200081B02000800F002F800F050F853
:1001400014A696E8000CB244B344DA4501D100F09D
:1001500047F8BAE80F000FA696E83000A5EB0405B3
:1001600004EB0607AAEB0704A7F101074FEA1515F0
:100170004FEA3414A4F10104AC4201D300F030F88A
:1001800013F0010F18BFFB1A43F0010300F001F850
:10019000DBE718475C1100007C110000103A24BF17
:1001A00078C878C1FAD8520724BF30C830C144BFDC
:1001B00004680C60704700007047000000230024B2
:1001C00000250026103A28BF78C1FBD8520728BF67
:1001D00030C148BF0B6070471FB51FBD10B510BDC3
:1001E00000F058F81146FFF7F7FF00F0C7FF00F0E6
:1001F00076F803B4FFF7F2FF03BC00F07DF80000CF
:100200000948804709480047FEE7FEE7FEE7FEE7AA
:10021000FEE7FEE7FEE7FEE7FEE7FEE704480549E6
:10022000054A064B704700007511000839010008A7
:100230007800002078060020780200207802002054
:100240004FF0000200B5134694469646203922BF6F
:10025000A0E80C50A0E80C50B1F12001BFF4F7AFBA
:10026000090728BFA0E80C5048BF0CC05DF804EB9C
:10027000890028BF40F8042B08BF704748BF20F80A
:10028000022B11F0804F18BF00F8012B7047704708
:1002900070477047754600F02BF8AE46050069467A
:1002A000534620F00700854618B020B5FFF7B6FF8B
:1002B000BDE820404FF000064FF000074FF0000867
:1002C0004FF0000BAC46ACE8C009ACE8C009ACE8A4
:1002D000C009ACE8C00921F007018D46704710B590
:1002E0000446AFF300802046BDE81040FFF781BF11
:1002F000004870471000002001491820ABBEFEE7FF
:100300002600020070470000FEE700007047000072
:10031000B0B5044600F0DEF8054640F20000C2F237
:1003200000000078611C18BF044400BF00F0D2F840
:10033000401BA042FAD3B0BD2DE9F04F82B00F6848
:10034000002F00F0BD8000F1200240F60003009273
:10035000C4F6000307224FF0000A00264FF0000801
:10036000984208BF022201924AE000BF40F20042D8
:10037000C4F60002019B904208BF01230AF00C055D
:100380000727AF402CEA0707AB403B4308274FEA5B
:100390009802C4F2010740F6000447F82230C5F67F
:1003A000000422684B6842EA0907DD0258BF22EACE
:1003B0000907276062689D0242EA090758BF22EADE
:1003C00009076760D4F88020DD0342EA090758BFB7
:1003D00022EA0907C4F88070D4F884209B0342EA1B
:1003E000090758BF22EA0907C4F884700F6808F1AA
:1003F000010837FA08F206F102060AF1040A5FD092
:10040000012202FA08FE17EA0E09EFD0D1F804C063
:1004100003220CF0030BABF1010302FA06F7012BE8
:100420006FEA070410D88368CF682340B7403B4386
:1004300083604368CCF3001723EA0E0307FA08F73A
:100440003B43436006E000BFBBF1030F02D14FF016
:10045000030B1EE0C3688F682340B7403B43BBF1EA
:10046000020FC36015D16FF00302009B02EA580E21
:1004700053F80EC00AF01C050F220F69AA402CEA9F
:100480000202AF403A4343F80E20D1F804C00CF00A
:10049000030B02680BFA06F322401A431CF4403F98
:1004A0000260A3D0082328F00302C4F2010352F82B
:1004B00003C0B0F1904F7FF459AF00235EE700BF57
:1004C00002B0BDE8F08F00001823002A08BF2823DF
:1004D000C150704740F27000C2F2000000687047DF
:1004E00040F2000040F27001C2F20000C2F20001CE
:1004F00000780A68104408607047000080B5032047
:1005000000F066F800F09CF940F20801C2F2000128
:1005100008600F2000F008F800281CBF012080BDF3
:1005200000F028F8002080BDB0B540F20005C2F20E
:1005300000052978E1B1044600F082F929784FF4EA
:100540007A72B2FBF1F1B0FBF1F000F0C1FD0146AF
:100550000F2C4FF001000AD8002918BFB0BD4FF092
:10056000FF302146002200F007F800206C60B0BD8B
:100570000120B0BD7047000010B54EF60C5CCEF205
:10058000000CDCF80030C3F3022E8EF00704042CBC
:1005900028BF0424BEF103034FF0FF3E0EFA04F41B
:1005A00038BF0023A14399400EFA03F39A43114345
:1005B00000F00F0200F160430901043A03F56443BF
:1005C0006244002848BF02F10C03197010BD0000FE
:1005D0004EF60C51CEF200010A684FF6FF031A40A6
:1005E00060F30A2242F0806040F0FD7008607047BE
:1005F00040F20040C5F60000006800F4C06070479B
:1006000040F20040C5F60000016841F480710160CD
:10061000704700002DE9F04381B0002800F0EA8027
:1006200044F20008C5F600080546D8F800000C465C
:1006300000F00700884215D2D8F8000020F007002B
:100640002043C8F80000FFF745FF0646D8F8000031
:1006500000F00700A04205D0FFF73CFF801B0228F6
:10066000F4D977E0286808278107C5F6000714D574
:10067000A868396821F0F00108433860FFF72AFFC5
:10068000064600BF3868C00306D4FFF723FF801B6F
:100690000228F7D95EE000BF2868810615D5686991
:1006A000D7F8001121F0F0010843C7F80001FFF767
:1006B00011FF0646D7F80001800305D4FFF70AFFB3
:1006C000801B0228F6D945E02868410617D5A8699D
:1006D000D7F8001121F00F0141EA1010C7F800010E
:1006E000FFF7F8FE064600BFD7F80001C00305D4A7
:1006F000FFF7F0FE801B0228F6D92BE0286841079F
:1007000013D5E868396821F4E06108433860FFF7E1
:10071000E1FE06463868800306D4FFF7DBFE801B47
:100720000228F7D916E000BF2868010717D5286905
:10073000396821F4605141EAC0003860FFF7CAFE11
:10074000064600BF3868400308D4FFF7C3FE801B8D
:100750000228F7D9032001B0BDE8F0832868C0075C
:100760001ED1D8F8000000F00700A04224D9D8F824
:10077000000020F007002043C8F80000FFF7AAFEA1
:10078000054600BFD8F8000000F00700A04213D0D3
:10079000FFF7A0FE401B02284FF00300F2D947E00C
:1007A00068684FF0B041096840B3032820D00228A0
:1007B00042D189031ED523E000F054F839683C2269
:1007C00002EA910141F27022C0F60002515840F253
:1007D0000802B0FBF1F140F20400C2F20000006830
:1007E000C2F20002116001B0BDE8F043FFF79CBE09
:1007F000890105D4012001B0BDE8F0838907F9D54E
:10080000396821F0030108433860FFF763FE0646AC
:1008100041F288393868696800F00C00B0EB810F4C
:100820009FD0FFF757FE801B48454FF00300F1D9DA
:1008300001B0BDE8F08300BF4905DBD5E0E700006B
:1008400080B500F00FF80821C5F6000109683C22C8
:1008500002EA910141F27022C0F600025158B0FB49
:10086000F1F080BD0C21C5F6000151F8040C10F028
:100870000C02086805D00C2A16D100F003000128EC
:1008800012D14FF0B040036800681B0706D4000780
:100890001CD4D1F88800C0F3032022E000071BD449
:1008A000D1F8880015E000BF42F20040042AC0F2EF
:1008B000F40022D0082A1FD14FF0B0421268D202B1
:1008C0005CBF44F60000C0F2E81016E04FF0B04004
:1008D0000068002005E000BF4FF0B0400068C0F3A2
:1008E000031041F2B023C0F6000353F82030002A71
:1008F000184618BF002001E00020002351F8042C06
:1009000002F00C020C2A18BF7047086800F00302BE
:1009100042F20040022AC0F2F4000AD0032A09D1B0
:100920004FF0B0421268D2025CBF44F60000C0F241
:10093000E810034608680A68C0F30620C2F30212F2
:10094000584301320968B0FBF2F0012202EB517109
:10095000B0FBF1F070470000002804BF0120704791
:100960002DE9F04F81B040F2900B0446C5F6000B24
:100970005BF8880C5BF8841C227800F00C08900669
:1009800001F0030A26D42078C00759D0B8F1080F27
:1009900052D0B8F10C0F08BFBAF1030F4CD04FF092
:1009A000B0400268D4E9011322F480121A430260B5
:1009B0000268B1F5803F09D0B1F5041F40F03482E0
:1009C00042F400114FF0B0421160126842F48031DD
:1009D000016035E2B8F1000F1ED0B8F10C0F08BF6E
:1009E000BAF1010F18D0216A4FF0B04630680029E3
:1009F00000F0688140F001003060FFF76BFD0546B4
:100A00003068800700F18681FFF764FD401B0228F3
:100A10004FF00300F4D957E3206A002800F0B482B5
:100A20004FF0B041A06A0A68120700F1D380DBF8EA
:100A300004100909CFE000BF6068002800F0A4821C
:100A4000207880072FD5B8F1040F1FD0B8F10C0F14
:100A500008BFBAF1020F19D021694FF0B0463068D3
:100A6000002900F0FF8140F480703060FFF732FD14
:100A7000054600BF306840050CD4FFF72BFD401B36
:100A800002284FF00300F5D91EE300BF20690028BB
:100A900000F07A8260695BF88C1C21F0FE4141EA2B
:100AA00000604BF88C0C2078000729D42078400790
:100AB00052D4E56A002D00F0D482B8F10C0F40F05A
:100AC0003F81012D00F060825BF8840C216B00F007
:100AD00003028A4240F05882616B00F070028A4241
:100AE00040F05282A16B00F4FE42B2EB012F40F0C5
:100AF0004B82616C00F06040884200F0B28243E2B9
:100B0000A069DBF80410002800F0EE80E06901F035
:100B10001002904200F0C28201F00302022A00F0AB
:100B20003382C90700F0B382DBF8040020F0010033
:100B3000CBF80400FFF7CEFC054600BFDBF804004D
:100B4000800740F1A382FFF7C5FC401B11284FF03E
:100B50000300F3D9B8E200BFDBF87003C00511D47D
:100B6000FFF74EFDFFF7B6FC054600BFDBF870034C
:100B7000C00507D4FFF7AEFC401B02284FF003006E
:100B8000F4D9A1E2E068002800F07E81852801D038
:100B9000052805D1DBF8000040F00400CBF8000088
:100BA000FFF798FCDBF80010054641F0010041F228
:100BB0008836CBF8000000BFDBF80000800700F1AA
:100BC0001381FFF787FC401BB0424FF00300F3D9BD
:100BD0007AE200BF096801F0F00144F200068842A1
:100BE00041F2702941F2B021C5F60006C0F60009B5
:100BF000C0F6000128D93C2202EA90000858DBF830
:100C0000781001F00F0159F82110B0FBF1F5FFF752
:100C1000EFFCB0F5007F40F0B7804EF6BF20C0F289
:100C20002110854240F2DC8049F23F30C0F234208E
:100C3000854240F243814AF63F60C0F2EB20854294
:100C400040F2B680002740E14FF0B042136843F015
:100C500008031360136823F0F00303431360626A10
:100C60005BF88C3C23F47F4343EA02224BF88C2C44
:100C70006FF0030202EA90000858DBF8781001F0E8
:100C80000F0159F82110B0FBF1F5FFF7B1FCB0F5F9
:100C9000007F40F08F804EF6BF20C0F221108542C9
:100CA00040F2A08049F23F30C0F23420854240F249
:100CB00051814AF63F60C0F2EB20854240F28E80BF
:100CC00000274EE120F001003060FFF703FC0546ED
:100CD000306880077FF557AEFFF7FCFB401B02280A
:100CE0004FF00300F4D9EFE121F00100CBF804004C
:100CF000FFF7F0FB054600BFDBF8040080077FF537
:100D0000D5AEFFF7E7FB401B11284FF00300F3D9E6
:100D1000DAE100BF4FF0B040016841F00801016026
:100D20000168D4E9092321F0F001194301605BF85F
:100D30008C0C20F47F4040EA02204BF88C0C22E619
:100D40004FF0B046306820F080703060FFF7C2FB93
:100D5000022D05460CD100BF3068800140F148816A
:100D6000FFF7B8FB401B0A284FF00300F4D9ABE1B2
:100D70003068800140F16C81FFF7ACFB401B0A2812
:100D80004FF00300F4D99FE14CF6BF70C0F26A0047
:100D9000854225D945F63F50C0F2C600854240F253
:100DA0008D8046F23F60C0F2031085423FF64AAFA5
:100DB000022084E04CF6BF70C0F26A00854211D96F
:100DC00045F63F50C0F2C600854240F2C38046F26D
:100DD0003F60C0F2031085423FF672AF0220BAE0D6
:100DE00000206CE00020B6E0E06840F004008528B8
:100DF00040F0CE80FFF76EFBDBF80010054641F0B7
:100E0000800041F28836CBF8000000BFDBF800001C
:100E100000053FF54EAEFFF75DFB401BB0424FF0C3
:100E20000300F3D950E100BF22F480304FF0B04608
:100E300030603068002920F40010306000F0168126
:100E4000FFF748FB05464FF0B04600BF306880030F
:100E50003FF5F6ADFFF73EFB401B64284FF0030063
:100E6000F4D931E120F480703060FFF733FB0546A0
:100E7000306840057FF517AEFFF72CFB401B0228BA
:100E80004FF00300F4D91FE1FFF724FBDBF800105B
:100E9000064621F0800041F28837CBF8000000BF01
:100EA000DBF80050FFF716FB2905054640F18A8064
:100EB000A81BB8424FF00300F2D905E1012041F22E
:100EC0006421C0F6000151F82070306820F007005E
:100ED00038433060FFF7FEFA054600BF306800F087
:100EE0000700B84206D0FFF7F5FA401B0228F5D9F3
:100EF0004AE000BF4FF0B040016841F008010160D6
:100F00000168D4E9092321F0F001194301605BF87D
:100F10008C0C20F47F4040EA02204BF88C0CFFF749
:100F2000A1FC5BF8881C3C2202EA910159F80110EF
:100F300040F20802B0FBF1F140F20400C2F20000FE
:100F40000068C2F200021160FFF7EEFA002840F0DC
:100F5000BB8018E5012041F26421C0F6000151F880
:100F60002070306820F0070038433060FFF7B2FA95
:100F7000054600BF306800F00700B842CFD0FFF749
:100F8000A9FA401B0228F5D9012001B0BDE8F08F75
:100F9000FFF7A0FADBF80010054621F0800041F2CF
:100FA0008836CBF8000000BFDBF8000000057FF5B5
:100FB00080ADFFF78FFA401BB0424FF00300F3D92A
:100FC00082E000BFDBF8000041F2883620F001002B
:100FD000CBF80000DBF8000080077FF56AADFFF773
:100FE00079FA401BB0424FF00300F3D96CE000BF28
:100FF0005BF8840C48F28C01C1F2C11104F1300796
:1010000008408ECFD4E910650843104340EA03201E
:101010003843304328434BF8840C4FF0B0452868E0
:1010200040F0807028605BF8840C40F080504BF8F2
:10103000840CFFF74FFA04462868800111D4FFF7AB
:1010400049FA001B0A284FF00300F5D93CE000BF25
:101050005BF8840C4FF6FC71CEF6FE6108404BF84D
:10106000840C002001B0BDE8F08F00BFFFF732FA1A
:10107000054600BF306880037FF5E2ACFFF72AFA2F
:10108000401B64284FF00300F4D91DE0E069DBF851
:10109000041021F010010843CBF80400DBF8040031
:1010A00040F00100CBF80400FFF714FA054600BF3A
:1010B000DBF8040080073FF5F9ACFFF70BFA401BA3
:1010C00011284FF00300F3D901B0BDE8F08F000004
:1010D000411E0020B0EB116F1CBF012070474EF283
:1010E0001002CEF2000251604EF62351CEF2000102
:1010F000F0230B700721906011607047FEE700003D
:10110000B0B586B000244C200494CDE90244CDE96A
:101110000044C5F600000168002241F001010160B1
:101120000168032501F0010105910599016841F06D
:10113000040101600068032100F004000590059897
:101140004FF09040FFF7C0F90120CDE90104694656
:101150004FF0904000950394FFF7EEF806B0B0BD55
:10116000FEE70000FEE70000704700007047000047
:10117000FFF7B6B970470000FEE700009AB0FFF72E
:10118000BDF908AC20464821FFF75AF8002540F287
:1011900000400795CDE90555CDE90355CDE9015549
:1011A000C5F600000168012262F34A21016000686F
:1011B000032600F4C060009000984FF48030CDE921
:1011C00009050220139010201590062016904FF468
:1011D000003017904FF0005019904FF000701890A9
:1011E000204608921496FFF7B7FB28B1EFF3108062
:1011F00072B600BFFEE700BF4F20CDE9010601A88F
:101200000221CDE9035505950795FFF703FA28B1AB
:10121000EFF3108072B600BFFEE700BFFFF770FF6C
:101220004FF0904001210122FFF74EF94FF090401E
:1012300002210022FFF748F94FF4FA70FFF768F82F
:101240004FF0904001210022FFF73EF94FF090400F
:1012500002210122FFF738F94FF4FA70FFF758F82E
:10126000DEE70000000000000100000002000000B6
:101270000100000003000000050000000100000064
:1012800001000000060000000A000000200000002D
:101290000200000004000000080000001000000030
:1012A000400000008000000000010000000200007B
:1012B000A0860100400D0300801A060000350C00D6
:1012C00040420F0080841E0000093D0000127A0099
:1012D0000024F40000366E010048E801006CDC02D6
:1012E00000000000000000000000000000000000FE
:1012F0001013000800000020100000009C010008EE
:10130000201300081000002068060000BC0100083F
:10131000010000001000000000093D000000000076
:0400000508000139B5
:00000001FF
