:020000040800F2
:10000000300B0020010200089D1200083512000884
:100010009912000835040008812100080000000042
:100020000000000000000000000000007521000832
:100030003904000800000000A1120008792100081E
:100040001B0200081B0200081B0200081B0200081C
:100050001B0200081B0200081B0200081B0200080C
:100060001B0200081B0200081B0200081B020008FC
:100070001B0200081B0200081B0200081B020008EC
:100080001B0200081B0200081B0200081B020008DC
:100090001B0200081B0200081B0200081B020008CC
:1000A0001B0200081B0200081B0200081B020008BC
:1000B0001B0200081B0200081B0200081B020008AC
:1000C0001B0200081B0200081B0200081B0200089C
:1000D0001B0200081B0200081B0200081B0200088C
:1000E0001B0200081B0200081B0200081B0200087C
:1000F0001B0200081B0200081B0200081B0200086C
:100100001B0200081B0200081B0200081B0200085B
:100110001B0200081B0200081B0200081B0200084B
:100120001B0200081B0200081B0200081B0200083B
:100130001B0200081B02000800F002F800F050F853
:1001400014A696E8000CB244B344DA4501D100F09D
:1001500047F8BAE80F000FA696E83000A5EB0405B3
:1001600004EB0607AAEB0704A7F101074FEA1515F0
:100170004FEA3414A4F10104AC4201D300F030F88A
:1001800013F0010F18BFFB1A43F0010300F001F850
:10019000DBE71847D0230000F0230000103A24BF0B
:1001A00078C878C1FAD8520724BF30C830C144BFDC
:1001B00004680C60704700007047000000230024B2
:1001C00000250026103A28BF78C1FBD8520728BF67
:1001D00030C148BF0B6070471FB51FBD10B510BDC3
:1001E00000F0EEF81146FFF7F7FF02F0C7F800F055
:1001F0000CF903B4FFF7F2FF03BC00F013F90000A1
:100200000948804709480047FEE7FEE7FEE7FEE7AA
:10021000FEE7FEE7FEE7FEE7FEE7FEE704480549E6
:10022000054A064B704700007D210008390100088F
:1002300030050020300B0020300700203007002060
:1002400010B5431C02E010F8011B71B18107FAD10F
:100250004FF0013202C88C1A8C4314EAC211F9D053
:10026000C01A0A0603D0C01E10BDC01A10BD0A0471
:1002700001D0801E10BD0902FCD0401E10BD032A13
:1002800040F2308010F0030C00F0158011F8013BB3
:10029000BCF1020F624498BF11F801CB00F8013B9A
:1002A00038BF11F8013BA2F1040298BF00F801CB5E
:1002B00038BF00F8013B11F0030300F04F80083A0B
:1002C000C0F0088051F8043B083A51F804CBA0E88C
:1002D0000810F5E7121D5CBF51F8043B40F8043BE1
:1002E000AFF30080D20724BF11F8013B11F801CB16
:1002F00048BF11F8012B24BF00F8013B00F801CBE7
:1003000048BF00F8012B70474FF0000200B51346BC
:1003100094469646203922BFA0E80C50A0E80C5025
:10032000B1F12001BFF4F7AF090728BFA0E80C50D6
:1003300048BF0CC05DF804EB890028BF40F8042BCF
:1003400008BF704748BF20F8022B11F0804F18BF3C
:1003500000F8012B704770477047704710B5203A7E
:10036000C0F00B80B1E81850A0E81850B1E8185060
:10037000A0E81850203ABFF4F5AF5FEA027C24BF32
:10038000B1E81850A0E8185044BF18C918C0BDE81B
:1003900010405FEA827C24BF51F8043B40F8043BE4
:1003A00008BF7047D20728BF31F8023B48BF11F899
:1003B000012B28BF20F8023B48BF00F8012B7047F3
:1003C000754600F02BF8AE4605006946534620F00E
:1003D0000700854618B020B5FFF720FFBDE8204094
:1003E0004FF000064FF000074FF000084FF0000BF1
:1003F000AC46ACE8C009ACE8C009ACE8C009ACE860
:10040000C00921F007018D46704710B50446AFF3CF
:1004100000802046BDE81040FFF7EBBE0048704763
:100420001000002001491820ABBEFEE726000200A4
:1004300070470000FEE7000070470000B0B50446BA
:1004400000F0E4F8054640F20000C2F20000007837
:10045000611C18BF044400BF00F0D8F8401BA04244
:10046000FAD3B0BD2DE9F04F82B00F68002F00F035
:10047000BD8000F1200240F600030092C4F60003A4
:1004800007224FF0000A00264FF00008984208BFEC
:10049000022201924AE000BF40F20042C4F600028C
:1004A000019B904208BF01230AF00C050727AF40CB
:1004B0002CEA0707AB403B4308274FEA9802C4F2F7
:1004C000010740F6000447F82230C5F60004226810
:1004D0004B6842EA0907DD0258BF22EA0907276094
:1004E00062689D0242EA090758BF22EA090767606D
:1004F000D4F88020DD0342EA090758BF22EA090741
:10050000C4F88070D4F884209B0342EA090758BFDE
:1005100022EA0907C4F884700F6808F1010837FA65
:1005200008F206F102060AF1040A5FD0012202FA7B
:1005300008FE17EA0E09EFD0D1F804C003220CF030
:10054000030BABF1010302FA06F7012B6FEA070474
:1005500010D88368CF682340B7403B43836043682B
:10056000CCF3001723EA0E0307FA08F73B43436076
:1005700006E000BFBBF1030F02D14FF0030B1EE0FA
:10058000C3688F682340B7403B43BBF1020FC36091
:1005900015D16FF00302009B02EA580E53F80EC00B
:1005A0000AF01C050F220F69AA402CEA0202AF4094
:1005B0003A4343F80E20D1F804C00CF0030B026854
:1005C0000BFA06F322401A431CF4403F0260A3D00A
:1005D000082328F00302C4F2010352F803C0B0F16B
:1005E000904F7FF459AF00235EE700BF02B0BDE833
:1005F000F08F00000069084018BF0120704700001C
:100600001823002A08BF2823C150704740F22C50FD
:10061000C2F200000068704740F2000040F22C5126
:10062000C2F20000C2F2000100780A6810440860BB
:100630007047000080B5032000F066F800F09CF9D8
:1006400040F20801C2F2000108600F2000F008F833
:1006500000281CBF012080BD00F028F8002080BDCC
:10066000B0B540F20005C2F200052978E1B10446B8
:1006700000F082F929784FF47A72B2FBF1F1B0FB05
:10068000F1F000F0C1FD01460F2C4FF001000AD837
:10069000002918BFB0BD4FF0FF302146002200F006
:1006A00007F800206C60B0BD0120B0BD70470000AD
:1006B00010B54EF60C5CCEF2000CDCF80030C3F343
:1006C000022E8EF00704042C28BF0424BEF103037D
:1006D0004FF0FF3E0EFA04F438BF0023A1439940C7
:1006E0000EFA03F39A43114300F00F0200F1604346
:1006F0000901043A03F564436244002848BF02F14B
:100700000C03197010BD00004EF60C51CEF2000122
:100710000A684FF6FF031A4060F30A2242F0806035
:1007200040F0FD700860704740F20040C5F60000E0
:10073000006800F4C060704740F20040C5F6000059
:10074000016841F480710160704700002DE9F043B9
:1007500081B0002800F0EA8044F20008C5F60008E5
:100760000546D8F800000C4600F00700884215D274
:10077000D8F8000020F007002043C8F80000FFF779
:1007800045FF0646D8F8000000F00700A04205D05B
:10079000FFF73CFF801B0228F4D977E02868082780
:1007A0008107C5F6000714D5A868396821F0F00163
:1007B00008433860FFF72AFF064600BF3868C003C9
:1007C00006D4FFF723FF801B0228F7D95EE000BFA5
:1007D0002868810615D56869D7F8001121F0F00165
:1007E0000843C7F80001FFF711FF0646D7F80001DC
:1007F000800305D4FFF70AFF801B0228F6D945E0E5
:100800002868410617D5A869D7F8001121F00F0113
:1008100041EA1010C7F80001FFF7F8FE064600BFD6
:10082000D7F80001C00305D4FFF7F0FE801B0228B3
:10083000F6D92BE02868410713D5E868396821F418
:10084000E06108433860FFF7E1FE06463868800340
:1008500006D4FFF7DBFE801B0228F7D916E000BFA5
:100860002868010717D52869396821F4605141EAE1
:10087000C0003860FFF7CAFE064600BF3868400374
:1008800008D4FFF7C3FE801B0228F7D9032001B06C
:10089000BDE8F0832868C0071ED1D8F8000000F03A
:1008A0000700A04224D9D8F8000020F00700204318
:1008B000C8F80000FFF7AAFE054600BFD8F8000000
:1008C00000F00700A04213D0FFF7A0FE401B022853
:1008D0004FF00300F2D947E068684FF0B041096873
:1008E00040B3032820D0022842D189031ED523E03B
:1008F00000F054F839683C2202EA910142F2C84201
:10090000C0F60002515840F20802B0FBF1F140F28B
:100910000400C2F200000068C2F20002116001B0DF
:10092000BDE8F043FFF79CBE890105D4012001B06A
:10093000BDE8F0838907F9D5396821F00301084340
:100940003860FFF763FE064641F288393868696807
:1009500000F00C00B0EB810F9FD0FFF757FE801B1B
:1009600048454FF00300F1D901B0BDE8F08300BF66
:100970004905DBD5E0E7000080B500F00FF808215D
:10098000C5F6000109683C2202EA910142F2C84220
:10099000C0F600025158B0FBF1F080BD0C21C5F645
:1009A000000151F8040C10F00C02086805D00C2A64
:1009B00016D100F00300012812D14FF0B0400368B7
:1009C00000681B0706D400071CD4D1F88800C0F3C8
:1009D000032022E000071BD4D1F8880015E000BFF7
:1009E00042F20040042AC0F2F40022D0082A1FD1AB
:1009F0004FF0B0421268D2025CBF44F60000C0F271
:100A0000E81016E04FF0B0400068002005E000BF9D
:100A10004FF0B0400068C0F3031042F20853C0F634
:100A2000000353F82030002A184618BF002001E0C8
:100A30000020002351F8042C02F00C020C2A18BFED
:100A40007047086800F0030242F20040022AC0F238
:100A5000F4000AD0032A09D14FF0B0421268D20242
:100A60005CBF44F60000C0F2E810034608680A685C
:100A7000C0F30620C2F30212584301320968B0FBEA
:100A8000F2F0012202EB5171B0FBF1F0704700006F
:100A9000002804BF012070472DE9F04F81B040F2DB
:100AA000900B0446C5F6000B5BF8880C5BF8841CC1
:100AB000227800F00C08900601F0030A26D4207872
:100AC000C00759D0B8F1080F52D0B8F10C0F08BFC9
:100AD000BAF1030F4CD04FF0B0400268D4E90113D3
:100AE00022F480121A4302600268B1F5803F09D0F7
:100AF000B1F5041F40F0348242F400114FF0B042CF
:100B00001160126842F48031016035E2B8F1000FE3
:100B10001ED0B8F10C0F08BFBAF1010F18D0216A2E
:100B20004FF0B0463068002900F0688140F00100C5
:100B30003060FFF76BFD05463068800700F1868165
:100B4000FFF764FD401B02284FF00300F4D957E380
:100B5000206A002800F0B4824FF0B041A06A0A6811
:100B6000120700F1D380DBF804100909CFE000BFC1
:100B70006068002800F0A482207880072FD5B8F1A3
:100B8000040F1FD0B8F10C0F08BFBAF1020F19D033
:100B900021694FF0B0463068002900F0FF8140F431
:100BA00080703060FFF732FD054600BF30684005B9
:100BB0000CD4FFF72BFD401B02284FF00300F5D9A2
:100BC0001EE300BF2069002800F07A8260695BF8AC
:100BD0008C1C21F0FE4141EA00604BF88C0C20781F
:100BE000000729D42078400752D4E56A002D00F090
:100BF000D482B8F10C0F40F03F81012D00F06082EB
:100C00005BF8840C216B00F003028A4240F05882AA
:100C1000616B00F070028A4240F05282A16B00F4D6
:100C2000FE42B2EB012F40F04B82616C00F060405D
:100C3000884200F0B28243E2A069DBF80410002889
:100C400000F0EE80E06901F01002904200F0C282F4
:100C500001F00302022A00F03382C90700F0B382D8
:100C6000DBF8040020F00100CBF80400FFF7CEFC15
:100C7000054600BFDBF80400800740F1A382FFF7C0
:100C8000C5FC401B11284FF00300F3D9B8E200BFA8
:100C9000DBF87003C00511D4FFF74EFDFFF7B6FC7B
:100CA000054600BFDBF87003C00507D4FFF7AEFCB4
:100CB000401B02284FF00300F4D9A1E2E0680028AD
:100CC00000F07E81852801D0052805D1DBF80000E1
:100CD00040F00400CBF80000FFF798FCDBF80010B0
:100CE000054641F0010041F28836CBF8000000BF14
:100CF000DBF80000800700F11381FFF787FC401B41
:100D0000B0424FF00300F3D97AE200BF096801F066
:100D1000F00144F20006884242F2C84942F208510A
:100D2000C5F60006C0F60009C0F6000128D93C222D
:100D300002EA90000858DBF8781001F00F0159F82A
:100D40002110B0FBF1F5FFF7EFFCB0F5007F40F0AC
:100D5000B7804EF6BF20C0F22110854240F2DC8001
:100D600049F23F30C0F23420854240F243814AF6D6
:100D70003F60C0F2EB20854240F2B680002740E1A0
:100D80004FF0B042136843F008031360136823F078
:100D9000F00303431360626A5BF88C3C23F47F43E7
:100DA00043EA02224BF88C2C6FF0030202EA900017
:100DB0000858DBF8781001F00F0159F82110B0FB4A
:100DC000F1F5FFF7B1FCB0F5007F40F08F804EF6F3
:100DD000BF20C0F22110854240F2A08049F23F308E
:100DE000C0F23420854240F251814AF63F60C0F2A1
:100DF000EB20854240F28E8000274EE120F001007A
:100E00003060FFF703FC0546306880077FF557AE7A
:100E1000FFF7FCFB401B02284FF00300F4D9EFE181
:100E200021F00100CBF80400FFF7F0FB054600BFFE
:100E3000DBF8040080077FF5D5AEFFF7E7FB401B2A
:100E400011284FF00300F3D9DAE100BF4FF0B040B2
:100E5000016841F0080101600168D4E9092321F02B
:100E6000F001194301605BF88C0C20F47F4040EAEC
:100E700002204BF88C0C22E64FF0B046306820F090
:100E800080703060FFF7C2FB022D05460CD100BF19
:100E90003068800140F14881FFF7B8FB401B0A2809
:100EA0004FF00300F4D9ABE13068800140F16C8170
:100EB000FFF7ACFB401B0A284FF00300F4D99FE179
:100EC0004CF6BF70C0F26A00854225D945F63F5006
:100ED000C0F2C600854240F28D8046F23F60C0F20B
:100EE000031085423FF64AAF022084E04CF6BF7003
:100EF000C0F26A00854211D945F63F50C0F2C600E3
:100F0000854240F2C38046F23F60C0F20310854242
:100F10003FF672AF0220BAE000206CE00020B6E09D
:100F2000E06840F00400852840F0CE80FFF76EFBBB
:100F3000DBF80010054641F0800041F28836CBF81E
:100F4000000000BFDBF8000000053FF54EAEFFF7E4
:100F50005DFB401BB0424FF00300F3D950E100BFEE
:100F600022F480304FF0B04630603068002920F421
:100F70000010306000F01681FFF748FB05464FF087
:100F8000B04600BF306880033FF5F6ADFFF73EFB8B
:100F9000401B64284FF00300F4D931E120F4807045
:100FA0003060FFF733FB0546306840057FF517AE2C
:100FB000FFF72CFB401B02284FF00300F4D91FE180
:100FC000FFF724FBDBF80010064621F0800041F219
:100FD0008837CBF8000000BFDBF80050FFF716FBA6
:100FE0002905054640F18A80A81BB8424FF003004E
:100FF000F2D905E1012042F2BC41C0F6000151F8EE
:101000002070306820F0070038433060FFF7FEFAA8
:10101000054600BF306800F00700B84206D0FFF771
:10102000F5FA401B0228F5D94AE000BF4FF0B04066
:10103000016841F0080101600168D4E9092321F049
:10104000F001194301605BF88C0C20F47F4040EA0A
:1010500002204BF88C0CFFF7A1FC5BF8881C3C22AB
:1010600002EA910159F8011040F20802B0FBF1F1D7
:1010700040F20400C2F200000068C2F200021160F7
:10108000FFF7EEFA002840F0BB8018E5012042F29D
:10109000BC41C0F6000151F82070306820F0070014
:1010A00038433060FFF7B2FA054600BF306800F001
:1010B0000700B842CFD0FFF7A9FA401B0228F5D9A4
:1010C000012001B0BDE8F08FFFF7A0FADBF80010B7
:1010D000054621F0800041F28836CBF8000000BFC1
:1010E000DBF8000000057FF580ADFFF78FFA401BAD
:1010F000B0424FF00300F3D982E000BFDBF80000FC
:1011000041F2883620F00100CBF80000DBF8000047
:1011100080077FF56AADFFF779FA401BB0424FF0C8
:101120000300F3D96CE000BF5BF8840C48F28C013B
:10113000C1F2C11104F1300708408ECFD4E9106527
:101140000843104340EA03203843304328434BF818
:10115000840C4FF0B045286840F0807028605BF840
:10116000840C40F080504BF8840CFFF74FFA044693
:101170002868800111D4FFF749FA001B0A284FF0B4
:101180000300F5D93CE000BF5BF8840C4FF6FC711E
:10119000CEF6FE6108404BF8840C002001B0BDE89B
:1011A000F08F00BFFFF732FA054600BF30688003BA
:1011B0007FF5E2ACFFF72AFA401B64284FF00300EA
:1011C000F4D91DE0E069DBF8041021F010010843B8
:1011D000CBF80400DBF8040040F00100CBF8040079
:1011E000FFF714FA054600BFDBF8040080073FF55F
:1011F000F9ACFFF70BFA401B11284FF00300F3D9AD
:1012000001B0BDE8F08F0000411E0020B0EB116F6F
:101210001CBF012070474EF21002CEF20002516056
:101220004EF62351CEF20001F0230B70072190609F
:1012300011607047FEE70000B0B586B000244C2076
:101240000494CDE90244CDE90044C5F600000168EC
:10125000002241F0010101600168032501F0010154
:1012600005910599016841F00401016000680321BE
:1012700000F00400059005984FF09040FFF7C0F98A
:101280000120CDE9010469464FF090400095039498
:10129000FFF7E8F806B0B0BDFEE70000FEE700008B
:1012A0007047000040F28400C2F200000321016197
:1012B000416142F2585240F22C11C0F60002C2F2D3
:1012C00000018261C1614FF480610162002181628D
:1012D0004162C162026640F27002C2F20002013253
:1012E00042661022826653220167C1664167BFF3DE
:1012F0005F8F02704522472342708370C370027172
:101300005222202342718371C271542202724272AE
:101310008172C172017341738173C173BFF35F8FB7
:10132000704700002DE9F04F85B040F28409C2F209
:10133000000999F800208A4605465AB30F2D00F29D
:1013400084805046FEF77CFFEFF311824FF02001BE
:1013500081F311880192D9F82440D9F828108046E9
:10136000A1426FEA040077D901EB000BD9F82C00F9
:1013700000F0030002287BD0012800F01181002832
:1013800040F0118108F10400834580F0B1814FF0F5
:10139000000BA5E10320C9F81000C9F8140042F2BF
:1013A000585140F22C10C0F60001C2F20000C9F8FA
:1013B0001810C9F81C004FF48060C9F82000002004
:1013C000C9F82800C9F82400C9F82C00C9F8601031
:1013D00040F27001C2F200010131C9F8641010211D
:1013E000C9F868105321C9F87000C9F86C00C9F831
:1013F0007400BFF35F8F89F800104521472289F8F8
:10140000011089F8022089F8032089F8041052217C
:10141000202289F8051089F8062089F80710542140
:1014200089F8081089F8091089F80A0089F80B0072
:1014300089F80C0089F80D0089F80E0089F80F0072
:10144000BFF35F8F0F2D7FF67CAF4FF0FF3B584609
:1014500005B0BDE8F08F00BFD9F82020084400EBAC
:10146000020BD9F82C0000F0030002287FF484AFAF
:1014700042F24851C0F60001495DFF2004AD02264A
:101480008DF810008DF81110D9F82810D9F8200027
:10149000E243A1421144A0EB040798BF0144B942C2
:1014A00038BF0F46D9F81C00B74228BF3746204442
:1014B00029463A46FEF7E3FED9F820003919F61B13
:1014C0000C1A3D4418BF0C46002EBFF35F8FC9F8BD
:1014D0002440D9D14FF0000BD9F82810D9F82000BA
:1014E000E243A1421144A0EB040798BF0144B94272
:1014F00038BF0F46D9F81C00474528BF474620444F
:1015000051463A46FEF7BBFED9F820003919A8EB40
:1015100007080C1ABB44BA4418BF0C46B8F1000FB8
:10152000BFF35F8FC9F82440D6D140F27000C2F2F9
:101530000000007842F24852C0F60002105CFF2121
:101540000DF1120702258DF812108DF8130000BF5F
:10155000D9F82810D9F82000E243A1421144A0EBA9
:10156000040698BF0144B14238BF0E46D9F81C00AA
:10157000AE4228BF2E46204439463246FEF77FFE53
:10158000D9F820003119AD1B0C1A374418BF0C468E
:10159000002DBFF35F8FC9F82440D9D1A0E000BF70
:1015A000BBF1040F02D24FF0FF3B99E042F24851E9
:1015B000C0F60001495DFF2003AD4E464FF0020921
:1015C0008DF80C008DF80D10B16A306AE243A1422B
:1015D0001144A0EB040798BF0144B94238BF0F463D
:1015E000F0694F4528BF4F46204429463A46FEF74A
:1015F00046FE306A3919A9EB07090C1A3D4418BF99
:101600000C46B9F1000FBFF35F8F7462DCD1ABF110
:101610000407B84538BF47464FF0000BB04600BF3F
:10162000D8F82810D8F82000E243A1421144A0EBDA
:10163000040698BF0144B14238BF0E46D8F81C00DA
:10164000BE4228BF3E46204451463246FEF717FEB2
:10165000D8F820003119BF1B0C1AB344B24418BF8C
:101660000C46002FBFF35F8FC8F82440D8D140F25A
:101670007000C2F20000007842F24852C0F6000248
:10168000105CFF210DF10E0702258DF80E108DF86C
:101690000F0000BFD8F82810D8F82000E243A1427C
:1016A0001144A0EB040698BF0144B14238BF0E4676
:1016B000D8F81C00AE4228BF2E4620443946324698
:1016C000FEF7DDFDD8F820003119AD1B0C1A3744A8
:1016D00018BF0C46002DBFF35F8FC8F82440D9D146
:1016E000019880F31188584605B0BDE8F08F00BF1F
:1016F00042F24856C0F60006715DFF2002AD4FF081
:10170000020B8DF808008DF8091022E0D9F82000AE
:10171000E24311440144071BB94238BF0F46D9F8D0
:101720001C005F4528BF5F46204429463A46FEF725
:10173000A6FDD9F820003919ABEB070B0C1A3D4474
:1017400018BF0C46BBF1000FBFF35F8FC9F82440F0
:1017500008D0D9F82810A142D8D9E243D9F82000FE
:101760001144D8E74FF0000B24E000BFD9F8200067
:10177000E24311440144071BB94238BF0F46D9F870
:101780001C00474528BF4746204451463A46FEF7CD
:1017900076FDD9F820003919A8EB07080C1ABB44CC
:1017A000BA4418BF0C46B8F1000FBFF35F8FC9F8F9
:1017B000244009D0D9F82810A142D7D9E243D9F85A
:1017C00020001144D7E700BF40F27000C2F20000D1
:1017D0000078FF21305C0DF10A0702258DF80A1010
:1017E0008DF80B0022E000BFD9F82000E24311443D
:1017F0000144061BB14238BF0E46D9F81C00AE4268
:1018000028BF2E46204439463246FEF738FDD9F827
:1018100020003119AD1B0C1A374418BF0C46002D9F
:10182000BFF35F8FC9F824403FF45AAFD9F82810AE
:10183000A142D9D9E243D9F820001144D9E70000E8
:1018400010B540F28403C2F2000393F800E08C4626
:10185000BEF1000F41D103211961596142F2585E76
:1018600040F22C11C0F6000EC2F20001C3F818E0DD
:10187000D9614FF48061196240F27001C2F2000137
:10188000002401319C625C62DC62C3F860E059664E
:101890001021996653211C67DC665C67BFF35F8F7C
:1018A00019704FF0450E472183F801E09970D97007
:1018B00083F804E04FF0520E202183F805E099717F
:1018C000542183F807E0197259729C72DC721C7300
:1018D0005C739C73DC73BFF35F8FEFF311844FF085
:1018E000200181F31188614600F004F884F3118827
:1018F00010BD00002DE9F04381B0144640F284028F
:1019000000EB4000C2F2000202EBC002D06A89463E
:10191000022802F118081DD001280FD048B9D8F8C4
:101920000C50D8F81000A8426AD9E9430844A042F4
:101930006DD20026304601B0BDE8F083D8F80C50D7
:10194000D8F81010A94235D9EA43D8F80800114454
:1019500035E000BFD8F80C50002600BFD8F81010B2
:10196000D8F80800EA43A9421144A0EB050798BF44
:101970000144B94238BF0F46D8F80400A74228BF37
:101980002746284449463A46FEF779FCD8F808002D
:101990007919E41B0D1A3E44B94418BF0D46002CBA
:1019A000BFF35F8FC8F80C50D8D1304601B0BDE806
:1019B000F08300BFD8F80800EA4311440144A14273
:1019C00038BF0C46461BD8F80400B442284407D25E
:1019D00049462246FEF753FCBFF35F8F601923E0B0
:1019E00049463246FEF74BFCA71BD8F8040009EB2A
:1019F00006013A46FEF743FCBFF35F8F2AE000BFC3
:101A0000D8F80810EA4310440844A04291D3D8E91A
:101A100001014E1BB44228440ED249462246FEF72D
:101A20002EFC2819BFF35F8FC8F80C0026463046FD
:101A300001B0BDE8F08300BF49463246FEF71FFC07
:101A4000A71BD8F8040009EB06013A46FEF717FC7D
:101A5000BFF35F8FC8F80C702646304601B0BDE872
:101A6000F083000070B5054608460C46FEF7E8FB1B
:101A700040F28401C2F200010A78002A02463FD1F6
:101A800003200861486142F2585340F22C10C0F61E
:101A90000003C2F200008B61C8614FF480600862ED
:101AA000002088624862C8620B6640F27003C2F28E
:101AB000000301334B6610238B6653230867C86607
:101AC0004867BFF35F8F0B704FF0450C472381F8D9
:101AD00001C08B70CB7081F804C04FF0520C2023F2
:101AE00081F805C08B71542381F807C00B724B72CB
:101AF0008872C872087348738873C873BFF35F8FA6
:101B0000EFF311864FF0200181F31188284621461A
:101B1000FFF7F0FE86F3118870BD000082B080B53B
:101B200082B0CDE9042304AA019201AA00F006F8CC
:101B300002B0BDE8804002B0704700002DE9F04FD0
:101B40009BB0904606AA16924022002504901A9057
:101B50000DF1580900208A461792CDE918550FE07B
:101B6000011DC8F80010016848463B46CDE9006BEE
:101B700000F008FB19985146B0F1FF3F40F3F682A0
:101B80001AF8013B252B1BD0002B00F0DF82DDE98A
:101B90001720411C914207D8169A13541998179A86
:101BA00001301990084618919042E3D116991A987D
:101BB000FFF746FE1899884240F0C2821895D9E78F
:101BC00001F1040A4FF0000B1AF8031CA1F12303E2
:101BD0000D2B00F25F800222DFE803F0085C5C5C02
:101BE0005C5C5C5C0C5C0A5C5C0D00BF082202E083
:101BF000012200E004221AF8021C4BEA020BA1F1B8
:101C000023030D2B00F28C800222DFE803F007890A
:101C10008989898989890B890989890C082202E0C7
:101C2000012200E004221AF8011C4BEA020BA1F188
:101C300023030D2B00F280800222DFE803F0077DF2
:101C40007D7D7D7D7D7D0B7D097D7D0C082202E003
:101C5000012200E004229AF800104BEA020BA1F1E5
:101C600023030D2B5ED80222DFE803F00E5C5C5CE0
:101C70005C5C5C5C105C125C5C0800BF4BEA020BB5
:101C80000AF1040AA0E700BF0822F7E70422F5E7FB
:101C90000122F3E7AAF1030AA1F13A0212F10A0FB5
:101CA00045D30AF1020A002606EB860201EB420246
:101CB0001AF8011CA2F13006A1F13A0313F10A0F40
:101CC00042D306EB860201EB42029AF80010A2F121
:101CD0003006A1F13A0313F10A0F37D306EB86025F
:101CE00001EB42029AF80110A2F13006A1F13A0389
:101CF00013F10A0F76D306EB860201EB42029AF843
:101D00000210A2F13006A1F13A0212F10A0F0AF113
:101D1000040AC9D2AAF1020A2E2919D00AE000BF8A
:101D2000AAF1020AA1F13A0212F10A0FB9D2002671
:101D30002E290DD0002761E0AAF1010AA1F13A0293
:101D400012F10A0FF3D3ACE7AAF1010A2E29F1D15F
:101D5000524612F8011FA1F13A0313F10A0F03D200
:101D6000002792464AE000BF0AF1020A002700BF9E
:101D70009AF8002007EB870301EB4301A2F13A0335
:101D800013F10A0FA1F1300738D39AF8011007EBCD
:101D9000870302EB4302A1F13A0313F10A0FA2F108
:101DA000300725D39AF8022007EB870301EB4301A4
:101DB000A2F13A0313F10A0FA1F130071CD307EB8C
:101DC000870102EB41029AF80310A2F13007A1F15A
:101DD0003A0212F10B0F0AF1040AC9D8AAF1010A5A
:101DE0000CE000BF0AF1010A2E29B1D0A2E700BF22
:101DF0000AF1010A02E000BF0AF1020A9AF8001093
:101E000001F0FB02682A43D19AF8011001F0FB02AD
:101E1000682A40F04F809AF8021001F0FB02682A0D
:101E200040F050809AF803100AF1040A01F0FB0216
:101E3000682AE3D0A1F15802202A2FD8DFE802F067
:101E40001412121212121212121212184E1212122E
:101E500012121212121212127E12128C124A121244
:101E6000140000BF86E600BFD8F80000102277E615
:101E7000DDE91720D8F80030411C1F1D9142C8F839
:101E800000703FF691AE1A68169B1A5486E600BFA2
:101E90000AF1010AA1F15802202ACFD925297FF49D
:101EA00069AEDDE91720411C91423FF67DAE169ADE
:101EB000252372E60AF1020AA1F15802202ABDD9AF
:101EC000ECE700BF0AF1030AA1F15802202A7FF6CD
:101ED000B5AFE3E7D8F800000A2241E6D8F80010D1
:101EE00041F2597C0A1DC8F80020096848F29F6435
:101EF0000029C1F100028E4648BF11460A2942F26C
:101F00001075CDF2B71CC0F201040392CDF8148015
:101F10004EDB4FF0020800BF642953D3B1F57A7F3E
:101F20004AD3A9424CD3A1FB0C23A1424FEA53311F
:101F300008F10408F0D8A8F1010843E0D8F800003F
:101F40001022011DC8F80010016848460823082720
:101F5000CDE900750CE600BFD8F800100A1DC8F8DE
:101F600000200C6808E000BF19981895B0F1FF3FF9
:101F700004F101047FF7FEAD2778002F3FF4FAAD9E
:101F8000DDE917214B1C934207D81698475419983E
:101F9000179A01301946189319909142E6D1169973
:101FA0001A98FFF74DFC18998842DDD0C8E000BFB1
:101FB0004FF0010806E000BF08F1010802E000BF91
:101FC00008F10208B84598BFB846744676B10021BA
:101FD000002C48BF01210BF0040241EA9201A6EB5C
:101FE00001095FEA8B7506D42EE000BF4FF00009AF
:101FF0005FEA8B7528D53FBB002800F19B80B4F1C8
:10200000FF3F4BDD5FEA4B715BD5DDE917214B1CD0
:10201000934208D816982B2242541998179A0130E7
:10202000189319901946914249D116991A98FFF7B9
:1020300007FC1899884240F0838000201890199876
:1020400000283ED576E000BF5FEACB71D4D1B9F16C
:10205000000FD1D0A9F101064E4538BFC845CBD2FB
:10206000DDE917214B1C934208D8169820224254D0
:102070001998179A0130194618931990914209D16D
:1020800016991A98FFF7DCFB1899884258D11998CD
:10209000002118910028B146DCD54BE0DDE917217D
:1020A0004B1C934208D816982D2242541998179A1F
:1020B0000130194618931990039C9142B5D000281D
:1020C00038D4002D0CD416A821460A223B46CDE96F
:1020D000009B814600F056F8DDF81480002549E5A4
:1020E0000BF001013943EED1B9F1000FEBD0A9F1AA
:1020F00001064E4538BFC845E5D2DDE917214B1C26
:10210000934208D81698302242541998179A0130F1
:10211000194618931990914209D116991A98FFF708
:102120008FFB189988420BD119980021189100282B
:10213000B146DCD5DDF8148000250DF1580919E50C
:102140004FF0FF301BB0BDE8F08F00BF40B1189AD0
:1021500052B1049806A9FFF773FBDDE9181004E0FB
:1021600000201BB0BDE8F08F002108441BB0BDE883
:10217000F08F000070470000FEF74EBA7047000075
:10218000FEE700002DE9F04F81B0DDF828901F46F2
:1021900015468B469142044602D24FF001081FE0DB
:1021A0004FF00408584600BFB0FBF5F0A84211D329
:1021B000B0FBF5F0A84211D3B0FBF5F0A8420FD365
:1021C000B0FBF5F008F10408A842EDD2A8F103082D
:1021D00006E000BFA8F1020802E000BFA8F1010874
:1021E0000B99B84598BFB846B9F1000F35D011F03A
:1021F000010032D12026880748BF30264FF0000A60
:102200002020002F18BF064604E000BFE068B0F1B0
:10221000FF3F22DDB9F1000F1FD0C8451DD2D4E920
:102220000120411C914207D822681654E068626878
:102230000130E0600846A1609042A9F10109E5D1B2
:1022400021682069FFF7FCFAA168884202D1C4F82E
:1022500008A0DBE74FF0FF30E060E068002858D4CA
:10226000012601E0013F6E43022F01D3013F03E04D
:10227000BBFBF6F1A9421BD3012F05FB06F601D9E2
:10228000013F03E0BBFBF6F1A94211D3012F05FB8F
:1022900006F601D9013F03E0BBFBF6F1A94207D3E3
:1022A000012F05FB06F6DDD8BBFBF6F1A942DAD219
:1022B000A2682EA76168BBFBF6FA531C8B4209D8B3
:1022C00017F80A0021688854E068616801301A46EE
:1022D000A360E0608A4209D121682069FFF7B0FA63
:1022E000A26890420CD1E0680022A26000280AD4C3
:1022F000B6FBF5F10AFB16BBAE420E46DAD202E09F
:102300004FF0FF30E0600B99C90718BFB9F1000F1B
:1023100002D101B0BDE8F08F2025A9F101064E459C
:1023200038BFC845F5D26168531C8B4207D8206876
:102330008554E068616801301A46A360E0608A4213
:1023400009D121682069FFF77BFAA168884207D18B
:10235000E0680022A260B0F1FF3FB146DDDCD8E7C3
:102360004FF0FF30E06001B0BDE8F08F3031323324
:102370003435363738394142434445469AB0FEF742
:1023800059F908AC20464821FDF7BEFF002540F270
:1023900000400795CDE90555CDE90355CDE9015537
:1023A000C5F600000168012262F34A21016000685D
:1023B000032600F4C060009000984FF48030CDE90F
:1023C00009050220139010201590062016904FF456
:1023D000003017904FF0005019904FF00070189097
:1023E000204608921496FEF753FB28B1EFF31080B5
:1023F00072B600BFFEE700BF4F20CDE9010601A87D
:102400000221CDE9035505950795FEF79FF928B1FF
:10241000EFF3108072B600BFFEE700BFFEF70CFFBF
:10242000FEF740FF12A100200026FFF71BFB17A4B8
:102430001BA510E06420FEF701F84FF09040012149
:102440000136FEF7D7F8B0FA80F042094FF090401D
:102450000121FEF7D5F8002021463246FFF75EFB4A
:10246000652EE7DB01202946FEF75CFF0026E1E749
:1024700048656C6C6F20576F726C642066726F6D6C
:1024800020534547474552210A0000001B5B313B62
:1024900033376D436F756E7465723A2025640A0098
:1024A0001B5B313B33316D436F756E746572206F0A
:1024B000766572666C6F77210A00000000000000EC
:1024C0000100000002000000010000000300000005
:1024D00005000000010000000100000006000000EF
:1024E0000A000000200000000200000004000000BC
:1024F0000800000010000000400000008000000004
:102500000001000000020000A0860100400D030051
:10251000801A060000350C0040420F0080841E0027
:1025200000093D0000127A000024F40000366E011C
:102530000048E801006CDC02000000000000000020
:1025400000000000000000003031323334353637EF
:1025500038394142434445465465726D696E616C39
:102560000000000088250008000000201000000086
:102570009C0100089825000810000020200B000096
:10258000BC01000800000000010000001000000075
:0825900000093D0000000000FD
:0400000508000139B5
:00000001FF
