:020000040800F2
:1000000090110020AD020008DD5D0008215B0008B2
:10001000595D0008FD160008E9B600080000000060
:100020000000000000000000000000000D97000824
:100030000D17000800000000F55D00085D9700083E
:10004000C7020008C70200082D980008C702000870
:10005000C7020008C7020008C7020008C70200085C
:10006000C702000811170008C7020008C7020008ED
:10007000C7020008C7020008C702000801170008ED
:10008000C7020008C7020008C7020008C70200082C
:10009000C7020008C7020008C7020008C70200081C
:1000A000C7020008C7020008C7020008C70200080C
:1000B000C7020008C7020008C7020008C7020008FC
:1000C000C7020008C7020008C7020008C7020008EC
:1000D000B5AD0008C7020008C7020008C702000843
:1000E000C7020008C70200085D5E0008C7020008DA
:1000F000C7020008C7020008C7020008C7020008BC
:10010000C7020008C7020008D5830008C70200081C
:10011000C7020008C7020008C7020008C70200089B
:10012000C7020008C7020008C7020008C70200088B
:10013000C7020008C702000800F002F800F0A6F8A5
:1001400014A696E8000CB244B344DA4501D100F09D
:100150009DF8BAE80F000FA696E83000A5EB04055D
:1001600004EB0607AAEB0704A7F101074FEA1515F0
:100170004FEA3414A4F10104AC4201D300F086F834
:1001800013F0010F18BFFB1A43F0010300F001F850
:10019000DBE71847F4CD000014CE0000103A24BF6E
:1001A00078C878C1FAD8520724BF30C830C144BFDC
:1001B00004680C60704700007047000000230024B2
:1001C00000250026103A28BF78C1FBD8520728BF67
:1001D00030C148BF0B6070476E2900F05983702909
:1001E00000F0B38466290CF0C58465290CF0C28444
:1001F00067290CF0BF8461290CF0BE8403681B0AD8
:1002000028BF41F08001692900F00683642900F0CD
:100210000383752900F000836F2900F04184782959
:1002200000F07F84E92900F0DB83E42900F0D88323
:10023000F52900F0D583EF2900F03E84F82900F07D
:100240007E840368DB0928BF41F08001632900F048
:100250005D83732900F06283E32901F0E780F329CD
:1002600001F0EC80002070471FB501F03DF904005B
:10027000002000210CF068FC401C60600020002180
:100280000CF04CFCE0601FBD10B510BD01F0FEF895
:100290001146FFF7E9FF0BF08BFB01F0DBF903B42C
:1002A000FFF7F2FF03BC01F021FA00000948804784
:1002B00009480047FEE7FEE7FEE7FEE7FEE7FEE748
:1002C000FEE7FEE7FEE7FEE704480549054A064B60
:1002D000704700002998000839010008900B0020A1
:1002E00090110020900D0020900D002053EA020C88
:1002F00000F069802DE9F04B4FF00006002B1FBF86
:10030000B3FA83F503FA05F424FA05F65E4012BF4A
:100310001643B2FA82F502FA05F4C5F120051EBFB4
:1003200022FA05FC44EA0C04203556EA044C4FEA54
:10033000144418BF641C4FF000084FF000099042AD
:1003400071EB030C39D3002919BFB1FA81F701FA17
:1003500007F6B0FA80F700FA07F6C7F120071EBFCC
:1003600020FA07FC46EA0C062037B6FBF4FCA7EBA4
:100370000507103F07F01F0BCBF120062CFA06F6FD
:100380000CFA0BFB44BFB3460026202FA4BF5E46E9
:100390004FF0000B5BEA060C08BF4FF0010B19EBA6
:1003A0000B0948EB0608ABFB027C06FB02CC0BFBFF
:1003B00003CCC01B71EB0C01C1E70B460246414662
:1003C0004846BDE8F08B13B5084318BF4FF0FF3027
:1003D0000146AFF30080BDE81C4070477CB51D4668
:1003E00016460C00009007D04142A14202D320449F
:1003F000401E01E04FF0FF30064B7B442A46694621
:100400000190304600F05DFA002C02D0009A0021E5
:1004100011707CBDEB0400000FB41CB50C0007AAE2
:10042000009007D04142A14202D32044401E01E087
:100430004FF0FF30074B7B4469460190069800F06F
:1004400040FA0021002C01D0009A11701CBC5DF80C
:1004500014FB0000AF04000070B50C460546012AED
:1004600005D02878800600D5EA69002302E0012340
:1004700005E05B1C934202D2E05C0028F9D1A86938
:10048000E618C01AA861286A18442862284600F0B5
:1004900089F904E0D5E9012114F8010B9047B44231
:1004A000F8D3284600F094F970BD00002DE9F05F04
:1004B000894604464FF0000ADFF874B1FB44C0F8E7
:1004C00020A02046E1688847002874D0252806D05F
:1004D000D4E901219047206A401C2062F1E7002600
:1004E0005F462046E16888472028054607DB312D16
:1004F00005D2781910F8200C08B10643F1E7B007CF
:1005000001D526F00406C4F81CA00027C4F818A0E2
:100510002A2D09D028460CF0F9FA38B304EB8708E5
:10052000303DC8F8185019E059F8041B204604EB78
:1005300087029161E1688847012F054618D1E0697B
:10054000002820DA26F020061DE0D8F8180000EB7D
:10055000800005EB40003038C8F818002046E168FC
:10056000884705460CF0D2FA0028EED1012F0AD0B8
:100570002E2D08D12046E16888477F1C0546022FB2
:1005800046F02006C4DBA069002803DA404246F0AA
:100590000106A061F00701D026F010066C2D0BD0EB
:1005A000682D09D04C2D39D06A2D35D0742D35D019
:1005B0007A2D33D016E038E0E1682F462046884790
:1005C000B842054609D16C2F26D04FF48060E1680F
:1005D000064320468847054604E06C2F1AD04FF4A6
:1005E000807006430DB3A5F14100192802D82035CB
:1005F00046F400664A462946204626604E46FFF7E6
:10060000EBFD80B101280BD0F61D26F0070000F1AC
:10061000080956E74020E4E78020D8E70020D6E725
:1006200006F104094DE7284652E7206ABDE8F09F2D
:10063000BCC6000010B5431C02E010F8011B71B1EC
:100640008107FAD14FF0013202C88C1A8C4314EAA8
:10065000C211F9D0C01A0A0603D0C01E10BDC01ABC
:1006600010BD0A0401D0801E10BD0902FCD0401E3E
:1006700010BD032A40F2308010F0030C00F015800A
:1006800011F8013BBCF1020F624498BF11F801CB95
:1006900000F8013B38BF11F8013BA2F1040298BFFA
:1006A00000F801CB38BF00F8013B11F0030300F064
:1006B0005782083AC0F0088051F8043B083A51F8D4
:1006C00004CBA0E80810F5E7121D5CBF51F8043B0D
:1006D00040F8043BAFF30080D20724BF11F8013B80
:1006E00011F801CB48BF11F8012B24BF00F8013BE2
:1006F00000F801CB48BF00F8012B704702F0FF0360
:1007000043EA032242EA024200F002B84FF000023C
:100710000429C0F0128010F0030C00F01B80CCF113
:10072000040CBCF1020F18BF00F8012BA8BF20F881
:10073000022BA1EB0C0100F00DB85FEAC17C24BFD5
:1007400000F8012B00F8012B48BF00F8012B70477F
:100750004FF0000200B5134694469646203922BF5A
:10076000A0E80C50A0E80C50B1F12001BFF4F7AFA5
:10077000090728BFA0E80C5048BF0CC05DF804EB87
:10078000890028BF40F8042B08BF704748BF20F8F5
:10079000022B11F0804F18BF00F8012B70477047F3
:1007A0007047704770B5044685690068C10601D579
:1007B000302600E02026C00707D070BDD4E9012113
:1007C00030469047206A401C20626D1EF6D570BDF1
:1007D00070B5044685690078C00707D170BDD4E9BB
:1007E000012120209047206A401C20626D1EF6D512
:1007F00070BD09684A0501D540B27047C905FCD5EE
:1008000000B2704709684A0501D5C0B27047C905F2
:10081000FCD580B2704700002DE9F0410646002467
:1008200010687529314616A510D0FFF7E2FF0028A1
:1008300002DA404213A507E031688A0701D512A504
:1008400002E0490704D511A5012401E0FFF7DAFF12
:1008500000210A2206F1240709E0B0FBF2FCB0FBFC
:10086000F2F302FB1C00303078541846491C002873
:10087000F3D123462A463046BDE8F04100F0E7B9FF
:10088000000000002D0000002B00000020000000F0
:1008900011680268006A530501D508700AE0D305A3
:1008A00001D5088006E0130603D5C217C1E900028E
:1008B00000E008600120704701694A1C0261087865
:1008C000704700B58FB0CDE9013100210591054990
:1008D0007944CDE9031011466846FFF7E7FD0FB0F4
:1008E00000BD0000E5FFFFFFD1E900239A4202D2DC
:1008F000531C0B601070704710B5436913B1AFF310
:10090000008001E0FFF7A8FD012010BD127800F182
:1009100024010A7000224A700122EDE711684FF0AD
:10092000FF32E9E72DE9FF5F15468A460446DFF806
:10093000AC80F8440027D8E900103E46CDE900100D
:1009400010E03AF816106A4602A800F07BFD411C40
:1009500007D02178890603D5E269391891420DD86C
:100960000744761C2078800602D5E069B84205DD90
:10097000AE42E6DB3AF816000028E2D1A069C01BBF
:10098000A0612046FFF70EFFD8E90010CDE9001066
:10099000002017E03AF818106A4602A800F052FD4D
:1009A000B0F1FF3F81460BD000250DF1080B05E0AB
:1009B000D4E901211BF8050090476D1C4D45F7D384
:1009C00008F10100B0428046E4DB206A384420622E
:1009D0002046FFF7FDFEBDE8FF9F00005AC2000061
:1009E0002DE9F0418046D21D22F007020025D2E910
:1009F0000002F52915A614D0011E72F1000106DAD5
:100A00000023D0EB030063EB020211A608E0D8F844
:100A100000108B0701D50FA602E0490701D50EA6ED
:100A200001251146002408F1240704E000F0CAF86B
:100A300030323A55641C50EA0102F7D12B46324657
:100A400021464046BDE8F04100F001B90000000039
:100A50002D0000002B0000002000000030B4002119
:100A600000F1240408E002F00705D208303542EA1C
:100A70004372DB086554491C52EA0305F3D104684C
:100A8000002310A2250708D504F020040C4304D04D
:100A9000C46901230CA2641EC46130BC00F0D7B845
:100AA00010B5044621461068FFF7ACFE024620460A
:100AB000BDE810400023D1E7D21D22F00701D1E9A3
:100AC0000023CBE70000000030000000F0B40D462A
:100AD0000188090502D5214C7C4402E01F4C7C446E
:100AE0000E34002100F1240608E002F00F0712097D
:100AF000E75D42EA03721B097754491C52EA030777
:100B0000F3D102780023120704D5702D06D009B165
:100B1000022311342246F0BC00F099B801231034AE
:100B2000F8E770B504460D4621461068FFF76AFEE7
:100B3000024629462046BDE870400023C6E7D21D84
:100B400022F00703D3E90023C0E70368126843F0EB
:100B5000200303600823C3610023B7E7BCC0000083
:100B600010B5203AC0F00B80B1E81850A0E818503A
:100B7000B1E81850A0E81850203ABFF4F5AF5FEA8A
:100B8000027C24BFB1E81850A0E8185044BF18C92F
:100B900018C0BDE810405FEA827C24BF51F8043BD6
:100BA00040F8043B08BF7047D20728BF31F8023B2A
:100BB00048BF11F8012B28BF20F8023B48BF00F8BE
:100BC000012B704730B5B0F10A0271F100034FEA12
:100BD000900E4EEA817EB0EB0E0061EB91014FEA80
:100BE000101E4EEA017E10EB0E0041EB11114FEA90
:100BF000102E4EEA016E10EB0E0041EB11214FEA70
:100C0000104E4EEA014E10EB0E0041EB1141401820
:100C100041F100014FEAD00040EA41704FEAD101B2
:100C20004FEA810444EA907410EB800544EB010420
:100C30006D1944EB0404521BA3414FF0000348BF5D
:100C40000A3200D530BD401C41F1000130BD2DE914
:100C5000F0470D4699469246044600F12408016883
:100C6000880604D5E06921F01001216000E0012030
:100C7000A84201DD471B00E00027A1697A1902EBB9
:100C80000900081AA0612078C00602D42046FFF7A8
:100C900089FD002608E0D4E901211AF806009047F2
:100CA000206A401C761C20624E45F4DB2078C0068A
:100CB0000AD52046FFF776FD06E0D4E90121302071
:100CC0009047206A401C2062381EA7F10107F4DC1F
:100CD00007E0D4E9012118F805009047206A401C7C
:100CE0002062281EA5F10105F3DC2046FFF770FD08
:100CF0002078000602D50220BDE8F0870120FBE73E
:100D00002DE9FF4F0C461E464FF0FF378BB0D2E95E
:100D10000001DDF860800A908A46C1F30A5505B9E2
:100D20003D46002108464FF00000BAF1000F00F4E4
:100D3000400005DA00EB80004FF4400101EA50006A
:100D40004FEA9059B9F1010F00DDB9460A9850EA0F
:100D50004A000ED044F61050A5F2FF3545432F143B
:100D6000B8F1000F1ED07542291E1EDDC9F1000228
:100D70001CE0B8F1010F4FF0000001D0302103E07A
:100D8000F24305E02154401CB042FBDB3046002218
:100D9000002121540B99C1F80880C1E900200FB04F
:100DA000BDE8F08FBD1B6D1CDEE74A4600DA6942E4
:100DB00006A800F0DDFB06AB93E8070003AB83E871
:100DC000070050460A990BF0C4FA8DE80700A0F519
:100DD00000501F3800900398002D0ADD42F21F01D9
:100DE0004A460844002303A9039068460BF02EFDF1
:100DF00009E0A0F500504A461F38002303A90390DC
:100E000068460BF038FD8DE807000004000C03D0A5
:100E10004FF0FF30410800E01046B8F1000F03D05A
:100E20000022009215461EE0751E05D4FFF7CAFE8B
:100E3000303262556D1EF9D5B3460122084302D007
:100E400000227F1C04E02078302801D100227F1E80
:100E5000002A099784D01DE0112D07DAFFF7B2FEB2
:100E6000303262556D1C50EA0102F5D1084302D0C0
:100E70000098C8B10EE00021681E05E0235C625CAA
:100E800063542254401E491C8142F7DBAB46A81B29
:100E9000401E0990002004F80B000B98099AC0F836
:100EA0000880C0E9002B7AE711264FF0000857E7C9
:100EB0002DE9F04F88460446D21D22F0070191B07B
:100EC000D1E90001CDE90A010BF00CFE02460B98B6
:100ED000C00F01D02D2007E02068810701D52B200D
:100EE00002E0202101EAC000032A099001D0072A6C
:100EF00005DB03464146204600F0FAFA0BE1207874
:100F0000800601D5E06900E00620B8F1650F814652
:100F100006D0B8F1660F18D0B8F1670F70D131E084
:100F20000020B9F1110F009001DB112301E009F15C
:100F300001030AAA01A90CA8FFF7E2FEDDE90C7083
:100F4000002609F10105834647E001204B46009049
:100F50004FF000470AAA01A90CA8FFF7D1FEDDE96E
:100F60000DB00C995D46002610B909F101000D186D
:100F7000B9EB050003D4C0F1FF3609F10105A5EB7B
:100F800009002BE0B9F1010F01DA4FF0010900204F
:100F9000B9F1110F0090484601DD112300E003462E
:100FA0000AAA01A90CA8FFF7ABFEDDE90C704D46BB
:100FB00000268346207800070AD4AB4500DA5D4658
:100FC00001A8012D04DD411911F8011C302907D0B9
:100FD0004F4502DA17F1040F04DA012082460FE0D0
:100FE0006D1EEEE7002F02DCED1B3E4403E0781C93
:100FF000A84200DD7D1CB81B00F1010A4FF000473C
:101000002078000703D4AA4501DB4FF0FF3A002106
:10101000B7F1004F0DF143088DF8431024D00220A2
:101020002B23002F01DA7F422D230A21021EA0F17B
:10103000010000DC5FB197FBF1FC97FBF1F201FBD3
:101040001C7C17460CF1300C08F801CDEEE7A8F136
:10105000010003702188090501D5452100E06521C3
:10106000A0F1010800F8011C09980FA9A1EB0807DD
:10107000FF1D00B10120411901EBEA70A16938445C
:10108000081A401EA0612078C00602D42046FFF74F
:1010900089FB099828B1D4E901219047206A401CB6
:1010A00020622078C00622D52046FFF77BFB1EE099
:1010B000002E04DBB34502DD01A8805D00E0302096
:1010C000D4E901219047206A401C2062761CAAF1D5
:1010D00001005FEA000A0AD100F006FAC068016860
:1010E000405CD4E901219047206A401C2062281E00
:1010F000A5F10105DCDC07E0D4E9012118F8010BBA
:101100009047206A401C2062381EA7F10107F3DCDB
:101110002046FFF75DFB032011B041E62DE9F04FBB
:1011200004460D46D21D22F0070089B0D0E9009791
:10113000484639460BF0D6FC0246F80F01D02D2365
:1011400007E02068810701D52B2302E0202101EA76
:10115000C0038DF820300BB1012000E00020032AED
:10116000824601D0072A04DB2946204600F0C0F958
:101170003FE12078800601D40D2500E0E569C7F342
:101180000A560D2D49DA00214FEA175B08464FF049
:101190000000002F00F4400007DA00EB80004FF45D
:1011A000400100EBD07001EA60008115012901DDEA
:1011B0004FF0FF3100224FEA850CBCF1180F06D327
:1011C0001346ACF118004FF08052C24003E04FF4D8
:1011D000801323FA0CF30CF10C0CBCF1200F04D398
:1011E000ACF1200C09FA0CF001E007FA0CF0002930
:1011F0004FF0004801DD18B90FE00ED140450CD387
:1012000019EB02095F4121B9404502D19F4329EA08
:101210000209BBEB175F00D0761C2088000502D5C1
:101220007B48784402E07A487844193808AA302389
:1012300002F80A30037C0AF10101002E0AF1020AC9
:1012400053546A4602DC4FF0300101E04FF03101A7
:101250004FF001088DF8001002D0A6F2FF3603E02F
:1012600059EA470100D06B4E002D02DC21780907B6
:1012700004D54FF002082E218DF80110C44600213C
:101280000BE0C7F303433F01C35C491C6D1E02F82A
:101290000830052908F1010801DA002DF1DC0021F0
:1012A0000CE000EB1973491C1B786D1E082902F82D
:1012B00008304FEA091908F1010801DA002DF0DCC5
:1012C00021688B0602D516E0A8F10108E04505DD8E
:1012D00002EB080313F8013C302BF5D0B8F1000FF6
:1012E00009DD02EB080313F8013C2E2B03D109079B
:1012F00001D4A8F10108002D05DD3E2102F80810F7
:101300006D1E08F10108407C002E02F8080008F16B
:10131000010804DA2D20764202F8080002E02B20B2
:1013200002F808000A214FF47A70864208F1010899
:101330000BDB96FBF0F3303302F8083096FBF0F34A
:1013400008F1010800FB136601E0642E0CDB642049
:1013500096FBF0F3303302F8083096FBF0F308F117
:10136000010800FB136601E00A2E06DB96FBF1F094
:10137000303002F8080008F1010896FBF1F001FB9B
:101380001060303002F80800A16908F1010808EB8C
:10139000050202EB0A00081AA0612078C00602D4F8
:1013A0002046FFF7FFF9216A08AE01EB0A00206230
:1013B00004E0D4E9012116F8010B9047BAF1010AC3
:1013C000F7D22078C00602D52046FFF7EBF96E462B
:1013D00009E016F8010B3E280FD0D4E9012190470F
:1013E000206A401C2062B8F10108F2D22046FFF7C3
:1013F000EFF909B00320BDE8F08F206A284420628D
:1014000003E0D4E90121302090476D1EEBD3F8E7CB
:10141000ADB9000002FCFFFF10B5436913B1AFF393
:10142000008001E0FFF77EFA012010BD128800F174
:10143000240182840022C2840122EDE711684FF06A
:10144000FF32E9E72DE9F04116460C46054600F06B
:1014500043F8036893F80101012807D0FF2C12D844
:10146000185D80B101202C70BDE8F081D3F8070130
:101470003246214603F20713C7182846BC46BDE88A
:10148000F041002360474FF0FF30EDE7754600F074
:10149000EBF8AE4605006946534620F00700854646
:1014A00018B020B5FEF710FFBDE820404FF0000651
:1014B0004FF000074FF000084FF0000BAC46ACE8CF
:1014C000C009ACE8C009ACE8C009ACE8C00921F02B
:1014D00007018D467047000010B500F005F8001DAB
:1014E00010BD00BF65B600000048704738000020FE
:1014F0002DE9F0411F46044603260168072A01F43E
:10150000006004DB08B116A505E016A503E008B1EC
:1015100015A500E015A521F010002060A069C01EEF
:10152000A0610FB1401EA0612046FFF73BF94FB10B
:10153000D4E9012138469047206A401C2062C01C33
:10154000206206E0206AFAE7D4E9012115F8010BD0
:101550009047761EF8D22046FFF73AF9BDE8F081B1
:101560004E414E006E616E00494E4600696E660047
:101570002DE9F047814616468AB0354878440DC8B3
:101580008DE80D0032487844801C03AC0DC884E817
:101590000D0041F69B300844372190FBF1F290FB9F
:1015A000F1F5A5F1800501FB12041B3C02D5644254
:1015B000012000E00020DFF898A080460027FA44D0
:1015C000AAF1BE0A0EE0E0070AD03246684607EBF1
:1015D000470101230AEB81010BF04DF98DE807006B
:1015E00064107F1C002CEED1194F7F44AE3F19E0F0
:1015F000E80715D007EB04100DF1180A90E80E006B
:101600008AE80E00C068F04201D19819089032466D
:10161000012306A903A80BF02EF903AB83E807000A
:101620006D10641C002DE3D14FF001033246694672
:10163000B8F1000F03A802D00BF008F901E00BF09D
:101640001AF9C9E90001C9F808200AB0BDE8F08715
:10165000E4B6000010B50446AFF300802046BDE8B4
:101660001040FEF71CBE0000004870471800002024
:1016700030B44FF0013C50F8042B51F8043BCCFA45
:1016800052F4D51A20D1FCB950F8042B51F8043B80
:10169000CCFA52F4D51A17D1B4B950F8042B51F83A
:1016A000043BCCFA52F4D51A0ED16CB950F8042B85
:1016B00051F8043BCCFA52F4D51A05D1002CDAD0FB
:1016C00030BC4FF00000704729BAB1FA81F111F037
:1016D0001801D1F120008440F2D1CA40CB4012F071
:1016E000FF0213F0FF0330BCD01A704701491820E5
:1016F000ABBEFEE72600020070470000FEE70000D8
:1017000040F64C10C2F2000000F012B97047000021
:10171000082000F043BB0000EFF3108072B600BF5A
:10172000FEE70000002804BF0120704790F8251054
:1017300002292DD180B50168D0E910CE826C0B68EA
:1017400023F00E030B60136823F4807313600A68A0
:1017500022F001020A600EF01C02012101FA02F2DD
:10176000CCF80420D0E913325A60426D32B11368CC
:1017700023F480731360D0E91623536080F825109A
:101780000021BDE88040002280F8242008467047F0
:101790000421C1630121002280F8242008467047FB
:1017A00090F8251002292FD180B50168D0E910CE1C
:1017B000826C0B6823F00E030B600B6823F00103AF
:1017C0000B60116821F4807111600EF01C02012180
:1017D00001FA02F2CCF80420D0E913325A60426DCB
:1017E00032B1136823F480731360D0E91623536079
:1017F00080F82510816B0022002980F8242018BF72
:101800008847002080BD00BF0421C16301207047CC
:10181000002804BF012070470068CB06026805D588
:10182000C90254BF22F4801242F4801202600020E8
:101830007047000000284FF0010C04BF01207047E2
:101840002DE9F04F40F20444D0E9002EC4F2020426
:101850004FF6F831231DCBF6FD719A4238BF01F5E2
:1018600080614CF6CD451144CCF6CC45A1FB051A60
:1018700002F0FC01A1F10801A1FB051B116840F277
:10188000000921F00101C4F20209116009F580612B
:101890006FF003063CBF0021C4F2020104F583652A
:1018A00006EA9A061C279A4238BF04F57F75C0E9FC
:1018B0001016002107EA9A0711600CFA07F79A42FE
:1018C00038BF09F104042760072404EB1B149A4273
:1018D00038BF4FEA1B1404F01F0240F680080CFAD0
:1018E00002F3AEF10102C4F20208AF19032AC0E903
:1018F00012780365A951C8F8043008D8012708EB0D
:10190000820307FA02F2C3F88010C8F8C420C0E9C5
:101910001511C165C0E90B11C0E90D11C16380F853
:10192000251080F82410BDE8F04F084670470000ED
:1019300070B5D0E910C20168DCF8004002F01C0369
:1019400004220E689A40224218BF16F0040523D1E3
:10195000022202FA03FE1EEA040F18BF16F002026A
:101960002AD124FA03F2120714D516F0080208BF90
:1019700070BD0A6822F00E020A60012101FA03F22A
:10198000CCF80420C16380F82510416B002280F858
:10199000242069B970BD00BF0B689B0603D40B6897
:1019A00023F004030B60CCF80420016B0029F1D074
:1019B000BDE87040084700BF0A68920606D40A686E
:1019C00022F00A020A60012280F825200422C4F2D3
:1019D000020202F17C03994288BF02F58062C2F8DC
:1019E00000E0C16A0022002980F82420E0D1D1E77C
:1019F00000284FF0010100F091802DE9F04F002602
:101A0000C4F2020603684FF6F83706F58169CBF693
:101A1000FD774B4538BF07F580674CF6CD451F4431
:101A2000CCF6CC45A7FB057803F0FC07A7F1080727
:101A300040F6840EA7FB057BC4F2020E06F5806417
:101A40006FF00305D0E902AC02693CBF0024C4F288
:101A50000204AEF1680705EA98054B4538BF06F564
:101A60000067C0E91045022480F825401C6847F64D
:101A7000F07624EA06061E60466942EA0C02846992
:101A80003243C6692243046A32431E68224332430A
:101A900042EA0A021A604B454FF0070303EB1B139F
:101AA00038BF4FEA1B1303F01F037A19AEF1040786
:101AB00001FA03F3BAF5804FC7648264036505D168
:101AC000002141601160CEF8003019E0416801F05A
:101AD0007F07013903294FF000011760CEF800306D
:101AE0000ED87A1E0EEB820747F87C1F02F0030126
:101AF00001228A400EF1BC033946CEF8C02001E035
:101B000000230022C0E91513C26500210122C16330
:101B100080F8252080F82410BDE8F04F0846704773
:101B200090F824C0BCF1010F04BF022070474FF0B1
:101B3000010C80F824C090F825C0BCF1010F3BD106
:101B40002DE9F0414FF0020C80F825C04FF0000C59
:101B5000C0F83CC0D0F800C000F14C0E9EE8304008
:101B6000DCF80060BEF1000F26F00106CCF8006042
:101B700065601CBFD0E916456560D0E910560127A5
:101B800006F01C06846807FA06F6D0F830806E600E
:101B9000CCF804300B46102C04BF13460A46CCF890
:101BA0000830CCF80C20DCF80010B8F1000F0BD096
:101BB00041F00E0110E000BF8021C163002180F8D8
:101BC00024100120704700BF21F00401CCF8001060
:101BD000DCF8001041F00A01CCF80010806C0168BC
:101BE000C90303D5016841F480710160BEF1000FA3
:101BF00005D0DEF8000040F48070CEF80000DCF87C
:101C0000000040F00100CCF800000020BDE8F081A9
:101C1000B0B5044600F0A2F9054640F20000C2F259
:101C200000000078611C18BF044400BF00F096F962
:101C3000401BA042FAD3B0BD002908BF70472DE970
:101C4000F04F82B040F60003C4F60003072298422A
:101C500008BF0222009200F120020192019C4FF085
:101C6000000B00274FF0000A25E000BF06680322A2
:101C700002FA0BF52E436FF00302066002EA5A02E5
:101C800007F01C0EA3580F2606FA0EF6B343A35016
:101C90008268AA438260426822EA0C024260C268FB
:101CA000AA43C2600AF1010A31FA0AF207F10407F5
:101CB0000BF1020B4CD0012202FA0AFC1CEA0108CB
:101CC000F0D008222AF00305C4F20102AB58B0F1AB
:101CD000904F0BD040F20042C4F60002DDF800E065
:101CE000904208BF4FF0010E02E000BF4FF0000E1F
:101CF00007F00C05072202FA05F903EA09060EFAB5
:101D000005F5AE42B2D140F60002C5F60002D2F8A7
:101D100080604FEA9A0526EA0806C2F88060D2F889
:101D2000846026EA0806C2F88460166826EA080677
:101D30001660566826EA080656600822C4F20102B8
:101D400052F8256026EA090642F825608EE700BFB2
:101D500002B0BDE8F04F7047082818BF704710B5B3
:101D60000BA1012009F0BEFD40F68434C2F200044C
:101D700020880021C0074FF0020008BF012009F0B1
:101D8000ABFA208801302080BDE81040704700BFCA
:101D9000424F4F542050524553530A0040F60C0115
:101DA000C5F600010A68024214BF08607047FFF7D9
:101DB000D3BF00002DE9F04F82B00F68002F00F074
:101DC000BD8000F1200240F600030092C4F600033B
:101DD00007224FF0000A00264FF00008984208BF83
:101DE000022201924AE000BF40F20042C4F6000223
:101DF000019B904208BF01230AF00C050727AF4062
:101E00002CEA0707AB403B4308274FEA9802C4F28D
:101E1000010740F6000447F82230C5F600042268A6
:101E20004B6842EA0907DD0258BF22EA090727602A
:101E300062689D0242EA090758BF22EA0907676003
:101E4000D4F88020DD0342EA090758BF22EA0907D7
:101E5000C4F88070D4F884209B0342EA090758BF75
:101E600022EA0907C4F884700F6808F1010837FAFC
:101E700008F206F102060AF1040A5FD0012202FA12
:101E800008FE17EA0E09EFD0D1F804C003220CF0C7
:101E9000030BABF1010302FA06F7012B6FEA07040B
:101EA00010D88368CF682340B7403B4383604368C2
:101EB000CCF3001723EA0E0307FA08F73B4343600D
:101EC00006E000BFBBF1030F02D14FF0030B1EE091
:101ED000C3688F682340B7403B43BBF1020FC36028
:101EE00015D16FF00302009B02EA580E53F80EC0A2
:101EF0000AF01C050F220F69AA402CEA0202AF402B
:101F00003A4343F80E20D1F804C00CF0030B0268EA
:101F10000BFA06F322401A431CF4403F0260A3D0A0
:101F2000082328F00302C4F2010352F803C0B0F101
:101F3000904F7FF459AF00235EE700BF02B0BDE8C9
:101F4000F08F00000069084018BF012070470000B2
:101F50001823002A08BF2823C150704740F6883054
:101F6000C2F200000068704740F2000040F688317D
:101F7000C2F20000C2F2000100780A681044086052
:101F80007047000080B5032000F08EF800F0CEFA14
:101F900040F21401C2F2000108600F2000F008F8BE
:101FA00000281CBF012080BD00F028F8002080BD63
:101FB000B0B540F20005C2F200052978E1B104464F
:101FC00000F0B4FA29784FF47A72B2FBF1F1B0FB69
:101FD000F1F002F03DFF01460F2C4FF001000AD84E
:101FE000002918BFB0BD4FF0FF302146002200F09D
:101FF0002FF800206C60B0BD0120B0BD704700001C
:10200000002848BF704700F01F01012202FA01F1C9
:102010001C2202EAD0004EF28012CEF20002815061
:10202000BFF34F8FBFF36F8F70470000002848BF8A
:10203000704700F01F01012202FA01F11C2202EA9E
:10204000D0004EF20012CEF2000281507047000024
:1020500010B54EF60C5CCEF2000CDCF80030C3F389
:10206000022E8EF00704042C28BF0424BEF10303C3
:102070004FF0FF3E0EFA04F438BF0023A14399400D
:102080000EFA03F39A43114300F00F0200F160438C
:102090000901043A03F564436244002848BF02F191
:1020A0000C03197010BD00004EF60C51CEF2000169
:1020B0000A684FF6FF031A4060F30A2242F080607C
:1020C00040F0FD700860704740F20040C5F6000027
:1020D000006800F4C060704740F20040C5F60000A0
:1020E000016841F48071016070470000F0B581B073
:1020F000044680788826C007C5F6000600F0AC804C
:10210000FFF7EAFFFFF72AFF054600BFD6F878037E
:10211000C00577D4FFF722FF401B0228F6D9032021
:102120002168CA0700F09D806268336823EA124381
:1021300092B21A4332608A0740F19680A2683368EF
:1021400023EA124392B21A4332608A0640F18F802A
:102150002269336823F440631A4332608A0540F1F0
:102160008980226A33684FF6FF7767EA02073B40AF
:1021700043EA024232604A0540F17F80626A336876
:102180004FF6FF7767EA02073B4043EA02423260BC
:102190000A0575D5A26A33684FF6FF7767EA02072A
:1021A0003B4043EA024232604A066BD562693368BB
:1021B0006FF47F2767EA12173B4002F47F4243EA3D
:1021C000021232600A065FD5A26933686FF47F2776
:1021D00067EA12173B4002F47F4243EA0212326080
:1021E000CA0553D5E26933686FF47F2767EA12178F
:1021F0003B4002F47F4243EA02123260CA0657D5DE
:1022000046E000BFB168606B01F4407181421ED0AE
:10221000B168B26821F4407342F48032B260B268AF
:10222000890722F480320146B260B3600FD5FFF710
:1022300095FE054641F28837B068800706D4FFF75F
:102240008DFE401BB842F7D969E700BF616BB068EB
:1022500020F440700843B06000202168CA077FF472
:1022600063AF8A073FF56AAF8A063FF571AF8A050B
:102270003FF577AF4A053FF581AF0A053FF58AAFD5
:102280004A0693D40A069FD4CA05ABD4CA060FD512
:10229000E2683368B2F5807F23F4407343EA0203B7
:1022A000336005D156F87C2C42F0807246F87C2CC5
:1022B0000A0407D5226B336823F0404343EA020344
:1022C00033609AB1490419D5E16A3268B1F1005F0F
:1022D00022F0405242EA010232600FD156F87C1CD3
:1022E00041F4803146F87C1C01B0F0BD56F87C2CDE
:1022F00042F0807246F87C2C4904E5D401B0F0BD70
:102300002DE9F04381B0002800F0EA8044F2000893
:10231000C5F600080546D8F800000C4600F0070096
:10232000884215D2D8F8000020F007002043C8F8F2
:102330000000FFF713FE0646D8F8000000F0070083
:10234000A04205D0FFF70AFE801B0228F4D977E0EF
:10235000286808278107C5F6000714D5A8683968DA
:1023600021F0F00108433860FFF7F8FD064600BF92
:102370003868C00306D4FFF7F1FD801B0228F7D9A7
:102380005EE000BF2868810615D56869D7F800119E
:1023900021F0F0010843C7F80001FFF7DFFD064612
:1023A000D7F80001800305D4FFF7D8FD801B022871
:1023B000F6D945E02868410617D5A869D7F8001175
:1023C00021F00F0141EA1010C7F80001FFF7C6FD28
:1023D000064600BFD7F80001C00305D4FFF7BEFDD5
:1023E000801B0228F6D92BE02868410713D5E8683E
:1023F000396821F4E06108433860FFF7AFFD064615
:102400003868800306D4FFF7A9FD801B0228F7D99E
:1024100016E000BF2868010717D52869396821F43C
:10242000605141EAC0003860FFF798FD064600BFE2
:102430003868400308D4FFF791FD801B0228F7D9C4
:10244000032001B0BDE8F0832868C0071ED1D8F88A
:10245000000000F00700A04224D9D8F8000020F0C6
:1024600007002043C8F80000FFF778FD054600BFCD
:10247000D8F8000000F00700A04213D0FFF76EFD6F
:10248000401B02284FF00300F2D947E068684FF084
:10249000B041096840B3032820D0022842D1890303
:1024A0001ED523E000F08CF839683C2202EA910145
:1024B0004CF68842C0F60002515840F21402B0FBBC
:1024C000F1F140F20400C2F200000068C2F2000222
:1024D000116001B0BDE8F043FFF76ABD890105D482
:1024E000012001B0BDE8F0838907F9D5396821F0F2
:1024F000030108433860FFF731FD064641F2883991
:102500003868696800F00C00B0EB810F9FD0FFF7CE
:1025100025FD801B48454FF00300F1D901B0BDE80F
:10252000F08300BF4905DBD5E0E7000080B500F08F
:1025300047F80821C5F6000109683C2202EA91012A
:102540004CF68842C0F600025158B0FBF1F080BD55
:1025500080B500F035F80821C5F600010A683C2373
:1025600003EA92024CF68843C0F600039A580968C1
:10257000B0FBF2F04CF6C842C1F30221C0F60002F3
:1025800052F82110C84080BD80B500F019F808212C
:10259000C5F600010A683C2303EA92024CF6884320
:1025A000C0F600039A580968B0FBF2F04CF6C84236
:1025B000C1F3C221C0F6000252F82110C84080BD0C
:1025C0000C21C5F6000151F8040C10F00C0208684B
:1025D00005D00C2A16D100F00300012812D14FF0CB
:1025E000B040036800681B0706D400071CD4D1F86C
:1025F0008800C0F3032022E000071BD4D1F8880034
:1026000015E000BF42F20040042AC0F2F40022D0DC
:10261000082A1FD14FF0B0421268D2025CBF44F6C4
:102620000000C0F2E81016E04FF0B0400068002053
:1026300005E000BF4FF0B0400068C0F303104CF657
:102640009C53C0F6000353F82030002A184618BFE8
:10265000002001E00020002351F8042C02F00C02BD
:102660000C2A18BF7047086800F0030242F20040CD
:10267000022AC0F2F4000AD0032A09D14FF0B04276
:102680001268D2025CBF44F60000C0F2E8100346B4
:1026900008680A68C0F30620C2F3021258430132E8
:1026A0000968B0FBF2F0012202EB5171B0FBF1F0CE
:1026B00070470000002804BF012070472DE9F04F4B
:1026C00081B040F2900B0446C5F6000B5BF8880C15
:1026D0005BF8841C227800F00C08900601F0030AD5
:1026E00026D42078C00759D0B8F1080F52D0B8F1DD
:1026F0000C0F08BFBAF1030F4CD04FF0B040026886
:10270000D4E9011322F480121A4302600268B1F581
:10271000803F09D0B1F5041F40F0348242F400112B
:102720004FF0B0421160126842F48031016035E22E
:10273000B8F1000F1ED0B8F10C0F08BFBAF1010FAD
:1027400018D0216A4FF0B0463068002900F0688147
:1027500040F001003060FFF701FC0546306880075B
:1027600000F18681FFF7FAFB401B02284FF00300BF
:10277000F4D957E3206A002800F0B4824FF0B0414A
:10278000A06A0A68120700F1D380DBF80410090977
:10279000CFE000BF6068002800F0A48220788007A6
:1027A0002FD5B8F1040F1FD0B8F10C0F08BFBAF144
:1027B000020F19D021694FF0B0463068002900F0AF
:1027C000FF8140F480703060FFF7C8FB054600BF12
:1027D000306840050CD4FFF7C1FB401B02284FF0C6
:1027E0000300F5D91EE300BF2069002800F07A82BB
:1027F00060695BF88C1C21F0FE4141EA00604BF8F7
:102800008C0C2078000729D42078400752D4E56A40
:10281000002D00F0D482B8F10C0F40F03F81012D63
:1028200000F060825BF8840C216B00F003028A42A6
:1028300040F05882616B00F070028A4240F0528290
:10284000A16B00F4FE42B2EB012F40F04B82616CB1
:1028500000F06040884200F0B28243E2A069DBF8F9
:102860000410002800F0EE80E06901F010029042B0
:1028700000F0C28201F00302022A00F03382C9078D
:1028800000F0B382DBF8040020F00100CBF8040074
:10289000FFF764FB054600BFDBF80400800740F14A
:1028A000A382FFF75BFB401B11284FF00300F3D915
:1028B000B8E200BFDBF87003C00511D4FFF70CFCD1
:1028C000FFF74CFB054600BFDBF87003C00507D4DB
:1028D000FFF744FB401B02284FF00300F4D9A1E2AC
:1028E000E068002800F07E81852801D0052805D108
:1028F000DBF8000040F00400CBF80000FFF72EFBEF
:10290000DBF80010054641F0010041F28836CBF8B3
:10291000000000BFDBF80000800700F11381FFF723
:102920001DFB401BB0424FF00300F3D97AE200BF19
:10293000096801F0F00144F2000688424CF688492B
:102940004CF69C51C5F60006C0F60009C0F6000121
:1029500028D93C2202EA90000858DBF8781001F0F0
:102960000F0159F82110B0FBF1F5FFF7ADFBB0F501
:10297000007F40F0B7804EF6BF20C0F221108542A4
:1029800040F2DC8049F23F30C0F23420854240F210
:1029900043814AF63F60C0F2EB20854240F2B680A8
:1029A000002740E14FF0B042136843F00803136082
:1029B000136823F0F00303431360626A5BF88C3CF6
:1029C00023F47F4343EA02224BF88C2C6FF003027E
:1029D00002EA90000858DBF8781001F00F0159F86E
:1029E0002110B0FBF1F5FFF76FFBB0F5007F40F071
:1029F0008F804EF6BF20C0F22110854240F2A080A9
:102A000049F23F30C0F23420854240F251814AF60B
:102A10003F60C0F2EB20854240F28E8000274EE1FD
:102A200020F001003060FFF799FA05463068800712
:102A30007FF557AEFFF792FA401B02284FF00300D4
:102A4000F4D9EFE121F00100CBF80400FFF786FA9A
:102A5000054600BFDBF8040080077FF5D5AEFFF721
:102A60007DFA401B11284FF00300F3D9DAE100BFD3
:102A70004FF0B040016841F0080101600168D4E9FD
:102A8000092321F0F001194301605BF88C0C20F45C
:102A90007F4040EA02204BF88C0C22E64FF0B04613
:102AA000306820F080703060FFF758FA022D05463C
:102AB0000CD100BF3068800140F14881FFF74EFA29
:102AC000401B0A284FF00300F4D9ABE130688001C5
:102AD00040F16C81FFF742FA401B0A284FF00300D7
:102AE000F4D99FE14CF6BF70C0F26A00854225D947
:102AF00045F63F50C0F2C600854240F28D8046F256
:102B00003F60C0F2031085423FF64AAF022084E0E6
:102B10004CF6BF70C0F26A00854211D945F63F50AD
:102B2000C0F2C600854240F2C38046F23F60C0F268
:102B3000031085423FF672AF0220BAE000206CE03D
:102B40000020B6E0E06840F00400852840F0CE8028
:102B5000FFF704FADBF80010054641F0800041F26F
:102B60008836CBF8000000BFDBF8000000053FF519
:102B70004EAEFFF7F3F9401BB0424FF00300F3D91C
:102B800050E100BF22F480304FF0B0463060306832
:102B9000002920F40010306000F01681FFF7DEF904
:102BA00005464FF0B04600BF306880033FF5F6ADF4
:102BB000FFF7D4F9401B64284FF00300F4D931E14A
:102BC00020F480703060FFF7C9F905463068400591
:102BD0007FF517AEFFF7C2F9401B02284FF0030044
:102BE000F4D91FE1FFF7BAF9DBF80010064621F02F
:102BF000800041F28837CBF8000000BFDBF80050BE
:102C0000FFF7ACF92905054640F18A80A81BB842B8
:102C10004FF00300F2D905E101204CF67C41C0F6EB
:102C2000000151F82070306820F007003843306010
:102C3000FFF794F9054600BF306800F00700B8427E
:102C400006D0FFF78BF9401B0228F5D94AE000BFF8
:102C50004FF0B040016841F0080101600168D4E91B
:102C6000092321F0F001194301605BF88C0C20F47A
:102C70007F4040EA02204BF88C0CFFF7A1FC5BF888
:102C8000881C3C2202EA910159F8011040F214021A
:102C9000B0FBF1F140F20400C2F200000068C2F2A1
:102CA00000021160FFF784F9002840F0BB8018E5AE
:102CB00001204CF67C41C0F6000151F820703068CC
:102CC00020F0070038433060FFF748F9054600BFA1
:102CD000306800F00700B842CFD0FFF73FF9401B43
:102CE0000228F5D9012001B0BDE8F08FFFF736F9D1
:102CF000DBF80010054621F0800041F28836CBF861
:102D0000000000BFDBF8000000057FF580ADFFF795
:102D100025F9401BB0424FF00300F3D982E000BF19
:102D2000DBF8000041F2883620F00100CBF800000B
:102D3000DBF8000080077FF56AADFFF70FF9401B55
:102D4000B0424FF00300F3D96CE000BF5BF8840C95
:102D500048F28C01C1F2C11104F1300708408ECF56
:102D6000D4E910650843104340EA03203843304358
:102D700028434BF8840C4FF0B045286840F0807031
:102D800028605BF8840C40F080504BF8840CFFF70F
:102D9000E5F804462868800111D4FFF7DFF8001B2E
:102DA0000A284FF00300F5D93CE000BF5BF8840C23
:102DB0004FF6FC71CEF6FE6108404BF8840C002003
:102DC00001B0BDE8F08F00BFFFF7C8F8054600BFAF
:102DD000306880037FF5E2ACFFF7C0F8401B642841
:102DE0004FF00300F4D91DE0E069DBF8041021F096
:102DF00010010843CBF80400DBF8040040F00100A8
:102E0000CBF80400FFF7AAF8054600BFDBF8040082
:102E100080073FF5F9ACFFF7A1F8401B11284FF0F0
:102E20000300F3D901B0BDE8F08F00007047000047
:102E30007047000010B542F65401C4F200010A6860
:102E40000446520604D5402088602046FFF7F0FF74
:102E5000012084F82D0010BD90F82C1001294FF0AE
:102E600002011FD080F82D1042F62401C4F20001A7
:102E7000CA220A6053220A6051F80C2C42F08002E8
:102E800041F80C2C40F68002C5F60002136843F4AA
:102E900080231360FF220A60012180F82D10002199
:102EA00080F82C10084670477047000070B542F655
:102EB0005C050446C4F2000555F8080C216B01EAD4
:102EC0000006F00706D1B0070BD4012084F82D00CE
:102ED00070BD00BF012028602046FFF7E5FFB00766
:102EE000F3D5022028602046FFF7A0FF012084F8D8
:102EF0002D0070BD002804BF0120704770B5044646
:102F000090F82D0028B9002084F82C00204600F00D
:102F100061F842F60C060220C4F2000684F82D0087
:102F20003068C00648D4CA20B0615320B061306810
:102F3000400612D4306840F080003060FFF70EF891
:102F40003168490609D40546FFF708F8401BB0F57B
:102F50007A7F37D830684006F6D5F0684FF6BF71F3
:102F6000CFF68F310840F060231D22690BCB104350
:102F7000A269F56810432843F06043EA014070609D
:102F80003068D4E9091220F4F85008431043306047
:102F9000204602F069FF18B1FF21B16170BD00BF8A
:102FA000F068D4E9071220F06040636910430843D9
:102FB0001843F060FF20B061012084F82D0000204C
:102FC00070BD00BF032084F82D003168FF21B1617E
:102FD00070BD000010B590B0044601A80430302147
:102FE000FDF7B6FB206842F60001C4F200018842FA
:102FF00002D010B010BD00BF4FF4803001904FF4EC
:1030000080700E9001A8FFF771F8002818BFFEF736
:1030100083FB5820C5F60000816B002241F400417B
:103020008163016841F4806101600068002100F45F
:1030300080600F900F980220FFF70AF80220FEF739
:10304000F5FF2A2000210022FFF702F82A20FEF7D0
:10305000EDFF10B010BD000090F82C30012B4FF0A8
:10306000020300F0FA802DE9F04742F6180C012423
:10307000C4F2000C80F82C4080F82D305CF80C3C39
:1030800003F4407ABAF5807F02D100228AE000BFC3
:10309000F2B14A69B2F1803F08D0B2F5000F05D015
:1030A000DCF800305B065CBF0023CB700B784F78F8
:1030B0008E781B04CD7843EA07230C6A334491F8D9
:1030C00024E043EA8553234343EA0E631A4369E04D
:1030D000DCF80020520605D44FF0000E81F803E022
:1030E00003E000BFCA784FEA825E0D784FF0CD084A
:1030F000A5F10A02D7B207FB08F7FF0A07EB87031F
:103100004E785FFA85F9A2EB43028C7802EB071246
:10311000B9F1090F88BF02F110055FFA85F9A6F130
:103120000A05EFB207FB08F7FF0A07EB8702F3B2C5
:10313000A5EB420202EB0712092B88BF02F1100631
:10314000A4F10A05F2B2EEB206FB08F6F60A06EBA7
:103150008607E3B2A5EB470505EB0615092B88BFEB
:1031600005F11004E3B291F824401202A4F10A051B
:10317000EEB206FB08F6F60A42EA094206EB8607BB
:103180001A44E3B2A5EB470505EB0615092B88BFEA
:1031900005F110040B6A4D6943EA0E032B431A43F1
:1031A00042EA0462CA23CCF80C305323CCF80C302A
:1031B0008B6ADCF80040B3F5807F0DD124F488538E
:1031C000CCF800300123BAF5807FCCF8443011D11F
:1031D000D1E906231A4310E024F40853CCF8003058
:1031E0000223BAF5807FCCF844300FD1D1E9062311
:1031F0001A430EE0CCF828208A69CCF82C200CF178
:1032000058034FF4885201240AE000BFCCF8302064
:103210008A69CCF834200CF15C034FF40852022484
:1032200049681960016B002321430163DCF8001039
:103230001143CCF8001040F68001C5F600010A6881
:1032400042F400320A60FF21CCF80C10012180F812
:103250002D1080F82C30BDE8F0471846704700006C
:103260002DE9F04381B0044690F82C0001284FF07E
:10327000020000F09280012384F82C3084F82D00A5
:1032800042B14878CA7891F80290000240EA0248B8
:1032900045E000BF48784FF0CD0CC20642BF00F0B9
:1032A000EF000A304870CA7891F80290A2F10A073C
:1032B000FEB206FB0CF6F60A06EB8605A7EB450701
:1032C000D3B207EB0617092B88BF07F11002A0F154
:1032D0000A07FEB206FB0CF6F60A06EB8605C3B239
:1032E000A7EB450707EB0617092B88BF07F110006E
:1032F000C0B2D2B2000240EA0248A9F10A02D3B237
:1033000003FB0CF3DB0A03EB83075FFA89F0A2EB04
:10331000470202EB0312092888BF02F1100942F6A6
:103320000C07C4F20007CA200E78B8615320B861B8
:103330003868400613D4386840F080003860FEF7E3
:103340000DFE396849060AD4054600BFFEF706FEA1
:10335000401BB0F57A7F17D838684006F6D55FFA7B
:1033600089F040EA0800710320F0C000084347F8E4
:10337000080C204602F078FDFF21B96150B9012008
:1033800084F82D00002005E0032084F82D00396822
:10339000FF21B961002184F82C1001B0BDE8F08351
:1033A0002DE9F04381B0044690F82C0001284FF03D
:1033B000020000F0B980884642F60C060121C4F2F2
:1033C000000684F82C1084F82D00CA20B061532028
:1033D000B06130681746400613D4306840F0800072
:1033E0003060FEF7BBFD316849060AD4054600BFD0
:1033F000FEF7B4FD401BB0F57A7F25D83068400653
:10340000F6D5306800F44070B0F5807F00F07F8022
:10341000F0683FB1400640460CD44FF0000E80F8F3
:1034200003E00AE04006404614D44FF0000E80F856
:1034300003E012E0C1784FEA815E43780178827838
:103440001B0243EA01434DE0032084F82D0030685D
:103450005DE000BFC1784FEA815E03784FF0CD0890
:10346000A3F10A095FFA89F101FB08F1C90A47785B
:1034700001EB8105A9EB45055FFA83FC05EB011122
:10348000A7F10A058278BCF1090F88BF01F110038A
:10349000E9B201FB08F1C90A5FFA83FC01EB810381
:1034A0005FFA87F9A5EB430303EB0111B9F1090FAB
:1034B00088BF01F11007F9B2A2F10A07FDB205FBBE
:1034C00008F50902ED0A41EA0C4305EB85015FFAB4
:1034D00082FCA7EB410101EB0511BCF1090F88BF8C
:1034E00001F11002D1B2194347F67F7241EA0E0191
:1034F000C0F27F02114046F80C1CF16821F48021D3
:10350000F160D0E90301F26808431043F0602046FF
:1035100002F0AAFCFF210028B16104BF012184F858
:103520002D10002184F82C1001B0BDE8F0830000BC
:1035300051B1012918BF70474FF4807040F2E0018B
:10354000C2F2000189680847802040F2E001C2F21F
:10355000000189680847000040F2E000C2F2000064
:1035600081684020084700002DE9F04182B087794A
:10357000012F02D14779012F04D1022002B0BDE80A
:10358000F08100BF067940F2904C40F2140EC5F66F
:10359000000C0127012EC2F2000E477127D1DEF880
:1035A000004004EB4404C4F34F340094DCF80040C2
:1035B00024F40044CCF80040009C013C0094009CA2
:1035C0007CB1009C013C0094009C54B1009C013CE7
:1035D0000094009C2CB1009C013C0094009C002CA9
:1035E000EAD1DCF8004044F40044CCF80040DEF8B6
:1035F0000040642504EB4404C4F34B446C43019441
:103600005CF87C4C019D5DB1019DA408013D0195D4
:103610005CF87C5C04EA5504E407F1D102E000BFE9
:1036200002248460DCF80040642624F40044CCF8D2
:103630000040DEF800500824C5EBC505C5F34C4535
:10364000C5F6010475430195019DFDB1019D013D44
:1036500001952568AD071BD4019DBDB1019D013DBC
:1036600001952568AD0713D4019D7DB1019D013DF4
:1036700001952568AD070BD4019D3DB1019D013D2C
:1036800001952568AD07DFD502E000BF0125856003
:103690002171DEF800106425C1EBC101C1F34C417A
:1036A00069430191019DFDB1019D013D0195256891
:1036B000ED071BD1019DBDB1019D013D019525681F
:1036C000ED0713D1019D7DB1019D013D0195256857
:1036D000ED070BD1019D3DB1019D013D019525688F
:1036E000ED07DFD002E000BF01258560656801912C
:1036F0000199F9B1019901390191216889071BD418
:103700000199B9B10199013901912168890713D44F
:10371000019979B1019901390191216889070BD487
:10372000019939B101990139019121688907DFD5E2
:1037300002E000BF0121816000212171DEF800104C
:103740006425C1EBC101C1F34C4169430191019969
:10375000F1B10199013901912168C9071AD1019983
:10376000B1B10199013901912168C90712D10199BB
:1037700071B10199013901912168C9070AD10199F3
:1037800031B10199013901912168C907DFD001E008
:10379000012181606168002B66D00021642501262B
:1037A0004FF0FF0807E000BF86606768013199426B
:1037B00002F8017B58D2DEF80070C7EBC707C7F3E9
:1037C0004C476F430197019FF7B1019F013F01975C
:1037D0002768BF0719D4019FB7B1019F013F019727
:1037E0002768BF0711D4019F77B1019F013F01975F
:1037F0002768BF0709D4019F37B1019F013F019797
:103800002768BF07DFD500E0866084F80480DEF813
:103810000070C7EBC707C7F34C476F430197019F81
:10382000002FC1D0019F013F01972768FF07BCD13E
:10383000019F002FB8D0019F013F01972768FF0724
:10384000B3D1019F002FAFD0019F013F019727689F
:10385000FF07AAD1019F002FA6D0019F013F01972A
:103860002768FF07DBD0A0E7DCF80010642241F4F2
:103870000041CCF80010DEF8001001EB4101C1F36B
:103880004B415143019100BF5CF87C1C019A5AB135
:10389000019A8908013A01925CF87C2C01EA5201F4
:1038A000C907F1D102E000BF0221816081680122D5
:1038B000002918BF0121827100224271084602B01E
:1038C000BDE8F0812DE9F04382B08779012F02D164
:1038D0004779012F04D1022002B0BDE8F08300BF78
:1038E000067940F2904C40F2140EC5F6000C012708
:1038F000012EC2F2000E477127D1DEF8004004EB22
:103900004404C4F34F340094DCF8004024F4004431
:10391000CCF80040009C013C0094009C7CB1009CD1
:10392000013C0094009C54B1009C013C0094009C1C
:103930002CB1009C013C0094009C002CEAD1DCF8E6
:10394000004044F40044CCF80040DEF80040642518
:1039500004EB4404C4F34B446C4301945CF87C4C8A
:10396000019D5DB1019DA408013D01955CF87C5C61
:1039700004EA5504E407F1D102E000BF02248460A8
:1039800001F0EF04843CB4FA84F464090471DCF8B7
:103990000040642624F40044CCF80040DEF80050D7
:1039A0000824C5EBC505C5F34C45C5F601047543B0
:1039B0000195019DF5B1019D013D01952568AD077A
:1039C0001AD4019DB5B1019D013D01952568AD0752
:1039D00012D4019D75B1019D013D01952568AD078A
:1039E0000AD4019D35B1019D013D01952568AD07C2
:1039F000DFD501E0012585602171DEF800506427E4
:103A0000C5EBC506C6F34C467E430196019EFEB14A
:103A1000019E013E01962668F6071BD1019EBEB1AC
:103A2000019E013E01962668F60713D1019E7EB1E4
:103A3000019E013E01962668F6070BD1019E3EB11C
:103A4000019E013E01962668F607DFD002E000BF26
:103A5000012686606668002B68D000264FF0640956
:103A60004FF0010806E000BFC0F808800136676823
:103A70009E425BD0C5EBC505975DC5F34C4505FB84
:103A800009F50195019DFDB1019D013D0195256857
:103A9000AD071BD4019DBDB1019D013D0195256878
:103AA000AD0713D4019D7DB1019D013D01952568B0
:103AB000AD070BD4019D3DB1019D013D01952568E8
:103AC000AD07DFD502E000BFC0F808802771DEF83F
:103AD0000050C5EBC507C7F34C4707FB09F7019733
:103AE000019F002FC0D0019F013F01972768FF076A
:103AF000BCD1019F002FB7D0019F013F01972768DC
:103B0000FF07B3D1019F002FAED0019F013F019766
:103B10002768FF07AAD1019F002FA5D0019F013F71
:103B200001972768FF07DBD0A0E700BFDCF8002083
:103B3000842942F40042CCF800201BD0DEF80010AB
:103B4000642201EB4101C1F34B415143019100BF9C
:103B50005CF87C1C019A5AB1019A8908013A0192D9
:103B60005CF87C2C01EA5201C907F1D102E000BFE8
:103B70000221816081680122002918BF0121827120
:103B800000224271084602B0BDE8F08340F2E00036
:103B9000C2F20000816820200847000040F2E000E7
:103BA000C2F2000081681020084700002DE9F041B2
:103BB00082B0044600200DF10605ADF8060020464F
:103BC00012212A460223FFF7CFFC9DF907709DF8CA
:103BD0000680204602212A460223FEB2FFF772FE2B
:103BE000F80721D1B00724D4700727D430072AD48E
:103BF000F0062DD4B00630D4700633D4B7F1FF3FB1
:103C000036DD5FEA887002D5204600F057FD5FEA96
:103C100048605CBF02B0BDE8F081204602B0BDE85C
:103C2000F04100F0C1B800BF204600F057FDB007DA
:103C3000DAD5204600F03AFD7007D7D5204600F0CF
:103C4000D5F83007D4D5204600F040FDF006D1D598
:103C50002046FFF7A3FFB006CED52046FFF796FF1C
:103C60007006CBD52046FFF777FCB7F1FF3FC8DCE5
:103C700008F001012046FFF75BFC5FEA8870C3D4BF
:103C8000C5E70000002804BF0120704770B582B06E
:103C9000867994250446032EC5F6000501D0002E32
:103CA0004ED100206071204600F086F840F690006A
:103CB000C5F600000168002E41F4805101603FD13B
:103CC0000220A0712868642120F40040286040F29E
:103CD0001400C2F200000068C0EBC000C0F34C400A
:103CE000484301900198002848D00198013801907C
:103CF0002868400418D5019800283FD00198013861
:103D00000190286840040FD50198B8B30198013894
:103D100001902868400407D5019878B301980138CC
:103D2000019028684004DDD4D5F8FC0340F400403D
:103D3000C5F8FC03D5F8740340F40060C5F87403BB
:103D40004FF400600021C5F88403C5F60101206826
:103D50000A6840F4417022F040020A6008604FF4A3
:103D6000B8504860086840F04000086001202071A9
:103D70000020A0600121A17102B070BD0120A060EF
:103D8000D5F8FC1341F40041C5F8FC13D5F87413C1
:103D900041F40061C5F874134FF40061C5F8841351
:103DA0000121A17102B070BD40F2E000C2F200003A
:103DB00081684FF48040084780B582B06420C5F622
:103DC00000000168002241F001010160006800214B
:103DD00000F00100019001983220FEF739F93220FD
:103DE00002B0BDE88040FEF721B9000040F2E000DB
:103DF000C2F2000081680420084700002DE9F0416C
:103E000082B08779012F02D14779012F04D1022096
:103E100002B0BDE8F08100BF067940F2904C40F25C
:103E2000140EC5F6000C0127012EC2F2000E4771D8
:103E300027D1DEF8004004EB4404C4F34F3400946F
:103E4000DCF8004024F40044CCF80040009C013C25
:103E50000094009C7CB1009C013C0094009C54B1F7
:103E6000009C013C0094009C2CB1009C013C0094FF
:103E7000009C002CEAD1DCF8004044F40044CCF86B
:103E80000040DEF80040642504EB4404C4F34B44D6
:103E90006C4301945CF87C4C019D5DB1019DA408CC
:103EA000013D01955CF87C5C04EA5504E407F1D11E
:103EB00002E000BF02248460DCF80040642624F4A1
:103EC0000044CCF80040DEF800500824C5EBC505DE
:103ED000C5F34C45C5F6010475430195019DFDB13F
:103EE000019D013D01952568AD071BD4019DBDB124
:103EF000019D013D01952568AD0713D4019D7DB15C
:103F0000019D013D01952568AD070BD4019D3DB193
:103F1000019D013D01952568AD07DFD502E000BF99
:103F2000012585601E252571DEF800506426C5EB4D
:103F3000C505C5F34C4575430195019EF6B1019E3B
:103F4000013E01962668F6071AD1019EB6B1019E80
:103F5000013E01962668F60712D1019E76B1019EB8
:103F6000013E01962668F6070AD1019E36B1019EF0
:103F7000013E01962668F607DFD001E00126866043
:103F800066680195019DFDB1019D013D0195256882
:103F9000AD071BD4019DBDB1019D013D0195256873
:103FA000AD0713D4019D7DB1019D013D01952568AB
:103FB000AD070BD4019D3DB1019D013D01952568E3
:103FC000AD07DFD502E000BF012585602171DEF875
:103FD00000106425C1EBC101C1F34C41694301915B
:103FE000019DFDB1019D013D01952568ED071BD1A6
:103FF000019DBDB1019D013D01952568ED0713D1DE
:10400000019D7DB1019D013D01952568ED070BD115
:10401000019D3DB1019D013D01952568ED07DFD072
:1040200002E000BF01258560656801910199F9B141
:10403000019901390191216889071BD40199B9B10E
:104040000199013901912168890713D4019979B146
:10405000019901390191216889070BD4019939B17E
:1040600001990139019121688907DFD502E000BF7C
:104070000121816000212171DEF800106425C1EB6F
:10408000C101C1F34C41694301910199F1B1019919
:10409000013901912168C9071AD10199B1B101997A
:1040A000013901912168C90712D1019971B10199B2
:1040B000013901912168C9070AD1019931B10199EA
:1040C000013901912168C907DFD001E00121816038
:1040D0006168002B66D00021642501264FF0FF089F
:1040E00007E000BF866067680131994202F8017BF2
:1040F00058D2DEF80070C7EBC707C7F34C476F43D1
:104100000197019FF7B1019F013F01972768BF0702
:1041100019D4019FB7B1019F013F01972768BF07DD
:1041200011D4019F77B1019F013F01972768BF0715
:1041300009D4019F37B1019F013F01972768BF074D
:10414000DFD500E0866084F80480DEF80070C7EBFD
:10415000C707C7F34C476F430197019F002FC1D09A
:10416000019F013F01972768FF07BCD1019F002FE6
:10417000B8D0019F013F01972768FF07B3D1019F86
:10418000002FAFD0019F013F01972768FF07AAD1F9
:10419000019F002FA6D0019F013F01972768FF07CD
:1041A000DBD0A0E7DCF80010642241F40041CCF839
:1041B0000010DEF8001001EB4101C1F34B41514307
:1041C000019100BF5CF87C1C019A5AB1019A8908E0
:1041D000013A01925CF87C2C01EA5201C907F1D145
:1041E00002E000BF0221816081680122002918BF1E
:1041F0000121827100224271084602B0BDE8F081BF
:104200002DE9F04182B08779012F02D14779012F42
:1042100004D1022002B0BDE8F08100BF067940F26F
:10422000904C40F2140EC5F6000C0127012EC2F28C
:10423000000E477127D1DEF8004004EB4404C4F3BC
:104240004F340094DCF8004024F40044CCF80040E3
:10425000009C013C0094009C7CB1009C013C0094BB
:10426000009C54B1009C013C0094009C2CB1009C2B
:10427000013C0094009C002CEAD1DCF8004044F49E
:104280000044CCF80040DEF80040642504EB440410
:10429000C4F34B446C4301945CF87C4C019D5DB1CC
:1042A000019DA408013D01955CF87C5C04EA55047D
:1042B000E407F1D102E000BF02248460DCF8004092
:1042C000642624F40044CCF80040DEF800500824B2
:1042D000C5EBC505C5F34C45C5F60104754301950D
:1042E000019DFDB1019D013D01952568AD071BD4E0
:1042F000019DBDB1019D013D01952568AD0713D418
:10430000019D7DB1019D013D01952568AD070BD44F
:10431000019D3DB1019D013D01952568AD07DFD5AA
:1043200002E000BF012585601D252571DEF80050E3
:104330006426C5EBC505C5F34C4575430195019E43
:10434000F6B1019E013E01962668F6071AD1019E3C
:10435000B6B1019E013E01962668F60712D1019E74
:1043600076B1019E013E01962668F6070AD1019EAC
:1043700036B1019E013E01962668F607DFD001E0C6
:104380000126866066680E0A0195019DF5B1019DC2
:10439000013D01952568AD071AD4019DB5B1019D78
:1043A000013D01952568AD0712D4019D75B1019DB0
:1043B000013D01952568AD070AD4019D35B1019DE8
:1043C000013D01952568AD07DFD501E00125856038
:1043D0002671DEF800506426C5EBC505C5F34C45D3
:1043E00075430195019EFEB1019E013E019626682E
:1043F000F6071BD1019EBEB1019E013E01962668C3
:10440000F60713D1019E7EB1019E013E01962668FA
:10441000F6070BD1019E3EB1019E013E0196266832
:10442000F607DFD002E000BF0126866066680195CE
:10443000019DFDB1019D013D01952568AD071BD48E
:10444000019DBDB1019D013D01952568AD0713D4C6
:10445000019D7DB1019D013D01952568AD070BD4FE
:10446000019D3DB1019D013D01952568AD07DFD559
:1044700002E000BF012585602171DEF8001064258F
:10448000C1EBC101C1F34C4169430191019DFDB1F3
:10449000019D013D01952568ED071BD1019DBDB131
:1044A000019D013D01952568ED0713D1019D7DB169
:1044B000019D013D01952568ED070BD1019D3DB1A1
:1044C000019D013D01952568ED07DFD002E000BFA9
:1044D00001258560656801910199F9B1019901395A
:1044E0000191216889071BD40199B9B1019901395A
:1044F00001912168890713D4019979B10199013992
:104500000191216889070BD4019939B101990139C9
:10451000019121688907DFD502E000BF0121816098
:1045200000212171DEF800106425C1EBC101C1F347
:104530004C41694301910199F1B10199013901910E
:104540002168C9071AD10199B1B1019901390191C5
:104550002168C90712D1019971B1019901390191FD
:104560002168C9070AD1019931B101990139019135
:104570002168C907DFD001E0012181606168002B5B
:1045800066D00021642501264FF0FF0807E000BF38
:10459000866067680131994202F8017B58D2DEF8E3
:1045A0000070C7EBC707C7F34C476F430197019FE4
:1045B000F7B1019F013F01972768BF0719D4019FF9
:1045C000B7B1019F013F01972768BF0711D4019F31
:1045D00077B1019F013F01972768BF0709D4019F69
:1045E00037B1019F013F01972768BF07DFD500E082
:1045F000866084F80480DEF80070C7EBC707C7F355
:104600004C476F430197019F002FC1D0019F013F8D
:1046100001972768FF07BCD1019F002FB8D0019FE9
:10462000013F01972768FF07B3D1019F002FAFD04B
:10463000019F013F01972768FF07AAD1019F002F23
:10464000A6D0019F013F01972768FF07DBD0A0E7B5
:10465000DCF80010642241F40041CCF80010DEF8D0
:10466000001001EB4101C1F34B415143019100BFE7
:104670005CF87C1C019A5AB1019A8908013A0192AE
:104680005CF87C2C01EA5201C907F1D102E000BFBD
:104690000221816081680122002918BF01218271F5
:1046A00000224271084602B0BDE8F08140F2E0000D
:1046B000C2F20000816802200847000040F2E000DA
:1046C000C2F2000081684FF40070084740F2E00039
:1046D000C2F20000816808200847000040F2E000B4
:1046E000C2F2000081680120084700002DE9F04176
:1046F00082B08779012F02D14779012F04D102209E
:1047000002B0BDE8F08100BF067940F2904C40F263
:10471000140EC5F6000C0127012EC2F2000E4771DF
:1047200027D1DEF8004004EB4404C4F34F34009476
:10473000DCF8004024F40044CCF80040009C013C2C
:104740000094009C7CB1009C013C0094009C54B1FE
:10475000009C013C0094009C2CB1009C013C009406
:10476000009C002CEAD1DCF8004044F40044CCF872
:104770000040DEF80040642504EB4404C4F34B44DD
:104780006C4301945CF87C4C019D5DB1019DA408D3
:10479000013D01955CF87C5C04EA5504E407F1D125
:1047A00002E000BF02248460DCF80040642624F4A8
:1047B0000044CCF80040DEF800500824C5EBC505E5
:1047C000C5F34C45C5F6010475430195019DFDB146
:1047D000019D013D01952568AD071BD4019DBDB12B
:1047E000019D013D01952568AD0713D4019D7DB163
:1047F000019D013D01952568AD070BD4019D3DB19B
:10480000019D013D01952568AD07DFD502E000BFA0
:10481000012585600E252571DEF800506426C5EB64
:10482000C505C5F34C4575430195019EF6B1019E42
:10483000013E01962668F6071AD1019EB6B1019E87
:10484000013E01962668F60712D1019E76B1019EBF
:10485000013E01962668F6070AD1019E36B1019EF7
:10486000013E01962668F607DFD001E0012686604A
:1048700066680195019DFDB1019D013D0195256889
:10488000AD071BD4019DBDB1019D013D019525687A
:10489000AD0713D4019D7DB1019D013D01952568B2
:1048A000AD070BD4019D3DB1019D013D01952568EA
:1048B000AD07DFD502E000BF012585602171DEF87C
:1048C00000106426C1EBC105C5F34C457543019545
:1048D000019DFDB1019D013D01952568ED071BD1AD
:1048E000019DBDB1019D013D01952568ED0713D1E5
:1048F000019D7DB1019D013D01952568ED070BD11D
:10490000019D3DB1019D013D01952568ED07DFD079
:1049100002E000BF012585606568002B62D000259C
:1049200064264FF0010805E0C0F80880013567688B
:104930009D4257D0C1EBC101575DC1F34C4171435A
:1049400001910199F1B1019901390191216889071A
:104950001AD40199B1B101990139019121688907EE
:1049600012D4019971B10199013901912168890726
:104970000AD4019931B1019901390191216889075E
:10498000DFD501E0C0F808802771DEF80010C1EB28
:10499000C107C7F34C4777430197019F002FC3D04E
:1049A000019F013F01972768FF07BFD1019F002F9B
:1049B000BAD0019F013F01972768FF07B6D1019F39
:1049C000002FB1D0019F013F01972768FF07ADD1AC
:1049D000019F002FA8D0019F013F01972768FF0783
:1049E000DBD0A3E7DCF80010642241F40041CCF8EE
:1049F0000010DEF8001001EB4101C1F34B415143BF
:104A0000019100BF5CF87C1C019A5AB1019A890897
:104A1000013A01925CF87C2C01EA5201C907F1D1FC
:104A200002E000BF0221816081680122002918BFD5
:104A30000121827100224271084602B0BDE8F08176
:104A40002DE9F04182B08779012F55D147794FF098
:104A5000020C012F52D00127477180F806C0077958
:104A600040F2904C40F2140EC5F6000C012FC2F239
:104A7000000E28D1DEF8004004EB4404C4F34F34A8
:104A80000094DCF8004024F40044CCF8004000BF5F
:104A9000009C013C0094009C7CB1009C013C009473
:104AA000009C54B1009C013C0094009C2CB1009CE3
:104AB000013C0094009C002CEAD1DCF8004044F456
:104AC0000044CCF80040DEF80040642504EB4404C8
:104AD000C4F34B446C4301945CF87C4C019D8DB154
:104AE000019DA408013D01955CF87C5C04EA550435
:104AF000E407F1D108E000BF4FF0020C604602B0BD
:104B0000BDE8F08102248460DCF80040642624F4CF
:104B10000044CCF80040DEF800500824C5EBC50581
:104B2000C5F34C45C5F6010475430195019DFDB1E2
:104B3000019D013D01952568AD071BD4019DBDB1C7
:104B4000019D013D01952568AD0713D4019D7DB1FF
:104B5000019D013D01952568AD070BD4019D3DB137
:104B6000019D013D01952568AD07DFD502E000BF3D
:104B7000012585600D252571DEF800506426C5EB02
:104B8000C505C5F34C4575430195019EF6B1019EDF
:104B9000013E01962668F6071AD1019EB6B1019E24
:104BA000013E01962668F60712D1019E76B1019E5C
:104BB000013E01962668F6070AD1019E36B1019E94
:104BC000013E01962668F607DFD001E001268660E7
:104BD00066680E0A0195019DF5B1019D013D0195A3
:104BE0002568AD071AD4019DB5B1019D013D019520
:104BF0002568AD0712D4019D75B1019D013D019558
:104C00002568AD070AD4019D35B1019D013D01958F
:104C10002568AD07DFD501E0012585602671DEF846
:104C200000506426C5EBC505C5F34C457543019599
:104C3000019EFEB1019E013E01962668F6071BD13A
:104C4000019EBEB1019E013E01962668F60713D172
:104C5000019E7EB1019E013E01962668F6070BD1AA
:104C6000019E3EB1019E013E01962668F607DFD007
:104C700002E000BF0126866066680195019DFDB1D6
:104C8000019D013D01952568AD071BD4019DBDB176
:104C9000019D013D01952568AD0713D4019D7DB1AE
:104CA000019D013D01952568AD070BD4019D3DB1E6
:104CB000019D013D01952568AD07DFD502E000BFEC
:104CC000012585602171DEF800106426C1EBC10565
:104CD000C5F34C4575430195019DFDB1019D013D15
:104CE00001952568ED071BD1019DBDB1019D013DD9
:104CF00001952568ED0713D1019D7DB1019D013D11
:104D000001952568ED070BD1019D3DB1019D013D48
:104D100001952568ED07DFD002E000BF0125856021
:104D20006568002B62D0002564264FF0010805E07D
:104D3000C0F80880013567689D4257D0C1EBC101BA
:104D4000575DC1F34C41714301910199F1B1019952
:104D500001390191216889071AD40199B1B10199EA
:104D6000013901912168890712D4019971B1019922
:104D700001390191216889070AD4019931B101995A
:104D80000139019121688907DFD501E0C0F8088069
:104D90002771DEF80010C1EBC107C7F34C4777431A
:104DA0000197019F002FC3D0019F013F0197276802
:104DB000FF07BFD1019F002FBAD0019F013F01978C
:104DC0002768FF07B6D1019F002FB1D0019F013F97
:104DD00001972768FF07ADD1019F002FA8D0019F41
:104DE000013F01972768FF07DBD0A3E7DCF800103D
:104DF000642241F40041CCF80010DEF8001001EB11
:104E00004101C1F34B415143019100BF5CF87C1C4F
:104E1000019A5AB1019A8908013A01925CF87C2CF6
:104E200001EA5201C907F1D102E000BF022181600D
:104E3000D0F808C00121BCF1000F18BF4FF0010CE1
:104E4000817100214171604602B0BDE8F08100002F
:104E5000411E0020B0EB116F1CBF012070474EF2C5
:104E60001002CEF2000251604EF62351CEF2000144
:104E7000F0230B70072190601160704790F8841048
:104E8000012904BF022070472421C0F8881001685E
:104E90000A680B6822F0005223F001030B60002324
:104EA00043660A602021C0F8881080F88430002012
:104EB0007047000090F88410012904BF0220704759
:104EC000012180F8841000BF016851E8001F0268CA
:104ED00041F0020142E80013DBB1016851E8001F14
:104EE000026841F0020142E8001393B1016851E801
:104EF000001F026841F0020142E800134BB1016853
:104F000051E8001F026841F0020142E80013002B43
:104F1000DAD1002180F8841000207047704700002B
:104F20007047000090F88420012A04BF02207047D7
:104F3000B0B52422C0F888200268D0F864E0D2F826
:104F400000C01368BEF1000F23F0010313609368E3
:104F500023F0606341EA0301916019D0936891687E
:104F60004CF6EC6E490FC0F6000E4CF6F4651EF8D8
:104F70000140C0F60005695CC3F34263E400B4FB82
:104F8000F1F11EF80340EB5CE500B5FBF3F301E043
:104F900001210123A0F86A102021A0F86830C2F88E
:104FA00000C0C0F88810002180F884100020B0BD37
:104FB00090F88420012A04BF02207047B0B5242253
:104FC000C0F888200268D0F864E0D2F800C0136806
:104FD000BEF1000F23F001031360936823F06043D8
:104FE00041EA0301916019D0936891684CF6EC6E28
:104FF000490FC0F6000E4CF6F4651EF80140C0F6ED
:105000000005695CC3F34263E400B4FBF1F11EF8F0
:105010000340EB5CE500B5FBF3F301E00121012364
:10502000A0F86A102021A0F86830C2F800C0C0F8CB
:105030008810002180F884100020B0BDB0B582B087
:10504000044690F88400012802D1022002B0B0BDCD
:10505000012084F884002420C4F8880020680368B4
:1050600023F001030360836823F4401343EA010340
:10507000836051B9416893B221F010011943416036
:105080004168120C62F31F614160016841F0010147
:105090000160FCF763FF03466FF07E4000902046FE
:1050A0004FF480010022002505F080FD20B103208F
:1050B00084F8845002B0B0BD2020C4F888000020DD
:1050C00084F8845002B0B0BD704700007047000003
:1050D0007047000070B5026840F62F04D36911686C
:1050E00096681C40202C0BD101F0200406F080555E
:1050F0002D1916D0416F61B3BDE87040084700BF5D
:1051000040F60F052B420CD00125C1F2000506EA3E
:10511000050C40F22015C0F200450D4015EB0C05C2
:1051200024D1C46EDD0615D5012C13D111F0100564
:1051300010D0102111629168490661D4B0F85C105A
:10514000B0F85E20B0F85E30002B18BF914240F0FE
:105150003F8270BDDD0215D516F4800512D04FF4E4
:1051600080111162BDE87040FFF7B0BFDD0718BFC6
:1051700011F4807540F00E819D0706F0010E00F1DC
:1051800015811EE11A0606D501F0800206F400061C
:10519000921940F09D825A0640F1F08011F04002D1
:1051A00000F0EC80016851E8001F026821F0400126
:1051B00042E80013DBB1016851E8001F026821F0EA
:1051C000400142E8001393B1016851E8001F0268F2
:1051D00021F0400142E800134BB1016851E8001F83
:1051E000026821F0400142E80013002BDAD12021AF
:1051F000C0F8881000218167BDE8704000F07EBCD7
:10520000D0F8801009684A6893B2002BA1D0B0F89A
:105210005C60B3429DD2A0F85E200968890600F167
:10522000A180016851E8001F026821F4807142E802
:105230000013DBB1016851E8001F026821F480719E
:1052400042E8001393B1016851E8001F026821F49D
:10525000807142E800134BB1016851E8001F0268F9
:1052600021F4807142E80013002BDAD1016851E883
:10527000021F026821F0010142E80213BBB301687A
:1052800051E8021F026821F0010142E8021373B3E2
:10529000016851E8021F026821F0010142E802138F
:1052A0002BB3016851E8021F026821F0010142E8B6
:1052B0000213002BDAD11AE0016851E8021F0268DC
:1052C00021F0400142E80213DBB1016851E8021FFE
:1052D000026821F0400142E8021393B1016851E8ED
:1052E000021F026821F0400142E802134BB101683D
:1052F00051E8021F026821F0400142E80213002B2E
:10530000DAD12021C0F88C100021C166016851E873
:10531000001F026821F0100142E80013DBB10168B0
:1053200051E8001F026821F0100142E8001393B118
:10533000016851E8001F026821F0100142E80013E3
:105340004BB1016851E8001F026821F0100142E8EA
:105350000013002BDAD1D0F8801004460846FCF781
:10536000E1F9204602210167B0F85C10B0F85E2038
:10537000891A89B2BDE87040FFF7D0BD1A0240F12A
:10538000B38111F0804200F0AF81BDE87040FFF7BB
:105390009BBE00BF01251562D0F8905045F0010575
:1053A000C0F890509D0706F0010E0AD5BEF1000F1F
:1053B00007D002241462D0F8904044F00404C0F8EE
:1053C00090405C070AD5BEF1000F07D00425156296
:1053D000D0F8905045F00205C0F890501D070CD54C
:1053E00001F0200555EA0C0507D008251562D0F814
:1053F000905045F00805C0F890501D050BD511F0F0
:10540000806508D04FF400651562D0F8905045F0E3
:105410002005C0F89050D0F89050002D3FF499AE80
:105420009B060BD501F0200106F08053C91805D06A
:10543000416F19B10446884722682046D0F8901081
:10544000926801F0280102F04002891806D1044652
:10545000FFF73EFE0020C4F8900070BD016851E8DF
:10546000001F026821F4907142E80013DBB101686B
:1054700051E8001F026821F4907142E8001393B1D3
:10548000016851E8001F026821F4907142E800139E
:105490004BB1016851E8001F026821F4907142E8A5
:1054A0000013002BDAD14FF6FE71CEF6FF7100BF6C
:1054B000026852E8022F03680A4043E80226C6B198
:1054C000026852E8022F03680A4043E8022686B1C8
:1054D000026852E8022F03680A4043E8022646B1F8
:1054E000026852E8022F03680A4043E80226002EB1
:1054F000DED1C16E012924D1016851E8001F026884
:1055000021F0100142E80013DBB1016851E8001FEF
:10551000026821F0100142E8001393B1016851E8DC
:10552000001F026821F0100142E800134BB101682E
:1055300051E8001F026821F0100142E80013002B1F
:10554000DAD12021C0F88C100021C16602684167C1
:105550009168490640F1C480016851E8021F026861
:1055600021F0400142E80213DBB1016851E8021F5B
:10557000026821F0400142E8021393B1016851E84A
:10558000021F026821F0400142E802134BB101689A
:1055900051E8021F026821F0400142E80213002B8B
:1055A000DAD1D0F88010002900F09A8049F6A522BF
:1055B000C0F60002044608468A63FCF7F1F80028AA
:1055C0003FF4C7ADD4F88000816BBDE87040084758
:1055D000891A00BF026852E8002F036822F4907213
:1055E00043E80026DEB1026852E8002F036822F487
:1055F000907243E8002696B1026852E8002F0368D3
:1056000022F4907243E800264EB1026852E8002F5F
:10561000036822F4907243E80026002EDAD14FF698
:10562000FE72CEF6FF7200BF036853E8023F0668C1
:10563000134046E80235C5B1036853E8023F0668E7
:10564000134046E8023585B1036853E8023F066817
:10565000134046E8023545B1036853E8023F066847
:10566000134046E80235002DDED12022C0F88C2000
:105670000022C266426700BF026852E8002F03683A
:1056800022F0100243E80026DEB1026852E8002F43
:10569000036822F0100243E8002696B1026852E83F
:1056A000002F036822F0100243E800264EB1026882
:1056B00052E8002F036822F0100243E80026002E73
:1056C000DAD1022289B20267BDE87040FFF726BC3A
:1056D000816F00293FF43DADBDE87040084700BF31
:1056E000BDE87040FFF7F4BCDA017FF532ADB1F1EF
:1056F000FF3FC8BF70BDBDE87040FFF711BC0000A0
:10570000002804BF01207047B0B582B00446D0F82D
:10571000880028B9002084F88400204600F07CF836
:105720002420C4F888002068016821F0010101608C
:10573000204604F0DDFF18B1012002B0B0BD00BF6B
:10574000A06A10B1204604F039F92068416821F4BC
:1057500090414160816821F02A018160016841F037
:10576000010101600020C4F89000FCF7F7FB2168FC
:1057700005460A68120710D56FF07E4C20464FF49C
:10578000001100222B46CDF800C005F00FFA18B129
:10579000032002B0B0BD00BF2168086840070FD5E4
:1057A0006FF07E4C20464FF4800100222B46CDF84E
:1057B00000C005F0FBF918B1032002B0B0BD00BF76
:1057C0002020C4F88800C4F88C000020E066206720
:1057D00084F8840002B0B0BD10B50446006843F6FA
:1057E0000001C4F20101884218BF10BD6020C5F657
:1057F0000000016821F48041016040F20040C4F6DD
:105800000000C021FCF718FAE06FFCF713F8242021
:10581000BDE81040FCF7F4BBB0B594B004460020DE
:105820001290CDE91000CDE90E0068460830302115
:10583000FAF78EFF206843F60001C4F201018842A6
:1058400002D014B0B0BD00BF012000900220C0F211
:10585000030001906846FCF749FC002818BFFBF7DD
:105860005BFF4C20C5F600004169002541F48041F2
:105870004161416901F4804113911399016841F03C
:105880000201016000680EA900F002001390139855
:10589000C0200E9002200F900720129040F200408E
:1058A000C4F60000CDE91055FCF784FA40F64C1020
:1058B0005821C2F20000C4F20201122210234FF05C
:1058C000800C80E82E104FF40051C0E90555C561E9
:1058D0000162FCF78DF8002818BFFBF71DFF40F6AA
:1058E0004C15C2F2000528461021FBF791FF002855
:1058F00018BFFBF711FF242000210022E567AC62EE
:10590000FCF7A6FB2420FCF791FB14B0B0BD00000F
:10591000D0F88C30202B07D100294FF0010318BF9D
:10592000002A05D11846704702231846704700BF69
:1059300080B50023C366D0F800C048F20003C4F26B
:1059400000039C4503D0DCF804301B0204D404F0AF
:10595000FBFF002080BD00BF036853E800CFD0F8F4
:1059600000E04CF080634EE8003CBCF1000FEED04C
:10597000036853E800CFD0F800E04CF080634EE8B5
:10598000003CBCF1000FE2D0036853E800CFD0F830
:1059900000E04CF080634EE8003CBCF1000FD6D034
:1059A000036853E800CFD0F800E04CF080634EE885
:1059B000003CBCF1000FCFD1C9E70000016843F6FD
:1059C0000002C4F20102914218BF704740F29001F8
:1059D000C2F200014B6813B1D0F8901031B140F21F
:1059E0009001C2F200010122FFF792BF10B540F210
:1059F0009001C2F2000104460846012100229847A6
:105A00002046BDE8104040F29001C2F200010122A0
:105A1000FFF77EBFD0F88830202B09D194460029AB
:105A20004FF0010218BFBCF1000F05D110467047BE
:105A300002221046704700BFB0B500222123016545
:105A4000A0F854C0A0F856C0C0F89020C0F8883024
:105A5000C36F2BB349F6B525C0F6000549F691444E
:105A600049F6415E5D630568C0F60004C0F6000EAD
:105A7000C3E90B4E9A6305F12802044618466346B3
:105A8000FCF74EF80146204651B11021C0F89010A5
:105A90002021C0F888100122BDE8B04010467047B0
:105AA000016840220A6200BF016851E8021F0268D3
:105AB00041F0800142E80213DBB1016851E8021FA6
:105AC000026841F0800142E8021393B1016851E895
:105AD000021F026841F0800142E802134BB10168E5
